:020000040000FA
:06000000020A030201BE2A
:03002B0002084E7A
:03004300020703AE
:030053000200EFB9
:100083000201530101FF01010503010F10FEFFFFF0
:1000930012FF12FF12FF12BB11B511FF12F621005E
:1000A3000000001C23000000000C0000000C0001F5
:1000B300FFFF0102003D07000000B007E8036400F2
:1000C3006400B80102020020000005020701051EBA
:1000D30002051E020A0A03B80B02803E010201FF59
:1000E300FF0A1401E096511800020206C0E074F200
:1000F3001203D7A2AFE433FED2AFE5A7FFE5A1F524
:10010300085F54106006121A2575A1EFE5085F54C5
:10011300086008121A2B75A1F7802BEFA2E0C0D05C
:10012300E508A2E092F012093D158182F050179084
:100133006198E0F8900C8BE0C398A2D265D033505D
:1001430002E8F075A1FEEEA2E092AF7F0102043651
:10015300C0E074F21203D7A2AFE433FED2AF9061D2
:10016300A4E0F8759B00E59158540860087591F771
:10017300121A73802AE59158541060087591EF1292
:100183001A79801BE8A2E0C0D0E591A2E092F012B8
:10019300093D158182F05007E0C2E0F0121BC990BF
:1001A30061A3E0F8E5E9585404600E121B9F75E95A
:1001B300FB906193E0A2E640F2808BC0E074F21200
:1001C30003D7A2AFE433FED2AF9061A5E0F8E5BF59
:1001D300585404600675BFFB121BE1020149C3E4D6
:1001E30098F8E499F91202228026C3E49AFAE49B70
:1001F300FBE920E7E9120222E498F8E499F922C323
:10020300E498F8E499F9120222E498F8E499F9C31E
:10021300E49AFAE49BFB22EB20E7CFE920E7E0B97D
:100223000010BB0008E88AF084F8AAF022E4FBC8B7
:10023300FA22EB70227B10C833C8C933C933500785
:10024300C39AC3DBF280069A50012ADBEAC833F46F
:10025300C8C933F4C9FA2275F008E4C833C8C933EE
:10026300C933C99AC99B5004C92AC93BD5F0ECFBD1
:10027300C833F4C8E4C9FA22080808EAC0E0EBC0AE
:10028300E086F0E7A4FA180986F0E7A42AFA180929
:1002930086F0E7A42AFA180986F0E7A42AFA198651
:1002A300F0E7A4FBE5F02AFA190886F0E7A42BFB94
:1002B300E5F03AFA190886F0E7A42BFBE5F03AFAE1
:1002C30018180986F0E7A4C5F02BFBE43AFA1908DD
:1002D300E7C5F0C6A426F6E5F03BFBE43AFA188638
:1002E300F0E7A4F6E5F00826F6E43B08F6E43A085E
:1002F300F6D0E0FBD0E0FA22E4CFC0E0E4CEC0E0E9
:10030300E4CDC0E0E4CCC0E075F020C3E633F608EA
:10031300E633F608E633F608E633F6181818EC3336
:10032300FCED33FDEE33FEEF33FFC3EC9709ED979E
:1003330009EE9709EF97191919400FFFEC97FC097C
:10034300ED97FD09EE97FE191906D5F0BEECF709F6
:10035300EDF709EEF709EFF7191919D0E0FCD0E032
:10036300FDD0E0FED0E0FF222518C582C0E0E519EC
:1003730034FFC583C0E0E518C3958224F810AF08A5
:100383008583198582188008858319858218D2AFE1
:10039300CEF0A3E520F0A37808E608F0A3DEFAEF99
:1003A300F0A3E58124FAF8E608F0A3E608F0A3E653
:1003B30008F0A30808E608F0A3E608F0A3158115E2
:1003C30081D0E0FED0E0F8158115811581E8C0E009
:1003D300EEC0E022C0D02518C582C0E0E51934FF85
:1003E300C583C0E0E518C3958224F310AF08858365
:1003F300198582188008858319858218D2AFC8F0C1
:10040300A3E9F0A3EAF0A3EBF0A37908E709F0A3CB
:10041300D8FAECF0A3EDF0A3EEF0A3EFF0A3D0E055
:10042300F0A3D0E0F0A3D0E0F0A3E520F0A3E5F043
:10043300F0A322851983851882E0C0E0A3E0F9A325
:10044300E0FAA3E0FBA37808E0F608A3DFFAE0FCF8
:10045300A3E0FDA3E0FEA3E0FFA3E0C0E0A3E0C0B0
:10046300E0A3E0F5D0A3E0F520A3E0A3F5F010AFFF
:10047300088583198582188008858319858218D297
:10048300AFD082D083D0E0F8D0E032120A65B90051
:10049300030204D0E4900301785379108002F0A39F
:1004A300D8FCD9FA901253AA82AB83900086786A5B
:1004B30079018015E493A3AC82AD838A828B83F0A8
:1004C300A3AA82AB838C828D83D8E9D9E775829600
:1004D3007583E574031207C675825D75831E740008
:1004E3001207C6FA0675F0108E1A8F1B85821F85B8
:1004F300831E851882851983E0CEA3E0CF851F82F2
:10050300851E83EBC9EAC8EDCBECCAC3E833C8E95F
:1005130033C9EA33CAEB33CBC3EA9EF51DEB9FF530
:100523001CB35004AB1CAA1DEC33CCED33CDD5F07A
:10053300DAAE1AAF1B22D083D082ECC0E0EDC0E06C
:10054300E493A3FCE493A3FDED4C600D120611ECC0
:1005530024FFFCED34FFFD80EFE493A3FCE493A3BD
:10056300FDED4C600D1206AEEC24FFFCED34FFFDF7
:1005730080EFD0E0FDD0E0FCE493A3C0E0E493C0BF
:10058300E022851983851882E0A3FEE0A3F5207895
:1005930008E0A3F608DFFAE0A3FFE0A3C0E0E0A3CE
:1005A300C0E0E0A3C0E0E0A3C0E0E0A3C0E010AF80
:1005B300088582188583198008858218858319D256
:1005C300AFD083D0820207CCD083D082E9C0E0E4ED
:1005D30093A3C386F0C5F095F0F908E493A386F0DE
:1005E300C5F095F0700BE493A3C3994005E904802B
:1005F30002A3E475F002A42582F582E5F03583F5C4
:1006030083D0E0F9E493A3C0E0E493C0E022C0E028
:10061300C3E49396087401939618400FE4936670AD
:100623000808740193661870007019A3A3C3E493B8
:1006330096087401939618A3A3400DD0E0D0E0D0A0
:10064300E0020575A3A3A3A3A3A3D0E022740480AF
:100653000474028000CCC0E0EDC0E0E518C39CCC7C
:10066300AD1950011D10AF068C188D1980068C181A
:100673008D19D2AF120748D0E0FDD0E0FC227402FE
:100683008000CCC0E0EDC0E0E518C39CCCAD1950B0
:10069300011D10AF068C188D1980068C188D19D288
:1006A300AF120726D0E0FDD0E0FC22C0E0C0F08806
:1006B300F0E4936670080874019366187000A8F05C
:1006C300A3A3700BD0F0D0E0D0E0D0E0020575A377
:1006D300A3D0F0D0E022D083D082CCC0E0E493A3B7
:1006E30060061207A71470FAE493A3600612089831
:1006F3001470FAD0E0FCE493A3C0E0E493C0E022DA
:10070300C0E074F21203D7A2AFE433FED2AFC2C08B
:10071300E5D1A2E45003121995EEA2E092AF7F0156
:10072300020436CAC0E0E493A3C582CCC582C58364
:10073300CDC583F0A3C582CCC582C583CDC583DA7D
:10074300E5D0E0CA22CAC0E0E0A3C582CCC582C519
:1007530083CDC583F0A3C582CCC582C583CDC583B4
:10076300DAE6D0E0CA22C008C3E096F50808A3E0A1
:1007730096420808A3E096420808A3E0964508704D
:1007830001D3D00822700908080822601618181827
:10079300C6C333C608C633C608C633C608C633C67F
:1007A300D5E0EA22C0E0E493A3D39C5010E493A3E2
:1007B300C39C400AD0E0D0E0D0E00206F6A3A3A396
:1007C300D0E022C09FF59FE473D09F22D083D082D4
:1007D300C09FE493C0E0740193C0E0740293F59F5B
:1007E300222518F58210AF08F51840021519800864
:1007F300F51840021519D2AF851983227404800AB3
:1008030074038006740280027401C0E0F4041207CA
:10081300E4D0E0120A4022C0D0251810AF08F51822
:10082300500205198008F51850020519D2AFD0D02F
:1008330022BB0102E722C082C08389828A83BB0074
:1008430003E08002E493D083D08222C0E0C0D0E8EA
:10085300C0E0E5A8D2AFC2C7A2E792AFD0E0F8D01C
:10086300D0D0E0326016080808C6C313C618C613F2
:10087300C618C613C618C613C6D5E0EA22C3E0C617
:1008830096F608A3E0C696F608A3E0C696F608A374
:10089300E0C696F622C0E0E493A36C7009D0E0D0E2
:1008A300E0D0E00206F6A3A3D0E022251810AF089B
:1008B300F518400215198008F51840021519D2AF32
:1008C30022E76670100809E766700A0809E7667090
:1008D300040809E76622C3E09608A3E09608A3E0AC
:1008E3009608A3E096A2D265D03322E06670100882
:1008F300A3E066700A08A3E066700408A3E066221A
:10090300C3E096F008A3E096F008A3E096F008A3EE
:10091300E096F022E026F608A3E036F608A3E036D8
:10092300F608A3E036F622E627F60809E637F608C6
:1009330009E637F60809E637F622C0E0E8C0E0E545
:100943008124FCF8E6A2E7D0E0F8D0E0227004228C
:10095300600D18C6C333C608C633C6D5E0F41822E3
:10096300E657F60809E657F60809E657F60809E6D2
:1009730057F622E056F608A3E056F608A3E056F62B
:1009830008A3E056F622E056F008A3E056F008A3C9
:10099300E056F008A3E056F022E647F60809E647DA
:1009A300F60809E647F60809E647F622E026F008C6
:1009B300A3E036F008A3E036F008A3E036F022E423
:1009C300C396F608E496F608E496F608E496F6224B
:1009D300C6F4C608C6F4C608C6F4C608C6F4C622DA
:1009E300C3E7960809E7960809E7960809E79622F8
:1009F300C3E09608A3E09608A3E09608A3E0962236
:100A030075D0007581407518017519030002048EB5
:100A1300E0F608A3E0F608A3E0F608A3E0F62260F8
:100A23000C08C6C313C618C613C6D5E0F422E6F0F5
:100A330008A3E6F008A3E6F008A3E6F022CAC0E0A4
:100A4300E6F0A308DAFAD0E0FA22E0FAA3E0FBA387
:100A5300E0FCA3E0FD22EAF0A3EBF0A3ECF0A3EDAE
:100A6300F022E5C754F84401F5C77901222518F5AA
:100A730082E43519F58322C2AF75D69F02000022A6
:100A83001207CF75DF021207CFA9DF021207CFDEED
:100A9300DF021207CFC0E0021207CF75E10212078F
:100AA300CFCAE3021207CF17E5021207CFBAE50256
:100AB3001207CF09E7021207CF27E7021207CF5A1F
:100AC30025001207CF8F25001207CFB52500120787
:100AD300CFEF25001207CF0126001207CF532600C0
:100AE3001207CFB426001207CF3E27001207CFE22A
:100AF30027001207CF2A28001207CF642800120705
:100B0300CF8128001207CFA628001207CFF82800AC
:100B13001207CF1129001207CF3729001207CF720E
:100B230029001207CFB629001207CFDD29001207CB
:100B3300CF2E2A001207CFDE2A001207CF962B00F2
:100B43001207CF5E2C001207CF1E2D001207CF62B3
:100B53002D001207CF872D001207CFCA2D001207D1
:100B6300CF172E001207CF6F2F001207CFF52F00DC
:100B73001207CF1330001207CF3D30001207CF57B3
:100B830030001207CF6630001207CF713000120712
:100B9300CF3131001207CF8A31001207CF4C320018
:100BA3001207CF5432001207CFD832001207CF1EDC
:100BB30033001207CF5F33001207CFEF3400120761
:100BC300CFA735001207CF1336001207CF3E3700E9
:100BD3001207CF6337001207CFD937001207CF6B45
:100BE30038001207CF2B39001207CF4A39001207FA
:100BF300CF593A001207CF6B3A001207CFDB3A0006
:100C03001207CF053B001207CF9B3B001207CFD43F
:100C13003B001207CF203C001207CF3C3D001207D8
:100C2300CF853F001207CF903F001207CF9B3F00B5
:100C33001207CFA63F001207CFB03F001207CFBB6A
:100C43003F001207CFD53F001207CFDF3F00120747
:100C5300CFE93F001207CFF43F001207CF1C40003B
:100C63001207CF7740001207CF8140001207CFA5AC
:100C730040001207CFC940001207CF2741001207D7
:100C8300CF6B41001207CF8741001207CFFE41000F
:100C93001207CF3642001207CF8242001207CFDF7E
:100CA30042001207CF9943001207CF7D4500120778
:100CB300CFD645001207CF0647001207CF2C4700B7
:100CC3001207CFB548001207CF314C001207CF03EC
:100CD3004E001207CFCC4F001207CF7950001207F6
:100CE300CFE451001207CF8352001207CFD0520036
:100CF3001207CF3A53001207CF4953001207CFD040
:100D030055001207CF8257001207CFEF5700120783
:100D1300CFCE58001207CFE759001207CF645B000C
:100D23001207CF835B001207CFD85B001207CFDD1A
:100D33005C001207CF055D001207CF5D5D0012074F
:100D4300CF3C5E001207CF805E001207CFCB5E0060
:100D53001207CF365F001207CF7760001207CFDB91
:100D630060001207CF2962001207CF8964001207BF
:100D7300CFBA64001207CF7266001207CFC76600AE
:100D83001207CFCB67001207CF6868001207CFC1E5
:100D930068001207CF7469001207CF166A001207A2
:100DA300CFB66A001207CF5B6B001207CF5E8001DC
:100DB3001207CF9D80011207CFE482011207CF2EC5
:100DC30083011207CF4984011207CFB184011207AF
:100DD300CFE684011207CF5A86011207CFDD8801BF
:100DE3001207CF068A011207CF9C8A011207CFA4EC
:100DF30093011207CF3994011207CF2097011207ED
:100E0300CF1398011207CF8198011207CFC7990119
:100E13001207CFA99A011207CF8E9C011207CF9F09
:100E23009E011207CF099F011207CFDB9F01120713
:100E3300CF09A0011207CFC6A0011207CF9DA101C0
:100E43001207CF64A2011207CF08A3011207CF3103
:100E5300A3011207CF53A3011207CFA9A5011207BC
:100E6300CF81A6011207CFC5A6011207CF2DA70177
:100E73001207CFE5A7011207CF17A8011207CF5B0F
:100E8300A8011207CF91A8011207CFDDA80112070D
:100E9300CF32A9011207CF37A9011207CF8AA901BF
:100EA3001207CFAFA9011207CFBEAA011207CF22A3
:100EB300AB011207CF92AB011207CF1EAC01120791
:100EC300CFEBAE011207CFCFAF011207CF52B10163
:100ED3001207CF88B3011207CF36B4011207CFE64A
:100EE300B4011207CF27B7011207CFCAB701120700
:100EF300CF11B8011207CFBDB9011207CFD1B90184
:100F03001207CFDBB9011207CF03BA011207CF0FC4
:100F1300BA011207CF2EBA011207CF22BC01120762
:100F2300CF7DBC011207CFC7BC011207CFCFBD01D4
:100F33001207CF26BE011207CF75BF011207CFB923
:100F4300BF011207CF61C0011207CF44C1011207CD
:100F5300CFEFC1011207CF3BC3011207CF39C40141
:100F63001207CFDFC4011207CF6FC5011207CF8667
:100F7300C5011207CFBDC5011207CFC7C5011207AF
:100F8300CFD2C5011207CFF0C5011207CF34C60176
:100F93001207CF91C6011207CFB6C6011207CFD0F1
:100FA300C6011207CF5CC7011207CF79C801120728
:100FB300CFE6C8011207CFCDC9011207CFF4C9018B
:100FC3001207CF68CA011207CFE3CA011207CFE79E
:100FD300CB011207CFDDCC011207CF8CCD01120755
:100FE300CF9FCE011207CF3BCF011207CFC8CF014E
:100FF3001207CFA6D0011207CFDED0011207CF36DA
:10100300D1011207CFFFD1011207CF20D20112075E
:10101300CFA7D2011207CFCBD2011207CFEDD20156
:101023001207CF36D3011207CF4CD5011207CF33A6
:10103300D6011207CFE4D6011207CF1AD90112073E
:10104300CF6AD9011207CFAAD9011207CFECD90170
:101053001207CF48DA011207CF76DA011207CF9AC7
:10106300DA011207CFEDDA011207CF1BDB011207FA
:10107300CF54DB011207CFA9DB011207CF0FDC012D
:101083001207CF63DD011207CF86DF011207CFF30B
:10109300DF011207CF1CE0011207CFA7E0011207FF
:1010A300CF0EE1011207CF59E1011207CF7DE10114
:1010B3001207CFA1E1011207CFFCE1011207CF17FD
:1010C300E2011207CFD0E2011207CFE3F3031207C5
:1010D300CF22F4031207CF7880021207CFBE80021B
:1010E3001207CF9E81021207CFA082021207CFA35D
:1010F30083021207CF2F85021207CF8D85021207B5
:10110300CF4A86021207CF6887021207CFD9870218
:101113001207CF1588021207CF6388021207CF6D1B
:1011230088021207CFB188021207CF0D8902120776
:10113300CFA889021207CF258A021207CFF48A02A9
:101143001207CF8D8B021207CFAD8B021207CFE3AD
:101153008B021207CF148C021207CFD58C02120711
:10116300CFE58C021207CF398D021207CF548D02BF
:101173001207CF668D021207CF6F8D021207CFC9F8
:101183008D021207CF258E021207CF718E0212072E
:10119300CF8C8E021207CFBD8E021207CFDA8E02DA
:1011A3001207CFE68E021207CF5A90021207CF73AF
:1011B30090021207CFDA90021207CFED90021207C6
:1011C300CFFB90021207CFAF91021207CF93920287
:1011D3001207CF9993021207CF2394021207CF2D40
:1011E30094021207CF9A94021207CFB19402120706
:1011F300CFE394021207CF1C95021207CF46950244
:101203001207CFA795021207CFC795021207CFE5A2
:1012130095021207CF2B96021207CF51970212079E
:10122300CF9E97021207CFCD97021207CF439802A2
:101233001207CF6B98021207CFA498021207CFB2FE
:1012430098021207CF0A99021207CF59990212077F
:10125300CF9899021207CFC899021207CFF49902C7
:101263001207CFFF99021207CF1D9A021207CFDF91
:101273009A021207CFE99A021207CF2A9B0212079A
:10128300CF7F9B021207CF939B021207CFA19C0231
:101293001207CFB49C021207CFC99C021207CF6B6F
:1012A3009D021207CFEE9D021207CFAC9E021207DA
:1012B300CFB79E021207CFE39F021207CFFF9F0211
:1012C3001207CF51A0021207CF90A0021207CFA599
:1012D300A0021207CF07A1021207CF96A10212079D
:1012E300CFE1A1021207CF32A4021207CFB0A402AA
:1012F3001207CF25A5021207CF47A7021207CF5F18
:10130300A7021207CF62A7021207CF6EA702120726
:10131300CF82A7021207CF8AA7021207CFBDA70267
:101323001207CF6DA8021207CFE3A8021207CF5608
:10133300A9021207CF0AAA021207CFBFAA021207F5
:10134300CFDEAA021207CF84AB021207CFAFAB02E4
:101353001207CFB2AB021207CF1CAC021207CF4465
:10136300AD021207CF1CAE021207CFA7AE021207BF
:10137300CFC0AF021207CF7DB0021207CFB6B002C3
:101383001207CFE7B0021207CFA5B1021207CFD5DC
:10139300B1021207CFB0B2021207CF49B30212074C
:1013A300CFD4B3021207CF85B4021207CF08B50218
:1013B3001207CF3AB5021207CF7BB5021207CFB39C
:1013C30099031207CFDDD5021207CF559A031207EF
:1013D300CFA49A031207CFBA9C031207CF9D9E0393
:1013E3001207CF07A2031207CF42A2031207CF644B
:1013F300A2031207CFC7A2031207CFFBA203120750
:10140300CF1EA3031207CF4BA3031207CFA7A30338
:101413001207CFEE8D031207CF6C8E031207CF593D
:10142300DF021207CF0E8F031207CF81900312073B
:10143300CF9D90031207CFE290031207CF70910361
:101443001207CFC991031207CFF692031207CF08F1
:1014530094031207CF6594031207CFD194031207A5
:10146300CF3295031207CF7395031207CF2096034C
:101473001207CF3297031207CF5D97031207CFA846
:1014830097031207CFEF97031207CF819803120731
:10149300CF3C99031207CF07B9031207CF80B903D3
:1014A3001207CF86BB031207CF49BC031207CF7EB7
:1014B300BC031207CF20FF021207CF9AFF021207C5
:1014C300CF39B2031207CF85B2031207CFF3B203AA
:1014D3001207CF14B3031207CFC4B3031207CFCD40
:1014E300B3031207CF20B4031207CF49B403120783
:1014F300CFB0B4031207CF41B5031207CF83B503AF
:101503001207CFCDB5031207CF2CB6031207CF585E
:10151300B6031207CFE9B6031207CF28B7031207A2
:10152300CF67B7031207CF9CB7031207CFAEB7033A
:101533001207CFC0B7031207CFDFB7031207CFE8F5
:10154300B7031207CF9EB8031207CFDEB803120703
:10155300CFE3F0031207CF98F3031207CF64E3033B
:101563001207CF9AE3031207CFE3E3031207CF3344
:10157300E5031207CFA76B001207CFE66C00120733
:10158300CF226D001207CFE16E001207CF0A6F0062
:101593001207CF9D71001207CFE171001207CF6AC6
:1015A30073001207CF0274001207CF6A7400120788
:1015B300CF0B75001207CF4D75001207CF8D750045
:1015C3001207CF1877001207CF8878001207CFAD24
:1015D3007A001207CFDB7A001207CF027B001207D3
:1015E300CF0B7B001207CF927B001207CFB07E0098
:1015F3001207CFDF7F001207CFF57F001207CF0658
:10160300DB031207CF19DB031207CFB6DB03120785
:10161300CFF1DB031207CF0CDC031207CF31DC035E
:101623001207CF76DC031207CFA7DC031207CFD84C
:10163300DC031207CF5EDE031207CF317F001207F0
:10164300CF677F001207CF837F001207CFC57F00CC
:101653001207CFD57F001207CF0080031207CF52A6
:1016630080031207CF4B81031207CF1B820312079C
:10167300CF3082031207CF7A82031207CFD78203B8
:101683001207CFEA82031207CF3483031207CF6610
:1016930083031207CF6484031207CFAD84031207B9
:1016A300CFBC84031207CF0B85031207CF21850319
:1016B3001207CF3885031207CF6785031207CF8040
:1016C30085031207CF1986031207CF738603120708
:1016D300CFC186031207CFE386031207CF5A8903CC
:1016E3001207CF8889031207CF1B8A031207CF93F0
:1016F3008A031207CF9F8A031207CFDB8A031207DD
:10170300CF318B031207CF208C031207CF458C03F5
:101713001207CF4F8C031207CF5E8C031207CFE75C
:101723008C031207CF028D031207CF248D031207F8
:10173300CF5F8D031207CF6E8D031207CF798D0311
:101743001207CFB58D031207CF4BF3031207CF63F5
:10175300F3031207CFF3A3031207CF42A403120725
:10176300CFE4A5031207CFA0A7031207CFE8A7036F
:101773001207CFD0A8031207CF01AA031207CF2362
:10178300AA031207CF7FAA031207CF03AB031207E3
:10179300CF0AE3011207CF2BE3011207CFA8E3011E
:1017A3001207CF2DE4011207CFA9E4011207CF12CC
:1017B300E5011207CF5EE5011207CFDDE501120750
:1017C300CF6FE6011207CFFFE6011207CF41E70112
:1017D3001207CF8AEB011207CF0AED011207CFE000
:1017E300ED011207CF0FEE011207CFFAEF01120737
:1017F300CF7AF2011207CF33F3011207CF50F4016E
:101803001207CFA7F7011207CFB7F7011207CF18B7
:10181300F9011207CFA4F9011207CFB5FA01120794
:10182300CF4EFB011207CF51FC011207CFD3FC01AE
:101833001207CF4EE7021207CF08E8021207CF7A4A
:10184300E8021207CF16E9021207CF86E902120750
:10185300CF3FEC021207CF16ED021207CF83ED0242
:101863001207CF00EF021207CFCAEF021207CF3AD7
:10187300F0021207CF03F2021207CF16F302120788
:10188300CFAFF3021207CF75F4021207CF50AB03A9
:101893001207CFA4AB031207CFF0AB031207CF3B62
:1018A300AC031207CF7BAC031207CFCBAC031207F9
:1018B300CF41AE031207CFF4AE031207CF37AF0306
:1018C3001207CF4DAF031207CFA5AF031207CFF314
:1018D300AF031207CF1AB0031207CF85B003120765
:1018E300CF88B1031207CF9BE7031207CFCCE703DF
:1018F3001207CF86E8031207CFECE8031207CF0FD6
:10190300E6031207CFD9F4031207CFEAF403120751
:10191300CF75E9031207CF83E9031207CFEDFF0168
:101923001207CFD5F2031207CFE5F2031207CFFA5E
:10193300F2031207CF42F3031207CFE1EF031207BB
:10194300CF66F0031207CFCAF0031207CF40F503A7
:101953001207CF43F5031207CFFCD3031207CF0AB5
:10196300D4031207CF84D4031207CF68D503120719
:10197300CF21D7031207CF04F5031207CF1CCC03E3
:101983001207CF88CC031207CF5ECD031207CFB760
:10199300CE031207CF12CF031207CF67CF0312076D
:1019A300CF70CF031207CF82CF031207CFECCF0341
:1019B3001207CFF6CF031207CF0AD0031207CF3A8D
:1019C300D0031207CFB1C2031207CF06C303120716
:1019D300CF02C5031207CF34C5031207CF56C50381
:1019E3001207CF6FC5031207CF88C5031207CF9223
:1019F300C6031207CF2DC7031207CF01EB0312074C
:101A0300CF25EB031207CF3EEB031207CF71EB0396
:101A13001207CFA2EB031207CFD0EB031207CF328B
:101A2300EC031207CF41EC031207CF4BEC03120771
:101A3300CF58EC031207CF75DE031207CF9BDE03EB
:101A43001207CFD8DE031207CFE7DE031207CF0654
:101A5300DF031207CF6EDF031207CF77DF0312070F
:101A6300CFD6DF031207CFFADF031207CFB9E003A4
:101A73001207CFC6E0031207CFD7E0031207CF70D8
:101A8300F4031207CF8DF4031207CFA4C703120781
:101A9300CFFCC8031207CF09C9031207CF1CC90320
:101AA3001207CF3BC9031207CF51C9031207CF65F2
:101AB300C9031207CFDAC9031207CF3FCA031207BC
:101AC300CFEFCA031207CFC4CB031207CFD4CB0384
:101AD3001207CFE3CB031207CFBDF1031207CFE108
:101AE300F1031207CF09F2031207CF31F2031207F2
:101AF300CF05E1031207CF2CE1031207CF4DE1031A
:101B03001207CFB2E1031207CF6BFD011207CF8497
:101B1300FD011207CF90FD011207CFA4FD011207AB
:101B2300CFC2FD011207CFCCFD011207CFD6FD01B5
:101B33001207CFE9FD011207CF4BFE011207CF8435
:101B4300FE011207CFB3FE011207CF01FF011207F7
:101B5300CF50FF011207CF6BFF011207CF75FF01B3
:101B63001207CF9CFF011207CFE2FF011207CF56E6
:101B7300F2031207CF72F2031207CF26F5031207FF
:101B8300CFC9F5021207CFF3F5021207CF0FF60202
:101B93001207CF22F6021207CF38F6021207CF95AB
:101BA300F6021207CFC8F6021207CF09FB0212078B
:101BB300CF2FFC021207CF62FC021207CFAEFC024A
:101BC3001207CFF0FD021207CF18FE021207CF2D26
:101BD300FE021207CF3DFE021207CF81FE0212075B
:101BE300CFE2FE021207CFF2FE021207CF9BED03F4
:101BF3001207CFB6ED031207CFDFED031207CFF9BC
:101C0300ED031207CF1EEE031207CF3DEE031207BB
:101C1300CF55EE031207CF83EE031207CF9DEE03DA
:101C23001207CF2CF4031207CF86D7031207CF8DE9
:101C3300D7031207CF99D8031207CFC9D8031207C6
:101C4300CFEFD8031207CF12D9031207CF34D9032A
:101C53001207CF6ED9031207CFD4D9031207CF0DC2
:101C6300DA031207CF59DA031207CF86DA03120712
:101C7300CFA6DA031207CF62EC031207CF7AEC0385
:101C83001207CF95ED031207CF98ED031207CFCEBE
:101C9300EE031207CF40EF031207CF7EEF031207C5
:101CA300CFBFEF031207CF48D0031207CF67D0038C
:101CB3001207CFB6D0031207CFD2D0031207CF0338
:101CC300D1031207CF10D1031207CF1DD10312077F
:101CD300CF09D2031207CF47D2031207CF57D3033B
:101CE3001207CF62D3031207CF74D3031207CF7D3A
:101CF300D3031207CF87D3031207CFF4BD03120711
:101D0300CF39C2031207CF47C2031207CFACF40384
:101D13001207CF23D4021207CFD3D1021207CF5A0F
:101D2300D1021207CF01D1021207CF91D0021207BD
:101D3300CF68D0021207CF48CE021207CF14CE02CB
:101D43001207CFE1CD021207CFC5CD021207CFDEB6
:101D5300CC021207CF96CC021207CFE1CA021207B8
:101D6300CF61CA021207CF5ECA021207CF5BC90254
:101D73001207CF29C9021207CF66C8021207CF91F3
:101D8300C6021207CF22C6021207CFF4C5021207FA
:101D9300CFF1C5021207CFF9DE021207CFB1DE027F
:101DA3001207CFFFDD021207CF71DD021207CF64E6
:101DB300DD021207CFDEC5021207CF89C502120763
:101DC300CF78C5021207CF5EDA021207CF6AC402C8
:101DD3001207CF34C4021207CFE2C3021207CF8324
:101DE300C3021207CFC0D7021207CFA28E03120776
:101DF300CF52C3021207CF1AC0021207CFDABF02B3
:101E03001207CFCEBF021207CF2EBF021207CF6E2B
:101E1300BE021207CFF0BB021207CF81B90212072D
:101E2300CF3FB9021207CF13B8021207CFC8B702C8
:101E33001207CF04B7021207CFD7B6021207CF1A81
:101E4300B6021207CFEAB5021207CF89D6021207EC
:101E5300CFB0B5021207CF189A0300000080FBE44D
:101E6300738F0001001F08870001001E0824000271
:101E7300008C12250002008E122600020090122709
:101E8300000200921228000100941229000100951B
:101E930012840004009612860001009A122A00019F
:101EA300009B122B0001009C122C0001009F122D9D
:101EB30000080009082E000100A0122F000100A154
:101EC3001230000100A21231000100A312320001FE
:101ED30000110833000100120834000100A4123677
:101EE300000100130838000100A512390001009E0B
:101EF3001283000200AF12630001001D0864000199
:101F0300000608650001009D126D000100AE126E0F
:101F1300000200070843000100A61244000200A7C4
:101F23001245000100A91246000200AA1247000848
:101F330000150848000100AC124B000100AD12046B
:101F4300000100B112A1000100B41237000100B377
:101F53001288000100B2123C0001001408000000C6
:101F630000000000C0C101C30302C2C60607C705C3
:101F7300C5C404CC0C0DCD0FCFCE0E0ACACB0BC9F2
:101F83000908C8D81819D91BDBDA1A1EDEDF1FDDD2
:101F93001D1CDC14D4D515D71716D6D21213D311A2
:101FA300D1D010F03031F133F3F23236F6F737F5A2
:101FB3003534F43CFCFD3DFF3F3EFEFA3A3BFB3932
:101FC300F9F83828E8E929EB2B2AEAEE2E2FEF2D32
:101FD300EDEC2CE42425E527E7E62622E2E323E1E2
:101FE3002120E0A06061A163A3A26266A6A767A502
:101FF3006564A46CACAD6DAF6F6EAEAA6A6BAB6972
:10200300A9A86878B8B979BB7B7ABABE7E7FBF7D51
:10201300BDBC7CB47475B577B7B67672B2B373B121
:102023007170B05090915193535292965657975561
:102033009594549C5C5D9D5F9F9E5E5A9A9B5B99B1
:10204300595898884849894B8B8A4A4E8E8F4F8DB1
:102053004D4C8C4484854587474686824243834161
:1020630081804000C1814001C0804101C0804100A6
:10207300C1814001C0804100C1814000C181400154
:10208300C0804101C0804100C1814000C181400145
:10209300C0804100C1814001C0804101C080410036
:1020A300C1814001C0804100C1814000C181400124
:1020B300C0804100C1814001C0804101C080410016
:1020C300C1814000C1814001C0804101C080410005
:1020D300C1814001C0804100C1814000C1814001F4
:1020E300C0804101C0804100C1814000C1814001E5
:1020F300C0804100C1814001C0804101C0804100D6
:10210300C1814000C1814001C0804101C0804100C4
:10211300C1814001C0804100C1814000C1814001B3
:10212300C0804100C1814001C0804101C0804100A5
:10213300C1814001C0804100C1814000C181400193
:10214300C0804101C0804100C1814000C181400184
:10215300C0804100C1814001C0804101C080410075
:10216300C181400001363601010001020100010373
:1021730001000104010606050200000701003408FE
:1021830001000F090401010D0100FF0E08000017F3
:10219300020000190100FF1A0100011B0100FE1CCF
:1021A3000100081D0200001F0100012001000121A0
:1021B3000200002301000F24020000260100012772
:1021C300010008280200FF2A0100072B0102402C0E
:1021D3000100002D0100012E0100012F0100FF303D
:1021E300010B1C310800003A0100083B01000F2FCE
:1021F3000100000300710030016000110070003124
:1022030002200350048000100061000000140063EA
:102213000073007200620043000000130006000018
:102223000000000400120000000000000000000491
:10223300000400370037003C0244000000000000A7
:10224300000000650000003500810000000500006B
:10225300008300000001017101010101011101016D
:10226300013101010101018001100161013B0014F1
:10227300006301730172016201430100011301064E
:10228300013D0135000401120100010001000100BC
:102293000104010401330133013C014401320136DD
:1022A3000000010001650100013500810100010505
:1022B30001820183010001030271023001600211F6
:1022C3000270020102020202028002100261023A5B
:1022D30000410063027302720262024302000213AE
:1022E300023800000200020402120200020002008F
:1022F30002000204020402370037003C02440200D9
:102303000239000002000265020002350281020068
:102313000205028202830200020103710301030129
:10232300030103010301032203020301031003005A
:102333000300030003000300030003000342030040
:1023430003240306030003000304031203250323EA
:1023530003250323030403040300030003000344CE
:1023630003000300032303000365032100350381F6
:1023730003000305030003000300030304710402C5
:102383000460041104700402040204010402041032
:1023930004610400041404630473047204620443B8
:1023A30004000413040604000400040404120400DB
:1023B3000400040004000451046400000400040049
:1023C300044404000400040004000465040004350C
:1023D300048104640005040004830400043600013E
:1023E30000060000000F00000000000000000000D5
:1023F30000000003FFFF00000403FFFF0000FFFFD6
:102403000FF4010005C4040320000100130B0000B6
:1024130000000000000003010F00004B181300E54B
:102423001701004B180200AF170300B5170400BBD8
:10243300170500C1170600CD17FFFF000001F50DBA
:1024430006250E081F0E0B310E10710D02FB0D0534
:10245300130E07010E0CD70D0DE90DFF0000151229
:1024630045121B1221123F1233122D124B1251121D
:102473005712631227120F12091200160F00000BD6
:10248300150B020002220F32000006FF1211131770
:1024930013DF111D13D911E511140AE5D5C5B5A52F
:1024A300A59585857565191113114F11551149119D
:1024B3000111591377137D135F136B1365130C0EFF
:1024C300020B040B0A0708000F00034948424D188A
:1024D30017250502000119161816161523030030D7
:1024E3003017181921301B1D1F30303016181920D2
:1024F300231A1C1E3000383C3E363B3B352B432C05
:102503004D132313291335132F1339125D1271132E
:1025130069126F1202040201010101090225112B44
:10252300111F115B1100BE040A311143119C240ECB
:102533000004007F00E8030C0028001500000000E1
:1025430000030108100C0A0308090004000CFF1E15
:102553001E05080405100974F612036B74FF1208B4
:10256300AE851882851983E4F0858208858309780E
:102573000812080775080175090078081208071280
:1025830025AE740412081A7401023B9374F6120305
:102593006B8C088D09780812080775080B750900FC
:1025A30078081208071225AE023B911225D712159F
:1025B300E72274F612036B8C088D0978081208075A
:1025C30075080B75090078081208071225D712152C
:1025D300ED023B91EA75F00BA4FAA8F075F00BEB52
:1025E300A428FBEAFCEBFD7A237B0022C082C08394
:1025F3008A828B83E0D2E7F0121713023AB7C082C4
:10260300C0837900122B7D125B33C082C083900399
:10261300341248B1D083D082C3E09CA3E09D500C18
:10262300126207FAA3E0122632600109023AB7FBED
:10263300EA75F00BA4FAA8F075F00BEBA428FB9055
:102643000336E02AF8A3E03B8882F583E0540F22A7
:1026530074F712036B8908122B7D122C23ACF075CF
:10266300F00BE9A42CF9900336E028FEA3E039FF30
:102673007401650860067402650870208A828B8382
:10268300122C0F123B8B74026508701B122ACE1298
:102693002C5670138E828F83E4F0800BEA2403FCA4
:1026A300EB122BF1122BFDEEFAEFFB120AD1023AD9
:1026B300EF74F412036B126B2E79008E828F83E01A
:1026C3006076890A890B8065E50A75F00BA4FAA880
:1026D300F075F00BE50B12263F7046E50A75F00B1B
:1026E300A4F8AAF075F00BE50B122C358E828F83BC
:1026F300E0850882850983122D1785088285098361
:10270300A3123B8BEE2403FCEF122BFA123ABE12F8
:1027130055ADAA08AB09120AD17901900334124FBF
:10272300BAE50A2401F50AE50B3400F50B122AD6A3
:10273300E50A9AE50B9B4090023D3774F512036B53
:10274300EAFEEBFF740B120A70123AC3750A01EC2E
:102753004D602BEC126B4AED125B33123B83790114
:10276300120ADDE5084509606F850882850983A3A0
:10277300126B387902AA08AB09120ADD805AE50800
:102783004509602B125B371241F9123ABF122C40F4
:10279300700CEEFAEFFB120AE3E9F50A80CBEE24A4
:1027A30003FA122B7870317903EEFAEFFB80CA8EAD
:1027B300828F83A3E064FE7003A3E0F4700BEE2426
:1027C300030A0A0A122B78700CEEFAEFFB120AE3E3
:1027D300E9F50A8003750A00A90A7F0302058574D7
:1027E300F712036B900334123AFFEA4B602FEA753A
:1027F300F00BA4FAA8F075F00BEBA428FBEAFEEBB0
:10280300FF121569900336123AFF900336124DFFFB
:102813006012EEFCEFFD79001214CD8007900336B1
:10282300E4F0A3F0023AEF74F612036BE4F508F553
:102833000978081208079003341248B1EC75F00BBD
:10284300A4FCA8F075F00BEDA428FD7A237B0012FD
:1028530015E1740212081AE9FE6003120AFB025D15
:102863004674F712036B7E007F00800AEEFAEFFBDB
:10287300120ABF1236FC1228EC40F1023AEF74F749
:1028830012036B7E007F008012122B5BFCA3E039E6
:10289300FDEEFAEFFB120ACB1236FC1228EC40E9EC
:1028A300023AEF74F712036B7E007F008033EEF879
:1028B300EFF9E875F00BA4F8AAF075F00BE9A42A78
:1028C300F99003361252C888828983E0A2E7500E3A
:1028D300C2E7F0AC82AD83EEFAEFFB120AC5123603
:1028E300FC1228EC40C8023AEF900334124569C346
:1028F300EE98EF9922C082C083EC4D6005121CA1B3
:1029030080097C087D0079001214CD023AB774F671
:1029130012036B7900EA4B601878008808125E7A1C
:10292300EB12620360047901780808E8C394084055
:10293300EA023B9674F712036B74F31208AEECFED3
:10294300EDFF851882851983E4F004120A70EAF01A
:10295300A3EB1253337403120A70AC82AD83EEFA05
:10296300EFFB120B0DEEFAEFFB120B13023AEA74B4
:10297300F712036B74F31208AEECFEEDFF851882B9
:10298300851983E4F0EAFCEBFD7403120A70122D3F
:10299300107401120A70123B7F8E828F83123B8B5D
:1029A30074FE68700374FF69600479018002790022
:1029B300023AEA74F712036BEAFEEBFF122A147071
:1029C30014122A1F8E828F83E0F4F88A828B83E0AD
:1029D30058F0120AD1A908023AEF74F712036BEA0E
:1029E300FEEBFF7508008E828F83E06022122A14AB
:1029F300701D122A1F8A828B83E08F838E82F8E0F8
:102A030058700CE0F88A828B83E048F0120AD18078
:102A1300C4120AD7E9F5087401650822126B431240
:102A23002C27122B69FAA3E039FB2274F412036BEF
:102A33008A088B097C007D00122ACE122BFD122BF3
:102A43008E126B357900850882850983A3E064FEC5
:102A53007003A3E0F460717E007F008062EEFAEF02
:102A63001226326057EEFAEFFBEA75F00BA4FAA8D0
:102A7300F075F00BEBA428FB900336E02AF50AA3CC
:102A8300E03BF50B850882850983A3125279850AF9
:102A930082850B83A3E06A7003A3E06B701EE50AD3
:102AA3002403FAE50B122B79700AE50A2403FCE5EB
:102AB3000B122BFA122B827901125B491236FC128C
:102AC3002AD6EE9AEF9B4095023D37EA24030A0A81
:102AD3000AEB22900334125720C32274F312036BC0
:102AE3008A088B098A828B83A3126B38122B7D127F
:102AF3006B35750C00122ACE122B7970547E007F31
:102B0300008049122B5BFAA3E0398A82F583E054F3
:102B13000F6036122B5BF50AA3E039F50BE50A24A7
:102B230003FCE50B122C043400FB121C9BE964012B
:102B33007017850A82850B83A31257E1A3123B8B7F
:102B4300122B82750C01125B491236FC1228EC40E1
:102B5300B2A90C7F05020585EEF8EFF9E875F00BD5
:102B6300A4F8122B6922AAF075F00BE9A42AF990B4
:102B73000336E02822EF122C5022126B49EB22126B
:102B83002B8E125B44EEF0A3EFF022E508126B4AA2
:102B9300E5092274F512036BEAFEEBFF8E828F8345
:102BA300A3126B387C007D00EE24030A0A0AEF129D
:102BB3002BFDEEFAEFFB120AD7E9F50A7401650A59
:102BC3007029126B43122C23AAF075F00BE9122C17
:102BD30035850882F583122C0F122C40700DE50801
:102BE3002403FCE509122BF1122BFD0227DB340031
:102BF300FDEE2403FAEF22122C043400FB120B0D1A
:102C0300223400FDE5082403FAE50922A3122C145B
:102C130022122C1822E0F8A3E0F98E828F83A322DC
:102C2300122C27223400F58312456DE875F00BA4AE
:102C3300F822122B6FF508A3E039F50922E8F0A377
:102C4300E9F0E5082403FAE509122C5022122C5668
:102C53006401223400FB120B13E92274F312036B99
:102C630074E61208AE126B2E750C01750800750917
:102C730000750A00750B00851882851983E4F0EE50
:102C83002403FCEF3400FD7403120A70122D10E9C3
:102C930064017023740B120A70123B837401120ACD
:102CA3007012527D7003A3E0696051851882851903
:102CB30083858208858309740D120A70E4122D1727
:102CC300740E120A70123B8B740D120A70AA82AB37
:102CD30083120B31E96401700B740D120A70858243
:102CE3000A85830B780A120807AC08AD09EEFAEFE0
:102CF300FB120AE9740212081AE9F50CEEFAEFFB6B
:102D0300120B2BA90C741A12081A022B56122FE35A
:102D1300120B3722123AFA12456922C082C0837815
:102D23000079008003122E0E122AD6E89AE99B50EE
:102D330029E8FAE9FBEA75F00BA4FAACF075F00B9D
:102D4300EBA42CFB900336E02AFCA3E03B8C82F53A
:102D530083E0540F70CF790080027901023AB7C043
:102D630082C08390253E1245BFEC75F012A4FCA8E7
:102D7300F075F012EDA428FD79FF7AFB7B0C121499
:102D8300CD023AB774F712036BE9FEEAFF7A007BD0
:102D930000780079008028E8FCE9FDEC75F012A4C6
:102DA300FC85F00875F012EDA42508123223C39EAA
:102DB300400AE0FCEFC39C40031235D1122E0E12E1
:102DC300321740D3023AEFC082C083780079008083
:102DD30003122E0E122E02501F123227F470F2E845
:102DE30075F012A4F8AAF075F012E9A42AF974FB9D
:102DF30028FA740C39FB80047A007B00023AB790FE
:102E0300253E1234A9C3E89AE99B22E8240108E984
:102E13003400F92274F012036B74F31208AE8A0AB9
:102E23008B0B8C0C8D0D8908EC450D6016AA0CAB31
:102E33000D120B858A0E8B0FAE0EAF0FEE4F600394
:102E4300022ED5120B5B8A0E8B0FA80EA90FE8FE7C
:102E5300E9FFE849607C902542122F376022740312
:102E6300650860067404650870167A047903120B0A
:102E730055902542122F4E40077A007B00022F34D3
:102E8300902540122F37601B740165086006740299
:102E93006508700F7A027901120B55902540122FA5
:102EA3004E50D68518828519837401F0120A701268
:102EB30055ADAC0CAD0D7403120A70122FDC740BFC
:102EC300120A70123ACB123F6DE412559512105943
:102ED3008004EE4F604A780074FF2508C3940450C1
:102EE3000278048E828F831255AD8E828F83A3A3C3
:102EF300A3A3E508F0E88E828F83A3A3A3A3A31261
:102F030055B512021A1234C68E828F83A3A3A3A3CC
:102F1300A3A3A3F01234BD120A4D125B2D120A595A
:102F2300122F3C4005901257E4F0120F33EEFAEFE4
:102F3300FB0245731256CF49227A047900120B55CE
:102F430090253E1261E9EA98EB9922122F67758367
:102F53002575823EE493C398F8A3E49399F9C3EAF1
:102F630098EB9922E493F8740193F92274F2120313
:102F73006B74F31208AE8A088B09ECFEEDFF750A39
:102F830000EEFAEFFB120B858A0C8B0DA80CA90D32
:102F9300E849603E88828983E065087004A3E065A0
:102FA30009602F88828983A3A3A3A3E0C394055058
:102FB300211259DB8518828519837401F0120A7076
:102FC3001259DFEEFCEFFD7403120A70122FDC7549
:102FD3000A01A90A740D025071122FE3120B432246
:102FE300AA82AB83120B0D851882851983AA82AB43
:102FF300832274F612036B123031600FA3A3A3A3D1
:10300300E014C394045004790180027900023B96D2
:1030130074F612036B123031600FA3A3A3A3E01461
:10302300C394025004790180027900023B96120B8B
:103033007F8A828B83E58245832274F612036B12A7
:103043003031600BA3A3A3A3E0700479018002795C
:1030530000023B96C082C083EAFCEBFD7A007B0052
:10306300023AB4C082C0837C007D00023AB474F497
:1030730012036B74F31208AEEAFEEBFF8C0A8D0B9E
:10308300C3EC94F8ED94FF4007EE4F700302312A2E
:10309300750800750900802E8518828519837401CF
:1030A300F0123724120A7012373260137403120AB3
:1030B30070AC82AD83EEFAEFFB121C9BE97049E51D
:1030C3000824011232C390253EE41256D7E508982E
:1030D300E509995052E50875F012A4F8AAF075F0C5
:1030E30012E509A42AF912621C60D4EE4F70A97488
:1030F300FF650A700474FF650B60C4123714650A18
:103103007004A3E0650B70B7E50875F012A4F50829
:10311300A8F075F012E509A428F50974FB2508FA4F
:10312300740C3509FB80047A007B00023D3274F491
:1031330012036B74F31208AE750800120B858A0A2A
:103143008B0BAE0AAF0BEE4F602A8518828519836D
:103153007401123AF4F8A3E0F9740B120A70123CEA
:1031630010120B257C127D0079FFEEFAEFFB12148F
:10317300CD750801122F3C50099012577401F012BB
:103183000F33A908023D3274F712036BE9FE74FE94
:103193006A700374FF6B7800790070058052122EF9
:1031A3000E123217504AE8FCE9FDEC75F012A4FC4C
:1031B300AFF075F012EDA42F123223F460E0E8FCB7
:1031C300E9FDEC75F012A4FC75F012EDA42FFD746B
:1031D300FB2CF582740C3DF583E06A7003A3E06B6E
:1031E30070BC800912322714C394044017122E0EA8
:1031F300122E025018EE70EC12322764016005E0C3
:10320300640370E9123705FAA3E0FB80047AFE7BBE
:10321300FF023AEF90253E1245C3C3E89CE99D2285
:1032230012360622E8FAE9FBEA75F012A4FAACF0CA
:1032330075F012EBA42CFB74FF2AF582740C3BF59A
:1032430083E022120B97023AB7C082C083790180D0
:10325300F274F012036B8A0A8B0B7A047901120B56
:10326300558A0C8B0DEA450D603EEAC333FAEB3306
:10327300FB1215698A088B09AE08AF09EE4F60236C
:103283007AFE7BFF120B9D74FE6A700374FF6B6002
:103293001B850882850983123AFFE508240212324E
:1032A300C380E1750C0080047E007F00850A82855F
:1032B3000B83E50CF0EEFAEFFB024578E5082407F3
:1032C300F508E5093400F5092290253E1245C3C3EC
:1032D300EA9CEB9D2274F612036BE4F508F509787A
:1032E3000812080790253EE493F508740193F50945
:1032F3007403780812095012330F1215E174021285
:10330300081AE9FE6003120BAF025D46E5082402CA
:10331300FCE5093400FD7A227B002274F612036B6C
:1033230074FE1208AE851882851983E4F0A3123B5C
:103333007185820885830978081208077508027564
:10334300090078081208077C007D007A227B0012AE
:1033530015E7740412081A7402023B9374F1120302
:103363006B74DF1208AE8518828519838582088500
:10337300830978081208077508027509007808128E
:1033830008077C007D007A227B001215ED7404127D
:10339300081AE9600302349790253E1234A9123BC0
:1033A30079C3EA98EB995003023497750800023405
:1033B3008C740F120A7085820A85830B780A1208AF
:1033C30007750A08750B00780A12080785080A743E
:1033D30003780A120950E50A2402FCE50B1233169E
:1033E3001215ED740412081AE9600302348A741189
:1033F300120A70E0F47003A3E0F4700302348A74D9
:1034030002120A707401F07411120A70123B7F7475
:103413000D120A70123B8B7402120A70AA82AB83DC
:10342300120B3DE960619003751248B1740F120AE3
:1034330070125279121059E50875F012A4F8A9F028
:1034430074FB28FE740C39FF740F120A70A982AA48
:1034530083890C8A0D750E00780C1208037C081200
:1034630034B112081A1255BA12021A1234C612349F
:10347300BD120A4D125B2D120A59122F3C400590C2
:103483001257E4F0120F33050885080A1261DD5064
:10349300030233B4851882851983E0F97421120875
:1034A3001A7F07020585E493FA740193FB227D00DA
:1034B300EEFAEFFB1214C1740322125B3EE4F090A8
:1034C300803722E88E828F83A3A3A3A3A3A3A3A3FE
:1034D3001234E874011234E8A3F0EE2410125B41B5
:1034E300E4F0A3F022123F79A3A3A32274F41203FE
:1034F3006B74FE1208AE851882851983E4F0A3F07D
:10350300FE8067EEF8EFF9E875F012A4F8AAF075FB
:10351300F012E9A42AF974FB28F50A740C39F50BA7
:10352300780A120807750808750900780812080751
:103533008E088F097403780812095012330F12157D
:10354300E7740412081A850A82850B83A3A3A3A335
:10355300E0F4600F851882851983E02401F0A3E06D
:103563003400F0EE24010EEF3400FF90253E126785
:10357300C3409085188285198385820885830978DD
:103583000812080775080275090078081208077CF5
:10359300007D007A227B001215E7740412081A7466
:1035A30002023D34C082C0837A007B00800419127A
:1035B30035D11232CC50101235F0C3940550F0E9D6
:1035C30070EC1235DA80047A007B00023AB7EA2401
:1035D300010AEB3400FB22EA75F012A4FA75F0122B
:1035E300EBA428FB74FB2AFA740C3BFB22EAFCEBEA
:1035F300FDEC75F012A4FCA8F075F012EDA42812EE
:10360300360622FD74FF2CF582740C3DF583E0220F
:1036130074F712036B74F31208AE7E007F00023658
:10362300B8E50875F017A4F8A9F012647DFAA3E0D1
:10363300FBEEF8EFF9E875F012A4F8ACF075F012B0
:10364300E9A42C1237136A7003A3E06B603FE5080B
:1036530075F017A4F8AAF0EA12647CF8A3E0F974F1
:1036630001120A70E0687003A3E0696020E5087541
:10367300F017A4F8EAF9747728FC740E39FD740383
:10368300120A70AA82AB83121C9BE96014E50875C9
:10369300F017A4F8A9F0747528FA740E39FB121008
:1036A300650508902547E493F8E508C3985003029D
:1036B30036241236FC90253E1267C35039EEF8EFDC
:1036C300F9123705F47003A3E0F460E685188285E8
:1036D30019837401F0EEF8EFF9E875F012A4F875A8
:1036E300F012E9A42AF9123724120A701237326051
:1036F300C175080080AD023AEAEE24010EEF3400F2
:10370300FF22E875F012A4F8AAF075F012E9A42AD2
:10371300F91237182274FB28F582740C39F583E00B
:103723002274FD28F582740C39124567740B22E864
:10373300F0A3E9123C18120B3DE922C082C083902A
:10374300033D740DF0A3740EF090033F7407F0A3D0
:10375300740EF09003437427F0A3740CF0023AB78D
:1037630074F712036BEAFEEBFF900377E0640860E3
:103773001BE0640460168E828F83E054036401703F
:1037830048123ABE12406EE06406703D8E828F830B
:10379300A3A3E064FE7003A3E0F4602D8E828F8305
:1037A300A3A3123B7F900368E0687003A3E06970F2
:1037B3000BEE2415F582EF1262036008120EBBE9CB
:1037C300F5088008120EC180F67508C2EEFAEFFB09
:1037D30012156F0229D874F412036B8A088B098AB5
:1037E300828B83E0F8A3E0FAE82AFAE43400FB12C0
:1037F30015698A0A8B0BAE0AAF0BEE4F606385081F
:1038030082850983E0FC7D0079001214CD8E828FBE
:1038130083A3A3126B38120EFD8E828F83A3A3A3FF
:10382300A3123AFF850882850983E0F8EE28F8EFB2
:103833003400123B87850882850983A3E0C0E0EE4C
:10384300240D125B30D0E0F0120F0FEE240E125B4A
:1038530030E91251DAE0C0E0EE2411125B30D0E01F
:10386300F0EEFAEFFB023D3774F612036B74EB12C2
:1038730008AEEAFEEBFF124DFC600302390F7A0734
:103883007B00121569900339123AFF124DFC6078E0
:103893008E828F83120A4D90033A124071120A5995
:1038A3001269FCC0E012391BD0E0F0EE2405FAEFF8
:1038B3003400FB8A088B098A82F583E0C0E0123961
:1038C30016D0E0123D2EE0C0E0123916A3D0E0126C
:1038D3003B6B120A4D851882851983120A59888217
:1038E3008983E0C0E07405120A70D0E0F085088295
:1038F300850983E0C0E07404120A70D0E0F0740715
:10390300120A70123A5180067910800279017415F7
:10391300023B9312391BA322900339E0FAA3E0F58B
:10392300838A82A3A3A3A322C082C083124DFC6017
:103933000D90033912570E900339E4F0A3F0120EE1
:103943002B121005023AB774F012036B74EB1208D2
:10395300AEECFEEDFF89087425120A70780C120A8A
:10396300137429120A70E0F9742A120A70E0FC74C5
:103973002B120A70E0FD740F697005740F6C6012EE
:103983009012A3E06402700579C1023A4CE9C39C2A
:1039930040F6900378780C120A31E50890037EF024
:1039A300E990037CF0ECA3F0ED90037FF074FF6AE1
:1039B300700374FF6B701D9012AFE0F47003A3E00B
:1039C300F470051214D9800C9012AF123AD4E8F0B7
:1039D300A3E98007900375EAF0A3EBF0EE4F6017BD
:1039E300EEFAEFFB1210C5E96401700BEEFCEFFD7C
:1039F3007A897B03121CA1900368E4F0A3F090037F
:103A03006BF0A3F0900388F09012A3E064027008B7
:103A130090037C740FF0A3F09003777405F01412F5
:103A23000A70E4F0900378120A4D85188285198391
:103A3300120A5990037EE0C0E07405120A70D0E0C8
:103A4300F07407120A70123A517415024575E412A4
:103A53003C18121CCB22C082C083900338E0700351
:103A63001217DF120BF7804CC082C083900338E03B
:103A73009012567004E4F0802D7401F0900338E046
:103A8300F460237C41E0C394415002E0FCECF8E095
:103A9300C398F0EC75F0E8A4CCA8F075F003A42863
:103AA300FD7A801245CB7A567B127941121CB9807C
:103AB30003120B8BD083D0820207CCEE125B3F2222
:103AC300E0F508A3E0F50922123ACF22122C18A33D
:103AD300221245699003752274F712036BEB90036E
:103AE3007FF0120E198005740D12081A7F0102056A
:103AF30085123AFAA3E022123B6BA322EAF0A3EB6E
:103B0300F02274F712036B74F81208AEEAFEEBFFAF
:103B13007900900377E064087044851882851983DF
:103B230074FDF0A374FFF0120EF77402120A701200
:103B33003AFF7405120A70E4123AFAE0C0E0740422
:103B4300120A70D0E0123B66C0E07406120A70D00D
:103B5300E0F07407120A70E4123C14120F51740857
:103B6300023AEC123B6BE022F08E828F8322F085C7
:103B73001882851983228518828519831245692243
:103B8300E0F8A3E0F9125B3EE8F0A3E9F022740445
:103B930012081A7F02020585C082C083900349740C
:103BA300B7F0A3740CF09003EF74ABF0A3740FF0B1
:103BB30090034D74EDF0A3740CF090034F74B7F0C1
:103BC300A3740CF090035174F3F0A3740CF0023A55
:103BD300B774F412036B74F91208AE8A088B098C5C
:103BE3000A8D0B8518828519837808120A317404AB
:103BF300120A70E9F07405120A70E4F07406120AEE
:103C030070E4123C14120BDF7407023D34E8F0A396
:103C1300E9123C1822123B71AA82AB832274F4127C
:103C2300036B8A088B098A828B83125B4CEE4F707D
:103C330003023D2C900312124DFF60158A828B8381
:103C4300A3A3E0F9EEFAEFFB900313124071121EE7
:103C5300628E828F83A3A3A3A3A3A3A3A3A3E064DE
:103C63000270748E828F83A3A3A3A3A3A3E0540241
:103C73007003023CFE850882850983A3A3E064E9FF
:103C830060798E828F83A3A3A3A3A3A3A3A3A3A3D8
:103C9300E070149012A6E0048E828F83A3A3A3A3E3
:103CA300A3A3A3A3A3A3F08E828F83A3A3A3A3A3FE
:103CB300A3A3A3A3A3E014123D2EA3A3A37404F010
:103CC3009012A7125587E8F0A3E91266608B0BEAFE
:103CD300450B700312603E8E828F83A3A3A3A3A31D
:103CE300A3A3A3A3E0640260128E828F83A3A3A382
:103CF300A3A3A3A3A3A3E06406702E8E828F83A342
:103D0300A3A3A3A3A3E0A2E0501F85088285098390
:103D1300A3A3E0F9EEFAEFFB121D438E828F83A378
:103D2300A3A3A3A3A3E054FEF08009123F7522745A
:103D33000D12081A7F0402058574EC12036B74DDFF
:103D43001208AEEAFEEBFF8C088D097437120A7075
:103D5300780C120A13750A007405120A70AC82AD4E
:103D630083120A9B7412120A70E070087415120A07
:103D730070E060207405120A70E0A2E6501E8E8285
:103D83008F83A3A3A3A3A3A3A3A3A3125279120F65
:103D930087E960087903121C89023F5B7405120AE4
:103DA30070E0540C64047005750B018003750B00FF
:103DB300E0A2E55035750A01E50BA2E0402C120E96
:103DC300FD8A108B11A810A911123ABEE068700386
:103DD300A3E06960157405120A70126B3F125275E5
:103DE300121D4FE96004790480AC7405120A70E077
:103DF300A2E650227406120A70E054037018740588
:103E0300120A70E0540C640C600CE0540C640860FB
:103E13000575100180037510007405120A70E054D3
:103E230003F8740268700C126B3F125275120AADDC
:103E3300023F5B740168703AE510A2E05003123F41
:103E4300637405120A70A882A9837403120A70E8C6
:103E5300F0A3E912455D851882851983123F6DE051
:103E6300C0E07402120A70D0E0123C14121E330236
:103E73003F5BE86003023F5B90035FE06401701007
:103E83008E828F83A3A3A3A3A3A3E07003023DE9C0
:103E93007422120A70740212455D741A120A7012A7
:103EA3003B8BE510A2E050087405120A70123F63C1
:103EB300E50BA2E0506AEE240FF582EF126203C015
:103EC300E07417120A70D0E0F0900314124DFF70E3
:103ED30003023F5B120EFD8A128B13A812A91374FF
:103EE3001A120A70E0687003A3E069706B780C1211
:103EF30007FF780A12080B7808120807A910740C38
:103F0300120A70AC82AD837421120A70AA82AB8349
:103F130090031412406E121E62740712081A80383E
:103F2300780C1207FF780A12080B7808120807901A
:103F33000375120654EE2412F582EF125F317423D7
:103F4300120A70AC82AD83740E120A70AA82AB831C
:103F5300121D37740912081A742312081A02662BE9
:103F6300126B3F12571C120AA122E8F0A3E9123F79
:103F73007522123F7922F08E828F83A3A3A3A3A37A
:103F8300A32274F712036B1216CB023AEF74F712E3
:103F9300036B1216D1023AEF74F712036B1216DD9C
:103FA300023AEFC082C0831216D7023AB774F712EF
:103FB300036B1216E3023AEF74F712036B740912E0
:103FC3000A70E0F508780812080B1216EF74010264
:103FD3003AECC082C0831216FB023AB7C082C08398
:103FE300121701023AB774F712036B121707023A5A
:103FF300EF74F712036BEAFEEBFF8908740165089F
:1040030070147900120D2F902552E493FC7900EE81
:10401300FAEFFB120CA5023AEF74F412036B74F976
:104023001208AEE9FE8A088B098C0A8D0B741312F1
:104033000A70125279900770124DFF6027EE8518AF
:1040430082851983F07401120A707808120A31EA22
:10405300F8EBF97405120A70123C109007701240C5
:104063006E121E62023C0BFB90034BE0F8A3E0F5DB
:1040730083888222C082C083121737023AB774F74B
:1040830012036B901259E0F97E00800B1261EF541A
:104093000D64017001190E12427B5003E970ED02A9
:1040A3003AEF74F712036B90125AE0F97E00800B1B
:1040B3001261EF548D64817001190E12427B50031B
:1040C300E970ED023AEF74F212036B890BE975F0B4
:1040D30006A4240CF508E5F01232C78A0CE508257E
:1040E3000CFAE5093400FB1215698A0C8B0DAE0C32
:1040F300AF0DEE4F6027AC08AD0979001214CD1255
:104103003ABEE50BF0EE2508F8EF3509F98E828FFC
:1041130083A3A3A3A3A3A3A3A3A3123B8BEEFAEFAF
:10412300FB02507474F612036BEAFEEBFF120C8170
:10413300901258E0F8E9C398400990034512527968
:10414300120C87EE2402F8EF12589190034712578E
:104153004B900347E004F0EEFAEFFB120C8D850859
:1041630082850983E0025D47C082C08379009003A2
:10417300458001091252798A828B83E582458370D7
:10418300F2023AB774F712036BEAFEEBFFEE4F60ED
:1041930056900345124DFF604E888289837A007BD7
:1041A30000EE65827003EF6583600FAA82AB831212
:1041B30041EDE5824583602F80E79003451241F985
:1041C300687002EF698E828F837008123B7F9003C1
:1041D30045800312663D123B8BEEFAEFFB121E0382
:1041E300EEFAEFFB12156F023AEF1241F12212457C
:1041F3006D8882898322124569EE22C082C0839032
:104203000345800488828983124DFF600B8882896D
:10421300831248B1EC4D70EC8A828B83E4F0A3F0F7
:10422300E8496006888289838003900345123AFF38
:10423300023AB774F712036B90034580048A828BAA
:10424300831242764B60257E0080010E12427B5022
:10425300ECEE75F006A4FCADF0EA2CFCEB3DFDECB6
:104263002410F582ED1242CB70E180047A007B00CA
:10427300023AEF125720EA221242D4EEC398227474
:10428300F712036B7D0080010D1242D0EDC39850ED
:1042930034ED75F006A4FEA8F0E8FFEA2EFEEB3F2E
:1042A300FFEE2410F582EF1242CB70DCED75F006C1
:1042B300A4FEE8FFEA2EFAEB3FFBEA2411F582EBBA
:1042C3001262034CF0023AEF12620F69221242D4D7
:1042D30022126B49EB3400F583E0F82274F61203E3
:1042E3006B120DA77A007B008025EAF8EBF9E875DD
:1042F300F006A4F8ACF075F006E9A42C1256F512FA
:104303006A0AA3E41257EBF0A3126A10126B8790A8
:10431300253A122F4640D37A007B00801C8A088BF3
:1043230009740378081209501251A1A374FEF0A373
:10433300041255CBA3E4126B8790254612437E40AB
:10434300DC7A007B00801D8A088B097403780812CD
:104353000950749D125E7B74111266C274FEF0A341
:1043630004126B8790254C12437E40DB902545E475
:1043730093900353F0124388023B96E493F8C3EA05
:1043830098EB9400227CE87D037A107B009003C2B3
:10439300E0F912161D2274F012036B74F51208AEC5
:1043A3008A088B09890A8C0BE9A2E050147508FC72
:1043B3007509FFA2E15005D2E402445BD2E3024453
:1043C3005B1250607003A3E0697005790002452811
:1043D300AC0A7902AA08AB09120D83E960EDE50A7C
:1043E300F50C780C12080B79027CFE7DFFAA08AB52
:1043F30009124DDB12081AE96003024526E50AC2D9
:10440300E5F50A9003B5E07051E50AA2E6404B7466
:1044130003120A70AC82AD83AA08AB09120B19E927
:1044230070321246FC8A0C8B0DA80CA90DE8FEE92C
:10443300FFE8496025EE24020A0AEF122C56601A9F
:10444300EE2402FCEF3400FD7403120A70AA82AB5F
:1044530083121CA1E50AD2E5F50A900348E0F50CA6
:10446300900368E0F50EA3E0F50F780E1208077DC0
:10447300017C00900348E0F9AA0EAB0F120D3B74C8
:104483000212081AE9F8900348E004F0E860030216
:104493004526E50AA2E55004740E80027406C0E0C6
:1044A3007401120A70D0E0125B5D8A0E8B0FAE0EA0
:1044B300AF0FEE4F606912454612455D88828983CE
:1044C3007401F07478550AA3126B4FE50C126B4F0D
:1044D300A3E508F0E509124535E4F0E50AA2E55045
:1044E3000F7403120A70AC82AD83E8240612452CC4
:1044F3008E828F83A3A374FDF0A374FFF0E50B609A
:1045030015902553E493F8E50BC3985009EE241353
:10451300125B30E50BF0EEFAEFFB120BD38006795A
:1045230010800279C7740B8049FAE93400FB121C2E
:10453300A12288828983A3A3A3A3124541221258EF
:10454300C4A322EE2417125B417401F0120EF7EE9E
:10455300241A125B41EAF0A3EB22F0126B433400FE
:1045630012456722F58312456D22E0F8A3E0F92294
:10457300740D12081A7F0802058574F612036B7A0C
:10458300007B1012604B60089003D47401F0802903
:10459300900813E064019012A47006E0FC79018096
:1045A30004E0FC79037A007B00120CA590253812F5
:1045B30045BF7A007B101245CD023B961245C322BC
:1045C300E493FC740193FD227B009003C2E0F91293
:1045D30016172274EC12036B8A088B098C0C8D0D51
:1045E300890E7414120A70124FBA7416120A70E00C
:1045F300F510A3E0F511120F87E960077AFF7BFF3F
:104603000246F99012A3E0640260030246EC7900CB
:10461300AA08AB09120D89A90E120D7D8A128B13FC
:10462300AE12AF13EE4F70030246D48E828F83A374
:10463300A3A3A3A3E064018E828F83A3A370691253
:1046430052798E828F83A3A3A3A3A3A3E0541860FC
:1046530043902551E4938E828F83A3A3A3A3F0EA0F
:10466300650C7003EB650D6014EA650A7003EB6576
:104673000B600AEA65107003EB6511701F78101266
:104683000807AC0AAD0BAA0CAB0D1210837402120F
:10469300081A8008900367126035A3F074FE6A70ED
:1046A3000374FF6B601D804EA3A3A3E06403602922
:1046B3008E828F83A3A3A3A3A3E0640470057AFE71
:1046C3000246018E828F83A3A3A3A3A3E064027097
:1046D300089003B4E0640270101246FC8B0BEA45A9
:1046E3000B6006AA08AB09800DAA08AB0990034921
:1046F30012406E121E6202662B900375124DE11278
:1047030010472274F712036BEAFEEBFF120B6DE9FD
:10471300700AEEFAEFFB120B79E96006EEFAEFFB93
:1047230080047AFE7BFF023AEF74F012036B8A0A6D
:104733008B0B8C0E8D0F8909750800120F87E97991
:104743000060030248A3AA0AAB0B120D89A9091240
:104753000D7D8A0C8B0DAE0CAF0DEE4F60198E8262
:104763008F83A3A3A3A3A3E0640270559003B4E0D3
:10477300640270030248A1AA0AAB0B90034F1240D4
:104783006E121E62120B7F8A0C8B0DA80CA90DE80A
:104793004970030248A188828983A3A3A3A3A3E04A
:1047A300A2E040030248A1750C01A2E1506879011F
:1047B300AC0AAD0BAA0EAB0F120CD5E9706402481C
:1047C300A18E828F83A3A3A3A3A3E06403700575C3
:1047D3000C0280528E828F83A3A3A3A3A3E0640160
:1047E30060030248A19003751248B18E828F831231
:1047F3004C068A0C8B0DA80CA90DE84960D19025B5
:104803004AE493FA88828983E0C39A50C2A3E060A2
:10481300030248A180B988828983A3A3A3A3A3D257
:10482300E1F0EE4F603A8E828F83A3A3A3A3A3A3E9
:10483300E05418602B7508018E828F83A3A31206A0
:1048430054750CFE750DFF780C1208077900AC0A3D
:10485300AD0BAA0EAB0F120D9B740412081A803E07
:10486300900368E0650E7004A3E0650F7014902553
:1048730052E493FCA909AA0AAB0B120CA575080113
:10488300801CA90CAC0AAD0BAA0EAB0F120CD5E918
:10489300700C750801A909AA0AAB0B120D2FA90800
:1048A300024578E50C2415F582E50D125B4412559B
:1048B300A12274EA12036B74F01208AE8A0C8B0DFA
:1048C3008C088D097426120A70E0F514A3E0F5151F
:1048D3007512069003F5124DFF602390037512487D
:1048E300B1AA08AB091210718A108B11EA45116045
:1048F3000D8A828B83A3E070057900024BEEE50CF1
:10490300241DF50EE50D3400F50F850E82124DEBD7
:10491300F51388828983A3A3A3E0FA88828983A3FA
:10492300A3A3A3E0F9EA2400FEE439FFAA08AB0934
:10493300120D35850E82850F83124C29E029F50B64
:10494300E50AA2E5500375120E7487550A701774B1
:1049530018550A6418600FE50C2417F582E50D124B
:104963006203651260077901121C89808C530A78EF
:10497300C3EE94F8EF94FF501D7900EEFAEFFB12AB
:104983004BF8601288828983A3A3A3A3A3A3E05453
:104993001860030248FC78081208077D00124C1CBB
:1049A30012081AE9F874036870030248FCE860030C
:1049B300024A677418550A7003024B1CE50AD2E0D9
:1049C300F50AA2E45004D2E1F50AA90A12527212BE
:1049D3004BF8605388828983A3A3A3A3A3A3E054C2
:1049E30018604488828983A3A3A3A3A3E06401700E
:1049F30036E510451160309003751248B1888289FD
:104A030083124C068A0E8B0FA80EA90FE849601774
:104A130088828983A3E0600F851082851183A312A6
:104A23005D5250030248FCE50AF50E780E12080B9E
:104A3300124C0F12081AE9702B7C007D008514823A
:104A430085158374FFF0A3F0850C82850D83A3A3E2
:104A5300A3A3A3A3A3A3E060031248A6A90B125226
:104A6300721216F5851482851583E0F47003A3E0B2
:104A7300F460399003B4E0640270030248FC124FFF
:104A8300ABE0FAA3E012406A121E62EA6508700303
:104A9300EB650960030248FCEEFAEF12406A121E4E
:104AA30062851482851583EAF0A3EBF07808120877
:104AB300077D01124C1C12081AA90AEEFAEFFB1229
:104AC3000D898A088B09A808A909900368E0687012
:104AD30003A3E0696003024BDFEEFAEFFB120B7FE7
:104AE3008A088B09A808A909E849606E8882898326
:104AF300A3A3A3A3E06401600D88828983A3A3A376
:104B0300A3E064027054851882851983AC82AD8357
:104B1300EEFAEFFB120B198055900361E0600FE58D
:104B23000AF50E780E12080B124C0F12081AE50A3A
:104B3300F50E780E12080B79027CFE7DFFEEFAEF7C
:104B4300FB124DDB12081AE96003024A67851482DF
:104B530085158374FFF0A3024AAE120EF7EAFCEB4D
:104B6300FD851882851983AA82AB83121CA1850C4B
:104B730082850D83A3A3A3A3A3A3A3A3E0640170CE
:104B83000F1248A67408120A70AA82AB83121CA1E2
:104B9300124DB51259C94430F508780812080B7440
:104BA30001120A7085820885830978081208077440
:104BB3000B120A708582088583097808120807E5B5
:104BC30013F508780812080B7900EEFCEFFD12527A
:104BD30072120CCF740612081A0248FC124DB51259
:104BE3005B33124C29E50BF0120F0F741012081AE5
:104BF3007F0E020585120D7D8A0E8B0FA80EA90F5D
:104C0300E84922A3A3125720121071227901AC089C
:104C1300AD09125715124DDB22AC0BA91312571510
:104C2300120D3B7402221259D1A3A3A3A32274F041
:104C330012036B74F01208AE8A0C8B0DECFAEDFBC9
:104C4300750F089003F5124DFF6014125D4B8A82B5
:104C53008B83E58245836007A3E07003024DB012A6
:104C63004DB53400124DEBF50B88828983124DBE8E
:104C7300E0FBEC2400FEE43BFF88828983A3A312BC
:104C83004DBEA3A3E0FBECF508E43BF5098882895C
:104C930083A3A3A3A3A3A3A3E0F50EE50AA2E45071
:104CA30003750F10A2E550067408250FF50F748FD6
:104CB300550A700FE50C2417F582E50D12620365A2
:104CC3000F60087901121C89024DB0530A707800F5
:104CD300E50AA2E45022124DB51262032408FCA394
:104CE300E03400FD7408120A70AA82AB83121CA17F
:104CF3007808E50AC2E4F50AE50AA2E55028124D50
:104D0300B512620328F8A3E03400F9E82408FCE9AB
:104D13003400FD851882851983AA82AB83121CA1F6
:104D2300E50AC2E5F50AAC0EA90BEEFAEFFB120D8C
:104D330041E9F87403686075900368E06E7003A33B
:104D4300E06F605EE87054E50AF50F780F12080B08
:104D5300124DCC12081AE97054780A12080B740128
:104D6300120A7085820C85830D780C120807740B68
:104D7300120A7085820C85830D780C120807E50BE7
:104D8300F50A780A12080BA90EAC08AD09EEFAEF82
:104D9300FB120CCF740612081A8012740468700D8B
:104DA30080B7780A12080B124DCC12081A7410023D
:104DB3004575E50C241DF582E50D22A3A3A3E0FCB4
:104DC30088828983A3A3A3A3227901124FB2125B22
:104DD30044124DE1124DDB22120CF9740122E0FC66
:104DE300A3E0FDAA08AB0922F5831241F1A3E0F584
:104DF3000A88828983A3A3E02290033912577C2275
:104E030074E812036B74F51208AEEAFEEBFF8C082C
:104E13008D0989147423120A70E0F50F7424120AA1
:104E230070E0F512A3E0F5137426120A70E0F5168C
:104E3300A3E0F5177428120A70E0F50EA90F120DFE
:104E4300478A108B117401120A707408F0E50EA2E0
:104E5300E450037410F0E50EA2E55004E02408F0DA
:104E6300851882851983AA82AB83120F6F8A0C8BF4
:104E73000DEA450D7003024F92EA2417F582EB12F7
:104E83004FA4120EF7E50C241AF582E50D125B33DD
:104E9300123AFF7403120A70AC82AD83AA10AB11ED
:104EA300120B19E9601D124F9C7403120A70A88239
:104EB300A983E50C2418F582E50D125B33E8F0A312
:104EC300E98024E50EA2E4501FE5106E7003E5119E
:104ED3006F7015124F9CE50C2418F582E50D125BDB
:104EE30033E512F0A3E513F0124FAB124FBA850A64
:104EF30082F5837402F0A3E50E124FC2E50FF0EEC4
:104F0300850A82850B83A3A3A3F0EF850A82850B11
:104F130083A3A3A3A3124FC2A3A3A3E508F0E509A8
:104F2300850A82850B83A3A3A3A3A3A3F0AA10AB33
:104F330011120D35E92514850A82850B83A3A3A3DA
:104F4300A3A3A3A3F0750800E50EA2E45011AC12CD
:104F5300AD13E50A2408FAE50B12452E750808E59A
:104F63000EA2E55014AC16AD17E50A2508F8E50BBB
:104F73003400F9E8240812452C850C82850D83A39F
:104F8300A3E510F0A3E511F0AA0CAB0D120BD3743B
:104F93000B12081A7F10020585E50C2416F582E52D
:104FA3000D125B447401F022124FB2125B4422E5EE
:104FB3000C126B4AE50D22E0F50AA3E0F50B22F093
:104FC300850A82850B83A3A32274F212036B8A08DA
:104FD3008B09ECFEEDFF890A79001250607003A380
:104FE300E069700479018073750B01900368E065D3
:104FF300087004A3E06509601F750B00780B1208A5
:105003000BA90AEEFCEFFDAA08AB09120FC374014A
:1050130012081AE9F50B80417900EEFAEFFB120D45
:105023007DEA4B602B8A828B83A3A3A3A3A3A3E074
:105033005418601C7508FE7509FF78081208078A62
:10504300828B83A3A312065412695F12081A800984
:105053007901EEFAEFFB120C57A90B8014120D899C
:105063008A0C8B0DA80CA90D900368E06822120826
:105073001A7F0602058574F412036B7508E575093A
:105083000F7A101266678B0BEA450B700312438885
:10509300900353E014F0700C902545E49390035370
:1050A300F0120D957E007F00806C85088285098350
:1050B300A3A3A3A3E06059F46056E5082404F58292
:1050C300E50912602F7049850882850983A3A3A38C
:1050D300A3A3E0640370197902850882850983120A
:1050E30048B1850882850983A3A3125279120CD58E
:1050F300850882850983A3A3A3A3A3E064016010A9
:1051030085088285098374FEF0A3041251D3E4F069
:105113001236FC1232BF90253C1267C3408C7E00CE
:105123007F008039120E9D8E088F09740378081250
:105133000950745D2508FC74113509FD7AE17B0C77
:10514300120E8BEA4B70DD8E088F097403780812F8
:1051530009501251A1126A0AE4F01236FC90254656
:10516300E493F8C3EE98EF9400501B8E088F0974F4
:105173000378081209501251A9E82407F582E912AD
:10518300602F70D680A17E007F00800A1251B46028
:105193000214F01236FC1267C040F1023D3712517F
:1051A300A98882898322745D2508F874113509F969
:1051B30022EEF8EFF9E875F006A4F8AAF075F00608
:1051C300E9A42AF974FD28F582741039F583E022E5
:1051D3001251DAA3A3A322F0850882850983A3A32E
:1051E3002274F712036B74E11208AEECFEEDFF7547
:1051F3000800EE4F60728A828B83E0241C12606089
:10520300124DFF60638A828B8312527985188285DF
:105213001983AC82AD83EA241BF582EB125F31EA7A
:10522300241CF582EB125275120EDF740B120A70F6
:1052330012527D7003A3E069702E7402120A70E0AB
:1052430064017024741D120A7012406EE0640170D0
:1052530017741D120A70124070A3A3E0F88E828F98
:1052630083E0687003750801A908741F023AEC1201
:105273004FB23400F58312572022122C14E0682217
:1052830074F412036BE97024790090034D12406E9D
:10529300121E628A0A8B0BAE0AAF0B74FE6E70038A
:1052A30074FF6F701A90254DE49360137901900396
:1052B3004D12406E121E628A0A8B0BAE0AAF0B129E
:1052C3000F33023864E028F8A3E039F92274F612A8
:1052D300036B74F31208AE1214D98A088B09AE0853
:1052E300AF09900368E06E7003A3E06F60E9120FEB
:1052F30003EA6E7002EB6F60DEEEFAEFFB120F87CC
:10530300E970D4EE4F60D0851882851983E4F004E8
:10531300120A70EEF0A3EF125333E970BA74FE6E03
:10532300700374FF6F60B0EEFAEFFB740D023B93F2
:10533300123C18120B3122C082C083120F33023A7F
:10534300B77F0A02058574F212036BEAFEEBFF8C4A
:105353000A8D0B8908740E120A70E0F50974FC6E4D
:10536300700374FF6F700579000250747900120D99
:10537300898A0C8B0DAE0CAF0D900368E06E700341
:10538300A3E06F7006E509A2E650DCA90912684D97
:10539300706179007AFE7BFF12684D705674185560
:1053A300097003025480780079008003122E0E9056
:1053B300253C122E054003025480E8FAE9FBEA7506
:1053C300F007A4FAACF075F007EBA42CFB74EB2AFE
:1053D300F582740F3BF583E0541870D0E875F0073D
:1053E300A4F8AAF075F007E9A42AF974E528F8747B
:1053F3000F39F988828983A3A3A3A3A3A3E0541835
:10540300600974185509700302536A88828983EE10
:10541300F0A3EFF074FE650A700474FF650B60037C
:105423001255A788828983A3A3A3A3A3A3E509F0A5
:10543300A2E0500D88828983A3A3A3A3A3A3D2E2EE
:10544300F07401650888828983A3A3A3A3A370389A
:1054530074011255CBE054186028902551E49388C9
:10546300828983A3A3A3A31255951210718B0DEA0E
:10547300450D600302536A7800790080397902028E
:10548300536C900367E080D7E06401700302536AB2
:1054930088828983A3A3A3A3A3A3E05418600790DE
:1054A3002551E4938004900366E0124535E508F046
:1054B30002536A122E0E902547E493FAC3E89AE941
:1054C3009400400302536A7A007B00804BEAFCEBB2
:1054D300FDEC75F007A4FCAEF075F007EDA42EFD0E
:1054E30074E72CF582740F3DF583125B4CE8FCE9FD
:1054F300FDEC75F017A4FC85F00975F017EDA425F4
:1055030009FD74752CF582740E3DF583E06E70030E
:10551300A3E06F609E1235D190253C1232CF40AD8F
:105523001245BFEC6A7002ED6B7088E875F017A442
:10553300F8AAF075F017E9A42AF9747528FE740E19
:1055430039FF7C177D007900EEFAEFFB1214CD8E44
:10555300828F831255AD900375125587A3A3A3A31E
:10556300A3A3E8F0A3E912558D7401F0EE240E1203
:105573005B3074011255B512021AEE240D125B3022
:10558300E80254B2123ACFA3A322F0EE240F125B27
:105593004122F012559EAA0AAB0B22900375E0FC40
:1055A300A3E0FD2288828983A3A3E50AF0A3E50B88
:1055B300F022F01255BA2290254AE4932401F8E42C
:1055C3003400F97A027B0022124541A32274ED12C2
:1055D300036B8A088B09890E1256FE400579050272
:1055E30056CC12173DAA08AB091257D090253A1290
:1055F30056CF650A7003E9650B70077AFE7BFF12CD
:1056030057D090253AE41256D7E50A98E50B99400E
:10561300030256CA1256DB6012E50A75F006A4F8B7
:1056230075F006E50B12572612156FE50E6018E5A7
:105633000A75F006A4F8AAF075F006E50B125752A6
:10564300701A79010256CCE50A75F006A4F8AAF09F
:1056530075F006E50B125733E4F0A3F0E50A75F095
:1056630006A4F8AAF075F006E50B1256F3A3125937
:10567300DF88828983A3AA82AB831257418A828BF4
:1056830083E0603F1256DB603A8E108F1175120073
:105693007810120803E50EC333FCE433FDE50A7505
:1056A300F006A4F50AA8F075F006E50BA428F50B9F
:1056B3007401250AF5827411350B1252771234B72F
:1056C30012081A790080027907026863122F67E8CB
:1056D3002290253E1261EA22E50A75F006A4F8AA93
:1056E300F075F006E50B12572EF8A3E0F9E849220E
:1056F300A42A12588788828983A322ECFEEDFF90A7
:105703002548E493F8E9C39822F58312572012152C
:105713006F22E50C126B4AE50D3400F583E0FAA322
:10572300E0FB2212572EFAA3E0FB22125733E022AA
:10573300A42AF9740128F582741139F58322E50E40
:10574300F09012A512574B22E088828983F022122F
:1057530058ABF50CE93400F50DE50EC333FAE43329
:10576300FB121569850C82850D83EAF0A3EBF085A6
:105773000C82850D8312577C2212456DE8492274F1
:10578300F412036BECFEEDFF740C120A70123B7FF4
:10579300880889091257D0AC0AAD0BECF8EDF990E3
:1057A300253A1257D85021E875F006A4F8AAF075E7
:1057B300F006E91256F3E08E828F831257EB1257ED
:1057C300E1123B8B790080027904023D37120D0B05
:1057D3008A0A8B0B221234A9C3EC9AED9B22124541
:1057E30069850882850983221258C02274F6120340
:1057F3006B7E007F008028EEF8EFF9E875F006A4D1
:10580300F8ACF075F006E9A42CF974FF28F582745E
:105813001012646E6A7003A3E06B60571236FC12B9
:1058230067C040D31267BB7002E96F704674FE6AAB
:10583300700374FF6B703C7E007F0080031236FCA4
:105843001267C0502E1251B470F3EEF8EFF9E875F9
:10585300F006A4F812587D1258B26017125899F83E
:10586300E9125891888212570C850882850983E4CE
:10587300F0A3F0EEFAEFFB023B9675F006E912583F
:105883008522A42AF974FD28F8741039F92234000A
:10589300F98808890922EEF8EFF9E875F006A4F80B
:1058A30075F006E91258AB22125885E8240422A3A6
:1058B300A374FE1258BD12577C22F0A3041258C4DD
:1058C30022F088828983A3A3A3A32274F612036B15
:1058D300EA241DF582EB1259C9F9604BEA241DF540
:1058E30082EB1262032402FCA3E03400FD12570290
:1058F30040030259BC780080298C828D83E0F5082F
:10590300A3E0FFE5082400E43FF509E833FEE433B0
:10591300FF74452EF58274113FF5831259DF125936
:10592300BF08E8C39940D28A828B83A3A3A3A3A30E
:10593300A3A3A3A31248B1900368E06C7003A3E090
:105943006D700F7C457D11122B7D125275120CFF69
:105953008067EA2411F582EB126203605CFC74FF3A
:105963002CF0750801780812080B750845750911A4
:105973007808120807E9F508780812080BEA2412D8
:10598300F582EB126203F508780812080BEA241576
:10599300F582EB125B33120654ECF9122B7D12489D
:1059A300AE8A828B83A3A3A3A3A3A3A3A3A312520D
:1059B30079120D17740712081A023B96EC24020C95
:1059C3000CED3400FD22125B441259D1E022E0F8C1
:1059D300A3E0F5838882A32288828983E508F0A364
:1059E300E509F02274EA12036B74FD1208AE8A14FF
:1059F3008B158C0E8D0F890D7419120A70125B4C66
:105A0300741B120A70E0F511741C120A70E0F50C95
:105A1300741D120A70124FBA741F120A70E0F51047
:105A23006008E50CC333240480027402C0E07401EF
:105A3300120A70D0E0125B5D8A088B09EA4509708F
:105A430003025B288A828B83A3A3E514F0A3E515E5
:105A5300126656E50EF0A3E50FF0EA2413F582EB88
:105A6300125B33E50DF0EA2414F582EB125B33E5A8
:105A730011F0EA2417F582EB1262036401704012FD
:105A83000EFD8A0E8B0FA80EA90F85088285098348
:105A9300A3A3A3A3E0687003A3E0696022EE4F60B1
:105AA30011E508241AF582E509125B33EEF0A3EF42
:105AB300800CE5082417F582E509125B33E4F01244
:105AC3005B37125B4C8E828F837405F0A3E51070F5
:105AD30004E50C80487401250C125B567A0080287B
:105AE300850A82850B83E0125B52850A82850B83CC
:105AF300A3E08E828F83F0E50A2402F50AE50B34D6
:105B030000F50BA30EAF830AEAC3950C40D2120E25
:105B1300FDEA125B52120EFDEB8E828F83F0AA0810
:105B2300AB09120BD37403024BF0EE240CF582EF96
:105B3300125B4422122B8E125B4422EE240BF5825D
