:020000040000FA
:06000000020A030201BE2A
:03002B0002084E7A
:03004300020703AE
:030053000200EFB9
:100083000201530101FF01010503010F10FEFF8768
:100093001287128712871243113D118712782100AC
:1000A3000000009E22000000000C0000000C000174
:1000B300FFFF0102004107000000BA07E8036400E4
:1000C3006400B80102020020000005020701051EBA
:1000D30002051E020A0A03B80B02803E010201FF59
:1000E300FF0A1401E096511800020206C0E074F200
:1000F3001203D7A2AFE433FED2AFE5A7FFE5A1F524
:10010300085F541060061219A775A1EFE5085F5444
:100113000860081219AD75A1F7802BEFA2E0C0D0DB
:10012300E508A2E092F012093D158182F050179084
:100133006198E0F8900C95E0C398A2D265D0335053
:1001430002E8F075A1FEEEA2E092AF7F0102043651
:10015300C0E074F21203D7A2AFE433FED2AF9061D2
:10016300A4E0F8759B00E59158540860087591F771
:100173001219F5802AE59158541060087591EF1211
:1001830019FB801BE8A2E0C0D0E591A2E092F01237
:10019300093D158182F05007E0C2E0F0121B4B903D
:1001A30061A3E0F8E5E9585404600E121B2175E9D8
:1001B300FB906193E0A2E640F2808BC0E074F21200
:1001C30003D7A2AFE433FED2AF9061A5E0F8E5BF59
:1001D300585404600675BFFB121B63020149C3E454
:1001E30098F8E499F91202228026C3E49AFAE49B70
:1001F300FBE920E7E9120222E498F8E499F922C323
:10020300E498F8E499F9120222E498F8E499F9C31E
:10021300E49AFAE49BFB22EB20E7CFE920E7E0B97D
:100223000010BB0008E88AF084F8AAF022E4FBC8B7
:10023300FA22EB70227B10C833C8C933C933500785
:10024300C39AC3DBF280069A50012ADBEAC833F46F
:10025300C8C933F4C9FA2275F008E4C833C8C933EE
:10026300C933C99AC99B5004C92AC93BD5F0ECFBD1
:10027300C833F4C8E4C9FA22080808EAC0E0EBC0AE
:10028300E086F0E7A4FA180986F0E7A42AFA180929
:1002930086F0E7A42AFA180986F0E7A42AFA198651
:1002A300F0E7A4FBE5F02AFA190886F0E7A42BFB94
:1002B300E5F03AFA190886F0E7A42BFBE5F03AFAE1
:1002C30018180986F0E7A4C5F02BFBE43AFA1908DD
:1002D300E7C5F0C6A426F6E5F03BFBE43AFA188638
:1002E300F0E7A4F6E5F00826F6E43B08F6E43A085E
:1002F300F6D0E0FBD0E0FA22E4CFC0E0E4CEC0E0E9
:10030300E4CDC0E0E4CCC0E075F020C3E633F608EA
:10031300E633F608E633F608E633F6181818EC3336
:10032300FCED33FDEE33FEEF33FFC3EC9709ED979E
:1003330009EE9709EF97191919400FFFEC97FC097C
:10034300ED97FD09EE97FE191906D5F0BEECF709F6
:10035300EDF709EEF709EFF7191919D0E0FCD0E032
:10036300FDD0E0FED0E0FF222518C582C0E0E519EC
:1003730034FFC583C0E0E518C3958224F810AF08A5
:100383008583198582188008858319858218D2AFE1
:10039300CEF0A3E520F0A37808E608F0A3DEFAEF99
:1003A300F0A3E58124FAF8E608F0A3E608F0A3E653
:1003B30008F0A30808E608F0A3E608F0A3158115E2
:1003C30081D0E0FED0E0F8158115811581E8C0E009
:1003D300EEC0E022C0D02518C582C0E0E51934FF85
:1003E300C583C0E0E518C3958224F310AF08858365
:1003F300198582188008858319858218D2AFC8F0C1
:10040300A3E9F0A3EAF0A3EBF0A37908E709F0A3CB
:10041300D8FAECF0A3EDF0A3EEF0A3EFF0A3D0E055
:10042300F0A3D0E0F0A3D0E0F0A3E520F0A3E5F043
:10043300F0A322851983851882E0C0E0A3E0F9A325
:10044300E0FAA3E0FBA37808E0F608A3DFFAE0FCF8
:10045300A3E0FDA3E0FEA3E0FFA3E0C0E0A3E0C0B0
:10046300E0A3E0F5D0A3E0F520A3E0A3F5F010AFFF
:10047300088583198582188008858319858218D297
:10048300AFD082D083D0E0F8D0E032120A65B90051
:10049300030204D0E4900301785D79108002F0A395
:1004A300D8FCD9FA90125DAA82AB83900086786A51
:1004B30079018015E493A3AC82AD838A828B83F0A8
:1004C300A3AA82AB838C828D83D8E9D9E775828C0A
:1004D3007583DD74031207C67582DF75831D74008F
:1004E3001207C6FA0675F0108E1A8F1B85821F85B8
:1004F300831E851882851983E0CEA3E0CF851F82F2
:10050300851E83EBC9EAC8EDCBECCAC3E833C8E95F
:1005130033C9EA33CAEB33CBC3EA9EF51DEB9FF530
:100523001CB35004AB1CAA1DEC33CCED33CDD5F07A
:10053300DAAE1AAF1B22D083D082ECC0E0EDC0E06C
:10054300E493A3FCE493A3FDED4C600D120611ECC0
:1005530024FFFCED34FFFD80EFE493A3FCE493A3BD
:10056300FDED4C600D1206AEEC24FFFCED34FFFDF7
:1005730080EFD0E0FDD0E0FCE493A3C0E0E493C0BF
:10058300E022851983851882E0A3FEE0A3F5207895
:1005930008E0A3F608DFFAE0A3FFE0A3C0E0E0A3CE
:1005A300C0E0E0A3C0E0E0A3C0E0E0A3C0E010AF80
:1005B300088582188583198008858218858319D256
:1005C300AFD083D0820207CCD083D082E9C0E0E4ED
:1005D30093A3C386F0C5F095F0F908E493A386F0DE
:1005E300C5F095F0700BE493A3C3994005E904802B
:1005F30002A3E475F002A42582F582E5F03583F5C4
:1006030083D0E0F9E493A3C0E0E493C0E022C0E028
:10061300C3E49396087401939618400FE4936670AD
:100623000808740193661870007019A3A3C3E493B8
:1006330096087401939618A3A3400DD0E0D0E0D0A0
:10064300E0020575A3A3A3A3A3A3D0E022740480AF
:100653000474028000CCC0E0EDC0E0E518C39CCC7C
:10066300AD1950011D10AF068C188D1980068C181A
:100673008D19D2AF120748D0E0FDD0E0FC227402FE
:100683008000CCC0E0EDC0E0E518C39CCCAD1950B0
:10069300011D10AF068C188D1980068C188D19D288
:1006A300AF120726D0E0FDD0E0FC22C0E0C0F08806
:1006B300F0E4936670080874019366187000A8F05C
:1006C300A3A3700BD0F0D0E0D0E0D0E0020575A377
:1006D300A3D0F0D0E022D083D082CCC0E0E493A3B7
:1006E30060061207A71470FAE493A3600612089831
:1006F3001470FAD0E0FCE493A3C0E0E493C0E022DA
:10070300C0E074F21203D7A2AFE433FED2AFC2C08B
:10071300E5D1A2E45003121917EEA2E092AF7F01D4
:10072300020436CAC0E0E493A3C582CCC582C58364
:10073300CDC583F0A3C582CCC582C583CDC583DA7D
:10074300E5D0E0CA22CAC0E0E0A3C582CCC582C519
:1007530083CDC583F0A3C582CCC582C583CDC583B4
:10076300DAE6D0E0CA22C008C3E096F50808A3E0A1
:1007730096420808A3E096420808A3E0964508704D
:1007830001D3D00822700908080822601618181827
:10079300C6C333C608C633C608C633C608C633C67F
:1007A300D5E0EA22C0E0E493A3D39C5010E493A3E2
:1007B300C39C400AD0E0D0E0D0E00206F6A3A3A396
:1007C300D0E022C09FF59FE473D09F22D083D082D4
:1007D300C09FE493C0E0740193C0E0740293F59F5B
:1007E300222518F58210AF08F51840021519800864
:1007F300F51840021519D2AF851983227404800AB3
:1008030074038006740280027401C0E0F4041207CA
:10081300E4D0E0120A4022C0D0251810AF08F51822
:10082300500205198008F51850020519D2AFD0D02F
:1008330022BB0102E722C082C08389828A83BB0074
:1008430003E08002E493D083D08222C0E0C0D0E8EA
:10085300C0E0E5A8D2AFC2C7A2E792AFD0E0F8D01C
:10086300D0D0E0326016080808C6C313C618C613F2
:10087300C618C613C618C613C6D5E0EA22C3E0C617
:1008830096F608A3E0C696F608A3E0C696F608A374
:10089300E0C696F622C0E0E493A36C7009D0E0D0E2
:1008A300E0D0E00206F6A3A3D0E022251810AF089B
:1008B300F518400215198008F51840021519D2AF32
:1008C30022E76670100809E766700A0809E7667090
:1008D300040809E76622C3E09608A3E09608A3E0AC
:1008E3009608A3E096A2D265D03322E06670100882
:1008F300A3E066700A08A3E066700408A3E066221A
:10090300C3E096F008A3E096F008A3E096F008A3EE
:10091300E096F022E026F608A3E036F608A3E036D8
:10092300F608A3E036F622E627F60809E637F608C6
:1009330009E637F60809E637F622C0E0E8C0E0E545
:100943008124FCF8E6A2E7D0E0F8D0E0227004228C
:10095300600D18C6C333C608C633C6D5E0F41822E3
:10096300E657F60809E657F60809E657F60809E6D2
:1009730057F622E056F608A3E056F608A3E056F62B
:1009830008A3E056F622E056F008A3E056F008A3C9
:10099300E056F008A3E056F022E647F60809E647DA
:1009A300F60809E647F60809E647F622E026F008C6
:1009B300A3E036F008A3E036F008A3E036F022E423
:1009C300C396F608E496F608E496F608E496F6224B
:1009D300C6F4C608C6F4C608C6F4C608C6F4C622DA
:1009E300C3E7960809E7960809E7960809E79622F8
:1009F300C3E09608A3E09608A3E09608A3E0962236
:100A030075D0007581407518017519030002048EB5
:100A1300E0F608A3E0F608A3E0F608A3E0F62260F8
:100A23000C08C6C313C618C613C6D5E0F422E6F0F5
:100A330008A3E6F008A3E6F008A3E6F022CAC0E0A4
:100A4300E6F0A308DAFAD0E0FA22E0FAA3E0FBA387
:100A5300E0FCA3E0FD22EAF0A3EBF0A3ECF0A3EDAE
:100A6300F022E5C754F84401F5C77901222518F5AA
:100A730082E43519F58322C2AF75D69F02000022A6
:100A83001207CF4CE2021207CFEFE2021207CF2385
:100A9300E4021207CF41E4021207CFDB240012075E
:100AA300CFED24001207CF3F25001207CFA025006A
:100AB3001207CF2A26001207CFCE26001207CF2215
:100AC30027001207CF3B27001207CF612700120729
:100AD300CF9C27001207CFE027001207CF0728007B
:100AE3001207CF5828001207CF0829001207CFC0DA
:100AF30029001207CF882A001207CF482B001207BC
:100B0300CF8C2B001207CFB12B001207CFF42B0091
:100B13001207CF412C001207CF992D001207CF1FC8
:100B23002E001207CF3D2E001207CF672E001207AB
:100B3300CF812E001207CF902E001207CF9B2E00DD
:100B43001207CF5B2F001207CFB42F001207CF7607
:100B530030001207CF7E30001207CF423100120758
:100B6300CFAE31001207CFD932001207CFFE3200C9
:100B73001207CF7433001207CF0634001207CFC613
:100B830034001207CFE534001207CFF43500120703
:100B9300CF0636001207CF7636001207CFA03600F5
:100BA3001207CF2E37001207CF6737001207CFB3D4
:100BB30037001207CFCF38001207CF183B001207B8
:100BC300CF233B001207CF2E3B001207CF393B0048
:100BD3001207CF433B001207CF4E3B001207CF68EB
:100BE3003B001207CF723B001207CF7C3B0012077A
:100BF300CF873B001207CFAF3B001207CF0A3C0061
:100C03001207CF143C001207CF383C001207CF5C09
:100C13003C001207CFBA3C001207CFFE3C0012077C
:100C2300CF1A3D001207CF913D001207CFC93D00F7
:100C33001207CF153E001207CF723E001207CF2CCA
:100C43003F001207CF1041001207CF69410012077E
:100C5300CF9942001207CFBF42001207CF4844008A
:100C63001207CFC447001207CF9649001207CF5F80
:100C73004B001207CF0C4C001207CF774D00120721
:100C8300CF164E001207CF5B4E001207CFC54E00A2
:100C93001207CFD44E001207CF5B51001207CF0DBE
:100CA30053001207CF7A53001207CF59540012078B
:100CB300CF7255001207CFEF56001207CF0E570021
:100CC3001207CF6357001207CF6858001207CF905F
:100CD30058001207CFE858001207CFC75900120770
:100CE300CF0B5A001207CF565A001207CFC15A0032
:100CF3001207CF025C001207CF665C001207CFB465
:100D03005D001207CF1460001207CF456000120781
:100D1300CFFD61001207CF5262001207CF56630066
:100D23001207CFF363001207CF4C64001207CFFF03
:100D330064001207CFA165001207CF4166001207B6
:100D4300CFE666001207CF5E80011207CF9D8001B8
:100D53001207CFE482011207CF2E83011207CF4976
:100D630084011207CFB184011207CFE68401120771
:100D7300CF5A86011207CFDD88011207CF068A01F9
:100D83001207CF9C8A011207CFA493011207CF3910
:100D930094011207CF2097011207CF13980112076E
:100DA300CF8198011207CFC799011207CFA99A01E2
:100DB3001207CF8E9C011207CF9F9E011207CF0906
:100DC3009F011207CFDB9F011207CF09A001120772
:100DD300CFC6A0011207CF9DA1011207CF64A201C4
:100DE3001207CF08A3011207CF31A3011207CF5374
:100DF300A3011207CFA9A5011207CF81A6011207EC
:100E0300CFC5A6011207CF2DA7011207CFE5A70172
:100E13001207CF17A8011207CF5BA8011207CF91C2
:100E2300A8011207CFDDA8011207CF32A9011207CB
:100E3300CF37A9011207CF8AA9011207CFAFA901A2
:100E43001207CFBEAA011207CF22AB011207CF921E
:100E5300AB011207CF1EAC011207CFEBAE01120795
:100E6300CFCFAF011207CF52B1011207CF88B30121
:100E73001207CF36B4011207CFE6B4011207CF270A
:100E8300B7011207CFCAB7011207CF11B801120772
:100E9300CFBDB9011207CFD1B9011207CFDBB90119
:100EA3001207CF03BA011207CF0FBA011207CF2ED1
:100EB300BA011207CF4EBC011207CF9DBD01120725
:100EC300CFE1BD011207CF89BE011207CF6CBF016D
:100ED3001207CF17C0011207CF63C1011207CF61F9
:100EE300C2011207CF07C3011207CF97C30112072D
:100EF300CFAEC3011207CFE5C3011207CFEFC30182
:100F03001207CFFAC3011207CF18C4011207CF5C2F
:100F1300C4011207CFB9C4011207CFDEC4011207FF
:100F2300CFF8C4011207CF84C5011207CFA1C601B0
:100F33001207CF0EC7011207CFF5C7011207CF1C47
:100F4300C8011207CF90C8011207CF0BC9011207BE
:100F5300CF0FCA011207CF05CB011207CFB4CB01C4
:100F63001207CF71CC011207CF4ACD011207CFE68A
:100F7300CD011207CF73CE011207CF51CF01120754
:100F8300CF89CF011207CFE1CF011207CFAAD0013A
:100F93001207CFCBD0011207CF52D1011207CF7660
:100FA300D1011207CF98D1011207CFE1D101120766
:100FB300CFF7D3011207CFDED4011207CF8FD501AC
:100FC3001207CFC5D7011207CF15D8011207CF5586
:100FD300D8011207CF97D8011207CFF3D801120710
:100FE300CF21D9011207CF45D9011207CF98D901D3
:100FF3001207CFC6D9011207CFFFD9011207CF5469
:10100300DA011207CFBADA011207CF0EDC01120799
:10101300CF31DE011207CF9EDE011207CFC7DE01FB
:101023001207CF52DF011207CFB9DF011207CF0436
:10103300E0011207CF28E0011207CF4CE0011207AD
:10104300CFA7E0011207CFC2E0011207CF7BE10176
:101053001207CF90EB031207CFCFEB031207CF7822
:1010630080021207CFBE80021207CF9E81021207B1
:10107300CFA082021207CFA383021207CF2F8502CC
:101083001207CF8D85021207CF4A86021207CF6857
:1010930087021207CFD987021207CF1588021207DA
:1010A300CF6388021207CF6D88021207CFB188027F
:1010B3001207CF0D89021207CFA889021207CF2585
:1010C3008A021207CFF48A021207CF8D8B0212070E
:1010D300CFAD8B021207CFE38B021207CF148C0222
:1010E3001207CFD58C021207CFE58C021207CF3936
:1010F3008D021207CF548D021207CF668D0212079D
:10110300CF6F8D021207CFC98D021207CF258E0232
:101113001207CF718E021207CF8C8E021207CFBD3A
:101123008E021207CFDA8E021207CFE68E02120763
:10113300CF5A90021207CF7390021207CFDA9002B0
:101143001207CFED90021207CFFB90021207CFAF29
:1011530091021207CF9392021207CF9993021207BB
:10116300CF2394021207CF2D94021207CF9A940231
:101173001207CFB194021207CFE394021207CF1CD8
:1011830095021207CF4695021207CFA795021207C1
:10119300CFC795021207CFE595021207CF2B960210
:1011A3001207CF5197021207CF9E97021207CFCD96
:1011B30097021207CF4398021207CF6B98021207C8
:1011C300CFA498021207CFB298021207CF0A99024E
:1011D3001207CF5999021207CF9899021207CFC865
:1011E30099021207CFF499021207CFFF990212074F
:1011F300CF1D9A021207CFDF9A021207CFE99A0294
:101203001207CF2A9B021207CF7F9B021207CF93AD
:101213009B021207CFA19C021207CFB49C021207B4
:10122300CFC99C021207CF6B9D021207CFEE9D021E
:101233001207CFAC9E021207CFB79E021207CFE36D
:101243009F021207CFFF9F021207CF51A00212077E
:10125300CF90A0021207CFA5A0021207CF07A102C9
:101263001207CF96A1021207CFE1A1021207CF32D4
:10127300A4021207CFB0A4021207CF25A5021207BA
:10128300CF47A7021207CF5FA7021207CF62A702B9
:101293001207CF6EA7021207CF82A7021207CF8AC7
:1012A300A7021207CFBDA7021207CF6DA80212072C
:1012B300CFE3A8021207CF56A9021207CF0AAA0248
:1012C3001207CFBFAA021207CFDEAA021207CF84EA
:1012D300AB021207CFAFAB021207CFB2AB021207BA
:1012E300CF1CAC021207CF44AD021207CF1CAE02D3
:1012F3001207CFA7AE021207CFC0AF021207CF7DEE
:10130300B0021207CFB6B0021207CFE7B00212073E
:10131300CFA5B1021207CFD5B1021207CFB0B202E7
:101323001207CF49B3021207CFD4B3021207CF85F6
:10133300B4021207CF08B5021207CF3AB50212075B
:10134300CF7BB5021207CF098D031207CF6E8D0332
:101353001207CFAB8D031207CFFA8D031207CF10FD
:1013630090031207CFF391031207CF5D9503120782
:10137300CF9895031207CFBA95031207CF1D960393
:101383001207CFD6D5021207CF7496031207CFA147
:1013930096031207CFFD96031207CF6CF3021207D1
:1013A300CFEAF3021207CF20F4021207CF8CF40224
:1013B3001207CFFFF5021207CF1BF6021207CF6009
:1013C300F6021207CFEEF6021207CF47F702120713
:1013D300CF74F8021207CF86F9021207CFFFE0029B
:1013E3001207CF4FFA021207CFB0FA021207CFF15A
:1013F300FA021207CF9EFB021207CFB0FC021207BC
:10140300CFDBFC021207CF26FD021207CF6DFD02D0
:101413001207CFFFFD021207CFBAFE021207CF6EEB
:10142300B1031207CFE7B1031207CF2DB50312079C
:10143300CFEDB5031207CF22B6031207CFACE803F3
:101443001207CF26E9031207CFA0AA031207CFEC96
:10145300AA031207CF5AAB031207CF7BAB031207C2
:10146300CF2BAC031207CF34AC031207CF87AC03E7
:101473001207CFB0AC031207CF17AD031207CFA8E3
:10148300AD031207CFEAAD031207CF34AE03120741
:10149300CF93AE031207CFBFAE031207CF50AF03F4
:1014A3001207CF8FAF031207CFCEAF031207CF03BD
:1014B300B0031207CF15B0031207CF27B0031207EB
:1014C300CF46B0031207CF4FB0031207CF05B103C6
:1014D3001207CF45B1031207CF85E9031207CF45A2
:1014E300EB031207CF5ADB031207CF90DB0312077C
:1014F300CFD9DB031207CF29DD031207CF326700F1
:101503001207CF7168001207CFAD68001207CF6CC6
:101513006A001207CF956A001207CF286D001207E1
:10152300CF6C6D001207CFF56E001207CF8D6F00E1
:101533001207CFF56F001207CF9670001207CFD8AE
:1015430070001207CF1871001207CFA372001207A1
:10155300CF1374001207CF3876001207CF667600D8
:101563001207CF8D76001207CF9676001207CF1D94
:1015730077001207CF3B7A001207CFDFFF02120773
:10158300CFF5FF021207CF14D3031207CF27D303DC
:101593001207CFC4D3031207CFFFD3031207CF1A07
:1015A300D4031207CF3FD4031207CF84D403120707
:1015B300CFB5D4031207CFE6D4031207CF6CD603FB
:1015C3001207CF31FF021207CF67FF021207CF8343
:1015D300FF021207CFC5FF021207CFD5FF02120782
:1015E300CF0080031207CF5280031207CF3B810342
:1015F3001207CFD481031207CF1E82031207CF7BBA
:1016030082031207CFAD82031207CFAB8303120706
:10161300CFEF83031207CF0A84031207CF59840342
:101623001207CF6F84031207CF7C84031207CFB056
:1016330084031207CFC984031207CF9385031207CC
:10164300CFED85031207CF3B86031207CF5D8603D9
:101653001207CFD488031207CF0289031207CF9250
:1016630089031207CF078A031207CF0C8A031207D5
:10167300CF488A031207CF9E8A031207CF628B03D8
:101683001207CF878B031207CF918B031207CF94D7
:101693008B031207CF1D8C031207CF388C0312075D
:1016A300CF4B8C031207CF868C031207CF898C0391
:1016B3001207CF948C031207CFD08C031207CFF8F5
:1016C300EA031207CF10EB031207CF499703120760
:1016D300CFB897031207CFBF99031207CF249B03F9
:1016E3001207CFE69C031207CF2E9D031207CF20CC
:1016F3009E031207CF519F031207CF7C9F0312074C
:10170300CFE09F031207CF5FA0031207CF93A0037D
:101713001207CF96A0031207CF99A0031207CF3168
:10172300A1031207CFB5E1011207CFD6E1011207DA
:10173300CF53E2011207CFD8E2011207CF54E301DE
:101743001207CFBDE3011207CF09E4011207CF88C7
:10175300E4011207CF1AE5011207CFAAE501120728
:10176300CFECE5011207CF35EA011207CFB5EB0144
:101773001207CF8BEC011207CFBAEC011207CFA5EA
:10178300EE011207CF25F1011207CFDEF101120797
:10179300CFFBF2011207CF52F6011207CF62F60117
:1017A3001207CFC3F7011207CF4FF8011207CF601B
:1017B300F9011207CFF9F9011207CF03FB01120751
:1017C300CF6EFB011207CF51FC011207CF68E40271
:1017D3001207CF22E5021207CF94E5021207CF309A
:1017E300E6021207CFA0E6021207CF59E902120759
:1017F300CF30EA021207CF9DEA021207CF1AEC029A
:101803001207CFE4EC021207CF54ED021207CF58B0
:10181300EE021207CFA6EF021207CFB9F0021207AA
:10182300CF52F1021207CF18F2021207CF70C8038A
:101833001207CFC4C8031207CF1CC9031207CF670F
:10184300C9031207CFC9C9031207CF35CA03120749
:10185300CFE8CA031207CF29CB031207CF3FCB032D
:101863001207CF9BCB031207CFD9CB031207CF911C
:10187300DF031207CFC2DF031207CF7CE003120797
:10188300CFE2E0031207CF05DE031207CF86EC0396
:101893001207CF97EC031207CF6BE1031207CF793F
:1018A300E1031207CFEDEC031207CF83FF01120709
:1018B300CF93FF011207CFA8FF011207CFF0FF015B
:1018C3001207CFAAE7031207CF2FE8031207CF931C
:1018D300E8031207CFF87F001207CF0ACC031207E1
:1018E300CF18CC031207CF92CC031207CF76CD03C8
:1018F3001207CF2FCF031207CFB1EC031207CF8309
:10190300C0031207CFEFC0031207CFC5C1031207ED
:10191300CF1EC3031207CF79C3031207CFCEC3036E
:101923001207CFD7C3031207CFE9C3031207CF535D
:10193300C4031207CF5DC4031207CF71C403120798
:10194300CFA1C4031207CF18B7031207CF6DB70394
:101953001207CF69B9031207CF9BB9031207CFBD93
:10196300B9031207CFD6B9031207CFEFB903120792
:10197300CFF9BA031207CF94BB031207CFF7E203E1
:101983001207CF1BE3031207CF34E3031207CF671A
:10199300E3031207CF98E3031207CFC6E30312074B
:1019A300CF28E4031207CF37E4031207CF41E40340
:1019B3001207CF4EE4031207CFF3FC011207CF192E
:1019C300FD011207CF56FD011207CF65FD01120776
:1019D300CF84FD011207CFECFD011207CFF5FD0106
:1019E3001207CF54FE011207CF78FE011207CF373B
:1019F300FF011207CF44FF011207CF55FF01120762
:101A0300CF1DEC031207CF3AEC031207CF0BBC0335
:101A13001207CF63BD031207CF70BD031207CF8335
:101A2300BD031207CFA2BD031207CFB8BD03120730
:101A3300CFCCBD031207CF41BE031207CFA6BE030F
:101A43001207CF56BF031207CF2BC0031207CF3B9A
:101A5300C0031207CF4AC0031207CF5FEA0312077E
:101A6300CF83EA031207CFABEA031207CFD3EA030C
:101A73001207CFFBD8031207CF22D9031207CF4394
:101A8300D9031207CFA8D9031207CF79D6031207B8
:101A9300CF92D6031207CF9ED6031207CFB2D60337
:101AA3001207CFD0D6031207CFDAD6031207CFE43B
:101AB300D6031207CFF7D6031207CF59D70312075E
:101AC300CF92D7031207CFC1D7031207CF0FD80383
:101AD3001207CF5ED8031207CF79D8031207CF833B
:101AE300D8031207CFAAD8031207CFF0D8031207DF
:101AF300CF797F001207CF957F001207CFD3EC0376
:101B03001207CF49A1031207CF73A1031207CF8F87
:101B1300A1031207CFA2A1031207CFB8A103120793
:101B2300CF15A2031207CF48A2031207CF89A6033A
:101B33001207CFAFA7031207CFE2A7031207CF2ED7
:101B4300A8031207CF70A9031207CF98A90312079E
:101B5300CFADA9031207CFBDA9031207CF01AA0373
:101B63001207CF62AA031207CF72AA031207CF5834
:101B7300E4031207CF73E4031207CF9CE4031207B5
:101B8300CFB6E4031207CFDBE4031207CFFAE40373
:101B93001207CF12E5031207CF40E5031207CF5A0E
:101BA300E5031207CFD9EB031207CF94CF03120734
:101BB300CF9BCF031207CFA7D0031207CFD7D003F2
:101BC3001207CFFDD0031207CF20D1031207CF4254
:101BD300D1031207CF7CD1031207CFE2D10312073F
:101BE300CF1BD2031207CF67D2031207CF94D203BE
:101BF3001207CFB4D2031207CF9EE6031207CFB664
:101C0300E6031207CFA4E7031207CFA7E7031207E0
:101C1300CF8BE5031207CFFDE5031207CF3BE603A6
:101C23001207CF7CE6031207CFAFC4031207CFCE50
:101C3300C4031207CF1DC5031207CF39C50312070B
:101C4300CF6AC5031207CF77C5031207CF84C50335
:101C53001207CF70C6031207CFAEC6031207CFBE5B
:101C6300C7031207CFC9C7031207CFDBC703120786
:101C7300CFE4C7031207CFEEC7031207CFBC7A0026
:101C83001207CF017F001207CF0F7F001207CF5932
:101C9300EC031207CF1CD4021207CFCCD1021207D8
:101CA300CF53D1021207CFFAD0021207CF8AD00244
:101CB3001207CF61D0021207CF41CE021207CF0D18
:101CC300CE021207CFDACD021207CFBECD02120722
:101CD300CFD7CC021207CF8FCC021207CFDACA02BA
:101CE3001207CF5ACA021207CF57CA021207CF5898
:101CF300C9021207CF26C9021207CF63C80212070F
:101D0300CF8EC6021207CF1FC6021207CFF1C5023C
:101D13001207CFEEC5021207CFAADE021207CF4089
:101D2300DE021207CFF8DD021207CF6ADD021207C7
:101D3300CF5DDD021207CFDBC5021207CF86C502D6
:101D43001207CF75C5021207CF57DA021207CF6702
:101D5300C4021207CF31C4021207CFDFC302120736
:101D6300CF80C3021207CFB9D7021207CFE3F9021C
:101D73001207CF4FC3021207CF17C0021207CFD7E4
:101D8300BF021207CFCBBF021207CF2BBF0212072E
:101D9300CF6BBE021207CFEDBB021207CF7EB90293
:101DA3001207CF3CB9021207CF10B8021207CFC5F2
:101DB300B7021207CF04B7021207CFD7B602120732
:101DC300CF1AB6021207CFEAB5021207CF82D602A4
:101DD3001207CFB0B5021207CF519603000000805F
:101DE300FBE4738F00010029088700010028082401
:101DF3000002009612250002009812260002009AA3
:101E030012270002009C12280001009E12290001E3
:101E1300009F1284000400A01286000100A4122A6D
:101E2300000100A5122B000100A6122C000100A93D
:101E3300122D00080013082E000100AA122F000122
:101E430000AB1230000100AC1231000100AD1232C0
:101E53000001001B08330001001C0834000100AE20
:101E630012360001001D0838000100AF12390001CD
:101E730000A81283000200B912630001002708645E
:101E8300000100100865000100A7126D000100B8F1
:101E9300126E000200110843000100B01244000258
:101EA30000B11245000100B31246000200B412470C
:101EB3000008001F0848000100B6124B000100B7DC
:101EC3001204000100BB12A1000100BE1237000181
:101ED30000BD1288000100BC123C0001001E080076
:101EE300000000000000C0C101C30302C2C6060710
:101EF300C705C5C404CC0C0DCD0FCFCE0E0ACACB7B
:101F03000BC90908C8D81819D91BDBDA1A1EDEDF7A
:101F13001FDD1D1CDC14D4D515D71716D6D212130A
:101F2300D311D1D010F03031F133F3F23236F6F76A
:101F330037F53534F43CFCFD3DFF3F3EFEFA3A3BBA
:101F4300FB39F9F83828E8E929EB2B2AEAEE2E2F9A
:101F5300EF2DEDEC2CE42425E527E7E62622E2E34A
:101F630023E12120E0A06061A163A3A26266A6A78A
:101F730067A56564A46CACAD6DAF6F6EAEAA6A6BFA
:101F8300AB69A9A86878B8B979BB7B7ABABE7E7FFA
:101F9300BF7DBDBC7CB47475B577B7B67672B2B38A
:101FA30073B17170B05090915193535292965657AA
:101FB30097559594549C5C5D9D5F9F9E5E5A9A9B3A
:101FC3005B99595898884849894B8B8A4A4E8E8F1A
:101FD3004F8D4D4C8C4484854587474686824243CA
:101FE300834181804000C1814001C0804101C080A4
:101FF3004100C1814001C0804100C1814000C181D5
:102003004001C0804101C0804100C1814000C181C5
:102013004001C0804100C1814001C0804101C080B6
:102023004100C1814001C0804100C1814000C181A4
:102033004001C0804100C1814001C0804101C08096
:102043004100C1814000C1814001C0804101C08085
:102053004100C1814001C0804100C1814000C18174
:102063004001C0804101C0804100C1814000C18165
:102073004001C0804100C1814001C0804101C08056
:102083004100C1814000C1814001C0804101C08045
:102093004100C1814001C0804100C1814000C18134
:1020A3004001C0804100C1814001C0804101C08026
:1020B3004100C1814001C0804100C1814000C18114
:1020C3004001C0804101C0804100C1814000C18105
:1020D3004001C0804100C1814001C0804101C080F6
:1020E3004100C181400001363601010001020100B7
:1020F30001030100010401060605020000070100B7
:10210300340801000F090401010D0100FF0E08004E
:102113000017020000190100FF1A0100011B010052
:10212300FE1C0100081D0200001F01000120010028
:1021330001210200002301000F24020000260100F8
:102143000127010008280200FF2A0100072B0102D2
:10215300402C0100002D0100012E0100012F010080
:10216300FF30010B1C310800003A0100083B01005D
:102173000F2F010000030071003001600011007097
:10218300003102200350048000100061000000149D
:102193000063007300720062004300000013000636
:1021A3000000000000040012000000000000000016
:1021B3000004000400370037003C02440000000024
:1021C30000000000006500000035008100000005EC
:1021D30000000083000000010171010101010111F0
:1021E3000101013101010101018001100161013B84
:1021F30000140063017301720162014301000113C2
:102203000106013D01350004011201000100010036
:1022130001000104010401330133013C0144013293
:102223000136000001000165010001350081010054
:102233000105018201830100010302710230016083
:102243000211027002010202020202800210026104
:10225300023A004100630273027202620243020007
:1022630002130238000002000204021202000200FC
:10227300020002000204020402370037003C024459
:1022830002000239000002000265020002350281E9
:1022930002000205028202830200020103710301AC
:1022A30003010301030103010322030203010310DA
:1022B30003000300030003000300030003000342C1
:1022C300030003240306030003000304031203258E
:1022D3000323032503230304030403000300030070
:1022E30003440300030003230300036503210035B4
:1022F30003810300030503000300030003030471C8
:1023030004020460041104700402040204010402C0
:10231300041004610400041404630473047204626B
:102323000443040004130406040004000404041218
:1023330004000400040004000451046400000400C9
:1023430004000444040004000400040004650400C1
:102353000435048104640005040004830400043686
:10236300000100060000000F000000000000000054
:10237300000000000003FFFF00000403FFFF000054
:10238300FFFF0FF4010005C4040320000100130B39
:10239300000000000000000003010F0000E5171318
:1023A3000079170100E517020043170300491704DA
:1023B300004F170500551706006117FFFF000001C6
:1023C3008F0D06BF0D08B90D0BCB0D100B0D02952C
:1023D3000D05AD0D079B0D0C710D0D830DFF000059
:1023E3009D11CD11A311A911C711BB11B511D311A2
:1023F300D911DF11EB11AF119711911100160F00D5
:10240300000B150B020002220F32000006871299FF
:10241300129F126711A51261116D11140AE5D5C53A
:10242300B5A5A59585857565A1109B10D710DD1001
:10243300D1108910E112FF120513E712F312ED1206
:102443000C0E020B040B0A0708000F000349484255
:102453004D18172505020001191618161615230322
:1024630000303017181921301B1D1F30303016185B
:102473001920231A1C1E3000383C3E363B3B352BBB
:10248300432CD512AB12B112BD12B712C111E51113
:10249300F912F111F711020402010101010902AD60
:1024A30010B310A710E31000BE040AB910CB101E1E
:1024B300240E0004007F00E8030C00280015000030
:1024C300000000030108100C0A0308090004000CB3
:1024D300FF1E1E0508040509C082C0838A828B8300
:1024E300E0D2E7F0121689023652C082C083790027
:1024F3001229A71256BEC082C083900334124444EB
:10250300D083D082C3E09CA3E09D500C125D92FA6D
:10251300A3E012251E600109023652FBEA75F00B97
:10252300A4FAA8F075F00BEBA428FB900336E02A7D
:10253300F8A3E03B8882F583E0540F2274F712037B
:102543006B89081229A7122A4DACF075F00BE9A488
:102553002CF9900336E028FEA3E039FF74016508E7
:1025630060067402650870208A828B83122A3912EE
:10257300372074026508701B1228F8122A80701322
:102583008E828F83E4F0800BEA2403FCEB122A1B78
:10259300122A27EEFAEFFB120A9B02368A74F41210
:1025A300036B1266B979008E828F83E06076890AA5
:1025B300890B8065E50A75F00BA4FAA8F075F00B9A
:1025C300E50B12252B7046E50A75F00BA4F8AAF06B
:1025D30075F00BE50B122A5F8E828F83E0850882EC
:1025E300850983122B41850882850983A31237202D
:1025F300EE2403FCEF122A24123659125138AA088A
:10260300AB09120A9B7901900334124B4DE50A245E
:1026130001F50AE50B3400F50B122900E50A9AE5EA
:102623000B9B40900238CA74F512036BEAFEEBFF72
:10263300740B120A7012365E750A01EC4D602BECB6
:102643001266D5ED1256BE1237187901120AA7E5A4
:10265300084509606F850882850983A31266C379DB
:1026630002AA08AB09120AA7805AE5084509602B9C
:102673001256C2123D8C12365A122A6A700CEEFAA6
:10268300EFFB120AADE9F50A80CBEE2403FA122917
:10269300A270317903EEFAEFFB80CA8E828F83A397
:1026A300E064FE7003A3E0F4700BEE24030A0A0A4D
:1026B3001229A2700CEEFAEFFB120AADE9F50A80BB
:1026C30003750A00A90A7F0302058574F712036BD9
:1026D30090033412369AEA4B602FEA75F00BA4FA92
:1026E300A8F075F00BEBA428FBEAFEEBFF1214F144
:1026F30090033612369A9003361249926012EEFC1A
:10270300EFFD79001214558007900336E4F0A3F02F
:1027130002368A9003341240FCC3EE98EF9922C02C
:1027230082C083EC4D6005121C2380097C087D0068
:10273300790012145502365274F612036B7900EACB
:102743004B601878008808125A05EB125D8E6004FE
:102753007901780808E8C3940840EA02372974F736
:1027630012036B74F31208AEECFEEDFF851882853D
:102773001983E4F004120A70EAF0A3EB124EBE745C
:1027830003120A70AC82AD83EEFAEFFB120ABFEEBE
:10279300FAEFFB120AC502368574F712036B74F362
:1027A3001208AEECFEEDFF851882851983E4F0EA8A
:1027B300FCEBFD7403120A70122B3A7401120A70B7
:1027C3001237148E828F8312372074FE687003745D
:1027D300FF69600479018002790002368574F7127B
:1027E300036BEAFEEBFF12283E70141228498E8217
:1027F3008F83E0F4F88A828B83E058F0120A9BA956
:102803000802368A74F712036BEAFEEBFF750800C1
:102813008E828F83E0602212283E701D1228498A1F
:10282300828B83E08F838E82F8E058700CE0F88A05
:10283300828B83E048F0120A9B80C4120AA1E9F557
:102843000874016508221266CE122A51122993FADE
:10285300A3E039FB2274F412036B8A088B097C0012
:102863007D001228F8122A271229B81266C07900AF
:10287300850882850983A3E064FE7003A3E0F46006
:10288300717E007F008062EEFAEF12251E6057EE24
:10289300FAEFFBEA75F00BA4FAA8F075F00BEBA4C2
:1028A30028FB900336E02AF50AA3E03BF50B8508E5
:1028B30082850983A3124E0C850A82850B83A3E0CC
:1028C3006A7003A3E06B701EE50A2403FAE50B129A
:1028D30029A3700AE50A2403FCE50B122A24122912
:1028E300AC79011256D4123297122900EE9AEF9B5B
:1028F30040950238CAEA24030A0A0AEB22900334F9
:102903001252ABC32274F312036B8A088B098A82B7
:102913008B83A31266C31229A71266C0750C00121B
:1029230028F81229A370547E007F0080491229855C
:10293300FAA3E0398A82F583E0540F6036122985C1
:10294300F50AA3E039F50BE50A2403FCE50B122A8B
:102953002E3400FB121C1DE964017017850A828561
:102963000B83A312536CA31237201229AC750C01ED
:102973001256D412329712271640B2A90C7F0502C1
:102983000585EEF8EFF9E875F00BA4F81229932208
:10299300AAF075F00BE9A42AF9900336E02822EF98
:1029A300122A7A221266D4EB221229B81256CFEEDB
:1029B300F0A3EFF022E5081266D5E5092274F512BB
:1029C300036BEAFEEBFF8E828F83A31266C37C0048
:1029D3007D00EE24030A0A0AEF122A27EEFAEFFB20
:1029E300120AA1E9F50A7401650A70291266CE126A
:1029F3002A4DAAF075F00BE9122A5F850882F58348
:102A0300122A39122A6A700DE5082403FCE509121B
:102A13002A1B122A270226C73400FDEE2403FAEFED
:102A230022122A2E3400FB120ABF223400FDE508CD
:102A33002403FAE50922A3122A3E22122A4222E0A3
:102A4300F8A3E0F98E828F83A322122A5122340045
:102A5300F583124100E875F00BA4F822122999F5C9
:102A630008A3E039F50922E8F0A3E9F0E508240317
:102A7300FAE509122A7A22122A806401223400FB21
:102A8300120AC5E92274F312036B74E61208AE123C
:102A930066B9750C01750800750900750A00750B98
:102AA30000851882851983E4F0EE2403FCEF3400DB
:102AB300FD7403120A70122B3AE964017023740B3C
:102AC300120A701237187401120A70124E10700332
:102AD300A3E06960518518828519838582088583FF
:102AE30009740D120A70E4122B41740E120A70124B
:102AF3003720740D120A70AA82AB83120AE3E964C9
:102B030001700B740D120A7085820A85830B780A93
:102B1300120807AC08AD09EEFAEFFB120AB3740210
:102B230012081AE9F50CEEFAEFFB120ADDA90C7490
:102B33001A12081A022980122E0D120AE9221236DD
:102B4300951240FC22C082C0837800790080031272
:102B53002C38122900E89AE99B5029E8FAE9FBEAA4
:102B630075F00BA4FAACF075F00BEBA42CFB9003FF
:102B730036E02AFCA3E03B8C82F583E0540F70CF50
:102B8300790080027901023652C082C0839024C04A
:102B9300124152EC75F012A4FCA8F075F012EDA4EA
:102BA30028FD79FF7A057B0D12145502365274F70E
:102BB30012036BE9FEEAFF7A007B0078007900805C
:102BC30028E8FCE9FDEC75F012A4FC85F00875F02B
:102BD30012EDA4250812304DC39E400AE0FCEFC35A
:102BE3009C400312316C122C3812304140D3023610
:102BF3008AC082C083780079008003122C38122C9B
:102C03002C501F123051F470F2E875F012A4F8AA98
:102C1300F075F012E9A42AF9740528FA740D39FB4A
:102C230080047A007B000236529024C0123102C322
:102C3300E89AE99B22E8240108E93400F92274F0B8
:102C430012036B74F31208AE8A0A8B0B8C0C8D0D76
:102C53008908EC450D6016AA0CAB0D120B378A0ED2
:102C63008B0FAE0EAF0FEE4F6003022CFF120B0D56
:102C73008A0E8B0FA80EA90FE8FEE9FFE849607CD6
:102C83009024C4122D6160227403650860067404E5
:102C9300650870167A047903120B079024C4122D69
:102CA3007840077A007B00022D5E9024C2122D61CA
:102CB300601B74016508600674026508700F7A0270
:102CC3007901120B079024C2122D7850D6851882F1
:102CD3008519837401F0120A70125138AC0CAD0DD2
:102CE3007403120A70122E06740B120A70123666DF
:102CF300123B00E4125120120FE18004EE4F604AB0
:102D0300780074FF2508C39404500278048E828FE0
:102D1300831251388E828F83A3A3A3A3E508F0E81F
:102D23008E828F83A3A3A3A3A312514012021A126C
:102D330031198E828F83A3A3A3A3A3A3A3F012317C
:102D430010120A4D1256B8120A59122D66400590F8
:102D53001261E4F0120EB5EEFAEFFB0241061252D5
:102D63005A49227A047900120B079024C0125D7429
:102D7300EA98EB9922122D917583247582C0E4930E
:102D8300C398F8A3E49399F9C3EA98EB9922E493DF
:102D9300F8740193F92274F212036B74F31208AE00
:102DA3008A088B09ECFEEDFF750A00EEFAEFFB12C1
:102DB3000B378A0C8B0DA80CA90DE849603E88825D
:102DC3008983E065087004A3E06509602F88828920
:102DD30083A3A3A3A3E0C3940550211255668518CA
:102DE300828519837401F0120A7012556AEEFCEFA2
:102DF300FD7403120A70122E06750A01A90A740DD6
:102E0300024C04122E0D120AF522AA82AB83120A77
:102E1300BF851882851983AA82AB832274F61203B5
:102E23006B122E5B600FA3A3A3A3E014C3940450FF
:102E33000479018002790002372974F612036B12B8
:102E43002E5B600FA3A3A3A3E014C39402500479E1
:102E53000180027900023729120B318A828B83E5C4
:102E63008245832274F612036B122E5B600BA3A3BD
:102E7300A3A3E07004790180027900023729C0829C
:102E8300C083EAFCEBFD7A007B0002364FC082C0B0
:102E9300837C007D0002364F74F412036B74F312CB
:102EA30008AEEAFEEBFF8C0A8D0BC3EC94F8ED94AD
:102EB300FF4007EE4F7003022F5475080075090099
:102EC300802E8518828519837401F01232BF120A8D
:102ED300701232CD60137403120A70AC82AD83EEAC
:102EE300FAEFFB121C1DE97049E50824011230EDCD
:102EF3009024C0E4125262E50898E509995052E51E
:102F03000875F012A4F8AAF075F012E509A42AF9DD
:102F1300125DA760D4EE4F70A974FF650A70047444
:102F2300FF650B60C41232AF650A7004A3E0650B42
:102F330070B7E50875F012A4F508A8F075F012E56E
:102F430009A428F50974052508FA740D3509FB80D1
:102F5300047A007B000238C574F412036B74F31215
:102F630008AE750800120B378A0A8B0BAE0AAF0B3B
:102F7300EE4F602A851882851983740112368FF803
:102F8300A3E0F9740B120A701237A3120AD77C124A
:102F93007D0079FFEEFAEFFB121455750801122D2F
:102FA3006650099012617401F0120EB5A908023837
:102FB300C574F712036BE9FE74FE6A700374FF6B4A
:102FC3007800790070058052122C38123041504A33
:102FD300E8FCE9FDEC75F012A4FCAFF075F012ED1E
:102FE300A42F12304DF460E0E8FCE9FDEC75F0121B
:102FF300A4FC75F012EDA42FFD74052CF582740D5D
:103003003DF583E06A7003A3E06B70BC8009123066
:103013005114C394044017122C38122C2C5018EE60
:1030230070EC12305164016005E0640370E9123200
:10303300A0FAA3E0FB80047AFE7BFF02368A902489
:10304300C0124156C3E89CE99D221231A122E8FA3D
:10305300E9FBEA75F012A4FAACF075F012EBA42CBC
:10306300FB74092AF582740D3BF583E022120B49A8
:10307300023652C082C083790180F274F012036B6E
:103083008A0A8B0B7A047901120B078A0C8B0DEADF
:10309300450D603EEAC333FAEB33FB1214F18A08A1
:1030A3008B09AE08AF09EE4F60237AFE7BFF120B4C
:1030B3004F74FE6A700374FF6B601B850882850979
:1030C3008312369AE50824021230ED80E1750C0074
:1030D30080047E007F00850A82850B83E50CF0EE79
:1030E300FAEFFB02410BE5082407F508E509340074
:1030F300F509229024C0124156C3EA9CEB9D22E4B9
:1031030093FA740193FB221214497403221256C9D1
:10311300E4F090803722E88E828F83A3A3A3A3A336
:10312300A3A3A312313B740112313BA3F0EE24108D
:103133001256CCE4F0A3F022123B0CA3A3A322C0AB
:1031430082C0837A007B0080041912316C1230F63E
:10315300501012318BC3940550F0E970EC123175A5
:1031630080047A007B00023652EA24010AEB340021
:10317300FB22EA75F012A4FA75F012EBA428FB7493
:10318300052AFA740D3BFB22EAFCEBFDEC75F01209
:10319300A4FCA8F075F012EDA4281231A122FD744D
:1031A300092CF582740D3DF583E02274F712036B4D
:1031B30074F31208AE7E007F00023253E50875F007
:1031C30017A4F8A9F0126008FAA3E0FBEEF8EFF9F0
:1031D300E875F012A4F8ACF075F012E9A42C1232E1
:1031E300AE6A7003A3E06B603FE50875F017A4F8BF
:1031F300AAF0EA126007F8A3E0F97401120A70E07A
:10320300687003A3E0696020E50875F017A4F8EA85
:10321300F9748128FC740E39FD7403120A70AA82B2
:10322300AB83121C1DE96014E50875F017A4F8A917
:10323300F0747F28FA740E39FB120FED0508902401
:10324300C9E493F8E508C39850030231BF123297DB
:103253009024C012634E5039EEF8EFF91232A0F405
:103263007003A3E0F460E68518828519837401F086
:10327300EEF8EFF9E875F012A4F875F012E9A42A54
:10328300F91232BF120A701232CD60C17508008084
:10329300AD023685EE24010EEF3400FF22E875F00F
:1032A30012A4F8AAF075F012E9A42AF91232B32293
:1032B300740528F582740D39F583E022740728F527
:1032C30082740D391240FA740B22E8F0A3E9123725
:1032D300AB120AEFE922C082C08390033D74A7F0CA
:1032E300A3740DF090033F74A1F0A3740DF0900349
:1032F3004374C1F0A3740BF002365274F712036BDC
:10330300EAFEEBFF900377E06408601BE06404606F
:10331300168E828F83E0540364017048123659126B
:103323003C01E06406703D8E828F83A3A3E064FEBC
:103333007003A3E0F4602D8E828F83A3A31237144E
:10334300900368E0687003A3E069700BEE2415F541
:1033530082EF125D8E6008120E55E9F5088008129F
:103363000E5B80F67508C2EEFAEFFB1214F7022823
:103373000274F412036B8A088B098A828B83E0F848
:10338300A3E0FAE82AFAE43400FB1214F18A0A8B68
:103393000BAE0AAF0BEE4F6063850882850983E0AD
:1033A300FC7D0079001214558E828F83A3A31266CD
:1033B300C3120E978E828F83A3A3A3A312369A857B
:1033C3000882850983E0F8EE28F8EF340012371CF1
:1033D300850882850983A3E0C0E0EE240D1256BB65
:1033E300D0E0F0120EA9EE240E1256BBE9124D6D79
:1033F300E0C0E0EE24111256BBD0E0F0EEFAEFFB92
:103403000238CA74F612036B74EB1208AEEAFEEBD1
:10341300FF12498F60030234AA7A077B001214F16A
:1034230090033912369A12498F60788E828F8312F5
:103433000A4D90033A123C04120A59126587C0E000
:103443001234B6D0E0F0EE2405FAEF3400FB8A081C
:103453008B098A82F583E0C0E01234B1D0E01238E0
:10346300C1E0C0E01234B1A3D0E0123706120A4D16
:10347300851882851983120A5988828983E0C0E0FE
:103483007405120A70D0E0F0850882850983E0C0D4
:10349300E07404120A70D0E0F07407120A70123557
:1034A300EC800679108002790174150237261234F4
:1034B300B6A322900339E0FAA3E0F5838A82A3A39B
:1034C300A3A322C082C08312498F600D90033912D7
:1034D3005299900339E4F0A3F0120DC5120F8D0237
:1034E300365274F012036B74EB1208AEECFEEDFF70
:1034F30089087425120A70780C120A137429120AA7
:1035030070E0F9742A120A70E0FC742B120A70E05E
:10351300FD740F697005740F6C60129012ADE06456
:1035230002700579C10235E7E9C39C40F690037840
:10353300780C120A31E50890037EF0E990037CF0E1
:10354300ECA3F0ED90037FF074FF6A700374FF6BDC
:10355300701D9012B9E0F47003A3E0F47005121427
:1035630061800C9012B912366FE8F0A3E9800790DE
:103573000375EAF0A3EBF0EE4F6017EEFAEFFB12E0
:10358300104DE96401700BEEFCEFFD7A897B0312A9
:103593001C23900368E4F0A3F090036BF0A3F09076
:1035A3000388F09012ADE06402700890037C740FFE
:1035B300F0A3F09003777405F014120A70E4F0900E
:1035C3000378120A4D851882851983120A599003CC
:1035D3007EE0C0E07405120A70D0E0F07407120AAE
:1035E300701235EC7415024108E41237AB121C4D0E
:1035F30022C082C083900338E07003121773120B4A
:1036030091804CC082C083900338E09012607004B4
:10361300E4F0802D7401F0900338E0F460237C41E2
:10362300E0C394415002E0FCECF8E0C398F0EC7581
:10363300F0E8A4CCA8F075F003A428FD7A80124129
:103643005E7A607B127941121C3B8003120B3DD0E2
:1036530083D0820207CCEE1256CA22E0F508A3E01B
:10366300F5092212366A22122A42A3221240FC9042
:1036730003752274F712036BEB90037FF0120DB303
:103683008005740D12081A7F01020585123695A371
:10369300E022123706A322EAF0A3EBF02274F7121A
:1036A300036B74F81208AEEAFEEBFF790090037720
:1036B300E06408704485188285198374FDF0A3744F
:1036C300FFF0120E917402120A7012369A740512E8
:1036D3000A70E4123695E0C0E07404120A70D0E078
:1036E300123701C0E07406120A70D0E0F0740712BA
:1036F3000A70E41237A7120ED37408023687123702
:1037030006E022F08E828F8322F08518828519834A
:10371300221240FC22E0F8A3E0F91256C9E8F0A314
:10372300E9F02212081A7F02020585C082C0839045
:1037330003497451F0A3740CF09003EF742DF0A3BC
:10374300740FF090034D7487F0A3740CF090034F43
:103753007451F0A3740CF0900351748DF0A3740CA6
:10376300F002365274F412036B74F91208AE8A082D
:103773008B098C0A8D0B8518828519837808120AA8
:10378300317404120A70E9F07405120A70E4F074DB
:1037930006120A70E41237A7120B7974070238C7AE
:1037A300E8F0A3E91237AB2212370CAA82AB8322CB
:1037B30074F412036B8A088B098A828B831256D79F
:1037C300EE4F70030238BF90031212499260158ABC
:1037D300828B83A3A3E0F9EEFAEFFB900313123C71
:1037E30004121DE48E828F83A3A3A3A3A3A3A3A385
:1037F300A3E0640270748E828F83A3A3A3A3A3A305
:10380300E054027003023891850882850983A3A3DB
:10381300E064E960798E828F83A3A3A3A3A3A3A308
:10382300A3A3A3E070149012B0E0048E828F83A34D
:10383300A3A3A3A3A3A3A3A3A3F08E828F83A3A372
:10384300A3A3A3A3A3A3A3A3E0141238C1A3A3A375
:103853007404F09012B1125112E8F0A3E91261EB73
:103863008B0BEA450B7003125BC98E828F83A3A374
:10387300A3A3A3A3A3A3A3E0640260128E828F83F6
:10388300A3A3A3A3A3A3A3A3A3E06406702E8E8282
:103893008F83A3A3A3A3A3A3E0A2E0501F85088261
:1038A300850983A3A3E0F9EEFAEFFB121CC58E8210
:1038B3008F83A3A3A3A3A3A3E054FEF08009123B29
:1038C3000822740D12081A7F0402058574EC120392
:1038D3006B74DD1208AEEAFEEBFF8C088D097437BA
:1038E300120A70780C120A13750A007405120A7012
:1038F300AC82AD83121D197412120A70E070087441
:1039030015120A70E060207405120A70E0A2E650F6
:103913001E8E828F83A3A3A3A3A3A3A3A3A3124E49
:103923000C120F09E960087903121C0B023AEE74BA
:1039330005120A70E0540C64047005750B018003D2
:10394300750B00E0A2E55035750A01E50BA2E040D6
:103953002C120E978A108B11A810A911123659E058
:10396300687003A3E06960157405120A701266CAD1
:10397300124E08121CD1E96004790480AC7405125C
:103983000A70E0A2E650227406120A70E054037033
:10399300187405120A70E0540C640C600CE0540CAB
:1039A3006408600575100180037510007405120A20
:1039B30070E05403F8740268700C1266CA124E0861
:1039C300120A89023AEE740168703AE510A2E050D7
:1039D30003123AF67405120A70A882A983740312BB
:1039E3000A70E8F0A3E91240F08518828519831262
:1039F3003B00E0C0E07402120A70D0E01237A71255
:103A03001DB5023AEEE86003023AEE90035FE0640C
:103A13000170108E828F83A3A3A3A3A3A3E07003DB
:103A230002397C7422120A7074021240F0741A1262
:103A33000A70123720E510A2E050087405120A70CC
:103A4300123AF6E50BA2E0506AEE240FF582EF126C
:103A53005D8EC0E07417120A70D0E0F09003141268
:103A630049927003023AEE120E978A128B13A81230
:103A7300A913741A120A70E0687003A3E069706BEB
:103A8300780C1207FF780A12080B7808120807A9A6
:103A930010740C120A70AC82AD837421120A70AADE
:103AA30082AB83900314123C01121DE474071208C5
:103AB3001A8038780C1207FF780A12080B7808125C
:103AC3000807900375120654EE2412F582EF125A7A
:103AD300BC7423120A70AC82AD83740E120A70AAEE
:103AE30082AB83121CB9740912081A742312081AC0
:103AF3000261B61266CA1252A71213DD22E8F0A3BE
:103B0300E9123B0822123B0C22F08E828F83A3A37F
:103B1300A3A3A3A32274F712036B12164102368ADE
:103B230074F712036B12164702368A74F712036B8B
:103B330012165302368AC082C08312164D023652C1
:103B430074F712036B12165902368A74F712036B59
:103B53007409120A70E0F508780812080B1216654A
:103B63007401023687C082C083121671023652C0B6
:103B730082C08312167702365274F712036B121641
:103B83007D02368A74F712036BEAFEEBFF89087431
:103B930001650870147900120CC99024D4E493FCD5
:103BA3007900EEFAEFFB120C3F02368A74F412032B
:103BB3006B74F91208AEE9FE8A088B098C0A8D0B27
:103BC3007413120A70124E0C90077A1249926027EE
:103BD300EE851882851983F07401120A7078081231
:103BE3000A31EAF8EBF97405120A701237A3900749
:103BF3007A123C01121DE402379EFB90034BE0F85E
:103C0300A3E0F583888222C082C0831216AD0236F8
:103C13005274F712036B901263E0F97E00800B126B
:103C23005D7A540D64017001190E123E0E5003E9C2
:103C330070ED02368A74F712036B901264E0F97E1A
:103C430000800B125D7A548D64817001190E123E4F
:103C53000E5003E970ED02368A74F212036B890B7E
:103C6300E975F006A4240CF508E5F01230F18A0C8E
:103C7300E508250CFAE5093400FB1214F18A0C8BD4
:103C83000DAE0CAF0DEE4F6027AC08AD09790012F5
:103C93001455123659E50BF0EE2508F8EF3509F9FE
:103CA3008E828F83A3A3A3A3A3A3A3A3A3123720CB
:103CB300EEFAEFFB024C0774F612036BEAFEEBFF1E
:103CC300120C1B901262E0F8E9C398400990034577
:103CD300124E0C120C21EE2402F8EF12541C900326
:103CE300471252D6900347E004F0EEFAEFFB120CB2
:103CF30027850882850983E00258D2C082C0837970
:103D030000900345800109124E0C8A828B83E58261
:103D1300458370F202365274F712036BEAFEEBFF2F
:103D2300EE4F6056900345124992604E8882898314
:103D33007A007B00EE65827003EF6583600FAA82D1
:103D4300AB83123D80E5824583602F80E790034576
:103D5300123D8C687002EF698E828F837008123770
:103D63001490034580031261C8123720EEFAEFFB6B
:103D7300121D85EEFAEFFB1214F702368A123D8408
:103D83002212410088828983221240FCEE22C082E3
:103D9300C083900345800488828983124992600B13
:103DA30088828983124444EC4D70EC8A828B83E4CD
:103DB300F0A3F0E849600688828983800390034575
:103DC30012369A02365274F712036B90034580043D
:103DD3008A828B83123E094B60257E0080010E127E
:103DE3003E0E50ECEE75F006A4FCADF0EA2CFCEBB5
:103DF3003DFDEC2410F582ED123E5E70E180047A05
:103E0300007B0002368A1252ABEA22123E67EEC3EF
:103E1300982274F712036B7D0080010D123E63ED4F
:103E2300C3985034ED75F006A4FEA8F0E8FFEA2E1F
:103E3300FEEB3FFFEE2410F582EF123E5E70DCEDE9
:103E430075F006A4FEE8FFEA2EFAEB3FFBEA241125
:103E5300F582EB125D8E4CF002368A125D9A69226E
:103E6300123E67221266D4EB3400F583E0F8227425
:103E7300F612036B120D417A007B008025EAF8EB02
:103E8300F9E875F006A4F8ACF075F006E9A42C1275
:103E93005280126595A3E4125376F0A312659B1228
:103EA30067129024BC122D7040D37A007B00801CD3
:103EB3008A088B0974037808120950124D34A374CD
:103EC300FEF0A304125156A3E41267129024C81201
:103ED3003F1140DC7A007B00801D8A088B09740344
:103EE300780812095074A7125A06741112624D749D
:103EF300FEF0A3041267129024CE123F1140DB9010
:103F030024C7E493900353F0123F1B023729E49331
:103F1300F8C3EA98EB9400227CE87D037A107B00D7
:103F23009003C2E0F91215A52274F012036B74F525
:103F33001208AE8A088B09890A8C0BE9A2E0501497
:103F43007508FC7509FFA2E15005D2E4023FEED2E9
:103F5300E3023FEE124BF37003A3E06970057900AF
:103F63000240BBAC0A7902AA08AB09120D1DE96035
:103F7300EDE50AF50C780C12080B79027CFE7DFF47
:103F8300AA08AB0912496E12081AE960030240B984
:103F9300E50AC2E5F50A9003B5E07051E50AA2E629
:103FA300404B7403120A70AC82AD83AA08AB0912AA
:103FB3000ACBE9703212428F8A0C8B0DA80CA90D23
:103FC300E8FEE9FFE8496025EE24020A0AEF122A17
:103FD30080601AEE2402FCEF3400FD7403120A70B1
:103FE300AA82AB83121C23E50AD2E5F50A900348A3
:103FF300E0F50C900368E0F50EA3E0F50F780E12E0
:1040030008077D017C00900348E0F9AA0EAB0F126C
:104013000CD5740212081AE9F8900348E004F0E89A
:1040230060030240B9E50AA2E55004740E800274ED
:1040330006C0E07401120A70D0E01256E88A0E8BB3
:104043000FAE0EAF0FEE4F60691240D91240F088E9
:104053008289837401F07478550AA31266DAE50C39
:104063001266DAA3E508F0E5091240C8E4F0E50AB0
:10407300A2E5500F7403120A70AC82AD83E82406E4
:104083001240BF8E828F83A3A374FDF0A374FFF04D
:10409300E50B60159024D5E493F8E50BC39850091C
:1040A300EE24131256BBE50BF0EEFAEFFB120B6D89
:1040B30080067910800279C7740B8049FAE93400CD
:1040C300FB121C232288828983A3A3A3A31240D4B7
:1040D3002212544FA322EE24171256CC7401F0126D
:1040E3000E91EE241A1256CCEAF0A3EB22F01266DC
:1040F300CE34001240FA22F58312410022E0F8A3E5
:10410300E0F922740D12081A7F0802058574F6126D
:10411300036B7A007B10125BD660089003D47401A2
:10412300F0802990081DE064019012AE7006E0FC57
:1041330079018004E0FC79037A007B00120C3F9044
:1041430024BA1241527A007B1012416002372912BD
:10415300415622E493FC740193FD227B009003C239
:10416300E0F912159F2274EC12036B8A088B098CF9
:104173000C8D0D890E7414120A70124B4D741612A5
:104183000A70E0F510A3E0F511120F09E960077A50
:10419300FF7BFF02428C9012ADE064026003024297
:1041A3007F7900AA08AB09120D23A90E120D178AF5
:1041B300128B13AE12AF13EE4F70030242678E825F
:1041C3008F83A3A3A3A3A3E064018E828F83A3A3FE
:1041D3007069124E0C8E828F83A3A3A3A3A3A3E0C3
:1041E300541860439024D3E4938E828F83A3A3A3B4
:1041F300A3F0EA650C7003EB650D6014EA650A70C1
:1042030003EB650B600AEA65107003EB6511701F21
:104213007810120807AC0AAD0BAA0CAB0D12100BE9
:10422300740212081A8008900367125BC0A3F0742B
:10423300FE6A700374FF6B601D804EA3A3A3E0644A
:104243000360298E828F83A3A3A3A3A3E0640470D6
:10425300057AFE0241948E828F83A3A3A3A3A3E0D6
:10426300640270089003B4E06402701012428F8BF2
:104273000BEA450B6006AA08AB09800DAA08AB0937
:10428300900349123C01121DE40261B690037512BA
:104293004974120FCF2274F712036BEAFEEBFF127D
:1042A3000B1FE9700AEEFAEFFB120B2BE96006EE27
:1042B300FAEFFB80047AFE7BFF02368A74F0120366
:1042C3006B8A0A8B0B8C0E8D0F8909750800120FF0
:1042D30009E979006003024436AA0AAB0B120D23E5
:1042E300A909120D178A0C8B0DAE0CAF0DEE4F60A2
:1042F300198E828F83A3A3A3A3A3E06402705590B6
:1043030003B4E064027003024434AA0AAB0B9003C3
:104313004F123C01121DE4120B318A0C8B0DA80CB9
:10432300A90DE849700302443488828983A3A3A3B7
:10433300A3A3E0A2E04003024434750C01A2E150C0
:10434300687901AC0AAD0BAA0EAB0F120C6FE970C2
:10435300640244348E828F83A3A3A3A3A3E06403E4
:104363007005750C0280528E828F83A3A3A3A3A32F
:10437300E0640160030244349003751244448E8266
:104383008F831247998A0C8B0DA80CA90DE84960FD
:10439300D19024CCE493FA88828983E0C39A50C2F3
:1043A300A3E0600302443480B988828983A3A3A372
:1043B300A3A3D2E1F0EE4F603A8E828F83A3A3A32F
:1043C300A3A3A3E05418602B7508018E828F83A3E7
:1043D300A3120654750CFE750DFF780C12080779AD
:1043E30000AC0AAD0BAA0EAB0F120D357404120804
:1043F3001A803E900368E0650E7004A3E0650F70B9
:10440300149024D4E493FCA909AA0AAB0B120C3F21
:10441300750801801CA90CAC0AAD0BAA0EAB0F12D8
:104423000C6FE9700C750801A909AA0AAB0B120CF1
:10443300C9A90802410BE50C2415F582E50D1256B6
:10444300CF12512C2274EA12036B74F01208AE8A55
:104453000C8B0D8C088D097426120A70E0F514A3D9
:10446300E0F5157512069003F51249926023900347
:1044730075124444AA08AB09120FF98A108B11EA8A
:104483004511600D8A828B83A3E070057900024792
:1044930081E50C241DF50EE50D3400F50F850E8224
:1044A30012497EF51388828983A3A3A3E0FA888245
:1044B3008983A3A3A3A3E0F9EA2400FEE439FFAAB6
:1044C30008AB09120CCF850E82850F831247BCE01F
:1044D30029F50BE50AA2E5500375120E7487550AF8
:1044E30070177418550A6418600FE50C2417F582C9
:1044F300E50D125D8E651260077901121C0B808C2D
:10450300530A78C3EE94F8EF94FF501D7900EEFA46
:10451300EFFB12478B601288828983A3A3A3A3A313
:10452300A3E05418600302448F78081208077D0043
:104533001247AF12081AE9F8740368700302448F34
:10454300E860030245FA7418550A70030246AFE5A2
:104553000AD2E0F50AA2E45004D2E1F50AA90A124C
:104563004E0512478B605388828983A3A3A3A3A319
:10457300A3E05418604488828983A3A3A3A3A3E080
:1045830064017036E51045116030900375124444A0
:10459300888289831247998A0E8B0FA80EA90FE888
:1045A30049601788828983A3E0600F851082851193
:1045B30083A31258DD500302448FE50AF50E780EEB
:1045C30012080B1247A212081AE9702B7C007D0017
:1045D30085148285158374FFF0A3F0850C82850D05
:1045E30083A3A3A3A3A3A3A3A3E06003124439A9B2
:1045F3000B124E0512166B851482851583E0F47039
:1046030003A3E0F460399003B4E06402700302444E
:104613008F124B3EE0FAA3E0123BFD121DE4EA6564
:10462300087003EB6509600302448FEEFAEF123B57
:10463300FD121DE4851482851583EAF0A3EBF0785F
:10464300081208077D011247AF12081AA90AEEFAE9
:10465300EFFB120D238A088B09A808A909900368A8
:10466300E0687003A3E0696003024772EEFAEFFBB0
:10467300120B318A088B09A808A909E849606E88DA
:10468300828983A3A3A3A3E06401600D8882898345
:10469300A3A3A3A3E064027054851882851983AC95
:1046A30082AD83EEFAEFFB120ACB8055900361E0F3
:1046B300600FE50AF50E780E12080B1247A21208D6
:1046C3001AE50AF50E780E12080B79027CFE7DFFBF
:1046D300EEFAEFFB12496E12081AE960030245FA7B
:1046E30085148285158374FFF0A3024641120E914F
:1046F300EAFCEBFD851882851983AA82AB83121C21
:1047030023850C82850D83A3A3A3A3A3A3A3A3E063
:104713006401700F1244397408120A70AA82AB83C1
:10472300121C231249481255544430F508780812D4
:10473300080B7401120A70858208858309780812B0
:104743000807740B120A708582088583097808129A
:104753000807E513F508780812080B7900EEFCEF5B
:10476300FD124E05120C69740612081A02448F12C8
:1047730049481256BE1247BCE50BF0120EA974103D
:1047830012081A7F0E020585120D178A0E8B0FA8C9
:104793000EA90FE84922A3A31252AB120FF92279F3
:1047A30001AC08AD091252A012496E22AC0BA91339
:1047B3001252A0120CD574022212555CA3A3A3A318
:1047C3002274F012036B74F01208AE8A0C8B0DEC9A
:1047D300FAEDFB750F089003F51249926014125815
:1047E300D68A828B83E58245836007A3E070030248
:1047F3004943124948340012497EF50B8882898364
:10480300124951E0FBEC2400FEE43BFF88828983DC
:10481300A3A3124951A3A3E0FBECF508E43BF5097C
:1048230088828983A3A3A3A3A3A3A3E0F50EE50A28
:10483300A2E45003750F10A2E550067408250FF586
:104843000F748F550A700FE50C2417F582E50D12CE
:104853005D8E650F60087901121C0B024943530AF0
:10486300707800E50AA2E45022124948125D8E24B2
:1048730008FCA3E03400FD7408120A70AA82AB831B
:10488300121C237808E50AC2E4F50AE50AA2E550FA
:1048930028124948125D8E28F8A3E03400F9E82471
:1048A30008FCE93400FD851882851983AA82AB834D
:1048B300121C23E50AC2E5F50AAC0EA90BEEFAEFCA
:1048C300FB120CDBE9F87403686075900368E06E13
:1048D3007003A3E06F605EE87054E50AF50F780F8C
:1048E30012080B12495F12081AE97054780A120869
:1048F3000B7401120A7085820C85830D780C1208E3
:1049030007740B120A7085820C85830D780C1208CC
:1049130007E50BF50A780A12080BA90EAC08AD09D6
:10492300EEFAEFFB120C69740612081A8012740473
:1049330068700D80B7780A12080B12495F12081AC3
:104943007410024108E50C241DF582E50D22A3A392
:10495300A3E0FC88828983A3A3A3A3227901124B3A
:10496300451256CF12497412496E22120C937401E8
:1049730022E0FCA3E0FDAA08AB0922F583123D84E3
:10498300A3E0F50A88828983A3A3E0229003391266
:1049930053072274E812036B74F51208AEEAFEEBB8
:1049A300FF8C088D0989147423120A70E0F50F74C3
:1049B30024120A70E0F512A3E0F5137426120A70AC
:1049C300E0F516A3E0F5177428120A70E0F50EA9B6
:1049D3000F120CE18A108B117401120A707408F023
:1049E300E50EA2E450037410F0E50EA2E55004E0D6
:1049F3002408F0851882851983AA82AB83120EF1ED
:104A03008A0C8B0DEA450D7003024B25EA2417F53A
:104A130082EB124B37120E91E50C241AF582E50D49
:104A23001256BE12369A7403120A70AC82AD83AA70
:104A330010AB11120ACBE9601D124B2F7403120A3B
:104A430070A882A983E50C2418F582E50D1256BEE1
:104A5300E8F0A3E98024E50EA2E4501FE5106E7090
:104A630003E5116F7015124B2FE50C2418F582E541
:104A73000D1256BEE512F0A3E513F0124B3E124B96
:104A83004D850A82F5837402F0A3E50E124B55E5BA
:104A93000FF0EE850A82850B83A3A3A3F0EF850AAB
:104AA30082850B83A3A3A3A3124B55A3A3A3E5085A
:104AB300F0E509850A82850B83A3A3A3A3A3A3F02F
:104AC300AA10AB11120CCFE92514850A82850B833A
:104AD300A3A3A3A3A3A3A3F0750800E50EA2E45028
:104AE30011AC12AD13E50A2408FAE50B1240C175A7
:104AF3000808E50EA2E55014AC16AD17E50A250823
:104B0300F8E50B3400F9E824081240BF850C8285D0
:104B13000D83A3A3E510F0A3E511F0AA0CAB0D12CE
:104B23000B6D740B12081A7F10020585E50C241611
:104B3300F582E50D1256CF7401F022124B45125641
:104B4300CF22E50C1266D5E50D22E0F50AA3E0F5C8
:104B53000B22F0850A82850B83A3A32274F212032E
:104B63006B8A088B09ECFEEDFF890A7900124BF37F
:104B73007003A3E069700479018073750B019003DE
:104B830068E065087004A3E06509601F750B007891
:104B93000B12080BA90AEEFCEFFDAA08AB09120FD2
:104BA30045740112081AE9F50B80417900EEFAEF1A
:104BB300FB120D17EA4B602B8A828B83A3A3A3A35B
:104BC300A3A3E05418601C7508FE7509FF7808124A
:104BD30008078A828B83A3A31206541264EA12087D
:104BE3001A80097901EEFAEFFB120BF1A90B80147D
:104BF300120D238A0C8B0DA80CA90D900368E06895
:104C03002212081A7F0602058574F412036B7508D5
:104C1300EF75090F7A101261F28B0BEA450B7003E3
:104C2300123F1B900353E014F0700C9024C7E493DD
:104C3300900353F0120D2F7E007F00806C85088255
:104C4300850983A3A3A3A3E06059F46056E5082470
:104C530004F582E509125BBA7049850882850983E8
:104C6300A3A3A3A3A3E06403701979028508828533
:104C73000983124444850882850983A3A3124E0C39
:104C8300120C6F850882850983A3A3A3A3A3E06401
:104C930001601085088285098374FEF0A304124D18
:104CA30066E4F01232971230E99024BE12634E404C
:104CB3008C7E007F008039120E378E088F097403B3
:104CC300780812095074672508FC74113509FD7AB8
:104CD3007B7B0C120E25EA4B70DD8E088F09740363
:104CE3007808120950124D34126595E4F012329788
:104CF3009024C8E493F8C3EE98EF9400501B8E08F9
:104D03008F0974037808120950124D3CE82407F503
:104D130082E9125BBA70D680A17E007F00800A12FE
:104D23004D47600214F012329712634B40F1023880
:104D3300CA124D3C888289832274672508F874114E
:104D43003509F922EEF8EFF9E875F006A4F8AAF0B0
:104D530075F006E9A42AF9740728F582741139F568
:104D630083E022124D6DA3A3A322F0850882850957
:104D730083A3A32274F712036B74E11208AEECFE53
:104D8300EDFF750800EE4F60728A828B83E0241C6E
:104D9300125BEB12499260638A828B83124E0C85FD
:104DA3001882851983AC82AD83EA241BF582EB124A
:104DB3005ABCEA241CF582EB124E08120E79740BCE
:104DC300120A70124E107003A3E069702E7402125F
:104DD3000A70E064017024741D120A70123C01E031
:104DE30064017017741D120A70123C03A3A3E0F848
:104DF3008E828F83E0687003750801A908741F020F
:104E03003687124B453400F5831252AB22122A3EE9
:104E1300E0682274F412036BE97024790090034D67
:104E2300123C01121DE48A0A8B0BAE0AAF0B74FE0F
:104E33006E700374FF6F701A9024CFE4936013793C
:104E43000190034D123C01121DE48A0A8B0BAE0A3A
:104E5300AF0B120EB50233FF74F612036B74F31229
:104E630008AE1214618A088B09AE08AF0990036873
:104E7300E06E7003A3E06F60E9120E9DEA6E7002AC
:104E8300EB6F60DEEEFAEFFB120F09E970D4EE4F21
:104E930060D0851882851983E4F004120A70EEF05D
:104EA300A3EF124EBEE970BA74FE6E700374FF6F07
:104EB30060B0EEFAEFFB740D0237261237AB120A1D
:104EC300E322C082C083120EB50236527F0A020566
:104ED3008574F212036BEAFEEBFF8C0A8D0B8908D3
:104EE300740E120A70E0F50974FC6E700374FF6FA0
:104EF30070057900024C077900120D238A0C8B0D83
:104F0300AE0CAF0D900368E06E7003A3E06F700604
:104F1300E509A2E650DCA9091263D8706179007A29
:104F2300FE7BFF1263D87056741855097003025044
:104F33000B780079008003122C389024BE122C2F9A
:104F4300400302500BE8FAE9FBEA75F007A4FAAC58
:104F5300F075F007EBA42CFB74F52AF582740F3B74
:104F6300F583E0541870D0E875F007A4F8AAF0753B
:104F7300F007E9A42AF974EF28F8740F39F9888245
:104F83008983A3A3A3A3A3A3E054186009741855AA
:104F9300097003024EF588828983EEF0A3EFF07463
:104FA300FE650A700474FF650B6003125132888238
:104FB3008983A3A3A3A3A3A3E509F0A2E0500D88CB
:104FC300828983A3A3A3A3A3A3D2E2F074016508F8
:104FD30088828983A3A3A3A3A370387401125156B3
:104FE300E0541860289024D3E49388828983A3A390
:104FF300A3A3125120120FF98B0DEA450D60030292
:105003004EF57800790080397902024EF7900367F4
:10501300E080D7E064017003024EF588828983A3A0
:10502300A3A3A3A3A3E0541860079024D3E493801D
:1050330004900366E01240C8E508F0024EF5122C16
:10504300389024C9E493FAC3E89AE9940040030230
:105053004EF57A007B00804BEAFCEBFDEC75F00724
:10506300A4FCAEF075F007EDA42EFD74F12CF582CF
:10507300740F3DF5831256D7E8FCE9FDEC75F01784
:10508300A4FC85F00975F017EDA42509FD747F2CA8
:10509300F582740E3DF583E06E7003A3E06F609EAE
:1050A30012316C9024BE1230F940AD124152EC6AB9
:1050B3007002ED6B7088E875F017A4F8AAF075F02C
:1050C30017E9A42AF9747F28FE740E39FF7C177D33
:1050D300007900EEFAEFFB1214558E828F83125182
:1050E30038900375125112A3A3A3A3A3A3E8F0A3BB
:1050F300E91251187401F0EE240E1256BB7401121A
:10510300514012021AEE240D1256BBE802503D1212
:10511300366AA3A322F0EE240F1256CC22F01251CA
:1051230029AA0AAB0B22900375E0FCA3E0FD2288B9
:10513300828983A3A3E50AF0A3E50BF022F01251C1
:1051430045229024CCE4932401F8E43400F97A0254
:105153007B00221240D4A32274ED12036B8A088BC6
:1051630009890E125289400579050252571216B366
:10517300AA08AB0912535B9024BC12525A650A70F9
:1051830003E9650B70077AFE7BFF12535B9024BC27
:10519300E4125262E50A98E50B9940030252551254
:1051A30052666012E50A75F006A4F875F006E50B81
:1051B3001252B11214F7E50E6018E50A75F006A451
:1051C300F8AAF075F006E50B1252DD701A790102A8
:1051D3005257E50A75F006A4F8AAF075F006E50B38
:1051E3001252BEE4F0A3F0E50A75F006A4F8AAF0A3
:1051F30075F006E50B12527EA312556A88828983E5
:10520300A3AA82AB831252CC8A828B83E0603F12C3
:105213005266603A8E108F117512007810120803CF
:10522300E50EC333FCE433FDE50A75F006A4F50A85
:10523300A8F075F006E50BA428F50B740B250AF509
:10524300827411350B124E0A12310A12081A7900B0
:10525300800279070263EE122D91E8229024C01296
:105263005D7522E50A75F006A4F8AAF075F006E567
:105273000B1252B9F8A3E0F9E84922A42A125412F6
:1052830088828983A322ECFEEDFF9024CAE493F87D
:10529300E9C39822F5831252AB1214F722E50C12DC
:1052A30066D5E50D3400F583E0FAA3E0FB22125244
:1052B300B9FAA3E0FB221252BEE022A42AF9740B2E
:1052C30028F582741139F58322E50EF09012AF129E
:1052D30052D622E088828983F022125436F50CE9F3
:1052E3003400F50DE50EC333FAE433FB1214F185F4
:1052F3000C82850D83EAF0A3EBF0850C82850D8388
:1053030012530722124100E8492274F412036BEC92
:10531300FEEDFF740C120A70123714880889091203
:10532300535BAC0AAD0BECF8EDF99024BC1253635C
:105333005021E875F006A4F8AAF075F006E91252B8
:105343007EE08E828F8312537612536C123720794C
:1053530000800279040238CA120CA58A0A8B0B2238
:10536300123102C3EC9AED9B221240FC8508828520
:1053730009832212544B2274F612036B7E007F00C2
:105383008028EEF8EFF9E875F006A4F8ACF075F0B4
:1053930006E9A42CF9740928F5827411125FF96ADD
:1053A3007003A3E06B605712329712634B40D31222
:1053B30063467002E96F704674FE6A700374FF6B94
:1053C300703C7E007F00800312329712634B502E95
:1053D300124D4770F3EEF8EFF9E875F006A4F812F2
:1053E300540812543D6017125424F8E912541C88CF
:1053F30082125297850882850983E4F0A3F0EEFABE
:10540300EFFB02372975F006E912541022A42AF99A
:10541300740728F8741139F9223400F988088909C6
:1054230022EEF8EFF9E875F006A4F875F006E91234
:10543300543622125410E8240422A3A374FE1254F7
:105443004812530722F0A30412544F22F088828992
:1054530083A3A3A3A32274F612036BEA241DF5828C
:10546300EB125554F9604BEA241DF582EB125D8E65
:105473002402FCA3E03400FD12528D400302554781
:10548300780080298C828D83E0F508A3E0FFE5088E
:105493002400E43FF509E833FEE433FF744F2EF5AF
:1054A3008274113FF58312556A12554A08E8C3996D
:1054B30040D28A828B83A3A3A3A3A3A3A3A3A312F0
:1054C3004444900368E06C7003A3E06D700F7C4F5D
:1054D3007D111229A7124E08120C998067EA241134
:1054E300F582EB125D8E605CFC74FF2CF075080195
:1054F300780812080B75084F750911780812080708
:10550300E9F508780812080BEA2412F582EB125D1C
:105513008EF508780812080BEA2415F582EB12566B
:10552300BE120654ECF91229A71244418A828B83D6
:10553300A3A3A3A3A3A3A3A3A3124E0C120CB174FE
:105543000712081A023729EC24020C0CED3400FD73
:10555300221256CF12555CE022E0F8A3E0F58388CF
:1055630082A32288828983E508F0A3E509F02274E7
:10557300EA12036B74FD1208AE8A148B158C0E8D20
:105583000F890D7419120A701256D7741B120A7000
:10559300E0F511741C120A70E0F50C741D120A7008
:1055A300124B4D741F120A70E0F5106008E50CC32E
:1055B30033240480027402C0E07401120A70D0E044
:1055C3001256E88A088B09EA450970030256B38A22
:1055D300828B83A3A3E514F0A3E5151261E1E50E25
:1055E300F0A3E50FF0EA2413F582EB1256BEE50DA6
:1055F300F0EA2414F582EB1256BEE511F0EA241703
:10560300F582EB125D8E64017040120E978A0E8B49
:105613000FA80EA90F850882850983A3A3A3A3E07E
:10562300687003A3E0696022EE4F6011E508241A55
:10563300F582E5091256BEEEF0A3EF800CE50824CF
:1056430017F582E5091256BEE4F01256C21256D778
:105653008E828F837405F0A3E5107004E50C8048F7
:105663007401250C1256E17A008028850A82850B85
:1056730083E01256DD850A82850B83A3E08E828F39
:1056830083F0E50A2402F50AE50B3400F50BA30EBB
:10569300AF830AEAC3950C40D2120E97EA1256DD85
:1056A300120E97EB8E828F83F0AA08AB09120B6D53
:1056B3007403024783EE240CF582EF1256CF2212B5
:1056C30029B81256CF22EE240BF582EF3400F5836E
:1056D30022900334E0FEA3E0FF228E828F83F0A3A7
:1056E300AE82AF83221237AB120EF122C082C08387
:1056F300E9C333FCE433FDEA2CFAEB3DFBEA24FE79
:10570300F582EB34FF124E0A02365274F212036B27
:1057130089098A0A12528940047900804075080079
:1057230080020508E508C39509502AE508C333F844
:10573300E433F9EE28F582EF39F583C082C0831292
:105743000E978A0C8B0DD083D082E0650C7004A376
:10575300E0650D70CDE50A650870BE7901024C075E
:1057630074F012036B74F31208AE8A088B098C0A67
:105773008D0B890C750D00120F09E9790060030286
:105783005865AA08AB09120D23A90C120D178A0E2E
:105793008B0FAE0EAF0FEE4F70030258638E828FE6
:1057A30083A3A3A3A3A3A3E0A2E24003025863122B
:1057B3000E97EA650A7003EB650B7011780D1208FA
:1057C3000BE4F50EF50F780E1208078044AA0AAB16
:1057D3000B120B25E964017068851882851983749F
:1057E30004F07401120A70125138851882851983E6
:1057F300AA82AB83120AE3E964017045750D01784F
:105803000D12080BE4F50EF50F780E120807750D4F
:1058130000780D12080B780D12080B7408120A7029
:1058230085820E85830F780E1208079024D5E493A2
:10583300F9AC0AAD0BAA08AB09120CB17407120834
:105843001A8E828F83A3A3A3A3A3A3E0A2E1400D97
:105853008E828F83A3A3A3A3A3A3C2E2F0750D013A
:10586300A90D02410674F612036BE9FE7900120DCD
:1058730023EEF9120D178A088B09A808A909E8492C
:10588300600612671CF98002790402372974F61244
:10589300036B7E0790035CE070341258D68A088B42
:1058A30009A808A909E8496025900361E064018813
:1058B300828983A3A3700B1258DD888289835001E8
:1058C300A3A3E0F9121017E9FEEE70027E07EEF9CA
:1058D300023729125129120FF922E0FA88828983AB
:1058E300A3E0C39A2274EE12036BEAFEEBFF890A6C
:1058F3008C0C8D0B7412120A7012365E1259B2128E
:1059030052905051890E750F007403780E1209508E
:10591300746D250EF5827411350FF583E0F8E50CEF
:10592300C398502DE50B6024751100740378101291
:10593300095074672510F874113511F98882898329
:10594300A3A3A3A3A3A3E50C1259BCF07900024EB1
:10595300CF790380F979007AFE7BFF1259B2E49381
:1059630065107004790280E6E50B60E0890E750F1F
:10597300007403780E1209507467250EF8741135FC
:105983000FF988828983A3EEF0A3EF1259BC125159
:1059930056E50C1240D074FF12659BE50AF09003A4
:1059A30066E088828983A3A3A3A3A3A3A3809C12F5
:1059B3000D11E9F5109024C8221266DEA3E508F064
:1059C300A3E5092274F612036BECFF120D11902468
:1059D300C812529050278908750900740378081279
:1059E3000950746C125A06741112624DE0F8EFC339
:1059F300985006EFF079008006790380027904025B
:105A03003729EA2508F5822274F412036BEAFEEBC8
:105A1300FF120D11E9F50A9024C81252905019751E
:105A23000B007403780A120950746A250AF582740C
:105A330011350B124E0A801890034B124992600CD9
:105A4300EEFAEFFB123C04121DE480047AFE7BFFA6
:105A53000238CA74F612036B8A828B83A3A3A3A3AF
:105A6300A3E4F0F88001089024CEE493F9E8C39905
:105A7300501E8808125AB48C828D83A3A3A3A3A3B8
:105A8300A3A3A3E06970DFECFAEDFB120E3D801EC9
:105A9300E4936870198C828D83A3A3A3A3A3A3A308
:105AA300A3A37406F07A008C828D83125BDF023726
:105AB3002974EF2508F5827411125D9AF92274F4A2
:105AC30012036BEAFEEBFF8E828F83A3A3E0141213
:105AD3005BF6A3E0F9120E198A088B09EA450970EF
:105AE30003025BB78E828F83A3A3E070358A828B18
:105AF30083A3A3A3A3A3A3A3A3A3E064028A828B88
:105B030083A3A3A3A3A3A3A3A3A360107406F07A00
:105B1300F08508828B83125BDF025BB77406F002A9
:105B23005BB78E828F83A3A3A3A3A3A3E060738E2B
:105B3300828F83A3A3A3A3E0607AEE2403F582EF0D
