:020000040000FA
:10000000020790020803FFFFFFFFFF02080BFFFF3C
:10001000FFFFFF020813FFFFFFFFFF02081BFFFFA8
:10002000FFFFFF020823FFFFFFFFFF02082BFFFF78
:10003000FFFFFF020833FFFFFFFFFF02083BFFFF48
:10004000FFFFFF020843FFFFFFFFFF02084BFFFF18
:10005000FFFFFF020853FFFFFFFFFF02085BFFFFE8
:10006000FFFFFF020863FFFFFFFFFF02086BFFFFB8
:10007000FFFFFF020873FFFFFFFFFF02087BFFFF88
:10008000FFFFFF020883FFFFFFFFFF02088B8C00CA
:100090000000000000000400000001C00300010097
:1000A0000000880000008B0000000008000074F5CC
:1000B0001205B48908740B1207C7E0FEA3E0FF74B1
:1000C0000F5508F50A750B00740B780A12073AEA07
:1000D0002400F8EB3480F9E82400E9350BF9E5C792
:1000E000F509E508C4540FFAE5C754F84AF5C78086
:1000F0001C88828983E08C828D83F088828983A327
:10010000A882A9838C828D83A3AC82AD83EEFAEFA3
:10011000FBEA24FF1EEB34FFFFEA4B70D48509C7CE
:100120007F0402066274F71205B474091207C7E06F
:10013000F508A3E0F509ED900101F0ECA3F0A3743C
:1001400062F0A37473F0A3E0541FF0E50833335456
:10015000FCA3F07406780812079FE508900105F0EB
:100160009001077412F0A37442F075D1FE75D601A8
:10017000EA906271F0EBA3F0906270E0D2E1F0E0FF
:10018000A2E740FB7F02020662781075B60FE5B465
:10019000A2E750FAE5BBC39940F118E870ED22746C
:1001A000F11205B474F012070F7E007F0279691214
:1001B000018975080C8E0978081207607406120709
:1001C000C785820885830978081207607901900144
:1001D000091207BB1203521206DC90010D780C12B3
:1001E0000781807775080475090078081207607424
:1001F000021207C78582088583097808120760798B
:100200000112034A1206DCEEF8EF5401F9E84970D6
:100210001A8E088F097409780812079FE508C333FE
:10022000906272F0906270E0D2E0F075080175099A
:1002300000780812076074021207C7AC82AD83EE23
:10024000FAEFFB12012574021206DCEE24010EEF18
:100250003400FF900111780C12074D74061207C785
:10026000780C1206A240030201E474101206DC7F2F
:100270000802066274F11205B474F312070F7508D0
:1002800000750900750A0C750B00780A1207607476
:10029000031207C785820A85830B780A12076079E3
:1002A000009001091207BB1203521206DC740312FC
:1002B00007C7C082C083900115780C120781D083D4
:1002C000D082780C12077140067A007B008076900D
:1002D000010D780C120781803E750A01750B0078BC
:1002E0000A12076074021207C785820A85830B7899
:1002F0000A120760790012034A1206DC851882850B
:100300001983E0F9AA08AB091203588A088B0990EF
:100310000119780C12074D74031207C7780C1206E6
:10032000A2401490011D780C12072570AC90012199
:10033000780C12078180D8E4F9AA08AB0912035897
:10034000E4F9120358740D02026CAA0CAB0DAC0E4A
:10035000AD0F120394740422C008C0097C088A08F7
:100360008B09740F780812079FEAC333FAEB33FB4B
:10037000E9A2E7500474014AFAE508A2E0500874C3
:10038000216AFA74106BFBE9C333F91CEC70CFD00F
:1003900009D0082274F11205B48A088B098C0A8DE1
:1003A0000BE9FE740F1207C7E0F50CA3E0F50D741E
:1003B000111207C7E0F50EA3E0F50FEE6014780EFA
:1003C000120760780C12076012040D74041206DC28
:1003D000802F900125780812074D780E120760AC27
:1003E0000CAD0D85080C85090DAA0CE50D5407FB15
:1003F000740B78081206F6A9081200AE74021206F1
:10040000DC02026FC2F989F9A2F950FC2274ED12E4
:1004100005B48A0C8B0D8C0E8D0F74131207C7E078
:10042000FEA3E0FF74151207C7E0F50AA3E0F50B81
:10043000C2937905120404E5F9A2E040F5D29300D5
:1004400000C293790B120404850C10850D11850EE2
:1004500012850F13741078101206F6851008A9087B
:10046000120404850D09A909120404850C08A908C1
:10047000120404790012040480117900120404E5C6
:10048000F98E828F83F0A3AE82AF83A80AA90BE80E
:1004900024FFF50AE934FFF50BE84970DDD2937FBC
:1004A0000C02066274FC12070F53BEFBE59DA2E628
:1004B00050FA0078F8790100E824FF18E934FFF9D0
:1004C000E84970F375C600E59E70FC43BE04906277
:1004D000707408F0C29043FE01C29143FE02C294C0
:1004E00043FE10438F01794A12018975F80075FCAB
:1004F0000B75FAD843FC2043F10243F4E053F4F1C6
:1005000043900EC29143FE0E53F5DFD2FED291749A
:1005100001F5D575D4018035851882851983E0F8F9
:10052000A3E0F974021207C7E8F0A3E9F075080127
:10053000750900780812076074021207C7AC82AD13
:10054000837A227B0212012574021206DC750804EC
:10055000750900780812076074021207C7AC82ADF3
:10056000837A887B0079011200AE74021206DC8562
:100570001882E0F8A3E0F974021207C7E06870037C
:10058000A3E069700902080074041206DC22E8493D
:10059000601D1202748A088B09A808A909851882AF
:1005A000851983E0687003A3E069700302051812DF
:1005B000019F80992518C582C0E0E51934FFC583E5
:1005C000C0E0E518C3958224F910AF08858319852A
:1005D00082188008858319858218D2AFCEF0A3E5F2
:1005E00020F0A37808E608F0A3DEFAEFF0A3E58197
:1005F00024FBF8E608F0A3E608F0A30808E608F0F4
:10060000A3E608F0A315811581D0E0FED0E0F8152F
:10061000811581E8C0E0EEC0E0221207D6B90003E0
:1006200002065CE4900101780979018002F0A3D808
:10063000FCD9FA900109AA82AB8390008E782179C7
:10064000018015E493A3AC82AD838A828B83F0A3EF
:10065000AA82AB838C828D83D8E9D9E71204A412D5
:1006600007D1851983851882E0A3FEE0A3F52078E1
:1006700008E0A3F608DFFAE0A3FFE0A3C0E0E0A3F0
:10068000C0E0E0A3C0E0E0A3C0E010AF088582189E
:100690008583198008858218858319D2AFD083D0CD
:1006A0008222C008C3E096F50808A3E09642080835
:1006B000A3E096420808A3E09645087001D3D0084D
:1006C000222518F58210AF08F51840021519800888
:1006D000F51840021519D2AF85198322C0D025180C
:1006E00010AF08F518500205198008F518500205DA
:1006F00019D2AFD0D0226016080808C6C313C61896
:10070000C613C618C613C618C613C6D5E0EA2225F6
:100710001810AF08F518400215198008F5184002A6
:100720001519D2AF22E066701008A3E066700A08BF
:10073000A3E066700408A3E06622700422600D182E
:10074000C6C333C608C633C6D5E0F41822E026F681
:1007500008A3E036F608A3E036F608A3E036F62252
:1007600074028000C0E0F4041206C1D0E01207AEAB
:1007700022C3E09608A3E09608A3E09608A3E096BB
:1007800022E0F608A3E0F608A3E0F608A3E0F622CC
:1007900075D00075814075180175190102061A603F
:1007A0000C08C6C313C618C613C6D5E0F422CAC0C7
:1007B000E0E6F0A308DAFAD0E0FA22E0FAA3E0FBE0
:1007C000A3E0FCA3E0FD222518F582E43519F583AA
:1007D0002200000080FB790122FFFFFFFFFFFFFFE7
:1007E000FFFFFFFFFFFFFFFFFFFFFFFFFFFFFFFF19
:1007F000FFFFFFFFFFFFFFFFFFFFFFFFFFFFFFFF09
:040000050000079060
:00000001FF
