:020000040000FA
:06000000020A0F0201C913
:03002B0002085A6E
:0300430002070FA2
:030053000200FAAE
:1000830002015E0101FF01010503010F10FEFFE7FD
:1000930012E712E712E7129D119711E712F21F0000
:1000A300000000B620000000000C0000000C00015E
:1000B30001FF030006000171D5FFFF010101003CB0
:1000C30007000000B107E80364006400B8010202FE
:1000D3000020000005020701051E02051E020A0A90
:1000E30003B80B02803E010201FFFF010A1401E085
:1000F30096511800020206C0E074F21203E2A2AFA6
:10010300E433FED2AFE5A7FFE5A1F5085F54106025
:10011300061219B375A1EFE5085F540860081219B8
:10012300B975A1F7802BEFA2E0C0D0E508A2E09259
:10013300F0120949158182F05017906198E0F89008
:100143000C89E0C398A2D265D0335002E8F075A1C0
:10015300FEEEA2E092AF7F01020441C0E074F2120E
:1001630003E2A2AFE433FED2AF9061A4E0F8759B43
:1001730000E59158540860087591F7121A01802A16
:10018300E59158541060087591EF121A07801BE827
:10019300A2E0C0D0E591A2E092F012094915818254
:1001A300F05007E0C2E0F0121B579061A3E0F8E5BE
:1001B300E9585404600E121B2D75E9FB906193E01E
:1001C300A2E640F2808BC0E074F21203E2A2AFE435
:1001D30033FED2AF9061A5E0F8E5BF585404600642
:1001E30075BFFB121B6F020154C3E498F8E499F93D
:1001F30012022D8026C3E49AFAE49BFBE920E7E987
:1002030012022DE498F8E499F922C3E498F8E499EA
:10021300F912022DE498F8E499F9C3E49AFAE49BFD
:10022300FB22EB20E7CFE920E7E0B90010BB000891
:10023300E88AF084F8AAF022E4FBC8FA22EB7022E1
:100243007B10C833C8C933C9335007C39AC3DBF221
:1002530080069A50012ADBEAC833F4C8C933F4C9CB
:10026300FA2275F008E4C833C8C933C933C99AC937
:100273009B5004C92AC93BD5F0ECFBC833F4C8E44E
:10028300C9FA22080808EAC0E0EBC0E086F0E7A458
:10029300FA180986F0E7A42AFA180986F0E7A42ACF
:1002A300FA180986F0E7A42AFA1986F0E7A4FBE511
:1002B300F02AFA190886F0E7A42BFBE5F03AFA19BD
:1002C3000886F0E7A42BFBE5F03AFA18180986F044
:1002D300E7A4C5F02BFBE43AFA1908E7C5F0C6A476
:1002E30026F6E5F03BFBE43AFA1886F0E7A4F6E5D8
:1002F300F00826F6E43B08F6E43A08F6D0E0FBD033
:10030300E0FA22E4CFC0E0E4CEC0E0E4CDC0E0E414
:10031300CCC0E075F020C3E633F608E633F608E612
:1003230033F608E633F6181818EC33FCED33FDEE1C
:1003330033FEEF33FFC3EC9709ED9709EE9709EF0F
:1003430097191919400FFFEC97FC09ED97FD09EE7A
:1003530097FE191906D5F0BEECF709EDF709EEF78C
:1003630009EFF7191919D0E0FCD0E0FDD0E0FED079
:10037300E0FF222518C582C0E0E51934FFC583C01C
:10038300E0E518C3958224F810AF088583198582A8
:10039300188008858319858218D2AFCEF0A3E52093
:1003A300F0A37808E608F0A3DEFAEFF0A3E58124D2
:1003B300FAF8E608F0A3E608F0A3E608F0A30808B5
:1003C300E608F0A3E608F0A315811581D0E0FED07E
:1003D300E0F8158115811581E8C0E0EEC0E022C088
:1003E300D02518C582C0E0E51934FFC583C0E0E518
:1003F30018C3958224F310AF08858319858218806A
:1004030008858319858218D2AFC8F0A3E9F0A3EA5F
:10041300F0A3EBF0A37908E709F0A3D8FAECF0A373
:10042300EDF0A3EEF0A3EFF0A3D0E0F0A3D0E0F063
:10043300A3D0E0F0A3E520F0A3E5F0F0A322851913
:1004430083851882E0C0E0A3E0F9A3E0FAA3E0FB10
:10045300A37808E0F608A3DFFAE0FCA3E0FDA3E03D
:10046300FEA3E0FFA3E0C0E0A3E0C0E0A3E0F5D07B
:10047300A3E0F520A3E0A3F5F010AF088583198569
:1004830082188008858319858218D2AFD082D083E1
:10049300D0E0F8D0E032120A71B900030204DBE4C1
:1004A300900301785179108002F0A3D8FCD9FA9017
:1004B3001251AA82AB83900086787579018015E486
:1004C30093A3AC82AD838A828B83F0A3AA82AB838E
:1004D3008C828D83D8E9D9E775829F7583D57403A0
:1004E3001207D27582F775831D74001207D21500A7
:1004F3000975F0108E1A8F1B85821F85831E851840
:1005030082851983E0CEA3E0CF851F82851E83EB0E
:10051300C9EAC8EDCBECCAC3E833C8E933C9EA3347
:10052300CAEB33CBC3EA9EF51DEB9FF51CB3500416
:10053300AB1CAA1DEC33CCED33CDD5F0DAAE1AAF3C
:100543001B22D083D082ECC0E0EDC0E0E493A3FC97
:10055300E493A3FDED4C600D12061DEC24FFFCEDAE
:1005630034FFFD80EFE493A3FCE493A3FDED4C6023
:100573000D1206BAEC24FFFCED34FFFD80EFD0E052
:10058300FDD0E0FCE493A3C0E0E493C0E02285192E
:1005930083851882E0A3FEE0A3F5207808E0A3F6A4
:1005A30008DFFAE0A3FFE0A3C0E0E0A3C0E0E0A31C
:1005B300C0E0E0A3C0E0E0A3C0E010AF088582186C
:1005C3008583198008858218858319D2AFD083D09B
:1005D300820207D8D083D082E9C0E0E493A3C38624
:1005E300F0C5F095F0F908E493A386F0C5F095F013
:1005F300700BE493A3C3994005E9048002A3E47557
:10060300F002A42582F582E5F03583F583D0E0F985
:10061300E493A3C0E0E493C0E022C0E0C3E4939674
:10062300087401939618400FE493667008087401E8
:1006330093661870007019A3A3C3E493960874011A
:10064300939618A3A3400DD0E0D0E0D0E00205813B
:10065300A3A3A3A3A3A3D0E0227404800474028001
:1006630000CCC0E0EDC0E0E518C39CCCAD1950014F
:100673001D10AF068C188D1980068C188D19D2AFFA
:10068300120754D0E0FDD0E0FC2274028000CCC0FD
:10069300E0EDC0E0E518C39CCCAD1950011D10AFCF
:1006A300068C188D1980068C188D19D2AF1207325B
:1006B300D0E0FDD0E0FC22C0E0C0F088F0E4936617
:1006C30070080874019366187000A8F0A3A3700B58
:1006D300D0F0D0E0D0E0D0E0020581A3A3D0F0D0E9
:1006E300E022D083D082CCC0E0E493A3600612075B
:1006F300B31470FAE493A360061208A41470FAD03A
:10070300E0FCE493A3C0E0E493C0E022C0E074F211
:100713001203E2A2AFE433FED2AFC2C0E5D1A2E43A
:100723005003121929EEA2E092AF7F01020441CADD
:10073300C0E0E493A3C582CCC582C583CDC583F055
:10074300A3C582CCC582C583CDC583DAE5D0E0CA13
:1007530022CAC0E0E0A3C582CCC582C583CDC583D0
:10076300F0A3C582CCC582C583CDC583DAE6D0E0CC
:10077300CA22C008C3E096F50808A3E09642080819
:10078300A3E096420808A3E09645087001D3D00879
:10079300227009080808226016181818C6C333C641
:1007A30008C633C608C633C608C633C6D5E0EA2230
:1007B300C0E0E493A3D39C5010E493A3C39C400AEA
:1007C300D0E0D0E0D0E0020702A3A3A3D0E022C090
:1007D3009FF59FE473D09F22D083D082C09FE49380
:1007E300C0E0740193C0E0740293F59F222518F5CD
:1007F3008210AF08F518400215198008F518400259
:100803001519D2AF851983227404800A74038006F4
:10081300740280027401C0E0F4041207F0D0E01205
:100823000A4C22C0D0251810AF08F518500205193C
:100833008008F51850020519D2AFD0D022BB0102AF
:10084300E722C082C08389828A83BB0003E08002DF
:10085300E493D083D08222C0E0C0D0E8C0E0E5A812
:10086300D2AFC2C7A2E792AFD0E0F8D0D0D0E03287
:100873006016080808C6C313C618C613C618C613DD
:10088300C618C613C6D5E0EA22C3E0C696F608A387
:10089300E0C696F608A3E0C696F608A3E0C696F669
:1008A30022C0E0E493A36C7009D0E0D0E0D0E00272
:1008B3000702A3A3D0E022251810AF08F5184002C1
:1008C30015198008F51840021519D2AF22E7667092
:1008D300100809E766700A0809E76670040809E763
:1008E3006622C3E09608A3E09608A3E09608A3E077
:1008F30096A2D265D03322E066701008A3E066703A
:100903000A08A3E066700408A3E06622C3E096F039
:1009130008A3E096F008A3E096F008A3E096F0227F
:10092300E026F608A3E036F608A3E036F608A3E0CF
:1009330036F622E627F60809E637F60809E637F61B
:100943000809E637F622C0E0E8C0E0E58124FCF8B8
:10095300E6A2E7D0E0F8D0E022700422600D18C6CA
:10096300C333C608C633C6D5E0F41822E657F608E3
:1009730009E657F60809E657F60809E657F622E0AE
:1009830056F608A3E056F608A3E056F608A3E05689
:10099300F622E056F008A3E056F008A3E056F0086C
:1009A300A3E056F022E647F60809E647F60809E60B
:1009B30047F60809E647F622E026F008A3E036F0FA
:1009C30008A3E036F008A3E036F022E4C396F60865
:1009D300E496F608E496F608E496F622C6F4C6080A
:1009E300C6F4C608C6F4C608C6F4C622C3E796080A
:1009F30009E7960809E7960809E79622C3E09608EF
:100A0300A3E09608A3E09608A3E0962275D00075AC
:100A1300814075180175190300020499E0F608A3D3
:100A2300E0F608A3E0F608A3E0F622600C08C6C3CC
:100A330013C618C613C6D5E0F422E6F008A3E6F001
:100A430008A3E6F008A3E6F022CAC0E0E6F0A30894
:100A5300DAFAD0E0FA22E0FAA3E0FBA3E0FCA3E099
:100A6300FD22EAF0A3EBF0A3ECF0A3EDF022E5C73F
:100A730054F84401F5C77901222518F582E43519A4
:100A8300F58322C2AF75D69F020000221207DB59FD
:100A9300E1021207DBA6E2021207DB49E3021207B7
:100AA300DB8BE4021207DBA9E4021207DBF322006B
:100AB3001207DB4723001207DB5923001207DBABC6
:100AC30023001207DB0C24001207DB962400120715
:100AD300DB3A25001207DB8225001207DBBC250069
:100AE3001207DBE525001207DBFE25001207DB24D6
:100AF30026001207DB5F26001207DBA3260012077E
:100B0300DBCA26001207DB1B27001207DBCB2700FB
:100B13001207DB8328001207DB4B29001207DB0BCC
:100B23002A001207DB4F2A001207DB742A00120780
:100B3300DBB72A001207DB042B001207DB5C2C0057
:100B43001207DBE22C001207DB002D001207DB2A61
:100B53002D001207DB442D001207DB532D00120773
:100B6300DB5E2D001207DB1E2E001207DB772E0043
:100B73001207DB392F001207DB412F001207DBC5F9
:100B83002F001207DB0B30001207DB8C300012073B
:100B9300DBF830001207DB2332001207DB343200AC
:100BA3001207DBAA32001207DB3C33001207DB9487
:100BB30033001207DB5434001207DB7B34001207C7
:100BC300DB8D34001207DBE034001207DB1D350038
:100BD3001207DB2A35001207DBAD36001207DB02F2
:100BE30038001207DB3438001207DBC7380012075E
:100BF300DB0039001207DB4C39001207DB683A00CF
:100C03001207DBB13C001207DBBC3C001207DBC759
:100C13003C001207DBD13C001207DBDC3C0012076F
:100C2300DBF63C001207DB003D001207DB0A3D0048
:100C33001207DB153D001207DB3D3D001207DB9871
:100C43003D001207DBBC3D001207DBE03D0012074D
:100C5300DB3E3E001207DB823E001207DB9E3E00B6
:100C63001207DB153F001207DB4D3F001207DB992C
:100C73003F001207DBF63F001207DBB0400012070C
:100C8300DB9442001207DBED42001207DB1D440038
:100C93001207DB4344001207DBCC45001207DB4895
:100CA30049001207DB1A4B001207DBE34C00120763
:100CB300DB904D001207DBFB4E001207DB9A4F005F
:100CC3001207DBDF4F001207DB4950001207DB5826
:100CD30050001207DBDF52001207DB9154001207AA
:100CE300DBFE54001207DBDD55001207DBF656006E
:100CF3001207DB7358001207DB9258001207DBE779
:100D030058001207DBEC59001207DB145A001207D4
:100D1300DB6C5A001207DB4B5B001207DB8F5B00B7
:100D23001207DBDA5B001207DB455C001207DB8688
:100D33005D001207DBEA5D001207DB385F00120774
:100D4300DB9861001207DBC961001207DB816300D6
:100D53001207DBD663001207DBDA64001207DB77C6
:100D630065001207DBD065001207DB8366001207FC
:100D7300DB2567001207DBC567001207DB6A680023
:100D83001207DB6680011207DBA580011207DBEC8B
:100D930082011207DB3683011207DB51840112073C
:100DA300DBC184011207DBF684011207DB6A8601CB
:100DB3001207DBED88011207DB168A011207DBAC91
:100DC3008A011207DBB493011207DB49940112076E
:100DD300DB3097011207DB2398011207DB849801AC
:100DE3001207DBA099011207DB859B011207DB9633
:100DF3009D011207DB009E011207DBD29E01120741
:100E0300DB899F011207DB939F011207DBC19F015F
:100E13001207DB7EA0011207DB55A1011207DB1CC1
:100E2300A2011207DBCEA2011207DBF7A201120710
:100E3300DB19A3011207DB6FA5011207DB47A6012C
:100E43001207DB8BA6011207DBF3A6011207DBAB4C
:100E5300A7011207DBDDA7011207DB21A801120797
:100E6300DB57A8011207DBA3A8011207DBF8A801CF
:100E73001207DBFDA8011207DB50A9011207DB757E
:100E8300A9011207DB84AA011207DBE8AA011207F2
:100E9300DB58AB011207DBE4AB011207DBB1AE0198
:100EA3001207DB95AF011207DB18B1011207DB4E06
:100EB300B3011207DBFCB3011207DBACB401120769
:100EC300DBEDB6011207DB90B7011207DBD7B701E1
:100ED3001207DB83B9011207DB97B9011207DBA104
:100EE300B9011207DBC9B9011207DBD5B901120732
:100EF300DBF4B9011207DBD9BB011207DB10BC011C
:100F03001207DB1ABC011207DB24BC011207DB7FCB
:100F1300BC011207DBEBBC011207DB3ABE0112076F
:100F2300DB7EBE011207DB26BF011207DB09C0010E
:100F33001207DBB4C0011207DB00C2011207DBFE9C
:100F4300C2011207DBA4C3011207DB34C401120779
:100F5300DB4BC4011207DB82C4011207DB8CC40123
:100F63001207DB97C4011207DBB5C4011207DBF9D3
:100F7300C4011207DB56C5011207DB7BC50112074B
:100F8300DB95C5011207DB21C6011207DB3EC70152
:100F93001207DBABC7011207DB92C8011207DBB9EB
:100FA300C8011207DB2DC9011207DBA8C90112070B
:100FB300DBACCA011207DBA2CB011207DB51CC0168
:100FC3001207DB64CD011207DB00CE011207DB8DB4
:100FD300CE011207DB6BCF011207DBA3CF01120790
:100FE300DBFBCF011207DBC4D0011207DBE5D00125
:100FF3001207DB6CD1011207DB90D1011207DBB2C0
:10100300D1011207DBFBD1011207DB11D401120757
:10101300DBF8D4011207DBA9D5011207DBDFD70107
:101023001207DB2FD8011207DB6FD8011207DBB1E0
:10103300D8011207DB0DD9011207DB3BD9011207D7
:10104300DB5FD9011207DBB2D9011207DBE0D9015B
:101053001207DB19DA011207DB6EDA011207DBD4A0
:10106300DA011207DB28DC011207DB4BDE01120772
:10107300DBB8DE011207DBE1DE011207DB6CDF0107
:101083001207DBD3DF011207DB1EE0011207DB428D
:10109300E0011207DB66E0011207DBC1E001120782
:1010A300DBDCE0011207DB95E1011207DBF7E40368
:1010B3001207DB36E5031207DB7880021207DBBE7B
:1010C30080021207DB9E81021207DBA08202120755
:1010D300DBA383021207DB2F85021207DB8D850258
:1010E3001207DB4A86021207DB6887021207DBD985
:1010F30087021207DB1588021207DB6388021207D7
:10110300DB6D88021207DBB188021207DB0D89024F
:101113001207DBA889021207DB258A021207DBF418
:101123008A021207DB8D8B021207DBAD8B021207DB
:10113300DBE38B021207DB148C021207DBD58C0274
:101143001207DBE58C021207DB398D021207DB5431
:101153008D021207DB668D021207DB6F8D02120709
:10116300DBC98D021207DB258E021207DB718E02AB
:101173001207DB8C8E021207DBBD8E021207DBDA4D
:101183008E021207DBE68E021207DB5A9002120769
:10119300DB7390021207DBDA90021207DBED900299
:1011A3001207DBFB90021207DBAF91021207DB93FE
:1011B30092021207DB9993021207DB2394021207B0
:1011C300DB2D94021207DB9A94021207DBB194021F
:1011D3001207DBE394021207DB1C95021207DB46BE
:1011E30095021207DBA795021207DBC795021207C8
:1011F300DBE595021207DB2B96021207DB51970200
:101203001207DB9E97021207DBCD97021207DB431F
:1012130098021207DB6B98021207DBA498021207ED
:10122300DBB298021207DB0A99021207DB59990213
:101233001207DB9899021207DBC899021207DBF445
:1012430099021207DBFF99021207DB1D9A021207AC
:10125300DBDF9A021207DBE99A021207DB249B0207
:101263001207DB3A9B021207DB8F9B021207DBA3F9
:101273009B021207DBB19C021207DBC49C0212071C
:10128300DBD99C021207DB7B9D021207DBFE9D026A
:101293001207DBBC9E021207DBC79E021207DBF3B9
:1012A3009F021207DB0FA0021207DB61A0021207E5
:1012B300DBA0A0021207DBB5A0021207DB17A10215
:1012C3001207DBA6A1021207DBF1A1021207DB4220
:1012D300A4021207DBC0A4021207DB35A502120722
:1012E300DB57A7021207DB6FA7021207DB72A70205
:1012F3001207DB7EA7021207DB92A7021207DB9A13
:10130300A7021207DBCDA7021207DB7DA802120793
:10131300DBF3A8021207DB66A9021207DB1AAA0293
:101323001207DBCFAA021207DBEEAA021207DB8E3B
:10133300AB021207DB9AAB021207DBC5AB02120743
:10134300DBC8AB021207DB32AC021207DB5AAD0279
:101353001207DB32AE021207DBBDAE021207DBD689
:10136300AF021207DB93B0021207DBCCB002120705
:10137300DBFDB0021207DBBBB1021207DBEBB102EC
:101383001207DBC6B2021207DB5FB3021207DBEA06
:10139300B3021207DB6BD6021207DB1EB50212077C
:1013A300DB50B5021207DB91B5021207DB94F5029D
:1013B3001207DBF9F5021207DB36F6021207DB85AB
:1013C300F6021207DB9BF8021207DB7EFA02120712
:1013D300DBE8FD021207DB23FE021207DB45FE02F8
:1013E3001207DBA8FE021207DBDCFE021207DB0496
:1013F300DF021207DB2CFF021207DB88FF02120752
:10140300DB4DF3011207DBCBF3011207DB01F40120
:101413001207DB6DF4011207DBE0F5011207DBFCB9
:10142300F5011207DB41F6011207DBCFF6011207C4
:10143300DB28F7011207DB55F8011207DB67F90117
:101443001207DBC4F9011207DB30FA011207DB9143
:10145300FA011207DBD2FA011207DB7FFB01120745
:10146300DB91FC011207DBBCFC011207DB07FD016A
:101473001207DB4EFD011207DBE0FD011207DB9BC8
:10148300FE011207DBF2A4031207DB64A5031207B4
:10149300DBBEA7031207DB76A8031207DBBDDF035E
:1014A3001207DB37E0031207DB249E031207DB700E
:1014B3009E031207DBDE9E031207DBFF9E03120768
:1014C300DBAF9F031207DBB89F031207DB0BA003FD
:1014D3001207DB34A0031207DB9BA0031207DB2CEC
:1014E300A1031207DB6EA1031207DBB8A1031207E6
:1014F300DB17A2031207DB43A2031207DBD4A20309
:101503001207DB13A3031207DB52A3031207DB87C4
:10151300A3031207DB99A3031207DBABA303120791
:10152300DBCAA3031207DBD3A3031207DB89A403DC
:101533001207DBC9A4031207DB12FF011207DBAC9E
:10154300E4031207DB6DD3031207DBA3D3031207F4
:10155300DBECD3031207DB3CD5031207DBB66800D1
:101563001207DBF569001207DB316A001207DBF0B3
:101573006B001207DB196C001207DBAC6E0012075D
:10158300DBF06E001207DB7970001207DB117100CC
:101593001207DB7971001207DB1A72001207DB5C9A
:1015A30072001207DB9C72001207DB27740012071C
:1015B300DB9775001207DBBC77001207DBEA7700C5
:1015C3001207DB1178001207DB1A78001207DBA180
:1015D30078001207DBBF7B001207DBE2E50312078B
:1015E300DBF8E5031207DB8DC8031207DBA0C80392
:1015F3001207DB3DC9031207DB78C9031207DB932C
:10160300C9031207DBB8C9031207DBFDC9031207BD
:10161300DB2ECA031207DB5FCA031207DBE5CB032A
:101623001207DBC9E1031207DBFFE1031207DB1B30
:10163300E2031207DB5DE2031207DB6DE20312072D
:10164300DB77E2031207DBD0E4021207DB22E502B9
:101653001207DB0BE6021207DBA4E6021207DBEE3E
:10166300E6021207DB50E7021207DB32E902120738
:10167300DBADE9021207DBD7E9021207DBB0EB02AD
:101683001207DBCBEB021207DB1AEC021207DB308B
:10169300EC021207DB3DEC021207DB6DEC021207D2
:1016A300DB86EC021207DB26ED021207DB80ED027C
:1016B3001207DBD2ED021207DBE5EE021207DB565F
:1016C300F1021207DB84F1021207DB12F2021207A6
:1016D300DB73F2021207DB78F2021207DBB4F202C9
:1016E3001207DB16F3021207DBE6F3021207DB0B2A
:1016F300F4021207DB15F4021207DB18F4021207D7
:10170300DB87F4021207DBA2F4021207DBB5F40253
:101713001207DBE1F4021207DB1CF5021207DB1FE1
:10172300F5021207DB5BF5021207DB5EE403120727
:10173300DB76E4031207DBE096031207DB2F970344
:101743001207DBD198031207DB8D9A031207DBD54F
:101753009A031207DBBD9B031207DBEE9C03120700
:10176300DB109D031207DB6C9D031207DBF09D0367
:101773001207DBCFE1011207DBFAE1011207DBDD20
:10178300E2011207DB62E3011207DBCBE30112077D
:10179300DB17E4011207DB96E4011207DB28E501FE
:1017A3001207DBB8E5011207DBFAE5011207DB4399
:1017B300EA011207DBC3EB011207DB93EC0112070B
:1017C300DBBAEC011207DB1BEF011207DBA7EF010A
:1017D3001207DBA9F0011207DB42F1011207DB3329
:1017E300F2011207DBB5F2011207DB0080031207D7
:1017F300DBBA80031207DB2C81031207DBC88103EA
:101803001207DB3882031207DBF184031207DBC8FC
:1018130085031207DB3586031207DBB28703120742
:10182300DB7C88031207DBC389031207DBD68A0339
:101833001207DB6F8B031207DB358C031207DB59AF
:10184300BD031207DBADBD031207DB10BE03120796
:10185300DB5BBE031207DBBDBE031207DB60BF0306
:101863001207DBCBBF031207DBD7BF031207DBFE75
:10187300BF031207DB46C0031207DBA4D70312071B
:10188300DBD5D7031207DB8FD8031207DBF5D803A9
:101893001207DB18D6031207DBD4FF021207DBE5BE
:1018A300FF021207DB7ED9031207DB8CD903120771
:1018B300DB02E6031207DBE8E3031207DBF8E303CB
:1018C3001207DB0DE4031207DB55E4031207DBC742
:1018D300E0031207DB4CE1031207DBB0E10312075D
:1018E300DBF77F001207DB407C001207DB4E7C0036
:1018F3001207DBC87C001207DBAC7D001207DB6537
:101903007F001207DBC0E5031207DB23AA031207DC
:10191300DB8FAA031207DB4EAB031207DB58AC03C2
:101923001207DBB1AD031207DB0CAE031207DB6159
:10193300AE031207DB6AAE031207DB7CAE031207AA
:10194300DBE6AE031207DBFAAE031207DB04AF03D9
:101953001207DBD5B3031207DB2AB4031207DB2616
:10196300B6031207DB58B6031207DB7AB603120776
:10197300DB93B6031207DBACB6031207DBB6B70380
:101983001207DB51B8031207DB0ADB031207DB2E56
:10199300DB031207DB47DB031207DB7ADB031207E8
:1019A300DBABDB031207DBD9DB031207DB3BDC0317
:1019B3001207DB4ADC031207DB54DC031207DB618B
:1019C300DC031207DBFCCB031207DB22CC03120779
:1019D300DB5FCC031207DB6ECC031207DB8DCC037A
:1019E3001207DBF5CC031207DBFECC031207DB5D2A
:1019F300CD031207DB81CD031207DB40CE031207B1
:101A0300DB4DCE031207DB5ECE031207DB84E50357
:101A13001207DBA1E5031207DBC8B8031207DB20BB
:101A2300BA031207DB2DBA031207DB40BA0312070E
:101A3300DB5FBA031207DB75BA031207DB89BA034C
:101A43001207DBFEBA031207DB63BB031207DB13C8
:101A5300BC031207DBE8BC031207DBF8BC03120765
:101A6300DB07BD031207DBD0E2031207DBF4E2035B
:101A73001207DB1CE3031207DB44E3031207DB0E4D
:101A8300D1031207DB35D1031207DB56D10312074B
:101A9300DBBBD1031207DB8CCE031207DBA5CE031E
:101AA3001207DBB1CE031207DBC5CE031207DBE35C
:101AB300CE031207DBEDCE031207DBF7CE031207CB
:101AC300DB0ACF031207DB6CCF031207DBA5CF03BF
:101AD3001207DBD4CF031207DB22D0031207DB711B
:101AE300D0031207DB8CD0031207DB96D003120757
:101AF300DBBDD0031207DB03D1031207DB69E3036A
:101B03001207DB85E3031207DBE5FF011207DB891D
:101B13008D031207DBB38D031207DBCF8D0312078F
:101B2300DBE28D031207DBF88D031207DB558E030F
:101B33001207DB888E031207DBC992031207DBEF60
:101B430093031207DB2294031207DB6E940312073D
:101B5300DBB095031207DBD895031207DBED950382
:101B63001207DBFD95031207DB4196031207DBA285
:101B730096031207DBB296031207DB6BDC03120733
:101B8300DB86DC031207DBAFDC031207DBC9DC03F4
:101B93001207DBEEDC031207DB0DDD031207DB2587
:101BA300DD031207DB53DD031207DB6DDD031207D1
:101BB300DB40E5031207DB0DC5031207DB14C50386
:101BC3001207DB20C6031207DB50C6031207DB76BE
:101BD300C6031207DB99C6031207DBBBC603120752
:101BE300DBF5C6031207DB5BC7031207DB94C703EE
:101BF3001207DBE0C7031207DB0DC8031207DB2D57
:101C0300C8031207DBB1DE031207DBC9DE031207C9
:101C1300DBB7DF031207DBBADF031207DB9EDD034B
:101C23001207DB10DE031207DB4EDE031207DB8F26
:101C3300DE031207DB3FC1031207DB5EC10312079A
:101C4300DBADC1031207DBC9C1031207DBFAC10312
:101C53001207DB0AC2031207DB17C2031207DB24D6
:101C6300C2031207DB10C3031207DB4EC3031207C1
:101C7300DB58C3031207DB68C4031207DB73C40317
:101C83001207DB85C4031207DB8EC4031207DB983C
:101C9300C4031207DB18AF031207DB5DB30312079C
:101CA300DB6BB3031207DBCA7F001207DBBFD5026E
:101CB3001207DB05D4021207DBB5D1021207DB3CA6
:101CC300D1021207DBE3D0021207DB73D002120743
:101CD300DB4AD0021207DB2ACE021207DBF6CD0263
:101CE3001207DBC3CD021207DBA7CD021207DBC04D
:101CF300CC021207DB78CC021207DBC3CA0212073D
:101D0300DB43CA021207DB40CA021207DB41C902E6
:101D13001207DB0FC9021207DB4CC8021207DB777D
:101D2300C6021207DB08C6021207DBDAC502120776
:101D3300DBBDDE021207DB89DE021207DB29DE02CE
:101D43001207DBE1DD021207DB53DD021207DBD7EB
:101D5300C5021207DBC4C5021207DB6FC5021207F7
:101D6300DB46DD021207DB5EC5021207DB50C4024D
:101D73001207DB1AC4021207DBC8C3021207DB40D7
:101D8300DA021207DBFFFE021207DB69C302120746
:101D9300DB38C3021207DB00C0021207DBC0BF023D
:101DA3001207DBB4BF021207DB14BF021207DB54B6
:101DB300BE021207DBD6BB021207DB67B9021207AA
:101DC300DB25B9021207DBF9B7021207DBAEB70254
:101DD3001207DBEDB6021207DB30B6021207DB0097
:101DE300B6021207DBA2D7021207DBC6B50212073F
:101DF300DB9BB40200000080FBE4738F0001001D35
:101E03000887000100B91224000200941225000281
:101E1300009612260002009812270002009A122848
:101E23000001009C12290001009D12840004009E01
:101E33001286000100A2122A000100A3122B000146
:101E430000A4122C000100A7122D00080008082E80
:101E5300000100A8122F000100A91230000100AAFE
:101E63001231000100AB12320001001008330001EF
:101E730000110834000100AC1236000100120838CA
:101E8300000100AD1239000100A61283000200B761
:101E930012630001001C08640001000508650001CD
:101EA30000A5126D000100B6126E00020006084381
:101EB300000100AE1244000200AF1245000100B160
:101EC3001246000200B2124700080014084800013D
:101ED30000B4124B000100B51204000100BA12A1B4
:101EE300000100BD1237000100BC1288000100BBD5
:101EF300123C00010013080000000000000001363E
:101F03003601010001020100010301000104010681
:101F13000605020000070100340801000F0904014F
:101F2300010D0100FF0E0800001702000019010057
:101F3300FF1A0100011B0100FE1C0100081D020025
:101F4300001F010001200100012102000023010004
:101F53000F240200002601000127010008280200C7
:101F6300FF2A0100072B0102402C0100002D010074
:101F7300012E0100012F0100FF30010B1C3108006D
:101F8300003A0100083B01000F2F0100000302711A
:101F93000230016002110270020102020202028099
:101FA30002100261023A004100630273027202628C
:101FB300024302000213023800000200020402126C
:101FC300020002000200020002040204023700378A
:101FD300003C0244020002390000020002650200D4
:101FE300023502810200020502820283020002031B
:101FF30000710030016000110070003102200350B5
:10200300048000100061000000140063007300727C
:1020130000620043000000130006000000000004FB
:10202300001200000000000000000004000400375C
:102033000037003C0244000000000000000000657F
:10204300000000350081000000050000008300004F
:102053000003047104020460041104700402040206
:1020630004010402041004610400041404630473EF
:10207300047204620443040004130406040004000D
:102083000404041204000400040004000451046462
:1020930000000400040004440400040004000400DD
:1020A300046504000435048104640005040004830A
:1020B300040004010371030103010301030103018C
:1020C30003220302030103100300030003000300C0
:1020D3000300030003000342030003240306030079
:1020E300030003040312032503230325032303042B
:1020F300030403000300030003440300030003235A
:102103000300036503210035038103000305030076
:102113000300030003010171010101010111010128
:10212300013101010101018001100161013B001432
:10213300006301730172016201430100011301068F
:10214300013D0135000401120100010001000100FD
:102153000104010401330133013C0144013201361E
:102163000000010001650100013500810100010546
:102173000182018301000136000100060000000F07
:102183000000000000000000000000000003FFFF4B
:1021930000000403FFFF0000FFFF0FF4010005C46C
:1021A300040320000100130B0000000000000000E6
:1021B30003010F000003181300C1170100031802E5
:1021C300008B17030091170400971705009D17064E
:1021D30000A917FFFF000001CB0D06F50D08EF0D59
:1021E3000B0D0E10470D02D10D05E30D07D70D0C96
:1021F300AD0D0DBF0DFF0000F7112712FD110312E6
:10220300211215120F122D1233123912451209120F
:10221300F111EB1100160F00000B150B0200022247
:102223000F32000006E712F912FF12C1110513BBAA
:1022330011C711140AE5D5C5B5A5A595858575659D
:10224300471365136B134D1359135313FB10F510F9
:10225300311137112B11E310000119161816161539
:102263002303000C0E020B040B0A0708000F0003E4
:102273004948424D181725050230301718192130E7
:102283001B1D1F30303016181920231A1C1E300056
:10229300383C3E363B3B352B432C3B130B1311137E
:1022A3001D1317131B123F125F134B12511202041B
:1022B3000201010101090207110D1101113D110074
:1022C300BE040A13112511FA06362204007F00E822
:1022D300030C000E002800000000000108100C0A87
:1022E3000308090004000CFF1E1E05080403100563
:1022F30074F612037674FF1208BA8518828519835F
:10230300E4F08582088583097808120813750801AB
:10231300750900780812081312232874041208267A
:1023230074010238BF12232F1215CF22EA75F00B66
:10233300A4FAA8F075F00BEBA428FBEAFCEBFD7AFA
:10234300237B0022C082C0838A828B83E0D2E7F0A2
:102353001216F50234D9C082C083790012286A129A
:102363005842C082C0839003341245C8D083D082C0
:10237300C3E09CA3E09D500C125F16FAA3E0122366
:102383008A6001090234D9FBEA75F00BA4FAA8F0BC
:1023930075F00BEBA428FB900336E02AF8A3E03B8F
:1023A3008882F583E0540F2274F7120376890812AA
:1023B300286A122910ACF075F00BE9A42CF99003EC
:1023C30036E028FEA3E039FF740165086006740255
:1023D300650870208A828B831228FC1238B9740234
:1023E3006508701B1227BB12294370138E828F83DB
:1023F300E4F0800BEA2403FCEB1228DE1228EAEE59
:10240300FAEFFB120AB302381674F4120376126859
:102413003D79008E828F83E06076890A890B80651F
:10242300E50A75F00BA4FAA8F075F00BE50B12237F
:10243300977046E50A75F00BA4F8AAF075F00BE562
:102443000B1229228E828F83E085088285098312ED
:102453002A04850882850983A31238B9EE2403FC74
:10246300EF1228E71236971252BCAA08AB09120AD8
:10247300B37901900334124CD1E50A2401F50AE53E
:102483000B3400F50B1227C3E50A9AE50B9B40902A
:10249300023A6374F5120376EAFEEBFF740B120A39
:1024A3007C12369C750A01EC4D602BEC126859EDD9
:1024B3001258421238B17901120ABFE50845096082
:1024C3006F850882850983A31268477902AA08AB3E
:1024D30009120ABF805AE5084509602B12584612B3
:1024E3003F1012369812292D700CEEFAEFFB120AE8
:1024F300C5E9F50A80CBEE2403FA12286570317919
:1025030003EEFAEFFB80CA8E828F83A3E064FE7032
:1025130003A3E0F4700BEE24030A0A0A1228657081
:102523000CEEFAEFFB120AC5E9F50A8003750A00FF
:10253300A90A7F0302059174F712037690033412FC
:102543003826EA4B602FEA75F00BA4FAA8F075F071
:102553000BEBA428FBEAFEEBFF1215519003361296
:102563003826900336124B166012EEFCEFFD79000D
:102573001214B58007900336E4F0A3F00238167402
:10258300F6120376E4F508F50978081208139003A8
:10259300341245C8EC75F00BA4FCA8F075F00BEDF4
:1025A300A428FD7A237B001215C97402120826E9B8
:1025B300FE6003120ADD025A5574F71203767E0099
:1025C3007F00800AEEFAEFFB120AAD1231E1122509
:1025D300D940F1023816900334124280C3EE98EFCB
:1025E3009922C082C083EC4D6005121C2F80097CA8
:1025F300087D0079001214B50234D974F6120376FB
:102603007900EA4B601878008808125B89EB125F47
:102613001260047901780808E8C3940840EA023894
:10262300C274F712037674F31208BAECFEEDFF8559
:102633001882851983E4F004120A7CEAF0A3EB12F2
:1026430050427403120A7CAC82AD83EEFAEFFB12A4
:102653000AE3EEFAEFFB120AE902381174F71203E8
:102663007674F31208BAECFEEDFF851882851983A0
:10267300E4F0EAFCEBFD7403120A7C1229FD7401F9
:10268300120A7C1238AD8E828F831238B974FE68B9
:10269300700374FF696004790180027900023811C4
:1026A30074F7120376EAFEEBFF1227017014122768
:1026B3000C8E828F83E0F4F88A828B83E058F012C9
:1026C3000AB3A90802381674F7120376EAFEEBFF81
:1026D3007508008E828F83E06022122701701D121D
:1026E300270C8A828B83E08F838E82F8E058700CEC
:1026F300E0F88A828B83E048F0120AB380C4120A9E
:10270300B9E9F508740165082212685212291412F6
:102713002856FAA3E039FB2274F41203768A088B55
:10272300097C007D001227BB1228EA12287B12685D
:10273300447900850882850983A3E064FE7003A3BE
:10274300E0F460717E007F008062EEFAEF12238A6C
:102753006057EEFAEFFBEA75F00BA4FAA8F075F0F8
:102763000BEBA428FB900336E02AF50AA3E03BF524
:102773000B850882850983A3124F90850A82850BF6
:1027830083A3E06A7003A3E06B701EE50A2403FAD7
:10279300E50B122866700AE50A2403FCE50B1228F0
:1027A300E712286F79011258581231E11227C3EE4C
:1027B3009AEF9B4095023A63EA24030A0A0AEB2242
:1027C30090033412542FC32274F31203768A088BB6
:1027D300098A828B83A312684712286A1268447598
:1027E3000C001227BB12286670547E007F008049BC
:1027F300122848FAA3E0398A82F583E0540F603641
:10280300122848F50AA3E039F50BE50A2403FCE591
:102813000B1228F13400FB121C29E964017017859F
:102823000A82850B83A31254F0A31238B912286FBE
:10283300750C011258581231E11225D940B2A90C76
:102843007F05020591EEF8EFF9E875F00BA4F81295
:10285300285622AAF075F00BE9A42AF9900336E072
:102863002822EF12293D22126858EB2212287B12EC
:102873005853EEF0A3EFF022E508126859E5092258
:1028830074F5120376EAFEEBFF8E828F83A3126840
:10289300477C007D00EE24030A0A0AEF1228EAEEC1
:1028A300FAEFFB120AB9E9F50A7401650A702912F5
:1028B3006852122910AAF075F00BE9122922850833
:1028C30082F5831228FC12292D700DE5082403FCE0
:1028D300E5091228DE1228EA0225333400FDEE242E
:1028E30003FAEF221228F13400FB120AE322340028
:1028F300FDE5082403FAE50922A31229012212297E
:102903000522E0F8A3E0F98E828F83A32212291413
:10291300223400F583124284E875F00BA4F82212E6
:10292300285CF508A3E039F50922E8F0A3E9F0E50E
:10293300082403FAE50912293D22122943640122DE
:102943003400FB120AE9E92274F312037674E612E7
:1029530008BA12683D750C01750800750900750AFF
:1029630000750B00851882851983E4F0EE2403FCBF
:10297300EF3400FD7403120A7C1229FDE96401702F
:1029830023740B120A7C1238B17401120A7C124FA1
:10299300947003A3E0696051851882851983858249
:1029A30008858309740D120A7CE4122A04740E123A
:1029B3000A7C1238B9740D120A7CAA82AB83120BFB
:1029C30007E96401700B740D120A7C85820A858302
:1029D3000B780A120813AC08AD09EEFAEFFB120AE2
:1029E300CB7402120826E9F50CEEFAEFFB120B0189
:1029F300A90C741A120826022843122CD0120B0DAC
:102A03002212382112428022C082C08378007900CA
:102A13008003122AFB1227C3E89AE99B5029E8FA9C
:102A2300E9FBEA75F00BA4FAACF075F00BEBA42C00
:102A3300FB900336E02AFCA3E03B8C82F583E05451
:102A43000F70CF7900800279010234D9C082C0832C
:102A53009004F11242D6EC75F012A4FCA8F075F0C4
:102A630012EDA428FD79FF7AF97B0C1214B5023418
:102A7300D974F7120376E9FEEAFF7A007B00780047
:102A830079008028E8FCE9FDEC75F012A4FC85F0E0
:102A93000875F012EDA42508122F10C39E400AE01A
:102AA300FCEFC39C40031230B6122AFB122F0440E2
:102AB300D3023816C082C083780079008003122ABB
:102AC300FB122AEF501F122F14F470F2E875F01264
:102AD300A4F8AAF075F012E9A42AF974F928FA7493
:102AE3000C39FB80047A007B000234D99004F11284
:102AF300304CC3E89AE99B22E8240108E93400F941
:102B03002274F012037674F31208BA8A0A8B0B8CC0
:102B13000C8D0D8908EC450D6016AA0CAB0D120B3C
:102B23005B8A0E8B0FAE0EAF0FEE4F6003022BC20C
:102B3300120B318A0E8B0FA80EA90FE8FEE9FFE8EE
:102B430049607C9022DC122C2460227403650860A7
:102B5300067404650870167A047903120B2B90220D
:102B6300DC122C3B40077A007B00022C219022DAF6
:102B7300122C24601B7401650860067402650870DA
:102B83000F7A027901120B2B9022DA122C3B50D6CA
:102B93008518828519837401F0120A7C1252BCAC29
:102BA3000CAD0D7403120A7C122CC9740B120A7C2F
:102BB3001236A4123C99E41252A412103B8004EE84
:102BC3004F604A780074FF2508C3940450027804C8
:102BD3008E828F831252BC8E828F83A3A3A3A3E51D
:102BE30008F0E88E828F83A3A3A3A3A31252C41277
:102BF30002251230638E828F83A3A3A3A3A3A3A36F
:102C0300F012305A120A5912583C120A65122C2932
:102C13004005901255E4F0120F15EEFAEFFB024255
:102C23008A1253DE49227A047900120B2B9004F1A5
:102C3300125EF8EA98EB9922122C5475830475827C
:102C4300F1E493C398F8A3E49399F9C3EA98EB9951
:102C530022E493F8740193F92274F212037674F365
:102C63001208BA8A088B09ECFEEDFF750A00EEFA2A
:102C7300EFFB120B5B8A0C8B0DA80CA90DE84960C6
:102C83003E88828983E065087004A3E06509602FAC
:102C930088828983A3A3A3A3E0C39405502112567A
:102CA300EA8518828519837401F0120A7C1256EEA4
:102CB300EEFCEFFD7403120A7C122CC9750A01A9FC
:102CC3000A740D024D88122CD0120B1922AA82AB62
:102CD30083120AE3851882851983AA82AB8322743F
:102CE300F6120376122D1E600FA3A3A3A3E014C351
:102CF300940450047901800279000238C274F612F8
:102D03000376122D1E600FA3A3A3A3E014C39402A2
:102D130050047901800279000238C2120B558A826D
:102D23008B83E58245832274F6120376122D1E608F
:102D33000BA3A3A3A3E070047901800279000238F6
:102D4300C2C082C083EAFCEBFD7A007B000234D66A
:102D5300C082C0837C007D000234D674F4120376F3
:102D630074F31208BAEAFEEBFF8C0A8D0BC3EC94E2
:102D7300F8ED94FF4007EE4F7003022E177508001D
:102D8300750900802E8518828519837401F012322B
:102D930009120A7C12321760137403120A7CAC8284
:102DA300AD83EEFAEFFB121C29E97049E508240113
:102DB300122FB09004F1E41253E6E50898E509995F
:102DC3005052E50875F012A4F8AAF075F012E5095F
:102DD300A42AF9125F2B60D4EE4F70A974FF650A21
:102DE300700474FF650B60C41231F9650A7004A3A3
:102DF300E0650B70B7E50875F012A4F508A8F07547
:102E0300F012E509A428F50974F92508FA740C35BC
:102E130009FB80047A007B00023A5E74F4120376A5
:102E230074F31208BA750800120B5B8A0A8B0BAE97
:102E33000AAF0BEE4F602A8518828519837401123D
:102E4300381BF8A3E0F9740B120A7C12393C120AFE
:102E5300FB7C127D0079FFEEFAEFFB1214B57508C7
:102E630001122C2950099012557401F0120F15A963
:102E730008023A5E74F7120376E9FE74FE6A700381
:102E830074FF6B7800790070058052122AFB122FB1
:102E930004504AE8FCE9FDEC75F012A4FCAFF075B0
:102EA300F012EDA42F122F10F460E0E8FCE9FDEC22
:102EB30075F012A4FC75F012EDA42FFD74F92CF536
:102EC30082740C3DF583E06A7003A3E06B70BC80F1
:102ED30009122F1414C394044017122AFB122AEF69
:102EE3005018EE70EC122F1464016005E064037057
:102EF300E91231EAFAA3E0FB80047AFE7BFF023891
:102F0300169004F11242DAC3E89CE99D221230EBD9
:102F130022E8FAE9FBEA75F012A4FAACF075F012B4
:102F2300EBA42CFB74FD2AF582740C3BF583E022A1
:102F3300120B6D0234D9C082C083790180F274F020
:102F43001203768A0A8B0B7A047901120B2B8A0CF3
:102F53008B0DEA450D603EEAC333FAEB33FB1215E2
:102F6300518A088B09AE08AF09EE4F60237AFE7BC6
:102F7300FF120B7374FE6A700374FF6B601B85088A
:102F830082850983123826E5082402122FB080E1D6
:102F9300750C0080047E007F00850A82850B83E523
:102FA3000CF0EEFAEFFB02428FE5082407F508E583
:102FB300093400F509229004F11242DAC3EA9CEBCA
:102FC3009D2274F6120376E4F508F50978081208D1
:102FD300139004F1E493F508740193F509740378ED
:102FE3000812095C122FFC1215C97402120826E993
:102FF300FE6003120B85025A55E5082402FCE5091D
:103003003400FD7A227B002274F612037674FE12DA
:1030130008BA851882851983E4F0A31238A585823E
:103023000885830978081208137508027509007862
:10303300081208137C007D007A227B001215CF74DE
:103043000412082674020238BFE493FA740193FB56
:10305300221214A974032212584DE4F090803F22E7
:10306300E88E828F83A3A3A3A3A3A3A3A312308574
:103073007401123085A3F0EE2410125850E4F0A32B
:10308300F022123CA5A3A3A322C082C0837A007BB3
:10309300008004191230B6122FB950101230D5C364
:1030A300940550F0E970EC1230BF80047A007B0085
:1030B3000234D9EA24010AEB3400FB22EA75F01248
:1030C300A4FA75F012EBA428FB74F92AFA740C3BEA
:1030D300FB22EAFCEBFDEC75F012A4FCA8F075F002
:1030E30012EDA4281230EB22FD74FD2CF582740C32
:1030F3003DF583E02274F712037674F31208BA7E67
:10310300007F0002319DE50875F017A4F8A9F012BD
:10311300618CFAA3E0FBEEF8EFF9E875F012A4F87E
:10312300ACF075F012E9A42C1231F86A7003A3E035
:103133006B603FE50875F017A4F8AAF0EA12618BFB
:10314300F8A3E0F97401120A7CE0687003A3E06954
:103153006020E50875F017A4F8EAF9747528FC7483
:103163000E39FD7403120A7CAA82AB83121C29E96F
:103173006014E50875F017A4F8A9F0747328FA74BD
:103183000E39FB12104705089022E0E493F8E50896
:10319300C39850030231091231E19004F11264D251
:1031A3005039EEF8EFF91231EAF47003A3E0F4605A
:1031B300E68518828519837401F0EEF8EFF9E87556
:1031C300F012A4F875F012E9A42AF9123209120ACE
:1031D3007C12321760C175080080AD023811EE24ED
:1031E300010EEF3400FF22E875F012A4F8AAF0757F
:1031F300F012E9A42AF91231FD2274F928F5827438
:103203000C39F583E02274FB28F582740C391242E1
:103213007E740B22E8F0A3E9123944120B13E9225E
:10322300C082C08390034174DDF0A3740DF00234B7
:10323300D974F7120376EAFEEBFF900377E0640894
:10324300601BE0640460168E828F83E05403640184
:103253007048123697123D8FE06406703D8E828F60
:1032630083A3A3E064FE7003A3E0F4602D8E828F3A
:1032730083A3A31238AD900368E0687003A3E069E9
:10328300700BEE2415F582EF125F126008120E9791
:10329300E9F5088008120E9D80F67508C2EEFAEF74
:1032A300FB1215570226C574F41203768A088B099C
:1032B3008A828B83E0F8A3E0FAE82AFAE43400FB7D
:1032C3001215518A0A8B0BAE0AAF0BEE4F60638562
:1032D3000882850983E0FC7D0079001214B58E8293
:1032E3008F83A3A3126847120ED98E828F83A3A361
:1032F300A3A3123826850882850983E0F8EE28F80F
:10330300EF34001238B5850882850983A3E0C0E055
:10331300EE240D12583FD0E0F0120EEBEE240E1205
:10332300583FE9124EF1E0C0E0EE241112583FD0AD
:10333300E0F0EEFAEFFB023A6374F412037674EBF7
:103343001208BA8A088B098C0A8D0BE9FE90037761
:10335300E064046005E06408700479C2802EA378F9
:1033630008120A3DEE90037E123517120A3D7405CA
:10337300120A7CE9F07404120A7C7401F0740712D7
:103383000A7CE4F090037774021234747415023AE1
:103393006074F612037674EB1208BAEAFEEBFF12BE
:1033A3004B1360030234387A077B001215519003E4
:1033B30039123826124B1360788E828F83120A5982
:1033C30090033A123D92120A6512670BC0E0123461
:1033D30044D0E0F0EE2405FAEF3400FB8A088B09B1
:1033E3008A82F583E0C0E012343FD0E0123A5AE01B
:1033F300C0E012343FA3D0E012389A120A5985185C
:1034030082851983120A6588828983E0C0E0740586
:10341300120A7CD0E0F0850882850983E0C0E0745D
:1034230004120A7CD0E0F07407120A7C1234738011
:103433000679108002790174150238BF123444A34F
:1034430022900339E0FAA3E0F5838A82A3A3A3A31E
:1034530022C082C083124B13600D90033912541D96
:10346300900339E4F0A3F0120E07120FE70234D9E8
:10347300E4123944121C5F22C082C083900338E0F7
:1034830070031217BB120BC1804CC082C083900320
:1034930038E09012547004E4F0802D7401F090032E
:1034A30038E0F460237C41E0C394415002E0FCEC3B
:1034B300F8E0C398F0EC75F0E8A4CCA8F075F0033D
:1034C300A428FD7A801242E27A547B127941121CBD
:1034D300478003120B61D083D0820207D874F412A1
:1034E300037674EB1208BA8A088B098C0A8D0B9049
:1034F30003777401123517120A3D7405120A7CE929
:10350300F07404120A7C7403F07407120A7C1234F8
:103513007302338F1238A578082274F71203767C6E
:1035230001120BD302381674F212037674FC1208DC
:10353300BAE9851882851983F0EAFEEBFF8C0A90BD
:1035430003751245C8120DFB8A088B09EA450970F9
:103553000579CA0236928A828B83A3A3A3A3A3A36A
:10356300A3E064FE7003A3E0F4700579C30236920E
:10357300900375124F9012104D850882850983A31D
:10358300A3A3A3A3A3A3A3A3A3E004900388123735
:10359300F57402120A7C7402F014120A7CAA82AB3C
:1035A30083120F518A0C8B0DAE0CAF0DEE4F7003CF
:1035B300023689123697123F047406F0A3A882A933
:1035C3008390036212545A12425DF0EE2413125890
:1035D3003F740112529C7440F0A3E4124EEAA3A379
:1035E3001236A41238B9EE241112583FE50AF0EE50
:1035F300FAEFFB120B9DE9FE600302368B90037713
:103603007409F0122FACAA08FB794B121C478508EA
:10361300828509831237E71238B990036AE0F88587
:103623001882851983E068600CE090036A123940C0
:1036330079E1121C479012981238AD90129AE06803
:103643007003A3E069601A90033B1238B990129A91
:10365300124F90120F0390129A1245C87A01124228
:10366300E27A007B049003C2E0F912160B90129ADF
:1036730012369C7402780812095CAC08AD09FA7B17
:10368300041242E480027E10900725E4F0EEF97400
:1036930004024D88EE12584E22E0F508A3E0F50926
:1036A300221236A822122905A32274F51203767476
:1036B300E21208BA851882851983ECF0A3EDF0EACB
:1036C300FEEBFF89087429120A7CE0F509742C12B9
:1036D3000A7CE0F50A900377E064046005E064087F
:1036E300700579C20237DF742A120A7CE064FE7027
:1036F30003A3E0F4700579C30237DF900377740303
:103703001239407950121C47742A120A7CAA82ABE0
:1037130083794B121C478518828519831237EE1261
:1037230038B9E50890036AF0742A120A7C1237E765
:103733001238B9E5099003621237F574CE5509447E
:1037430080C0E07412120A7CD0E0F07401250A9064
:103753000388F0740F120A7C7402F0742A120A7C34
:103763001238AD7407120A7CE8F0A3E912382C74FE
:1037730010120A7C1238B97405120A7CE508F07439
:103783001B120A7CE4F090037D740FF07A7D7B03B7
:103793007954121C4790037C740FF07A7C7B037975
:1037A30047121C4790037CE0C3940F502374051207
:1037B3000A7CE0C0E07402120A7CD0E0F0740412C8
:1037C3000A7C7401F004120A7CAA82AB83121C6B7C
:1037D3007405120A7CAA82AB83121C4D741E120854
:1037E3002602253512428090036B221242809003F9
:1037F3007522F0EEFCEFFD7A897B03121C2F2274F5
:10380300F7120376EB90037FF0120DE98005740D38
:103813001208267F01020591123821A3E0221238F3
:103823009AA322EAF0A3EBF0221238A0F8A3E0F95E
:103833002274F712037674F81208BAEAFEEBFF79E2
:1038430000900377E06408704485188285198374B7
:10385300FDF0A374FFF0120ED37402120A7C123827
:10386300267405120A7CE4123821E0C0E0740412C5
:103873000A7CD0E0123895C0E07406120A7CD0E0CE
:10388300F07407120A7CE4123940120F33740802F1
:10389300381312389AE022F08E828F83221238A5D1
:1038A300E022F08518828519832212428022E0F8F3
:1038B300A3E0F912584DE8F0A3E9F0221208267F9D
:1038C30002020591C082C083900349748DF0A374F2
:1038D3000CF09003EF748DF0A3740FF090034D740C
:1038E300C3F0A3740CF090034F748DF0A3740CF029
:1038F30090035174C9F0A3740CF00234D974F41218
:10390300037674F91208BA8A088B098C0A8D0B8521
:1039130018828519837808120A3D7404120A7CE917
:10392300F07405120A7CE4F07406120A7CE412397E
:1039330040120BAF7407023A60E8F0A3E91239446E
:10394300221238A5AA82AB832274F41203768A0862
:103953008B098A828B8312585BEE4F7003023A58AD
:10396300900312124B1660158A828B83A3A3E0F98E
:10397300EEFAEFFB900313123D92121DFC8E828F21
:1039830083A3A3A3A3A3A3A3A3A3E0640270748E3E
:10399300828F83A3A3A3A3A3A3E054027003023AD9
:1039A3002A850882850983A3A3E064E960798E826E
:1039B3008F83A3A3A3A3A3A3A3A3A3A3E0701490A0
:1039C30012AEE0048E828F83A3A3A3A3A3A3A3A316
:1039D300A3A3F08E828F83A3A3A3A3A3A3A3A3A3D1
:1039E300A3E014123A5AA3A3A37404F09012AF12E3
:1039F3005296E8F0A3E912636F8B0BEA450B700351
:103A0300125D4D8E828F83A3A3A3A3A3A3A3A3A31A
:103A1300E0640260128E828F83A3A3A3A3A3A3A354
:103A2300A3A3E06406702E8E828F83A3A3A3A3A314
:103A3300A3E0A2E0501F850882850983A3A3E0F9D0
:103A4300EEFAEFFB121CE38E828F83A3A3A3A3A33F
:103A5300A3E054FEF08009123CA122740D12082643
:103A63007F0402059174EC12037674DD1208BAEA3E
:103A7300FEEBFF8C088D097437120A7C780C120A4E
:103A83001F750A007405120A7CAC82AD831213EF12
:103A93007412120A7CE070087415120A7CE060202C
:103AA3007405120A7CE0A2E6501E8E828F83A3A3C4
:103AB300A3A3A3A3A3A3A3124F90120F69E96008C2
:103AC3007903121C17023C877405120A7CE0540C1C
:103AD30064047005750B018003750B00E0A2E550CB
:103AE30035750A01E50BA2E0402C120ED98A108B22
:103AF30011A810A911123697E0687003A3E069605A
:103B0300157405120A7C12684E124F8C121CEFE9D1
:103B13006004790480AC7405120A7CE0A2E65022AA
:103B23007406120A7CE0540370187405120A7CE0D0
:103B3300540C640C600CE0540C64086005751001AF
:103B430080037510007405120A7CE05403F87402B4
:103B530068700C12684E124F8C120A9B023C8774D9
:103B63000168703AE510A2E05003123C8F7405120D
:103B73000A7CA882A9837403120A7CE8F0A3E912E1
:103B83004274851882851983123C99E0C0E074025F
:103B9300120A7CD0E0123940121DD3023C87E86040
:103BA30003023C8790035FE0640170108E828F8371
:103BB300A3A3A3A3A3A3E07003023B157422120AD9
:103BC3007C7402124274741A120A7C1238B9E5101A
:103BD300A2E050087405120A7C123C8FE50BA2E0A8
:103BE300506AEE240FF582EF125F12C0E0741712D1
:103BF3000A7CD0E0F0900314124B167003023C874A
:103C0300120ED98A128B13A812A913741A120A7CE2
:103C1300E0687003A3E069706B780C12080B780AF4
:103C23001208177808120813A910740C120A7CAC36
:103C330082AD837421120A7CAA82AB83900314128F
:103C43003D8F121DFC74071208268038780C120869
:103C53000B780A12081778081208139003751206D6
:103C630060EE2412F582EF125C407423120A7CACDE
:103C730082AD83740E120A7CAA82AB83121CD774A2
:103C830009120826742312082602633A12684E1298
:103C9300542B120A8F22E8F0A3E9123CA122123C12
:103CA300A522F08E828F83A3A3A3A3A3A32274F7D9
:103CB3001203761216AD02381674F7120376121633
:103CC300BF023816C082C0831216B90234D974F702
:103CD3001203761216C502381674F71203767409A6
:103CE300120A7CE0F50878081208171216D174013D
:103CF300023813C082C0831216DD0234D9C082C0D9
:103D0300831216E30234D974F71203761216E9020A
:103D1300381674F7120376EAFEEBFF89087401651F
:103D23000870147900120D059022EBE493FC7900DE
:103D3300EEFAEFFB120C7B02381674F4120376745E
:103D4300F91208BAE9FE8A088B098C0A8D0B7413E1
:103D5300120A7C124F90900771124B166027EE8562
:103D63001882851983F07401120A7C7808120A3DBF
:103D7300EAF8EBF97405120A7C12393C90077112C8
:103D83003D8F121DFC023937FB90034BE0F8A3E093
:103D9300F58388822274F7120376901257E0F97E36
:103DA30000800B125EFE540D64017001190E123F68
:103DB300925003E970ED02381674F71203769012ED
:103DC30058E0F97E00800B125EFE548D6481700111
:103DD300190E123F925003E970ED02381674F21275
:103DE3000376890BE975F006A4240CF508E5F012B7
:103DF3002FB48A0CE508250CFAE5093400FB1215EB
:103E0300518A0C8B0DAE0CAF0DEE4F6027AC08AD95
:103E13000979001214B5123697E50BF0EE2508F870
:103E2300EF3509F98E828F83A3A3A3A3A3A3A3A32F
:103E3300A31238B9EEFAEFFB024D8B74F612037638
:103E4300EAFEEBFF120C57901256E0F8E9C39840D4
:103E530009900345124F90120C5DEE2402F8EF1205
:103E630055A090034712545A900347E004F0EEFA2A
:103E7300EFFB120C63850882850983E0025A56C062
:103E830082C0837900900345800109124F908A8292
:103E93008B83E582458370F20234D974F71203767B
:103EA300EAFEEBFFEE4F6056900345124B16604E51
:103EB300888289837A007B00EE65827003EF6583D5
:103EC300600FAA82AB83123F04E5824583602F8093
:103ED300E7900345123F10687002EF698E828F836B
:103EE30070081238AD900345800312634C1238B941
:103EF300EEFAEFFB121DA3EEFAEFFB121557023891
:103F030016123F0822124284888289832212428039
:103F1300EE22C082C0839003458004888289831285
:103F23004B16600B888289831245C8EC4D70EC8A6E
:103F3300828B83E4F0A3F0E849600688828983805A
:103F4300039003451238260234D974F7120376908E
:103F5300034580048A828B83123F8D4B60257E004C
:103F630080010E123F9250ECEE75F006A4FCADF00A
:103F7300EA2CFCEB3DFDEC2410F582ED123FE270E0
:103F8300E180047A007B0002381612542FEA2212D1
:103F93003FEBEEC3982274F71203767D0080010D88
:103FA300123FE7EDC3985034ED75F006A4FEA8F078
:103FB300E8FFEA2EFEEB3FFFEE2410F582EF123FFF
:103FC300E270DCED75F006A4FEE8FFEA2EFAEB3FA3
:103FD300FBEA2411F582EB125F124CF00238161241
:103FE3005F1E6922123FEB22126858EB3400F583FF
:103FF300E0F82274F6120376120D7D7A007B0080BE
:1040030025EAF8EBF9E875F006A4F8ACF075F006CC
:10401300E9A42C125404126719A3E41254FAF0A36E
:1040230012671F1268969022D4122C3340D37A0061
:104033007B00801C8A088B097403780812095C12C0
:104043004EB8A374FEF0A3041252DAA3E4126896E6
:104053009022DF12409540DC7A007B00801D8A08A5
:104063008B097403780812095C749B125B8A7411C0
:104073001263D174FEF0A3041268969022E51240F5
:104083009540DB9022DEE493900353F012409F02AD
:1040930038C2E493F8C3EA98EB9400227CE87D03EA
:1040A3007A107B009003C2E0F91216052274F01215
:1040B300037674F51208BA8A088B09890A8C0BE90E
:1040C300A2E050147508FC7509FFA2E15005D2E483
:1040D300024172D2E3024172124D777003A3E06989
:1040E3007005790002423FAC0A7902AA08AB0912B3
:1040F3000D59E960EDE50AF50C780C120817790201
:104103007CFE7DFFAA08AB09124AF2120826E96079
:104113000302423DE50AC2E5F50A9003B5E070519A
:10412300E50AA2E6404B7403120A7CAC82AD83AA73
:1041330008AB09120AEFE970321244138A0C8B0D93
:10414300A80CA90DE8FEE9FFE8496025EE24020A60
:104153000AEF122943601AEE2402FCEF3400FD74C7
:1041630003120A7CAA82AB83121C2FE50AD2E5F55F
:104173000A900348E0F50C900368E0F50EA3E0F520
:104183000F780E1208137D017C00900348E0F9AA12
:104193000EAB0F120D117402120826E9F8900348B2
:1041A300E004F0E8600302423DE50AA2E55004742E
:1041B3000E80027406C0E07401120A7CD0E012582B
:1041C3006C8A0E8B0FAE0EAF0FEE4F606912425D1D
:1041D300124274888289837401F07478550AA31299
:1041E300685EE50C12685EA3E508F0E50912424C2F
:1041F300E4F0E50AA2E5500F7403120A7CAC82AD29
:1042030083E824061242438E828F83A3A374FDF0B6
:10421300A374FFF0E50B60159022ECE493F8E50B33
:10422300C3985009EE241312583FE50BF0EEFAEF52
:10423300FB120B9D80067910800279C7740B8049AD
:10424300FAE93400FB121C2F2288828983A3A3A3DB
:10425300A3124258221255D3A322EE241712585008
:104263007401F0120ED3EE241A125850EAF0A3EBA5
:1042730022F0126852340012427E22F583124284E5
:1042830022E0F8A3E0F922740D1208267F08020544
:104293009174F61203767A007B10125D5A600890CF
:1042A30003D47401F08029900812E064019012ACE9
:1042B3007006E0FC79018004E0FC79037A007B005E
:1042C300120C7B9022D21242D67A007B101242E467
:1042D3000238C21242DA22E493FC740193FD227B7A
:1042E300009003C2E0F91215FF2274EC1203768AE0
:1042F300088B098C0C8D0D890E7414120A7C124CD8
:10430300D17416120A7CE0F510A3E0F511120F69BF
:10431300E960077AFF7BFF0244109012ABE064026E
:1043230060030244037900AA08AB09120D5FA90ECA
:10433300120D538A128B13AE12AF13EE4F7003029A
:1043430043EB8E828F83A3A3A3A3A3E064018E8296
:104353008F83A3A37069124F908E828F83A3A3A32D
:10436300A3A3A3E0541860439022EAE4938E828FC0
:1043730083A3A3A3A3F0EA650C7003EB650D60149C
:10438300EA650A7003EB650B600AEA65107003EBDC
:104393006511701F7810120813AC0AAD0BAA0CAB91
:1043A3000D12106574021208268008900367125DCF
:1043B30044A3F074FE6A700374FF6B601D804EA308
:1043C300A3A3E0640360298E828F83A3A3A3A3A383
:1043D300E0640470057AFE0243188E828F83A3A3E0
:1043E300A3A3A3E0640270089003B4E06402701016
:1043F3001244138B0BEA450B6006AA08AB09800D28
:10440300AA08AB09900349123D8F121DFC02633ABF
:10441300900375124AF81210292274F7120376EAF0
:10442300FEEBFF120B43E9700AEEFAEFFB120B4FA0
:10443300E96006EEFAEFFB80047AFE7BFF02381692
:1044430074F01203768A0A8B0B8C0E8D0F89097513
:104453000800120F69E9790060030245BAAA0AABA2
:104463000B120D5FA909120D538A0C8B0DAE0CAF05
:104473000DEE4F60198E828F83A3A3A3A3A3E064E1
:104483000270559003B4E0640270030245B8AA0AAF
:10449300AB0B90034F123D8F121DFC120B558A0C70
:1044A3008B0DA80CA90DE84970030245B8888289D1
:1044B30083A3A3A3A3A3E0A2E040030245B8750C22
:1044C30001A2E150687901AC0AAD0BAA0EAB0F1241
:1044D3000CABE970640245B88E828F83A3A3A3A3B8
:1044E300A3E064037005750C0280528E828F83A350
:1044F300A3A3A3A3E0640160030245B8900375126C
:1045030045C88E828F8312491D8A0C8B0DA80CA976
:104513000DE84960D19022E3E493FA88828983E02D
:10452300C39A50C2A3E060030245B880B988828968
:1045330083A3A3A3A3A3D2E1F0EE4F603A8E828FAD
:1045430083A3A3A3A3A3A3E05418602B7508018E30
:10455300828F83A3A3120660750CFE750DFF780C82
:104563001208137900AC0AAD0BAA0EAB0F120D7132
:104573007404120826803E900368E0650E7004A35D
:10458300E0650F70149022EBE493FCA909AA0AAB2F
:104593000B120C7B750801801CA90CAC0AAD0BAA8D
:1045A3000EAB0F120CABE9700C750801A909AA0A2E
:1045B300AB0B120D05A90802428FE50C2415F582F9
:1045C300E50D1258531252B02274EA12037674F0B6
:1045D3001208BA8A0C8B0D8C088D097426120A7C7A
:1045E300E0F514A3E0F5157512069003F5124B16CA
:1045F30060239003751245C8AA08AB091210538AA9
:10460300108B11EA4511600D8A828B83A3E070053C
:104613007900024905E50C241DF50EE50D3400F57E
:104623000F850E82124B02F51388828983A3A3A3FD
:10463300E0FA88828983A3A3A3A3E0F9EA2400FE16
:10464300E439FFAA08AB09120D0B850E82850F838F
:10465300124940E029F50BE50AA2E5500375120E55
:104663007487550A70177418550A6418600FE50C9F
:104673002417F582E50D125F1265126007790112A6
:104683001C17808C530A78C3EE94F8EF94FF501DE7
:104693007900EEFAEFFB12490F601288828983A337
:1046A300A3A3A3A3A3E0541860030246137808123C
:1046B30008137D00124933120826E9F87403687061
:1046C30003024613E8600302477E7418550A700319
:1046D300024833E50AD2E0F50AA2E45004D2E1F538
:1046E3000AA90A124F8912490F605388828983A34A
:1046F300A3A3A3A3A3E05418604488828983A3A33C
:10470300A3A3A3E064017036E51045116030900364
:10471300751245C88882898312491D8A0E8B0FA89A
:104723000EA90FE849601788828983A3E0600F858B
:104733001082851183A3125A615003024613E50ABE
:10474300F50E780E120817124926120826E9702B67
:104753007C007D0085148285158374FFF0A3F085AA
:104763000C82850D83A3A3A3A3A3A3A3A3E0600348
:104773001245BDA90B124F891216D78514828515D0
:1047830083E0F47003A3E0F460399003B4E06402BF
:104793007003024613124CC2E0FAA3E0123D8B12DF
:1047A3001DFCEA65087003EB65096003024613EE1E
:1047B300FAEF123D8B121DFC851482851583EAF0F6
:1047C300A3EBF078081208137D011249331208266F
:1047D300A90AEEFAEFFB120D5F8A088B09A808A954
:1047E30009900368E0687003A3E06960030248F678
:1047F300EEFAEFFB120B558A088B09A808A909E802
:1048030049606E88828983A3A3A3A3E06401600D3A
:1048130088828983A3A3A3A3E064027054851882CA
:10482300851983AC82AD83EEFAEFFB120AEF805554
:10483300900361E0600FE50AF50E780E1208171277
:104843004926120826E50AF50E780E120817790292
:104853007CFE7DFFEEFAEFFB124AF2120826E960B6
:104863000302477E85148285158374FFF0A30247F4
:10487300C5120ED3EAFCEBFD851882851983AA8243
:10488300AB83121C2F850C82850D83A3A3A3A3A343
:10489300A3A3A3E06401700F1245BD7408120A7C40
:1048A300AA82AB83121C2F124ACC1256D84430F57D
:1048B3000878081208177401120A7C858208858318
:1048C300097808120813740B120A7C858208858301
:1048D300097808120813E513F50878081208177900
:1048E30000EEFCEFFD124F89120CA5740612082688
:1048F300024613124ACC125842124940E50BF012F9
:104903000EEB74101208267F0E020591120D538AC6
:104913000E8B0FA80EA90FE84922A3A312542F123E
:104923001053227901AC08AD09125424124AF22221
:10493300AC0BA913125424120D117402221256E067
:10494300A3A3A3A32274F012037674F01208BA8A05
:104953000C8B0DECFAEDFB750F089003F5124B165B
:104963006014125A5A8A828B83E58245836007A3B7
:10497300E07003024AC7124ACC3400124B02F50B13
:1049830088828983124AD5E0FBEC2400FEE43BFFD6
:1049930088828983A3A3124AD5A3A3E0FBECF5087D
:1049A300E43BF50988828983A3A3A3A3A3A3A3E07C
:1049B300F50EE50AA2E45003750F10A2E550067444
:1049C30008250FF50F748F550A700FE50C2417F5A2
:1049D30082E50D125F12650F60087901121C170240
:1049E3004AC7530A707800E50AA2E45022124ACC5F
:1049F300125F122408FCA3E03400FD7408120A7C41
:104A0300AA82AB83121C2F7808E50AC2E4F50AE5F3
:104A13000AA2E55028124ACC125F1228F8A3E03408
:104A230000F9E82408FCE93400FD85188285198320
:104A3300AA82AB83121C2FE50AC2E5F50AAC0EA9C4
:104A43000BEEFAEFFB120D17E9F87403686075902B
:104A53000368E06E7003A3E06F605EE87054E50ADC
:104A6300F50F780F120817124AE3120826E970545B
:104A7300780A1208177401120A7C85820C85830D4B
:104A8300780C120813740B120A7C85820C85830D33
:104A9300780C120813E50BF50A780A120817A90E09
:104AA300AC08AD09EEFAEFFB120CA574061208264A
:104AB3008012740468700D80B7780A120817124ABE
:104AC300E3120826741002428CE50C241DF582E5DE
:104AD3000D22A3A3A3E0FC88828983A3A3A3A3221B
:104AE3007901124CC9125853124AF8124AF222128F
:104AF3000CCF740122E0FCA3E0FDAA08AB0922F568
:104B030083123F08A3E0F50A88828983A3A3E022E6
:104B130090033912548B2274E812037674F5120849
:104B2300BAEAFEEBFF8C088D0989147423120A7C00
:104B3300E0F50F7424120A7CE0F512A3E0F5137478
:104B430026120A7CE0F516A3E0F5177428120A7CF6
:104B5300E0F50EA90F120D1D8A108B117401120AB4
:104B63007C7408F0E50EA2E450037410F0E50EA285
:104B7300E55004E02408F0851882851983AA82ABE6
:104B830083120F518A0C8B0DEA450D7003024CA959
:104B9300EA2417F582EB124CBB120ED3E50C241A50
:104BA300F582E50D1258421238267403120A7CACC2
:104BB30082AD83AA10AB11120AEFE9601D124CB348
:104BC3007403120A7CA882A983E50C2418F582E5F4
:104BD3000D125842E8F0A3E98024E50EA2E4501F29
:104BE300E5106E7003E5116F7015124CB3E50C24DC
:104BF30018F582E50D125842E512F0A3E513F01201
:104C03004CC2124CD1850A82F5837402F0A3E50EDF
:104C1300124CD9E50FF0EE850A82850B83A3A3A37B
:104C2300F0EF850A82850B83A3A3A3A3124CD9A318
:104C3300A3A3E508F0E509850A82850B83A3A3A353
:104C4300A3A3A3F0AA10AB11120D0BE92514850A37
:104C530082850B83A3A3A3A3A3A3A3F0750800E5F5
:104C63000EA2E45011AC12AD13E50A2408FAE50BC9
:104C7300124245750808E50EA2E55014AC16AD17AF
:104C8300E50A2508F8E50B3400F9E8240812424345
:104C9300850C82850D83A3A3E510F0A3E511F0AA8B
:104CA3000CAB0D120B9D740B1208267F100205919D
:104CB300E50C2416F582E50D1258537401F0221207
:104CC3004CC912585322E50C126859E50D22E0F540
:104CD3000AA3E0F50B22F0850A82850B83A3A322A6
:104CE30074F21203768A088B09ECFEEDFF890A79C8
:104CF30000124D777003A3E0697004790180737526
:104D03000B01900368E065087004A3E06509601F68
:104D1300750B00780B120817A90AEEFCEFFDAA0821
:104D2300AB09120FA57401120826E9F50B8041792E
:104D330000EEFAEFFB120D53EA4B602B8A828B8352
:104D4300A3A3A3A3A3A3E05418601C7508FE7509CD
:104D5300FF78081208138A828B83A3A312066012BA
:104D6300666E12082680097901EEFAEFFB120C3306
:104D7300A90B8014120D5F8A0C8B0DA80CA90D9042
:104D83000368E068221208267F0602059174F41274
:104D930003767508E375090F7A101263768B0BEAB5
:104DA300450B700312409F900353E014F0700C9076
:104DB30022DEE493900353F0120D6B7E007F00809C
:104DC3006C850882850983A3A3A3A3E06059F460DB
:104DD30056E5082404F582E509125D3E704985080D
:104DE30082850983A3A3A3A3A3E0640370197902B3
:104DF3008508828509831245C8850882850983A3AE
:104E0300A3124F90120CAB850882850983A3A3A339
:104E1300A3A3E06401601085088285098374FEF012
:104E2300A304124EEAE4F01231E1122FAC9022D81F
:104E33001264D2408C7E007F008039120E798E0876
:104E43008F097403780812095C745B2508FC7411DC
:104E53003509FD7AB77B0C120E67EA4B70DD8E08BD
:104E63008F097403780812095C124EB8126719E4AB
:104E7300F01231E19022DFE493F8C3EE98EF94004F
:104E8300501B8E088F097403780812095C124EC0F8
:104E9300E82407F582E9125D3E70D680A17E007F8B
:104EA30000800A124ECB600214F01231E11264CF7B
:104EB30040F1023A63124EC08882898322745B25D3
:104EC30008F874113509F922EEF8EFF9E875F006E0
:104ED300A4F8AAF075F006E9A42AF974FB28F58270
:104EE300741039F583E022124EF1A3A3A322F085B7
:104EF3000882850983A3A32274F712037674E1124F
:104F030008BAECFEEDFF750800EE4F60728A828BE3
:104F130083E0241C125D6F124B1660638A828B83BD
:104F2300124F90851882851983AC82AD83EA241BC6
:104F3300F582EB125C40EA241CF582EB124F8C12D3
:104F43000EBB740B120A7C124F947003A3E06970BA
:104F53002E7402120A7CE064017024741D120A7C10
:104F6300123D8FE064017017741D120A7C123D918B
:104F7300A3A3E0F88E828F83E0687003750801A90C
:104F830008741F023813124CC93400F58312542FCE
:104F930022122901E0682274F4120376E97024795D
:104FA3000090034D123D8F121DFC8A0A8B0BAE0A33
:104FB300AF0B74FE6E700374FF6F701A9022E6E4F9
:104FC300936013790190034D123D8F121DFC8A0AE1
:104FD3008B0BAE0AAF0B120F1502333574F61203A7
:104FE3007674F31208BA1214C18A088B09AE08AF9B
:104FF30009900368E06E7003A3E06F60E9120EDFAF
:10500300EA6E7002EB6F60DEEEFAEFFB120F69E9F6
:1050130070D4EE4F60D0851882851983E4F00412B2
:105023000A7CEEF0A3EF125042E970BA74FE6E7080
:105033000374FF6F60B0EEFAEFFB740D0238BF121A
:105043003944120B0722C082C083120F150234D9D0
:105053007F0A02059174F2120376EAFEEBFF8C0AD3
:105063008D0B8908740E120A7CE0F50974FC6E70CE
:105073000374FF6F70057900024D8B7900120D5F89
:105083008A0C8B0DAE0CAF0D900368E06E7003A31A
:10509300E06F7006E509A2E650DCA90912655C70B1
:1050A3006179007AFE7BFF12655C705674185509AE
:1050B300700302518F780079008003122AFB90223B
:1050C300D8122AF2400302518FE8FAE9FBEA75F09D
:1050D30007A4FAACF075F007EBA42CFB74E92AF5EE
:1050E30082740F3BF583E0541870D0E875F007A481
:1050F300F8AAF075F007E9A42AF974E328F8740F05
:1051030039F988828983A3A3A3A3A3A3E0541860D6
:105113000974185509700302507988828983EEF067
:10512300A3EFF074FE650A700474FF650B6003124D
:1051330052B688828983A3A3A3A3A3A3E509F0A2FC
:10514300E0500D88828983A3A3A3A3A3A3D2E2F093
:105153007401650888828983A3A3A3A3A370387409
:10516300011252DAE0541860289022EAE49388820C
:105173008983A3A3A3A31252A41210538B0DEA4550
:105183000D6003025079780079008039790202506A
:105193007B900367E080D7E0640170030250798855
:1051A300828983A3A3A3A3A3A3E054186007902237
:1051B300EAE4938004900366E012424CE508F002AF
:1051C3005079122AFB9022E0E493FAC3E89AE99417
:1051D3000040030250797A007B00804BEAFCEBFD30
:1051E300EC75F007A4FCAEF075F007EDA42EFD748A
:1051F300E52CF582740F3DF58312585BE8FCE9FD5D
:10520300EC75F017A4FC85F00975F017EDA42509DA
:10521300FD74732CF582740E3DF583E06E7003A369
:10522300E06F609E1230B69022D8122FBC40AD12B0
:1052330042D6EC6A7002ED6B7088E875F017A4F83B
:10524300AAF075F017E9A42AF9747328FE740E39CD
:10525300FF7C177D007900EEFAEFFB1214B58E8206
:105263008F831252BC900375125296A3A3A3A3A3D8
:10527300A3E8F0A3E912529C7401F0EE240E125835
:105283003F74011252C4120225EE240D12583FE856
:105293000251C11236A8A3A322F0EE240F125850D4
:1052A30022F01252ADAA0AAB0B22900375E0FCA3C5
:1052B300E0FD2288828983A3A3E50AF0A3E50BF02E
:1052C30022F01252C9229022E3E4932401F8E43439
:1052D30000F97A027B0022124258A32274ED1203D2
:1052E300768A088B09890E12540D400579050253FD
:1052F300DB12171FAA08AB091254DF9022D41253F2
:10530300DE650A7003E9650B70077AFE7BFF1254B2
:10531300DF9022D4E41253E6E50A98E50B994003A3
:105323000253D91253EA6012E50A75F006A4F87520
:10533300F006E50B125435121557E50E6018E50A11
:1053430075F006A4F8AAF075F006E50B1254617027
:105353001A79010253DBE50A75F006A4F8AAF07581
:10536300F006E50B125442E4F0A3F0E50A75F006EB
:10537300A4F8AAF075F006E50B125402A31256EE38
:1053830088828983A3AA82AB831254508A828B8337
:10539300E0603F1253EA603A8E108F117512007865
:1053A3001012080FE50EC333FCE433FDE50A75F074
:1053B30006A4F50AA8F075F006E50BA428F50B740E
:1053C300FF250AF5827410350B124F8E12305412DA
:1053D3000826790080027907026572122C54E822AC
:1053E3009004F1125EF922E50A75F006A4F8AAF01A
:1053F30075F006E50B12543DF8A3E0F9E84922A441
:105403002A12559688828983A322ECFEEDFF90220F
:10541300E1E493F8E9C39822F58312542F12155748
:1054230022E50C126859E50D3400F583E0FAA3E098
:10543300FB2212543DFAA3E0FB22125442E022A4C1
:105443002AF974FF28F582741039F58322E50EF0EA
:105453009012AD12545A22E088828983F0221255A9
:10546300BAF50CE93400F50DE50EC333FAE433FB6A
:10547300121551850C82850D83EAF0A3EBF0850CA0
:1054830082850D8312548B22124284E8492274F4DC
:10549300120376ECFEEDFF740C120A7C1238AD8811
:1054A3000889091254DFAC0AAD0BECF8EDF9902230
:1054B300D41254E75021E875F006A4F8AAF075F069
:1054C30006E9125402E08E828F831254FA1254F0CA
:1054D3001238B9790080027904023A63120CE18A26
:1054E3000A8B0B2212304CC3EC9AED9B22124280A2
:1054F300850882850983221255CF2274F61203761A
:105503007E007F008028EEF8EFF9E875F006A4F836
:10551300ACF075F006E9A42CF974FD28F58274103B
:1055230012617D6A7003A3E06B60571231E112646C
:10553300CF40D31264CA7002E96F704674FE6A707A
:105543000374FF6B703C7E007F0080031231E11215
:1055530064CF502E124ECB70F3EEF8EFF9E875F0EE
:1055630006A4F812558C1255C160171255A8F8E914
:105573001255A0888212541B850882850983E4F0A2
:10558300A3F0EEFAEFFB0238C275F006E912559468
:1055930022A42AF974FB28F8741039F9223400F98B
:1055A3008808890922EEF8EFF9E875F006A4F87582
:1055B300F006E91255BA22125594E8240422A3A353
:1055C30074FE1255CC12548B22F0A3041255D3222D
:1055D300F088828983A3A3A3A32274F6120376EA35
:1055E300241DF582EB1256D8F9604BEA241DF5828F
:1055F300EB125F122402FCA3E03400FD12541140AD
:10560300030256CB780080298C828D83E0F508A3B2
:10561300E0FFE5082400E43FF509E833FEE433FF47
:1056230074432EF58274113FF5831256EE1256CE53
:1056330008E8C39940D28A828B83A3A3A3A3A3A31D
:10564300A3A3A31245C8900368E06C7003A3E06DA5
:10565300700F7C437D1112286A124F8C120CD58077
:1056630067EA2411F582EB125F12605CFC74FF2C75
:10567300F075080178081208177508437509117841
:1056830008120813E9F5087808120817EA2412F536
:1056930082EB125F12F5087808120817EA2415F551
:1056A30082EB125842120660ECF912286A1245C5C1
:1056B3008A828B83A3A3A3A3A3A3A3A3A3124F9021
:1056C300120CED74071208260238C2EC24020C0CEB
:1056D300ED3400FD221258531256E0E022E0F8A305
:1056E300E0F5838882A32288828983E508F0A3E515
:1056F30009F02274EA12037674FD1208BA8A148B35
:10570300158C0E8D0F890D7419120A7C12585B7457
:105713001B120A7CE0F511741C120A7CE0F50C7470
:105723001D120A7C124CD1741F120A7CE0F5106022
:1057330008E50CC333240480027402C0E074011230
:105743000A7CD0E012586C8A088B09EA4509700379
:105753000258378A828B83A3A3E514F0A3E51512BD
:105763006365E50EF0A3E50FF0EA2413F582EB126F
:105773005842E50DF0EA2414F582EB125842E51184
:10578300F0EA2417F582EB125F1264017040120EE7
:10579300D98A0E8B0FA80EA90F850882850983A3CA
:1057A300A3A3A3E0687003A3E0696022EE4F601136
:1057B300E508241AF582E509125842EEF0A3EF80BA
:1057C3000CE5082417F582E509125842E4F0125853
:1057D3004612585B8E828F837405F0A3E510700424
:1057E300E50C80487401250C1258657A00802885E1
:1057F3000A82850B83E0125861850A82850B83A395
:10580300E08E828F83F0E50A2402F50AE50B34006B
:10581300F50BA30EAF830AEAC3950C40D2120ED93F
:10582300EA125861120ED9EB8E828F83F0AA08AB6D
:1058330009120B9D7403024907EE240CF582EF1243
:1058430058532212287B12585322EE240BF582EF71
:105853003400F58322900334E0FEA3E0FF228E821E
:105863008F83F0A3AE82AF8322123944120F5122E9
:10587300C082C083E9C333FCE433FDEA2CFAEB3D79
:10588300FBEA24FEF582EB34FF124F8E0234D97407
:10589300F212037689098A0A12540D4004790080B2
:1058A3004075080080020508E508C39509502AE5FC
:1058B30008C333F8E433F9EE28F582EF39F583C0F2
:1058C30082C083120ED98A0C8B0DD083D082E065FF
:1058D3000C7004A3E0650D70CDE50A650870BE7910
:1058E30001024D8B74F012037674F31208BA8A081E
:1058F3008B098C0A8D0B890C750D00120F69E979E0
:105903000060030259E9AA08AB09120D5FA90C1242
:105913000D538A0E8B0FAE0EAF0FEE4F700302596D
:10592300E78E828F83A3A3A3A3A3A3E0A2E24003F2
:105933000259E7120ED9EA650A7003EB650B701181
:10594300780D120817E4F50EF50F780E1208138080
:1059530044AA0AAB0B120B49E964017068851882EB
:105963008519837404F07401120A7C1252BC8518E1
:1059730082851983AA82AB83120B07E96401704500
:10598300750D01780D120817E4F50EF50F780E1258
:105993000813750D00780D120817780D1208177487
:1059A30008120A7C85820E85830F780E12081390E5
:1059B30022ECE493F9AC0AAD0BAA08AB09120CED87
:1059C30074071208268E828F83A3A3A3A3A3A3E045
:1059D300A2E1400D8E828F83A3A3A3A3A3A3C2E25C
:1059E300F0750D01A90D02428A74F6120376E9FEE1
:1059F3007900120D5FEEF9120D538A088B09A8087E
:105A0300A909E84960061268A0F9800279040238FE
:105A1300C274F61203767E0790035CE07034125A68
:105A23005A8A088B09A808A909E8496025900361E7
:105A3300E0640188828983A3A3700B125A61888270
:105A430089835001A3A3E0F9121071E9FEEE7002FD
:105A53007E07EEF90238C21252AD12105322E0FA59
:105A630088828983A3E0C39A2274EE120376EAFE46
:105A7300EBFF890A8C0C8D0B7412120A7C12369C74
:105A8300125B361254145051890E750F007403784B
:105A93000E12095C7461250EF5827411350FF583BE
:105AA300E0F8E50CC398502DE50B602475110074E4
:105AB30003781012095C745B2510F874113511F921
:105AC30088828983A3A3A3A3A3A3E50C125B40F05D
:105AD3007900025053790380F979007AFE7BFF1233
:105AE3005B36E49365107004790280E6E50B60E0B1
:105AF300890E750F007403780E12095C745B250E12
:105B0300F87411350FF988828983A3EEF0A3EF129D
:105B13005B401252DAE50C12425474FF12671FE520
:105B23000AF0900366E088828983A3A3A3A3A3A3B7
:105B3300A3809C120D4DE9F5109022DF22126862BA
