:020000040000FA
:06000000020A070201C123
:03002B0002085276
:03004300020707AA
:030053000200F2B6
:100083000201560101FF01010503010F10FEFF27C5
:1000930013271327132713DD11D71127135020001C
:1000A3000000001421000000000C0000000C0001FF
:1000B30001FFFF010101003907000000AE07E8035B
:1000C30064006400B8010202002000000502070179
:1000D300051E02051E020A0A03B80B02803E010236
:1000E30001FFFF010A1401E096511800020206C045
:1000F300E074F21203DAA2AFE433FED2AFE5A7FF56
:10010300E5A1F5085F54106006121A1175A1EFE519
:10011300085F54086008121A1775A1F7802BEFA225
:10012300E0C0D0E508A2E092F0120941158182F007
:100133005017906198E0F8900C86E0C398A2D265BE
:10014300D0335002E8F075A1FEEEA2E092AF7F013A
:10015300020439C0E074F21203DAA2AFE433FED230
:10016300AF9061A4E0F8759B00E5915854086008CE
:100173007591F7121A5F802AE5915854106008753B
:1001830091EF121A65801BE8A2E0C0D0E591A2E0CE
:1001930092F0120941158182F05007E0C2E0F0129B
:1001A3001BB59061A3E0F8E5E9585404600E121BF7
:1001B3008B75E9FB906193E0A2E640F2808BC0E08F
:1001C30074F21203DAA2AFE433FED2AF9061A5E07A
:1001D300F8E5BF585404600675BFFB121BCD02013E
:1001E3004CC3E498F8E499F91202258026C3E49AF3
:1001F300FAE49BFBE920E7E9120225E498F8E49985
:10020300F922C3E498F8E499F9120225E498F8E492
:1002130099F9C3E49AFAE49BFB22EB20E7CFE920A8
:10022300E7E0B90010BB0008E88AF084F8AAF022DE
:10023300E4FBC8FA22EB70227B10C833C8C933C968
:10024300335007C39AC3DBF280069A50012ADBEAD4
:10025300C833F4C8C933F4C9FA2275F008E4C833C3
:10026300C8C933C933C99AC99B5004C92AC93BD5E4
:10027300F0ECFBC833F4C8E4C9FA22080808EAC062
:10028300E0EBC0E086F0E7A4FA180986F0E7A42AB9
:10029300FA180986F0E7A42AFA180986F0E7A42ACF
:1002A300FA1986F0E7A4FBE5F02AFA190886F0E7C5
:1002B300A42BFBE5F03AFA190886F0E7A42BFBE53B
:1002C300F03AFA18180986F0E7A4C5F02BFBE43AD4
:1002D300FA1908E7C5F0C6A426F6E5F03BFBE43AB5
:1002E300FA1886F0E7A4F6E5F00826F6E43B08F6EC
:1002F300E43A08F6D0E0FBD0E0FA22E4CFC0E0E431
:10030300CEC0E0E4CDC0E0E4CCC0E075F020C3E6AD
:1003130033F608E633F608E633F608E633F618183C
:1003230018EC33FCED33FDEE33FEEF33FFC3EC97F4
:1003330009ED9709EE9709EF97191919400FFFEC8B
:1003430097FC09ED97FD09EE97FE191906D5F0BE46
:10035300ECF709EDF709EEF709EFF7191919D0E0F2
:10036300FCD0E0FDD0E0FED0E0FF222518C582C01E
:10037300E0E51934FFC583C0E0E518C3958224F88E
:1003830010AF0885831985821880088583198582B3
:1003930018D2AFCEF0A3E520F0A37808E608F0A3C7
:1003A300DEFAEFF0A3E58124FAF8E608F0A3E60805
:1003B300F0A3E608F0A30808E608F0A3E608F0A314
:1003C30015811581D0E0FED0E0F8158115811581E6
:1003D300E8C0E0EEC0E022C0D02518C582C0E0E549
:1003E3001934FFC583C0E0E518C3958224F310AF29
:1003F300088583198582188008858319858218D218
:10040300AFC8F0A3E9F0A3EAF0A3EBF0A37908E700
:1004130009F0A3D8FAECF0A3EDF0A3EEF0A3EFF00C
:10042300A3D0E0F0A3D0E0F0A3D0E0F0A3E520F068
:10043300A3E5F0F0A322851983851882E0C0E0A329
:10044300E0F9A3E0FAA3E0FBA37808E0F608A3DF52
:10045300FAE0FCA3E0FDA3E0FEA3E0FFA3E0C0E01D
:10046300A3E0C0E0A3E0F5D0A3E0F520A3E0A3F56B
:10047300F010AF0885831985821880088583198554
:100483008218D2AFD082D083D0E0F8D0E032120A03
:1004930069B900030204D3E4900301784E79108014
:1004A30002F0A3D8FCD9FA90124EAA82AB83900033
:1004B30086786D79018015E493A3AC82AD838A823B
:1004C3008B83F0A3AA82AB838C828D83D8E9D9E78F
:1004D3007582197583DE74031207CA758255758395
:1004E3001E74001207CA15000975F0108E1A8F1BAF
:1004F30085821F85831E851882851983E0CEA3E03C
:10050300CF851F82851E83EBC9EAC8EDCBECCAC336
:10051300E833C8E933C9EA33CAEB33CBC3EA9EF500
:100523001DEB9FF51CB35004AB1CAA1DEC33CCEDA3
:1005330033CDD5F0DAAE1AAF1B22D083D082ECC014
:10054300E0EDC0E0E493A3FCE493A3FDED4C600D68
:10055300120615EC24FFFCED34FFFD80EFE493A3BA
:10056300FCE493A3FDED4C600D1206B2EC24FFFCFA
:10057300ED34FFFD80EFD0E0FDD0E0FCE493A3C0B9
:10058300E0E493C0E022851983851882E0A3FEE0AE
:10059300A3F5207808E0A3F608DFFAE0A3FFE0A3C1
:1005A300C0E0E0A3C0E0E0A3C0E0E0A3C0E0E0A3BC
:1005B300C0E010AF088582188583198008858218EA
:1005C300858319D2AFD083D0820207D0D083D08263
:1005D300E9C0E0E493A3C386F0C5F095F0F908E41D
:1005E30093A386F0C5F095F0700BE493A3C39940F1
:1005F30005E9048002A3E475F002A42582F582E5EF
:10060300F03583F583D0E0F9E493A3C0E0E493C02D
:10061300E022C0E0C3E49396087401939618400F58
:10062300E49366700808740193661870007019A348
:10063300A3C3E49396087401939618A3A3400DD023
:10064300E0D0E0D0E0020579A3A3A3A3A3A3D0E065
:10065300227404800474028000CCC0E0EDC0E0E5A5
:1006630018C39CCCAD1950011D10AF068C188D1901
:1006730080068C188D19D2AF12074CD0E0FDD0E064
:10068300FC2274028000CCC0E0EDC0E0E518C39CFE
:10069300CCAD1950011D10AF068C188D1980068C36
:1006A300188D19D2AF12072AD0E0FDD0E0FC22C08A
:1006B300E0C0F088F0E4936670080874019366184C
:1006C3007000A8F0A3A3700BD0F0D0E0D0E0D0E08E
:1006D300020579A3A3D0F0D0E022D083D082CCC08E
:1006E300E0E493A360061207AB1470FAE493A360EB
:1006F3000612089C1470FAD0E0FCE493A3C0E0E473
:1007030093C0E022C0E074F21203DAA2AFE433FE36
:10071300D2AFC2C0E5D1A2E45003121987EEA2E022
:1007230092AF7F01020439CAC0E0E493A3C582CC2F
:10073300C582C583CDC583F0A3C582CCC582C583DD
:10074300CDC583DAE5D0E0CA22CAC0E0E0A3C58202
:10075300CCC582C583CDC583F0A3C582CCC582C574
:1007630083CDC583DAE6D0E0CA22C008C3E096F59C
:100773000808A3E096420808A3E096420808A3E00D
:100783009645087001D3D008227009080808226032
:1007930016181818C6C333C608C633C608C633C6E8
:1007A30008C633C6D5E0EA22C0E0E493A3D39C5045
:1007B30010E493A3C39C400AD0E0D0E0D0E002064B
:1007C300FAA3A3A3D0E022C09FF59FE473D09F2296
:1007D300D083D082C09FE493C0E0740193C0E074DF
:1007E3000293F59F222518F58210AF08F5184002F1
:1007F30015198008F51840021519D2AF85198322FF
:100803007404800A74038006740280027401C0E0D9
:10081300F4041207E8D0E0120A4422C0D0251810CD
:10082300AF08F518500205198008F518500205198C
:10083300D2AFD0D022BB0102E722C082C08389821B
:100843008A83BB0003E08002E493D083D08222C07A
:10085300E0C0D0E8C0E0E5A8D2AFC2C7A2E792AF3C
:10086300D0E0F8D0D0D0E0326016080808C6C31331
:10087300C618C613C618C613C618C613C6D5E0EAEB
:1008830022C3E0C696F608A3E0C696F608A3E0C620
:1008930096F608A3E0C696F622C0E0E493A36C7034
:1008A30009D0E0D0E0D0E00206FAA3A3D0E02225ED
:1008B3001810AF08F518400215198008F518400202
:1008C3001519D2AF22E76670100809E766700A08A7
:1008D30009E76670040809E76622C3E09608A3E007
:1008E3009608A3E09608A3E096A2D265D03322E04F
:1008F30066701008A3E066700A08A3E06670040837
:10090300A3E06622C3E096F008A3E096F008A3E014
:1009130096F008A3E096F022E026F608A3E036F668
:1009230008A3E036F608A3E036F622E627F6080920
:10093300E637F60809E637F60809E637F622C0E097
:10094300E8C0E0E58124FCF8E6A2E7D0E0F8D0E0D7
:1009530022700422600D18C6C333C608C633C6D539
:10096300E0F41822E657F60809E657F60809E657B1
:10097300F60809E657F622E056F608A3E056F6080D
:10098300A3E056F608A3E056F622E056F008A3E0EB
:1009930056F008A3E056F008A3E056F022E647F627
:1009A3000809E647F60809E647F60809E647F62286
:1009B300E026F008A3E036F008A3E036F008A3E051
:1009C30036F022E4C396F608E496F608E496F608B1
:1009D300E496F622C6F4C608C6F4C608C6F4C608EA
:1009E300C6F4C622C3E7960809E7960809E79608FE
:1009F30009E79622C3E09608A3E09608A3E09608C9
:100A0300A3E0962275D0007581407518017519030E
:100A130000020491E0F608A3E0F608A3E0F608A3B9
:100A2300E0F622600C08C6C313C618C613C6D5E089
:100A3300F422E6F008A3E6F008A3E6F008A3E6F044
:100A430022CAC0E0E6F0A308DAFAD0E0FA22E0FA1C
:100A5300A3E0FBA3E0FCA3E0FD22EAF0A3EBF0A3F9
:100A6300ECF0A3EDF022E5C754F84401F5C7790192
:100A7300222518F582E43519F58322C2AF75D69F76
:100A8300020000221207D392DF021207D3C7DF024C
:100A93001207D3A9E0021207D35EE1021207D3B310
:100AA300E3021207D300E5021207D3A3E5021207FC
:100AB300D3F2E6021207D310E7021207D351230041
:100AC3001207D38623001207D3AC23001207D3E601
:100AD30023001207D3F823001207D34A2400120776
:100AE300D3AB24001207D33525001207D3D9250031
:100AF3001207D32126001207D35B26001207D378EF
:100B030026001207D39D26001207D3EF26001207F3
:100B1300D30827001207D32E27001207D369270013
:100B23001207D3AD27001207D3D427001207D3250A
:100B330028001207D3D528001207D38D29001207E6
:100B4300D3552A001207D3152B001207D3592B00B4
:100B53001207D37E2B001207D3C12B001207D30E2B
:100B63002C001207D3662D001207D3EC2D001207B9
:100B7300D30A2E001207D3342E001207D34E2E00B1
:100B83001207D35D2E001207D3682E001207D32855
:100B93002F001207D3812F001207D343300012070F
:100BA300D34B30001207D3CF30001207D3153100D7
:100BB3001207D35631001207D3E632001207D39E31
:100BC30033001207D30A34001207D3353500120756
:100BD300D34635001207D3BC35001207D34E360077
:100BE3001207D3A636001207D36637001207D38D38
:100BF30037001207D39F37001207D3F237001207CB
:100C0300D32F38001207D33C38001207D3BF390063
:100C13001207D3143B001207D3463B001207D3E15C
:100C23003B001207D31A3C001207D3663C0012079D
:100C3300D3823D001207D3CB3F001207D3D63F0028
:100C43001207D3E13F001207D3EB3F001207D3F69D
:100C53003F001207D31040001207D31A40001207B7
:100C6300D32440001207D32F40001207D35740006C
:100C73001207D3B240001207D3D640001207D3FAAB
:100C830040001207D35841001207D39C41001207BA
:100C9300D3B841001207D32F42001207D367420093
:100CA3001207D3B342001207D31043001207D3CA6B
:100CB30043001207D3AE45001207D30746001207BD
:100CC300D33747001207D35D47001207D3E6480026
:100CD3001207D3624C001207D3344E001207D3FD20
:100CE3004F001207D3AA50001207D3155200120760
:100CF300D3B452001207D30153001207D36B53002E
:100D03001207D37A53001207D30156001207D3B345
:100D130057001207D32058001207D3FF58001207B9
:100D2300D3185A001207D3955B001207D3B45B00A4
:100D33001207D3095C001207D30E5D001207D336E6
:100D43005D001207D38E5D001207D36D5E0012079C
:100D5300D3B15E001207D3FC5E001207D3675F00B6
:100D63001207D3A860001207D30C61001207D35AED
:100D730062001207D3BA64001207D3EB64001207B0
:100D8300D3A366001207D3F866001207D3FC6700EB
:100D93001207D39968001207D3F268001207D3A58C
:100DA30069001207D3476A001207D3E76A001207E4
:100DB300D38C6B001207D36680011207D3A5800181
:100DC3001207D3EC82011207D33683011207D351E2
:100DD30084011207D3C184011207D3F684011207D9
:100DE300D36A86011207D3ED88011207D3168A014D
:100DF3001207D3AC8A011207D3B493011207D34964
:100E030094011207D33097011207D32398011207D5
:100E1300D38498011207D3A099011207D3859B01AC
:100E23001207D3969D011207D3009E011207D3D256
:100E33009E011207D3899F011207D3939F011207C3
:100E4300D3C19F011207D37EA0011207D355A1017D
:100E53001207D31CA2011207D3CEA2011207D3F7A4
:100E6300A2011207D319A3011207D36FA501120719
:100E7300D347A6011207D38BA6011207D3F3A6010A
:100E83001207D3ABA7011207D3DDA7011207D321A2
:100E9300A8011207D357A8011207D3A3A801120769
:100EA300D3F8A8011207D3FDA8011207D350A90153
:100EB3001207D375A9011207D384AA011207D3E835
:100EC300AA011207D358AB011207D3E4AB011207EF
:100ED300D3B1AE011207D395AF011207D318B101F5
:100EE3001207D34EB3011207D3FCB3011207D3ACDD
:100EF300B4011207D3EDB6011207D390B70112075D
:100F0300D3D7B7011207D383B9011207D397B90116
:100F13001207D3A1B9011207D3C9B9011207D3D557
:100F2300B9011207D3F4B9011207D3D9BB011207D0
:100F3300D310BC011207D31ABC011207D324BC017E
:100F43001207D37FBC011207D3C9BC011207D3D147
:100F5300BD011207D328BE011207D377BF011207C1
:100F6300D3BBBF011207D363C0011207D346C1012C
:100F73001207D3F1C1011207D33DC3011207D33BBB
:100F8300C4011207D3E1C4011207D371C5011207CB
:100F9300D388C5011207D3BFC5011207D3C9C50141
:100FA3001207D3D4C5011207D3F2C5011207D336F2
:100FB300C6011207D393C6011207D3B8C60112079D
:100FC300D3D2C6011207D35EC7011207D37BC80170
:100FD3001207D3E8C8011207D3CFC9011207D3F60A
:100FE300C9011207D36ACA011207D3E5CA0112075E
:100FF300D3E9CB011207D3DFCC011207D38ECD0186
:101003001207D3A1CE011207D33DCF011207D3CAD2
:10101300CF011207D3A8D0011207D3E0D0011207E2
:10102300D338D1011207D301D2011207D322D2013F
:101033001207D3A9D2011207D3CDD2011207D3EFDE
:10104300D2011207D338D3011207D34ED5011207A9
:10105300D335D6011207D3E6D6011207D31CD90123
:101063001207D36CD9011207D3ACD9011207D3EEFF
:10107300D9011207D34ADA011207D378DA0112072A
:10108300D39CDA011207D3EFDA011207D31DDB0178
:101093001207D356DB011207D3ABDB011207D311BF
:1010A300DC011207D365DD011207D388DF011207C4
:1010B300D3F5DF011207D31EE0011207D3A9E00124
:1010C3001207D310E1011207D35BE1011207D37FAB
:1010D300E1011207D3A3E1011207D3FEE1011207D5
:1010E300D319E2011207D3D2E2011207D3DFEC03D3
:1010F3001207D31EED031207D37880021207D3BE63
:1011030080021207D39E81021207D3A08202120724
:10111300D3A383021207D32F85021207D38D85022F
:101123001207D34A86021207D36887021207D3D95C
:1011330087021207D31588021207D36388021207A6
:10114300D36D88021207D3B188021207D30D890227
:101153001207D3A889021207D3258A021207D3F4F0
:101163008A021207D38D8B021207D3AD8B021207AB
:10117300D3E38B021207D3148C021207D3D58C024C
:101183001207D3E58C021207D3398D021207D35409
:101193008D021207D3668D021207D36F8D021207D9
:1011A300D3C98D021207D3258E021207D3718E0283
:1011B3001207D38C8E021207D3BD8E021207D3DA25
:1011C3008E021207D3E68E021207D35A9002120739
:1011D300D37390021207D3DA90021207D3ED900271
:1011E3001207D3FB90021207D3AF91021207D393D6
:1011F30092021207D39993021207D3239402120780
:10120300D32D94021207D39A94021207D3B19402F6
:101213001207D3E394021207D31C95021207D34695
:1012230095021207D3A795021207D3C79502120797
:10123300D3E595021207D32B96021207D3519702D7
:101243001207D39E97021207D3CD97021207D343F7
:1012530098021207D36B98021207D3A498021207BD
:10126300D3B298021207D30A99021207D3599902EB
:101273001207D39899021207D3C899021207D3F41D
:1012830099021207D3FF99021207D31D9A0212077C
:10129300D3DF9A021207D3E99A021207D3249B02DF
:1012A3001207D33A9B021207D38F9B021207D3A3D1
:1012B3009B021207D3B19C021207D3C49C021207EC
:1012C300D3D99C021207D37B9D021207D3FE9D0242
:1012D3001207D3BC9E021207D3C79E021207D3F391
:1012E3009F021207D30FA0021207D361A0021207B5
:1012F300D3A0A0021207D3B5A0021207D317A102ED
:101303001207D3A6A1021207D3F1A1021207D342F7
:10131300A4021207D3C0A4021207D335A5021207F1
:10132300D357A7021207D36FA7021207D372A702DC
:101333001207D37EA7021207D392A7021207D39AEA
:10134300A7021207D3CDA7021207D37DA802120763
:10135300D3F3A8021207D366A9021207D31AAA026B
:101363001207D3CFAA021207D3EEAA021207D38E13
:10137300AB021207D39AAB021207D3C5AB02120713
:10138300D3C8AB021207D332AC021207D35AAD0251
:101393001207D332AE021207D3BDAE021207D3D661
:1013A300AF021207D393B0021207D3CCB0021207D5
:1013B300D3FDB0021207D3BBB1021207D3EBB102C4
:1013C3001207D372D6021207D35FB3021207D3EA0E
:1013D300B3021207D39BB4021207D31EB50212073E
:1013E300D350B5021207D391B5021207D3A8F40163
:1013F3001207D30DF5011207D34AF5011207D3994A
:10140300F5011207D3AFF7011207D392F9011207BF
:10141300D3FCFC011207D337FD011207D35EDF02B1
:101423001207D3BCFD011207D3F0FD011207D3133A
:10143300FE011207D340FE011207D39CFE011207DF
:10144300D3898D031207D3078E031207D33D8E036F
:101453001207D3A98E031207D31C90031207D338A4
:1014630090031207D37D90031207D30B9103120746
:10147300D36491031207D39192031207D3A3930367
:101483001207D30094031207D36C94031207D3CD2E
:1014930094031207D30E95031207D3BB95031207C8
:1014A300D3CD96031207D3F896031207D3439703BA
:1014B3001207D38A97031207D31C98031207D3D7B3
:1014C30098031207D365C6031207D3D0C6031207C6
:1014D300D345C9031207D351E7031207D3CBE7035D
:1014E3001207D3A5A2031207D3F1A2031207D35FF6
:1014F300A3031207D380A3031207D330A403120755
:10150300D339A4031207D38CA4031207D3B5A403BE
:101513001207D31CA5031207D3ADA5031207D3EFFC
:10152300A5031207D339A6031207D398A6031207FC
:10153300D3C4A6031207D355A7031207D394A70353
:101543001207D3D3A7031207D308A8031207D31A8A
:10155300A8031207D32CA8031207D34BA80312071F
:10156300D354A8031207D30AA9031207D34AA90322
:101573001207D35DEA031207D394EC031207D3E7F0
:10158300DB031207D31DDC031207D366DC03120748
:10159300D3B6DD031207D3D86B001207D3176D0040
:1015A3001207D3536D001207D3126F001207D33BF8
:1015B3006F001207D3CE71001207D3127200120705
:1015C300D39B73001207D33374001207D39B7400A9
:1015D3001207D33C75001207D37E75001207D3BEE2
:1015E30075001207D34977001207D3B978001207A1
:1015F300D3DE7A001207D30C7B001207D3337B00B0
:101603001207D33C7B001207D3C37B001207D3E13D
:101613007E001207D322EE031207D338EE0312071C
:10162300D307D1031207D31AD1031207D3B7D103B8
:101633001207D3F2D1031207D30DD2031207D33209
:10164300D2031207D377D2031207D3A8D203120708
:10165300D3D9D2031207D35FD4031207D35DE903AF
:101663001207D393E9031207D3AFE9031207D3F1A8
:10167300E9031207D301EA031207D30BEA031207A4
:10168300D30CE3011207D35EE3011207D357E4013E
:101693001207D327E5011207D33CE5011207D386CE
:1016A300E5011207D3E8E5011207D3FBE5011207B1
:1016B300D33CE6011207D31EE8011207D399E801D0
:1016C3001207D3C3E8011207D373EA011207D382C7
:1016D300EA011207D3D1EA011207D3E7EA0112079D
:1016E300D3F4EA011207D32DEB011207D346EB0122
:1016F3001207D3DFEB011207D339EC011207D387AB
:10170300EC011207D39AED011207D30BF001120774
:10171300D339F0011207D3CAF0011207D32EF10116
:101723001207D33AF1011207D376F1011207D3D886
:10173300F1011207D3D3F2011207D3F8F201120712
:10174300D302F3011207D311F3011207D380F3017C
:101753001207D39BF3011207D3BDF3011207D3E999
:10176300F3011207D324F4011207D333F401120750
:10177300D36FF4011207D346EC031207D35EEC03D5
:101783001207D3B5F8021207D304F9021207D3A63E
:10179300FA021207D362FC021207D3AAFC02120751
:1017A300D392FD021207D3C3FE021207D3E5FE0252
:1017B3001207D341FF021207D3C5FF021207D33723
:1017C300E7021207D362E7021207D345E8021207C2
:1017D300D3CAE8021207D333E9021207D37FE9021F
:1017E3001207D3FEE9021207D390EA021207D320AD
:1017F300EB021207D362EB021207D3ABEF0212071D
:10180300D32BF1021207D3FBF1021207D322F20208
:101813001207D383F4021207D30FF5021207D31171
:10182300F6021207D3AAF6021207D39BF702120796
:10183300D31DF8021207D30080031207D3BA800323
:101843001207D32C81031207D3C881031207D3389D
:1018530082031207D3F184031207D3C88503120747
:10186300D33586031207D3B287031207D37C8803C9
:101873001207D3C389031207D3D68A031207D36F80
:101883008B031207D3358C031207D38CA9031207DA
:10189300D3E0A9031207D32CAA031207D377AA0311
:1018A3001207D3B7AA031207D307AB031207D3AAAE
:1018B300AC031207D31CAD031207D334AD031207D5
:1018C300D35BAD031207D3C6AD031207D3C9AE036F
:1018D3001207D31EE0031207D34FE0031207D30905
:1018E300E1031207D36FE1031207D392DE0312075A
:1018F300D3D5ED031207D3E6ED031207D3F8E103C3
:101903001207D306E2031207D342EE031207D3D022
:10191300EB031207D3E0EB031207D3F5EB03120734
:10192300D33DEC031207D35BE8031207D3E0E803CC
:101933001207D344E9031207D355EE031207D35812
:10194300EE031207D3FDC9031207D30BCA03120711
:10195300D385CA031207D369CB031207D322CD035E
:101963001207D300EE031207D37AAF031207D3E6AD
:10197300AF031207D3A5B0031207D3AFB103120706
:10198300D308B3031207D363B3031207D3B8B30364
:101993001207D3C1B3031207D3D3B3031207D33D43
:1019A300B4031207D351B4031207D35BB403120772
:1019B300D32CB9031207D381B9031207D37DBB0319
:1019C3001207D3AFBB031207D3D1BB031207D3EA6A
:1019D300BB031207D303BC031207D30DBD031207C6
:1019E300D3A8BD031207D384E3031207D3A8E303E9
:1019F3001207D3C1E3031207D3F4E3031207D3257A
:101A0300E4031207D353E4031207D3B5E403120725
:101A1300D3C4E4031207D3CEE4031207D3DBE403F6
:101A23001207D376D4031207D39CD4031207D3D956
:101A3300D4031207D3E8D4031207D307D50312073D
:101A4300D36FD5031207D378D5031207D3D7D503A2
:101A53001207D3FBD5031207D3BAD6031207D3C792
:101A6300D6031207D3D8D6031207D36CED0312079C
:101A7300D389ED031207D31FBE031207D377BF0326
:101A83001207D384BF031207D397BF031207D3B63A
:101A9300BF031207D3CCBF031207D3E0BF03120760
:101AA300D355C0031207D3BAC0031207D36AC103C5
:101AB3001207D33FC2031207D34FC2031207D35EE9
:101AC300C2031207D337EB031207D35BEB031207EF
:101AD300D383EB031207D3ABEB031207D388D903EA
:101AE3001207D3AFD9031207D3D0D9031207D335C3
:101AF300DA031207D306D7031207D31FD70312073C
:101B0300D32BD7031207D33FD7031207D35DD703D2
:101B13001207D367D7031207D371D7031207D384EE
:101B2300D7031207D3E6D7031207D31FD80312072D
:101B3300D34ED8031207D39CD8031207D3EBD80391
:101B43001207D306D9031207D310D9031207D337C9
:101B5300D9031207D37DD9031207D3627F0012077B
:101B6300D37E7F001207D3E17F001207D34E990380
:101B73001207D37899031207D39499031207D3A7B3
:101B830099031207D3BD99031207D31A9A031207B5
:101B9300D34D9A031207D38E9E031207D3B49F0328
:101BA3001207D3E79F031207D333A0031207D3759A
:101BB300A1031207D39DA1031207D3B2A1031207F6
:101BC300D3C2A1031207D306A2031207D367A2034A
:101BD3001207D377A2031207D31EE6031207D339E2
:101BE300E6031207D362E6031207D37CE603120768
:101BF300D3A1E6031207D3C0E6031207D3D8E60343
:101C03001207D306E7031207D320E7031207D328EB
:101C1300ED031207D387CD031207D38ECD0312072B
:101C2300D39ACE031207D3CACE031207D3F0CE033F
:101C33001207D313CF031207D335CF031207D36F82
:101C4300CF031207D3D5CF031207D30ED003120746
:101C5300D35AD0031207D387D0031207D3A7D003D5
:101C63001207D3E5E4031207D3FDE4031207D318E5
:101C7300E6031207D31BE6031207D3E8FE0112079C
:101C8300D35AFF011207D398FF011207D3D9FF01DB
:101C93001207D397C2031207D3B6C2031207D305A1
:101CA300C3031207D321C3031207D352C30312077B
:101CB300D362C3031207D36FC3031207D37CC303D7
:101CC3001207D368C4031207D3A6C4031207D3B001
:101CD300C4031207D3C0C5031207D3CBC50312072E
:101CE300D3DDC5031207D3E6C5031207D3F0C5033B
:101CF3001207D36FB4031207D3B4B8031207D3C2C6
:101D0300B8031207D3A8ED031207D3C6D5021207EF
:101D1300D30CD4021207D3BCD1021207D343D1028E
:101D23001207D3EAD0021207D37AD0021207D35193
:101D3300D0021207D331CE021207D3FDCD02120710
:101D4300D3CACD021207D3AECD021207D3C7CC023A
:101D53001207D37FCC021207D3CACA021207D34A8F
:101D6300CA021207D347CA021207D344C902120791
:101D7300D312C9021207D34FC8021207D37AC6027D
:101D83001207D30BC6021207D3DDC5021207D342D3
:101D9300DF021207D3E2DE021207D39ADE02120732
:101DA300D3E8DD021207D35ADD021207D3DAC502E4
:101DB3001207D3C7C5021207D372C5021207D34D48
:101DC300DD021207D361C5021207D353C4021207FF
:101DD300D31DC4021207D3CBC3021207D347DA02BF
:101DE3001207D359FD011207D36CC3021207D33B69
:101DF300C3021207D303C0021207D3C3BF021207E1
:101E0300D3B7BF021207D317BF021207D357BE02BD
:101E13001207D3D9BB021207D36AB9021207D32818
:101E2300B9021207D3FCB7021207D3B1B7021207E4
:101E3300D3EDB6021207D330B6021207D300B602AF
:101E43001207D3A9D7021207D3C6B5021207D3C606
:101E5300B20200000080FBE4738F0001001A0887C0
:101E6300000100AE12240002008912250002008B3B
:101E730012260002008D12270002008F1228000193
:101E8300009112290001009212840004009312862B
:101E930000010097122A00010098122B00010099FB
:101EA300122C0001009C122D00080005082E0001D1
:101EB300009D122F0001009E12300001009F12317D
:101EC300000100A012320001000D08330001000ED2
:101ED3000834000100A112360001000F0838000188
:101EE30000A212390001009B1283000200AC1263AE
:101EF3000001001908640001000208650001009A4E
:101F0300126D000100AB126E0002000308430001D2
:101F130000A31244000200A41245000100A61246C9
:101F2300000200A71247000800110848000100A999
:101F3300124B000100AA1204000100AF12A100011C
:101F430000B21237000100B11288000100B0123C48
:101F530000010010080000000000000001363601F7
:101F6300010001020100010301000104010606054D
:101F7300020000070100340801000F090401010DEC
:101F83000100FF0E08000017020000190100FF1AEC
:101F93000100011B0100FE1C0100081D0200001FBF
:101FA30001000120010001210200002301000F2490
:101FB3000200002601000127010008280200FF2A71
:101FC3000100072B0102402C0100002D0100012E0E
:101FD3000100012F0100FF30010B1C310800003A02
:101FE3000100083B01000F2F0100000302710230C2
:101FF3000160021102700201020202020280021059
:102003000261023A004100630273027202620243F8
:10201300020002130238000002000204021202004E
:102023000200020002000204020402370037003CEF
:102033000244020002390000020002650200023578
:102043000281020002050282028302000203007180
:102053000030016000110070003102200350048041
:10206300001000610000001400630073007200623E
:1020730000430000001300060000000000040012EB
:1020830000000000000000000004000400370037D7
:10209300003C024400000000000000000065000056
:1020A30000350081000000050000008300000003EC
:1020B30004710402046004110470040204020401A4
:1020C300040204100461040004140463047304721E
:1020D300046204430400041304060400040004041B
:1020E300041204000400040004000451046400000A
:1020F3000400040004440400040004000400046514
:10210300040004350481046400050400048304000E
:10211300040103710301030103010301030103220A
:102123000302030103100300030003000300030081
:102133000300030003420300032403060300030018
:1021430003040312032503230325032303040304C6
:1021530003000300030003440300030003230300FD
:102163000365032100350381030003050300030016
:102173000300030101710101010101110101013199
:1021830001010101018001100161013B00140063A1
:102193000173017201620143010001130106013D54
:1021A30001350004011201000100010001000104D6
:1021B300010401330133013C0144013201360000C3
:1021C3000100016501000135008101000105018263
:1021D300018301000136000100060000000F00002A
:1021E300000000000000000000000003FFFF0000EB
:1021F3000403FFFF0000FFFF0FF4010005C4040305
:1022030020000100130B0000000000000000030188
:102213000F00004F1813000D1801004F180200D7CC
:10222300170300DD170400E3170500E9170600F59F
:1022330017FFFF000001FF0D06290E08230E0B41B7
:102243000E107B0D02050E05170E070B0E0CE10D8C
:102253000DF30DFF0000371267123D124312611296
:1022630055124F126D1273127912851249123112DF
:102273002B1200160F00000B150B020002220F3267
:10228300000006271339133F1301124513FB1107EF
:1022930012140AE5D5C5B5A5A5958585756587137A
:1022A300A513AB138D13991393133B1135117111AF
:1022B30077116B1123110001191618161615230334
:1022C300000C0E020B040B0A0708000F0003494819
:1022D300424D1817250502303017181921301B1DE0
:1022E3001F30303016181920231A1C1E3000383CBA
:1022F3003E363B3B352B432C7B134B1351135D1362
:1023030057135B127F129F138B1291120204020167
:10231300010101090247114D1141117D1100BE0454
:102323000A53116511FA06942204007F00E8030C96
:10233300000E002800000000000108100C0A03082A
:10234300090004000CFF1E1E05080403100574F6A3
:1023530012036E74FF1208B2851882851983E4F0A4
:10236300858208858309780812080B7508017509A9
:1023730000780812080B1223A5740412081E7401B6
:10238300023BD974F612036E8C088D097808120883
:102393000B75080B750900780812080B1223A502A8
:1023A3003BD71223CE1216092274F612036E8C0841
:1023B3008D09780812080B75080B75090078081247
:1023C300080B1223CE12160F023BD7EA75F00BA4AB
:1023D300FAA8F075F00BEBA428FBEAFCEBFD7A23DB
:1023E3007B0022C082C0838A828B83E0D2E7F01213
:1023F30017410237EBC082C0837900122974125B44
:1024030064C082C0839003341248E2D083D082C375
:10241300E09CA3E09D500C126238FAA3E012242939
:102423006001090237EBFBEA75F00BA4FAA8F0751B
:10243300F00BEBA428FB900336E02AF8A3E03B88DB
:1024430082F583E0540F2274F712036E8908122970
:1024530074122A1AACF075F00BE9A42CF990033628
:10246300E028FEA3E039FF74016508600674026585
:102473000870208A828B83122A06123BD17402656C
:1024830008701B1228C5122A4D70138E828F83E4A5
:10249300F0800BEA2403FCEB1229E81229F4EEFA8C
:1024A300EFFB120ACF023B2874F412036E126B5F28
:1024B30079008E828F83E06076890A890B8065E5D7
:1024C3000A75F00BA4FAA8F075F00BE50B1224368D
:1024D3007046E50A75F00BA4F8AAF075F00BE50B4E
:1024E300122A2C8E828F83E0850882850983122B22
:1024F3000E850882850983A3123BD1EE2403FCEFEA
:102503001229F11239A91255DEAA08AB09120ACF12
:102513007901900334124FEBE50A2401F50AE50B28
:102523003400F50B1228CDE50A9AE50B9B40900287
:102533003D7D74F512036EEAFEEBFF740B120A7411
:102543001239AE750A01EC4D602BEC126B7BED1268
:102553005B64123BC97901120ADBE5084509606F28
:10256300850882850983A3126B697902AA08AB09DE
:10257300120ADB805AE5084509602B125B68124298
:102583002A1239AA122A37700CEEFAEFFB120AE16B
:10259300E9F50A80CBEE2403FA12296F703179032F
:1025A300EEFAEFFB80CA8E828F83A3E064FE700392
:1025B300A3E0F4700BEE24030A0A0A12296F700CCD
:1025C300EEFAEFFB120AE1E9F50A8003750A00A9A6
:1025D3000A7F0302058974F712036E900334123BDA
:1025E30038EA4B602FEA75F00BA4FAA8F075F00BEC
:1025F300EBA428FBEAFEEBFF12158B900336123B8C
:1026030038900336124E306012EEFCEFFD79001263
:1026130014EF8007900336E4F0A3F0023B2874F62E
:1026230012036EE4F508F509780812080B900334D9
:102633001248E2EC75F00BA4FCA8F075F00BEDA4C6
:1026430028FD7A237B00121603740212081EE9FE8A
:102653006003120AF9025D7774F712036E7E007F3E
:1026630000800AEEFAEFFB120ABD1234F31226E3DE
:1026730040F1023B2874F712036E7E007F00801244
:10268300122952FCA3E039FDEEFAEFFB120AC9123C
:1026930034F31226E340E9023B2874F712036E7EFB
:1026A300007F008033EEF8EFF9E875F00BA4F8AA89
:1026B300F075F00BE9A42AF99003361252F98882D7
:1026C3008983E0A2E7500EC2E7F0AC82AD83EEFA55
:1026D300EFFB120AC31234F31226E340C8023B286D
:1026E30090033412459AC3EE98EF9922C082C083B7
:1026F300EC4D6005121C8D80097C087D0079001269
:1027030014EF0237EB74F612036E7900EA4B60188C
:1027130078008808125EABEB1262346004790178AA
:102723000808E8C3940840EA023BDC74F712036E1E
:1027330074F31208B2ECFEEDFF851882851983E469
:10274300F004120A74EAF0A3EB1253647403120A3E
:1027530074AC82AD83EEFAEFFB120B0BEEFAEFFBD8
:10276300120B11023B2374F712036E74F31208B2B7
:10277300ECFEEDFF851882851983E4F0EAFCEBFD9E
:102783007403120A74122B077401120A74123BC5E4
:102793008E828F83123BD174FE68700374FF69606D
:1027A30004790180027900023B2374F712036EEA75
:1027B300FEEBFF12280B70141228168E828F83E013
:1027C300F4F88A828B83E058F0120ACFA908023BFF
:1027D3002874F712036EEAFEEBFF7508008E828FF2
:1027E30083E0602212280B701D1228168A828B83C5
:1027F300E08F838E82F8E058700CE0F88A828B8336
:10280300E048F0120ACF80C4120AD5E9F508740132
:10281300650822126B74122A1E122960FAA3E0398A
:10282300FB2274F412036E8A088B097C007D00126C
:1028330028C51229F4122985126B6679008508824E
:10284300850983A3E064FE7003A3E0F460717E0056
:102853007F008062EEFAEF1224296057EEFAEFFB55
:10286300EA75F00BA4FAA8F075F00BEBA428FB9023
:102873000336E02AF50AA3E03BF50B8508828509B8
:1028830083A31252AA850A82850B83A3E06A70038D
:10289300A3E06B701EE50A2403FAE50B122970709E
:1028A3000AE50A2403FCE50B1229F11229797901BF
:1028B300125B7A1234F31228CDEE9AEF9B40950205
:1028C3003D7DEA24030A0A0AEB229003341257518E
:1028D300C32274F312036E8A088B098A828B83A343
:1028E300126B69122974126B66750C001228C512DB
:1028F300297070547E007F008049122952FAA3E0A8
:10290300398A82F583E0540F6036122952F50AA3FF
:10291300E039F50BE50A2403FCE50B1229FB34002F
:10292300FB121C87E964017017850A82850B83A358
:10293300125812A3123BD1122979750C01125B7A3A
:102943001234F31226E340B2A90C7F05020589EE87
:10295300F8EFF9E875F00BA4F812296022AAF075D4
:10296300F00BE9A42AF9900336E02822EF122A4754
:1029730022126B7AEB22122985125B75EEF0A3EF1C
:10298300F022E508126B7BE5092274F512036EEA67
:10299300FEEBFF8E828F83A3126B697C007D00EEBA
:1029A30024030A0A0AEF1229F4EEFAEFFB120AD5FE
:1029B300E9F50A7401650A7029126B74122A1AAABE
:1029C300F075F00BE9122A2C850882F583122A068A
:1029D300122A37700DE5082403FCE5091229E812D1
:1029E30029F40225D23400FDEE2403FAEF22122942
:1029F300FB3400FB120B0B223400FDE5082403FA21
:102A0300E50922A3122A0B22122A0F22E0F8A3E0DF
:102A1300F98E828F83A322122A1E223400F5831299
:102A2300459EE875F00BA4F822122966F508A3E089
:102A330039F50922E8F0A3E9F0E5082403FAE509EA
:102A4300122A4722122A4D6401223400FB120B1171
:102A5300E92274F312036E74E61208B2126B5F7507
:102A63000C01750800750900750A00750B008518BF
:102A730082851983E4F0EE2403FCEF3400FD740334
:102A8300120A74122B07E964017023740B120A747F
:102A9300123BC97401120A741252AE7003A3E069A7
:102AA3006051851882851983858208858309740D91
:102AB300120A74E4122B0E740E120A74123BD174B0
:102AC3000D120A74AA82AB83120B2FE96401700BF7
:102AD300740D120A7485820A85830B780A12080B17
:102AE300AC08AD09EEFAEFFB120AE7740212081EF6
:102AF300E9F50CEEFAEFFB120B29A90C741A120874
:102B03001E02294D122DDA120B3522123B331245C8
:102B13009A22C082C083780079008003122C0512A8
:102B230028CDE89AE99B5029E8FAE9FBEA75F00B0E
:102B3300A4FAACF075F00BEBA42CFB900336E02A5F
:102B4300FCA3E03B8C82F583E0540F70CF790080C7
:102B53000279010237EBC082C0839004E91245F089
:102B6300EC75F012A4FCA8F075F012EDA428FD7921
:102B7300FF7AF67B0C1214EF0237EB74F712036E35
:102B8300E9FEEAFF7A007B00780079008028E8FC00
:102B9300E9FDEC75F012A4FC85F00875F012EDA4C4
:102BA300250812301AC39E400AE0FCEFC39C400381
:102BB3001233C8122C0512300E40D3023B28C082B8
:102BC300C083780079008003122C05122BF9501F63
:102BD30012301EF470F2E875F012A4F8AAF075F042
:102BE30012E9A42AF974F628FA740C39FB80047AE2
:102BF300007B000237EB9004E91232A0C3E89AE9A4
:102C03009B22E8240108E93400F92274F012036ED0
:102C130074F31208B28A0A8B0B8C0C8D0D8908ECA5
:102C2300450D6016AA0CAB0D120B838A0E8B0FAEEB
:102C33000EAF0FEE4F6003022CCC120B598A0E8B92
:102C43000FA80EA90FE8FEE9FFE849607C90233A3C
:102C5300122D2E60227403650860067404650870E3
:102C6300167A047903120B5390233A122D45400729
:102C73007A007B00022D2B902338122D2E601B74BB
:102C8300016508600674026508700F7A0279011203
:102C93000B53902338122D4550D6851882851983FE
:102CA3007401F0120A741255DEAC0CAD0D740312EC
:102CB3000A74122DD3740B120A741239B6123FB36D
:102CC300E41255C612107B8004EE4F604A780074FC
:102CD300FF2508C39404500278048E828F83125513
:102CE300DE8E828F83A3A3A3A3E508F0E88E828FF1
:102CF30083A3A3A3A3A31255E612021D1232BD8E12
:102D0300828F83A3A3A3A3A3A3A3F01232B4120AB3
:102D130051125B5E120A5D122D334005901252E48C
:102D2300F0120F55EEFAEFFB0245A41257004922A9
:102D33007A047900120B539004E912621AEA98EBB1
:102D43009922122D5E7583047582E9E493C398F882
:102D5300A3E49399F9C3EA98EB9922E493F87401F5
:102D630093F92274F212036E74F31208B28A088B79
:102D730009ECFEEDFF750A00EEFAEFFB120B838AF6
:102D83000C8B0DA80CA90DE849603E88828983E06D
:102D930065087004A3E06509602F88828983A3A373
:102DA300A3A3E0C394055021125A0C8518828519F8
:102DB300837401F0120A74125A10EEFCEFFD7403CF
:102DC300120A74122DD3750A01A90A740D0250A2B6
:102DD300122DDA120B4122AA82AB83120B0B851838
:102DE30082851983AA82AB832274F612036E122E94
:102DF30028600FA3A3A3A3E014C394045004790190
:102E030080027900023BDC74F612036E122E2860F6
:102E13000FA3A3A3A3E014C3940250047901800277
:102E23007900023BDC120B7D8A828B83E58245832A
:102E33002274F612036E122E28600BA3A3A3A3E041
:102E43007004790180027900023BDCC082C083EA0E
:102E5300FCEBFD7A007B000237E8C082C0837C0074
:102E63007D000237E874F412036E74F31208B2EAB9
:102E7300FEEBFF8C0A8D0BC3EC94F8ED94FF400737
:102E8300EE4F7003022F21750800750900802E850F
:102E930018828519837401F012351B120A741235D6
:102EA3002960137403120A74AC82AD83EEFAEFFB4C
:102EB300121C87E97049E50824011230BA9004E92D
:102EC300E4125708E50898E509995052E50875F0AA
:102ED30012A4F8AAF075F012E509A42AF912624DBA
:102EE30060D4EE4F70A974FF650A700474FF650B1C
:102EF30060C412350B650A7004A3E0650B70B7E577
:102F03000875F012A4F508A8F075F012E509A428D5
:102F1300F50974F62508FA740C3509FB80047A0068
:102F23007B00023D7874F412036E74F31208B275D9
:102F33000800120B838A0A8B0BAE0AAF0BEE4F60AD
:102F43002A8518828519837401123B2DF8A3E0F9B1
:102F5300740B120A74123C56120B237C127D0079F7
:102F6300FFEEFAEFFB1214EF750801122D3350092F
:102F73009012527401F0120F55A908023D7874F7AC
:102F830012036EE9FE74FE6A700374FF6B780079B6
:102F93000070058052122C0512300E504AE8FCE9ED
:102FA300FDEC75F012A4FCAFF075F012EDA42F1236
:102FB300301AF460E0E8FCE9FDEC75F012A4FC754E
:102FC300F012EDA42FFD74F62CF582740C3DF583FD
:102FD300E06A7003A3E06B70BC800912301E14C357
:102FE30094044017122C05122BF95018EE70EC12B2
:102FF300301E64016005E0640370E91234FCFAA337
:10300300E0FB80047AFE7BFF023B289004E9124533
:10301300F4C3E89CE99D221233FD22E8FAE9FBEAB6
:1030230075F012A4FAACF075F012EBA42CFB74FA51
:103033002AF582740C3BF583E022120B950237EBE1
:10304300C082C083790180F274F012036E8A0A8B06
:103053000B7A047901120B538A0C8B0DEA450D6030
:103063003EEAC333FAEB33FB12158B8A088B09AEA6
:1030730008AF09EE4F60237AFE7BFF120B9B74FEB1
:103083006A700374FF6B601B850882850983123B9A
:1030930038E50824021230BA80E1750C0080047E02
:1030A300007F00850A82850B83E50CF0EEFAEFFBC7
:1030B3000245A9E5082407F508E5093400F50922C6
:1030C3009004E91245F4C3EA9CEB9D2274F61203C3
:1030D3006EE4F508F509780812080B9004E9E49307
:1030E300F508740193F50974037808120954123131
:1030F30006121603740212081EE9FE6003120BADDA
:10310300025D77E5082402FCE5093400FD7A227BA1
:10311300002274F612036E74FE1208B285188285BB
:103123001983E4F0A3123BB78582088583097808E5
:1031330012080B750802750900780812080B7C0049
:103143007D007A227B00121609740412081E740291
:10315300023BD974F112036E74DF1208B285188230
:10316300851983858208858309780812080B7508F9
:1031730002750900780812080B7C007D007A227B17
:103183000012160F740412081EE9600302328E90B7
:1031930004E91232A0123BBFC3EA98EB9950030231
:1031A300328E750800023283740F120A7485820A04
:1031B30085830B780A12080B750A08750B00780AC9
:1031C30012080B85080A7403780A120954E50A24C5
:1031D30002FCE50B12310D12160F740412081EE9DE
:1031E30060030232817411120A74E0F47003A3E0E5
:1031F300F470030232817402120A747401F07411C0
:10320300120A74123BC5740D120A74123BD1740274
:10321300120A74AA82AB83120B3BE96061900375B7
:103223001248E2740F120A741252AA12107BE508B4
:1032330075F012A4F8A9F074F628FE740C39FF7423
:103243000F120A74A982AA83890C8A0D750E00785D
:103253000C1208077C081232A812081E1255EB1232
:10326300021D1232BD1232B4120A51125B5E120AEF
:103273005D122D334005901252E4F0120F550508EC
:1032830085080A12620E50030231AB851882851934
:1032930083E0F9742112081E7F07020589E493FA7B
:1032A300740193FB227D00EEFAEFFB1214E3740327
:1032B30022125B6FE4F090803F22E88E828F83A31B
:1032C300A3A3A3A3A3A3A31232DF74011232DFA328
:1032D300F0EE2410125B72E4F0A3F022123FBFA3BE
:1032E300A3A32274F412036E74FE1208B28518822B
:1032F300851983E4F0A3F0FE8067EEF8EFF9E87533
:10330300F012A4F8AAF075F012E9A42AF974F628C9
:10331300F50A740C39F50B780A12080B7508087551
:103323000900780812080B8E088F097403780812B5
:103333000954123106121609740412081E850A82F2
:10334300850B83A3A3A3A3E0F4600F8518828519DB
:1033530083E02401F0A3E03400F0EE24010EEF3407
:1033630000FF9004E91267F4409085188285198361
:10337300858208858309780812080B750802750988
:1033830000780812080B7C007D007A227B0012165D
:1033930009740412081E7402023D7AC082C0837A43
:1033A300007B008004191233C81230C3501012334B
:1033B300E7C3940550F0E970EC1233D180047A002E
:1033C3007B000237EBEA24010AEB3400FB22EA75A7
:1033D300F012A4FA75F012EBA428FB74F62AFA741F
:1033E3000C3BFB22EAFCEBFDEC75F012A4FCA8F00D
:1033F30075F012EDA4281233FD22FD74FA2CF58228
:10340300740C3DF583E02274F712036E74F3120813
:10341300B27E007F000234AFE50875F017A4F8A967
:10342300F01264AEFAA3E0FBEEF8EFF9E875F012E0
:10343300A4F8ACF075F012E9A42C12350A6A7003F3
:10344300A3E06B603FE50875F017A4F8AAF0EA1251
:1034530064ADF8A3E0F97401120A74E0687003A381
:10346300E0696020E50875F017A4F8EAF97472289A
:10347300FC740E39FD7403120A74AA82AB83121C06
:1034830087E96014E50875F017A4F8A9F0747028AB
:10349300FA740E39FB121087050890233EE493F863
:1034A300E508C398500302341B1234F39004E91265
:1034B30067F45039EEF8EFF91234FCF47003A3E02B
:1034C300F460E68518828519837401F0EEF8EFF94C
:1034D300E875F012A4F875F012E9A42AF912351B65
:1034E300120A7412352960C175080080AD023B23AE
:1034F300EE24010EEF3400FF22E875F012A4F8AABF
:10350300F075F012E9A42AF912350F2274F628F5A2
:1035130082740C39F583E02274F828F582740C392F
:10352300124598740B22E8F0A3E9123C5E120B3BA0
:10353300E922C082C0839003417411F0A3740EF09A
:103543000237EB74F712036EEAFEEBFF900377E0AA
:103553006408601BE0640460168E828F83E054036A
:10356300640170481239A91240A9E06406703D8EC7
:10357300828F83A3A3E064FE7003A3E0F4602D8E27
:10358300828F83A3A3123BC5900368E0687003A3F3
:10359300E069700BEE2415F582EF126234600812B5
:1035A3000ECBE9F5088008120ED180F67508C2EE3D
:1035B300FAEFFB1215910227CF74F412036E8A08F7
:1035C3008B098A828B83E0F8A3E0FAE82AFAE434D1
:1035D30000FB12158B8A0A8B0BAE0AAF0BEE4F6002
:1035E30063850882850983E0FC7D0079001214EF6E
:1035F3008E828F83A3A3126B69120F0D8E828F832A
:10360300A3A3A3A3123B38850882850983E0F8EEC0
:1036130028F8EF3400123BCD850882850983A3E0A7
:10362300C0E0EE240D125B61D0E0F0120F1FEE2418
:103633000E125B61E912520BE0C0E0EE2411125B43
:1036430061D0E0F0EEFAEFFB023D7D74F412036EFD
:1036530074EB1208B28A088B098C0A8D0BE9FE9071
:103663000377E064046005E06408700479C2802E87
:10367300A37808120A35EE90037E123829120A3510
:103683007405120A74E9F07404120A747401F07474
:1036930007120A74E4F090037774021237867415E4
:1036A300023D7A74F612036E74EB1208B2EAFEEB73
:1036B300FF124E2D600302374A7A077B0012158BE7
:1036C300900339123B38124E2D60788E828F83120D
:1036D3000A5190033A1240AC120A5D126A2DC0E0FF
:1036E300123756D0E0F0EE2405FAEF3400FB8A08D7
:1036F3008B098A82F583E0C0E0123751D0E0123D96
:1037030074E0C0E0123751A3D0E0123BAC120A516F
:10371300851882851983120A5D88828983E0C0E057
:103723007405120A74D0E0F0850882850983E0C02D
:10373300E07404120A74D0E0F07407120A741237AA
:103743008580067910800279017415023BD91237FE
:1037530056A322900339E0FAA3E0F5838A82A3A358
:10376300A3A322C082C083124E2D600D9003391291
:10377300573F900339E4F0A3F0120E3B12102702D7
:1037830037EBE4123C5E121CBD22C082C08390035F
:1037930038E07003121807120BF5804CC082C08307
:1037A300900338E09012517004E4F0802D7401F01E
:1037B300900338E0F460237C41E0C394415002E07D
:1037C300FCECF8E0C398F0EC75F0E8A4CCA8F07535
:1037D300F003A428FD7A801245FC7A517B127941CB
:1037E300121CA58003120B89D083D0820207D074E8
:1037F300F412036E74EB1208B28A088B098C0A8DDB
:103803000B9003777401123829120A357405120AD2
:1038130074E9F07404120A747403F07407120A74DE
:103823001237850236A1123BB778082274F71203C8
:103833006E7C01120C07023B2874F212036E74FCB7
:103843001208B2E9851882851983F0EAFEEBFF8C32
:103853000A9003751248E2120E2F8A088B09EA4573
:1038630009700579CA0239A48A828B83A3A3A3A30F
:10387300A3A3A3E064FE7003A3E0F4700579C3027D
:1038830039A49003751252AA12108D8508828509F6
:1038930083A3A3A3A3A3A3A3A3A3A3E00490038845
:1038A300123B077402120A747402F014120A74AA07
:1038B30082AB83120F918A0C8B0DAE0CAF0DEE4FC2
:1038C300700302399B1239A912421E7406F0A3A891
:1038D30082A98390036212577C124577F0EE24137A
:1038E300125B6174011255BE7440F0A3E4125204DA
:1038F300A3A31239B6123BD1EE2411125B61E50A80
:10390300F0EEFAEFFB120BD1E9FE600302399D9052
:1039130003777409F01230B6AA08FB794B121CA581
:10392300850882850983123AF9123BD190036AE034
:10393300F8851882851983E068600CE090036A12A9
:103943003C5A79E1121CA590128D123BC590128F3F
:10395300E0687003A3E069601A90033B123BD190C7
:10396300128F1252AA120F3790128F1248E27A0165
:103973001245FC7A007B049003C2E0F912164590CD
:10398300128F1239AE74027808120954AC08AD09CB
:10399300FA7B041245FE80027E10900722E4F0EECB
:1039A300F974040250A2EE125B7022E0F508A3E062
:1039B300F509221239BA22122A0FA32274F512032F
:1039C3006E74E21208B2851882851983ECF0A3EDB8
:1039D300F0EAFEEBFF89087429120A74E0F5097412
:1039E3002C120A74E0F50A900377E064046005E0A2
:1039F3006408700579C2023AF1742A120A74E06409
:103A0300FE7003A3E0F4700579C3023AF1900377E3
:103A13007403123C5A7950121CA5742A120A74AA10
:103A230082AB83794B121CA5851882851983123BBF
:103A330000123BD1E50890036AF0742A120A74124B
:103A43003AF9123BD1E509900362123B0774CE5554
:103A5300094480C0E07412120A74D0E0F0740125A6
:103A63000A900388F0740F120A747402F0742A1215
:103A73000A74123BC57407120A74E8F0A3E9123BF7
:103A83003E7410120A74123BD17405120A74E508CD
:103A9300F0741B120A74E4F090037D740FF07A7DC6
:103AA3007B037954121CA590037C740FF07A7C7B02
:103AB300037947121CA590037CE0C3940F50237431
:103AC30005120A74E0C0E07402120A74D0E0F074C4
:103AD30004120A747401F004120A74AA82AB8312EA
:103AE3001CC97405120A74AA82AB83121CAB741E20
:103AF30012081E0225D412459A90036B2212459A8E
:103B030090037522F0EEFCEFFD7A897B03121C8D86
:103B13002274F712036EEB90037FF0120E1D8005E3
:103B2300740D12081E7F01020589123B33A3E022A4
:103B3300123BACA322EAF0A3EBF022123BB2F8A3B0
:103B4300E0F92274F712036E74F81208B2EAFEEB7E
:103B5300FF7900900377E064087044851882851923
:103B63008374FDF0A374FFF0120F077402120A743A
:103B7300123B387405120A74E4123B33E0C0E0745C
:103B830004120A74D0E0123BA7C0E07406120A7450
:103B9300D0E0F07407120A74E4123C5A120F7374E3
:103BA30008023B25123BACE022F08E828F83221267
:103BB3003BB7E022F0851882851983228518828518
:103BC300198312459A22E0F8A3E0F9125B6FE8F03B
:103BD300A3E9F022740412081E7F02020589C08241
:103BE300C08390034974C1F0A3740CF09003EF7485
:103BF300CDF0A3740FF090034D74F7F0A3740CF0A1
:103C030090034F74C1F0A3740CF090035174FDF052
:103C1300A3740CF00237EB74F412036E74F91208F8
:103C2300B28A088B098C0A8D0B85188285198378D3
:103C330008120A357404120A74E9F07405120A743E
:103C4300E4F07406120A74E4123C5A120BE374078C
:103C5300023D7AE8F0A3E9123C5E22123BB7AA8246
:103C6300AB832274F412036E8A088B098A828B83D6
:103C7300125B7DEE4F7003023D72900312124E30C1
:103C830060158A828B83A3A3E0F9EEFAEFFB90031E
:103C9300131240AC121E5A8E828F83A3A3A3A3A335
:103CA300A3A3A3A3E0640270748E828F83A3A3A350
:103CB300A3A3A3E054027003023D4485088285094F
:103CC30083A3A3E064E960798E828F83A3A3A3A374
:103CD300A3A3A3A3A3A3E070149012A3E0048E8272
:103CE3008F83A3A3A3A3A3A3A3A3A3A3F08E828FD2
:103CF30083A3A3A3A3A3A3A3A3A3A3E014123D7429
:103D0300A3A3A37404F09012A41255B8E8F0A3E996
:103D13001266918B0BEA450B700312606F8E828FD4
:103D230083A3A3A3A3A3A3A3A3A3E0640260128E0C
:103D3300828F83A3A3A3A3A3A3A3A3A3E064067077
:103D43002E8E828F83A3A3A3A3A3A3E0A2E0501F7D
:103D5300850882850983A3A3E0F9EEFAEFFB121D20
:103D6300418E828F83A3A3A3A3A3A3E054FEF08079
:103D730009123FBB22740D12081E7F0402058974C9
:103D8300EC12036E74DD1208B2EAFEEBFF8C088DB1
:103D9300097437120A74780C120A17750A0074052D
:103DA300120A74AC82AD83120A997412120A74E077
:103DB30070087415120A74E060207405120A74E026
:103DC300A2E6501E8E828F83A3A3A3A3A3A3A3A3C0
:103DD300A31252AA120FA9E960087903121C7502F3
:103DE3003FA17405120A74E0540C64047005750B4A
:103DF300018003750B00E0A2E55035750A01E50B60
:103E0300A2E0402C120F0D8A108B11A810A91112D9
:103E130039A9E0687003A3E06960157405120A7498
:103E2300126B701252A6121D4DE96004790480AC26
:103E33007405120A74E0A2E650227406120A74E0B2
:103E4300540370187405120A74E0540C640C600C6B
:103E5300E0540C640860057510018003751000744C
:103E630005120A74E05403F8740268700C126B7044
:103E73001252A6120AAB023FA1740168703AE51010
:103E8300A2E05003123FA97405120A74A882A98301
:103E93007403120A74E8F0A3E912458E851882852B
:103EA3001983123FB3E0C0E07402120A74D0E01227
:103EB3003C5A121E31023FA1E86003023FA1900366
:103EC3005FE0640170108E828F83A3A3A3A3A3A3D7
:103ED300E07003023E2F7422120A74740212458E9C
:103EE300741A120A74123BD1E510A2E0500874054B
:103EF300120A74123FA9E50BA2E0506AEE240FF5F3
:103F030082EF126234C0E07417120A74D0E0F090AA
:103F13000314124E307003023FA1120F0D8A128B4D
:103F230013A812A913741A120A74E0687003A3E0A9
:103F330069706B780C120803780A12080F7808125C
:103F4300080BA910740C120A74AC82AD837421128D
:103F53000A74AA82AB839003141240A9121E5A74E6
:103F63000712081E8038780C120803780A12080F0B
:103F7300780812080B900375120658EE2412F58286
:103F8300EF125F627423120A74AC82AD83740E1253
:103F93000A74AA82AB83121D35740912081E742396
:103FA30012081E02665C126B7012574D120A9F2292
:103FB300E8F0A3E9123FBB22123FBF22F08E828FAB
:103FC30083A3A3A3A3A3A32274F712036E1216F968
:103FD300023B2874F712036E12170B023B28C082B0
:103FE300C0831217050237EB74F712036E12171111
:103FF300023B2874F712036E7409120A74E0F50881
:10400300780812080F12171D7401023B25C082C0E5
:10401300831217290237EBC082C08312172F02378E
:10402300EB74F712036E121735023B2874F7120371
:104033006EEAFEEBFF8908740165087014790012BB
:104043000D39902349E493FC7900EEFAEFFB120C4F
:10405300AF023B2874F412036E74F91208B2E9FE3E
:104063008A088B098C0A8D0B7413120A741252AAD4
:1040730090076E124E306027EE851882851983F003
:104083007401120A747808120A35EAF8EBF9740518
:10409300120A74123C5690076E1240A9121E5A025D
:1040A3003C51FB90034BE0F8A3E0F5838882227434
:1040B300F712036E901254E0F97E00800B12622017
:1040C300540D64017001190E1242AC5003E970EDF6
:1040D300023B2874F712036E901255E0F97E0080BC
:1040E3000B126220548D64817001190E1242AC5080
:1040F30003E970ED023B2874F212036E890BE97534
:10410300F006A4240CF508E5F01230BE8A0CE5088D
:10411300250CFAE5093400FB12158B8A0C8B0DAEC6
:104123000CAF0DEE4F6027AC08AD0979001214EF08
:104133001239A9E50BF0EE2508F8EF3509F98E825F
:104143008F83A3A3A3A3A3A3A3A3A3123BD1EEFA99
:10415300EFFB0250A574F612036EEAFEEBFF120C9E
:104163008B901253E0F8E9C398400990034512522B
:10417300AA120C91EE2402F8EF1258C290034712D0
:10418300577C900347E004F0EEFAEFFB120C97859F
:104193000882850983E0025D78C082C0837900903C
:1041A30003458001091252AA8A828B83E5824583E3
:1041B30070F20237EB74F712036EEAFEEBFFEE4F79
:1041C3006056900345124E30604E888289837A0090
:1041D3007B00EE65827003EF6583600FAA82AB8379
:1041E30012421EE5824583602F80E7900345124209
:1041F3002A687002EF698E828F837008123BC59024
:104203000345800312666E123BD1EEFAEFFB121EDA
:1042130001EEFAEFFB121591023B28124222221201
:10422300459E888289832212459AEE22C082C083EA
:10423300900345800488828983124E30600B888204
:1042430089831248E2EC4D70EC8A828B83E4F0A3FD
:10425300F0E8496006888289838003900345123B16
:10426300380237EB74F712036E90034580048A8299
:104273008B831242A74B60257E0080010E1242AC55
:1042830050ECEE75F006A4FCADF0EA2CFCEB3DFD22
:10429300EC2410F582ED1242FC70E180047A007B7D
:1042A30000023B28125751EA22124305EEC398221B
:1042B30074F712036E7D0080010D124301EDC39864
:1042C3005034ED75F006A4FEA8F0E8FFEA2EFEEBED
:1042D3003FFFEE2410F582EF1242FC70DCED75F027
:1042E30006A4FEE8FFEA2EFAEB3FFBEA2411F5826F
:1042F300EB1262344CF0023B2812624069221243F3
:104303000522126B7AEB3400F583E0F82274F6127F
:10431300036E120DB17A007B008025EAF8EBF9E811
:1043230075F006A4F8ACF075F006E9A42C12572634
:10433300126A3BA3E412581CF0A3126A41126BB831
:10434300902332122D3D40D37A007B00801C8A08D3
:104353008B09740378081209541251D2A374FEF026
:10436300A3041255FCA3E4126BB890233D1243AF90
:1043730040DC7A007B00801D8A088B09740378086F
:104383001209547498125EAC74111266F374FEF041
:10439300A304126BB89023431243AF40DB90233C3A
:1043A300E493900353F01243B9023BDCE493F8C364
:1043B300EA98EB9400227CE87D037A107B0090035B
:1043C300C2E0F912163F2274F012036E74F512085C
:1043D300B28A088B09890A8C0BE9A2E0501475088C
:1043E300FC7509FFA2E15005D2E402448CD2E3023A
:1043F300448C1250917003A3E06970057900024563
:1044030059AC0A7902AA08AB09120D8DE960EDE5F2
:104413000AF50C780C12080F79027CFE7DFFAA08BE
:10442300AB09124E0C12081EE96003024557E50A58
:10443300C2E5F50A9003B5E07051E50AA2E6404BE8
:104443007403120A74AC82AD83AA08AB09120B176A
:10445300E9703212472D8A0C8B0DA80CA90DE8FECA
:10446300E9FFE8496025EE24020A0AEF122A4D60AB
:104473001AEE2402FCEF3400FD7403120A74AA82BC
:10448300AB83121C8DE50AD2E5F50A900348E0F5EB
:104493000C900368E0F50EA3E0F50F780E12080BFD
:1044A3007D017C00900348E0F9AA0EAB0F120D4585
:1044B300740212081EE9F8900348E004F0E8600370
:1044C300024557E50AA2E55004740E80027406C043
:1044D300E07401120A74D0E0125B8E8A0E8B0FAE69
:1044E3000EAF0FEE4F606912457712458E888289B1
:1044F300837401F07478550AA3126B80E50C126B78
:1045030080A3E508F0E509124566E4F0E50AA2E5B3
:10451300500F7403120A74AC82AD83E8240612456B
:104523005D8E828F83A3A374FDF0A374FFF0E50B6C
:10453300601590234AE493F8E50BC3985009EE24E1
:1045430013125B61E50BF0EEFAEFFB120BD1800661
:104553007910800279C7740B8049FAE93400FB12A1
:104563001C8D2288828983A3A3A3A31245722212DE
:1045730058F5A322EE2417125B727401F0120F0791
:10458300EE241A125B72EAF0A3EB22F0126B74347E
:104593000012459822F58312459E22E0F8A3E0F924
:1045A30022740D12081E7F0802058974F612036E29
:1045B3007A007B1012607C60089003D47401F08051
:1045C3002990080FE064019012A17006E0FC7901C4
:1045D3008004E0FC79037A007B00120CAF90233057
:1045E3001245F07A007B101245FE023BDC1245F4C3
:1045F30022E493FC740193FD227B009003C2E0F953
:104603001216392274EC12036E8A088B098C0C8DF6
:104613000D890E7414120A74124FEB7416120A7475
:10462300E0F510A3E0F511120FA9E960077AFF7B0B
:10463300FF02472A9012A0E06402600302471D793B
:1046430000AA08AB09120D93A90E120D878A128BCB
:1046530013AE12AF13EE4F70030247058E828F83A2
:10466300A3A3A3A3A3E064018E828F83A3A3706992
:104673001252AA8E828F83A3A3A3A3A3A3E05418E9
:104683006043902348E4938E828F83A3A3A3A3F074
:10469300EA650C7003EB650D6014EA650A7003EBC1
:1046A300650B600AEA65107003EB6511701F7810E3
:1046B30012080BAC0AAD0BAA0CAB0D1210A57402B9
:1046C30012081E8008900367126066A3F074FE6AE6
:1046D300700374FF6B601D804EA3A3A3E0640360AB
:1046E300298E828F83A3A3A3A3A3E0640470057A16
:1046F300FE0246328E828F83A3A3A3A3A3E06402A8
:1047030070089003B4E06402701012472D8B0BEA1B
:10471300450B6006AA08AB09800DAA08AB099003F4
:10472300491240A9121E5A02665C900375124E127A
:104733001210692274F712036EEAFEEBFF120B6B81
:10474300E9700AEEFAEFFB120B77E96006EEFAEF77
:10475300FB80047AFE7BFF023B2874F012036E8A0F
:104763000A8B0B8C0E8D0F8909750800120FA9E9AE
:10477300790060030248D4AA0AAB0B120D93A9096E
:10478300120D878A0C8B0DAE0CAF0DEE4F60198E98
:10479300828F83A3A3A3A3A3E0640270559003B401
:1047A300E0640270030248D2AA0AAB0B90034F12D3
:1047B30040A9121E5A120B7D8A0C8B0DA80CA90D51
:1047C300E84970030248D288828983A3A3A3A3A3E1
:1047D300E0A2E040030248D2750C01A2E1506879DF
:1047E30001AC0AAD0BAA0EAB0F120CDFE970640229
:1047F30048D28E828F83A3A3A3A3A3E0640370058F
:10480300750C0280528E828F83A3A3A3A3A3E064BB
:104813000160030248D29003751248E28E828F83AF
:10482300124C378A0C8B0DA80CA90DE84960D19066
:104833002341E493FA88828983E0C39A50C2A3E0B8
:1048430060030248D280B988828983A3A3A3A3A368
:10485300D2E1F0EE4F603A8E828F83A3A3A3A3A38A
:10486300A3E05418602B7508018E828F83A3A312D3
:104873000658750CFE750DFF780C12080B7900AC09
:104883000AAD0BAA0EAB0F120DA5740412081E80FD
:104893003E900368E0650E7004A3E0650F7014900A
:1048A3002349E493FCA909AA0AAB0B120CAF7508C0
:1048B30001801CA90CAC0AAD0BAA0EAB0F120CDFC6
:1048C300E9700C750801A909AA0AAB0B120D39A9E5
:1048D300080245A9E50C2415F582E50D125B751256
:1048E30055D22274EA12036E74F01208B28A0C8B4A
:1048F3000D8C088D097426120A74E0F514A3E0F5F3
:10490300157512069003F5124E306023900375124D
:1049130048E2AA08AB091210938A108B11EA4511D9
:10492300600D8A828B83A3E070057900024C1FE53A
:104933000C241DF50EE50D3400F50F850E82124E85
:104943001CF51388828983A3A3A3E0FA8882898351
:10495300A3A3A3A3E0F9EA2400FEE439FFAA08AB6A
:1049630009120D3F850E82850F83124C5AE029F5FB
:104973000BE50AA2E5500375120E7487550A7017EA
:104983007418550A6418600FE50C2417F582E50DB9
:10499300126234651260077901121C75808C530A08
:1049A30078C3EE94F8EF94FF501D7900EEFAEFFB15
:1049B300124C29601288828983A3A3A3A3A3A3E033
:1049C3005418600302492D780812080B7D00124C1D
:1049D3004D12081EE9F8740368700302492DE8605C
:1049E30003024A987418550A7003024B4DE50AD224
:1049F300E0F50AA2E45004D2E1F50AA90A1252A38F
:104A0300124C29605388828983A3A3A3A3A3A3E0A1
:104A13005418604488828983A3A3A3A3A3E06401F9
:104A23007036E510451160309003751248E28882B4
:104A33008983124C378A0E8B0FA80EA90FE84960A1
:104A43001788828983A3E0600F851082851183A371
:104A5300125D83500302492DE50AF50E780E120804
:104A63000F124C4012081EE9702B7C007D00851448
:104A73008285158374FFF0A3F0850C82850D83A3D3
:104A8300A3A3A3A3A3A3A3E060031248D7A90B1274
:104A930052A3121723851482851583E0F47003A3B0
:104AA300E0F460399003B4E06402700302492D120C
:104AB3004FDCE0FAA3E01240A5121E5AEA65087023
:104AC30003EB6509600302492DEEFAEF1240A512CC
:104AD3001E5A851482851583EAF0A3EBF078081239
:104AE300080B7D01124C4D12081EA90AEEFAEFFBCA
:104AF300120D938A088B09A808A909900368E06836
:104B03007003A3E0696003024C10EEFAEFFB120B93
:104B13007D8A088B09A808A909E849606E888289FB
:104B230083A3A3A3A3E06401600D88828983A3A365
:104B3300A3A3E064027054851882851983AC82AD07
:104B430083EEFAEFFB120B178055900361E0600FC1
:104B5300E50AF50E780E12080F124C4012081EE5F6
:104B63000AF50E780E12080F79027CFE7DFFEEFA2D
:104B7300EFFB124E0C12081EE96003024A988514DB
:104B83008285158374FFF0A3024ADF120F07EAFC44
:104B9300EBFD851882851983AA82AB83121C8D8550
:104BA3000C82850D83A3A3A3A3A3A3A3A3E0640102
:104BB300700F1248D77408120A74AA82AB83121CAE
:104BC3008D124DE61259FA4430F508780812080F91
:104BD3007401120A74858208858309780812080B08
:104BE300740B120A74858208858309780812080BEE
:104BF300E513F508780812080F7900EEFCEFFD12B3
:104C030052A3120CD9740612081E02492D124DE646
:104C1300125B64124C5AE50BF0120F1F741012084A
:104C23001E7F0E020589120D878A0E8B0FA80EA90F
:104C33000FE84922A3A3125751121093227901AC12
:104C430008AD09125746124E0C22AC0BA91312578A
:104C530046120D45740222125A02A3A3A3A322747F
:104C6300F012036E74F01208B28A0C8B0DECFAED9D
:104C7300FB750F089003F5124E306014125D7C8AA9
:104C8300828B83E58245836007A3E07003024DE1D5
:104C9300124DE63400124E1CF50B88828983124DA7
:104CA300EFE0FBEC2400FEE43BFF88828983A3A3AF
:104CB300124DEFA3A3E0FBECF508E43BF509888272
:104CC3008983A3A3A3A3A3A3A3E0F50EE50AA2E408
:104CD3005003750F10A2E550067408250FF50F74E5
:104CE3008F550A700FE50C2417F582E50D12623417
:104CF300650F60087901121C75024DE1530A707843
:104D030000E50AA2E45022124DE61262342408FCA4
:104D1300A3E03400FD7408120A74AA82AB83121C48
:104D23008D7808E50AC2E4F50AE50AA2E5502812DF
:104D33004DE612623428F8A3E03400F9E82408FCB5
:104D4300E93400FD851882851983AA82AB83121C7E
:104D53008DE50AC2E5F50AAC0EA90BEEFAEFFB12DC
:104D63000D4BE9F87403686075900368E06E700397
:104D7300A3E06F605EE87054E50AF50F780F120840
:104D83000F124DFD12081EE97054780A12080F74B1
:104D930001120A7485820C85830D780C12080B743A
:104DA3000B120A7485820C85830D780C12080BE5AF
:104DB3000BF50A780A12080FA90EAC08AD09EEFA32
:104DC300EFFB120CD9740612081E8012740468706B
:104DD3000D80B7780A12080F124DFD12081E7410C9
:104DE3000245A6E50C241DF582E50D22A3A3A3E04D
:104DF300FC88828983A3A3A3A3227901124FE31220
:104E03005B75124E12124E0C22120D03740122E036
:104E1300FCA3E0FDAA08AB0922F583124222A3E01A
:104E2300F50A88828983A3A3E0229003391257AD40
:104E33002274E812036E74F51208B2EAFEEBFF8CDB
:104E4300088D0989147423120A74E0F50F7424126F
:104E53000A74E0F512A3E0F5137426120A74E0F560
:104E630016A3E0F5177428120A74E0F50EA90F12C1
:104E73000D518A108B117401120A747408F0E50E37
:104E8300A2E450037410F0E50EA2E55004E02408F8
:104E9300F0851882851983AA82AB83120F918A0C3D
:104EA3008B0DEA450D7003024FC3EA2417F582EB1D
:104EB300124FD5120F07E50C241AF582E50D125B8C
:104EC30064123B387403120A74AC82AD83AA10AB2C
:104ED30011120B17E9601D124FCD7403120A74A847
:104EE30082A983E50C2418F582E50D125B64E8F0D2
:104EF300A3E98024E50EA2E4501FE5106E7003E5DC
:104F0300116F7015124FCDE50C2418F582E50D12C3
:104F13005B64E512F0A3E513F0124FDC124FEB854F
:104F23000A82F5837402F0A3E50E124FF3E50FF046
:104F3300EE850A82850B83A3A3A3F0EF850A8285FE
:104F43000B83A3A3A3A3124FF3A3A3A3E508F0E545
:104F530009850A82850B83A3A3A3A3A3A3F0AA10A5
:104F6300AB11120D3FE92514850A82850B83A3A398
:104F7300A3A3A3A3A3F0750800E50EA2E45011AC0C
:104F830012AD13E50A2408FAE50B12455F7508080C
:104F9300E50EA2E55014AC16AD17E50A2508F8E5B1
:104FA3000B3400F9E8240812455D850C82850D83D6
:104FB300A3A3E510F0A3E511F0AA0CAB0D120BD1DE
:104FC300740B12081E7F10020589E50C2416F58266
:104FD300E50D125B757401F022124FE3125B75222B
:104FE300E50C126B7BE50D22E0F50AA3E0F50B223D
:104FF300F0850A82850B83A3A32274F212036E8ABF
:10500300088B09ECFEEDFF890A79001250917003B9
:10501300A3E069700479018073750B01900368E064
:1050230065087004A3E06509601F750B00780B1217
:10503300080FA90AEEFCEFFDAA08AB09120FE574ED
:105043000112081EE9F50B80417900EEFAEFFB121D
:105053000D87EA4B602B8A828B83A3A3A3A3A3A30D
:10506300E05418601C7508FE7509FF780812080BD8
:105073008A828B83A3A312065812699012081E809A
:10508300097901EEFAEFFB120C67A90B8014120DDC
:10509300938A0C8B0DA80CA90D900368E06822126B
:1050A300081E7F0602058974F412036E7508E07505
:1050B300090F7A101266988B0BEA450B70031243A3
:1050C300B9900353E014F0700C90233CE4939003E5
:1050D30053F0120D9F7E007F00806C850882850946
:1050E30083A3A3A3A3E06059F46056E5082404F561
:1050F30082E5091260607049850882850983A3A34C
:10510300A3A3A3E064037019790285088285098348
:105113001248E2850882850983A3A31252AA120CBE
:10512300DF850882850983A3A3A3A3A3E0640160A9
:105133001085088285098374FEF0A304125204E4E7
:10514300F01234F31230B69023361267F4408C7E9B
:10515300007F008039120EAD8E088F097403780822
:1051630012095474582508FC74113509FD7AEB7B38
:105173000C120E9BEA4B70DD8E088F0974037808BE
:105183001209541251D2126A3BE4F01234F3902301
:105193003DE493F8C3EE98EF9400501B8E088F09FB
:1051A300740378081209541251DAE82407F582E9E6
:1051B30012606070D680A17E007F00800A1251E5E4
:1051C300600214F01234F31267F140F1023D7D12D4
:1051D30051DA888289832274582508F874113509B5
:1051E300F922EEF8EFF9E875F006A4F8AAF075F0E5
:1051F30006E9A42AF974F828F582741039F583E0D6
:105203002212520BA3A3A322F0850882850983A34C
:10521300A32274F712036E74E11208B2ECFEEDFFE1
:10522300750800EE4F60728A828B83E0241C126043
:1052330091124E3060638A828B831252AA85188240
:10524300851983AC82AD83EA241BF582EB125F627E
:10525300EA241CF582EB1252A6120EEF740B120A0B
:10526300741252AE7003A3E069702E7402120A74B2
:10527300E064017024741D120A741240A9E06401F1
:105283007017741D120A741240ABA3A3E0F88E8248
:105293008F83E0687003750801A908741F023B251A
:1052A300124FE33400F58312575122122A0BE068A0
:1052B3002274F412036EE97024790090034D1240B6
:1052C300A9121E5A8A0A8B0BAE0AAF0B74FE6E70BC
:1052D3000374FF6F701A902344E493601379019071
:1052E300034D1240A9121E5A8A0A8B0BAE0AAF0B4A
:1052F300120F55023647E028F8A3E039F92274F675
:1053030012036E74F31208B21214FB8A088B09AEEF
:1053130008AF09900368E06E7003A3E06F60E912C1
:105323000F13EA6E7002EB6F60DEEEFAEFFB120F03
:10533300A9E970D4EE4F60D0851882851983E4F013
:1053430004120A74EEF0A3EF125364E970BA74FE08
:105353006E700374FF6F60B0EEFAEFFB740D023BE7
:10536300D9123C5E120B2F22C082C083120F55024A
:1053730037EB7F0A02058974F212036EEAFEEBFF34
:105383008C0A8D0B8908740E120A74E0F50974FCFB
:105393006E700374FF6F700579000250A5790012D7
:1053A3000D938A0C8B0DAE0CAF0D900368E06E70FD
:1053B30003A3E06F7006E509A2E650DCA9091268B1
:1053C3007E706179007AFE7BFF12687E70567418D6
:1053D300550970030254B1780079008003122C053B
:1053E300902336122BFC40030254B1E8FAE9FBEA9E
:1053F30075F007A4FAACF075F007EBA42CFB74E688
:105403002AF582740F3BF583E0541870D0E875F0E9
:1054130007A4F8AAF075F007E9A42AF974E028F8BC
:10542300740F39F988828983A3A3A3A3A3A3E054A8
:1054330018600974185509700302539B8882898385
:10544300EEF0A3EFF074FE650A700474FF650B6061
:10545300031255D888828983A3A3A3A3A3A3E50931
:10546300F0A2E0500D88828983A3A3A3A3A3A3D2B0
:10547300E2F07401650888828983A3A3A3A3A370C0
:105483003874011255FCE054186028902348E493C3
:1054930088828983A3A3A3A31255C61210938B0DED
:1054A300EA450D600302539B780079008039790245
:1054B30002539D900367E080D7E0640170030253B9
:1054C3009B88828983A3A3A3A3A3A3E054186007A3
:1054D300902348E4938004900366E0124566E50850
:1054E300F002539B122C0590233EE493FAC3E89AEF
:1054F300E99400400302539B7A007B00804BEAFC53
:10550300EBFDEC75F007A4FCAEF075F007EDA42EEF
:10551300FD74E22CF582740F3DF583125B7DE8FC8C
:10552300E9FDEC75F017A4FC85F00975F017EDA4FF
:105533002509FD74702CF582740E3DF583E06E70C1
:1055430003A3E06F609E1233C89023361230C64027
:10555300AD1245F0EC6A7002ED6B7088E875F017D8
:10556300A4F8AAF075F017E9A42AF9747028FE7458
:105573000E39FF7C177D007900EEFAEFFB1214EF72
:105583008E828F831255DE9003751255B8A3A3A3A1
:10559300A3A3A3E8F0A3E91255BE7401F0EE240E11
:1055A300125B6174011255E612021DEE240D125BAB
:1055B30061E80254E31239BAA3A322F0EE240F12D6
:1055C3005B7222F01255CFAA0AAB0B22900375E04F
:1055D300FCA3E0FD2288828983A3A3E50AF0A3E567
:1055E3000BF022F01255EB22902341E4932401F8AF
:1055F300E43400F97A027B0022124572A32274ED8F
:1056030012036E8A088B09890E12572F40057905FC
:105613000256FD12176BAA08AB09125801902332E8
:10562300125700650A7003E9650B70077AFE7BFF6A
:10563300125801902332E4125708E50A98E50B99B2
:1056430040030256FB12570C6012E50A75F006A4DC
:10565300F875F006E50B125757121591E50E601811
:10566300E50A75F006A4F8AAF075F006E50B1257E3
:1056730083701A79010256FDE50A75F006A4F8AAAB
:10568300F075F006E50B125764E4F0A3F0E50A7534
:10569300F006A4F8AAF075F006E50B125724A3123E
:1056A3005A1088828983A3AA82AB831257728A8293
:1056B3008B83E0603F12570C603A8E108F11751286
:1056C300007810120807E50EC333FCE433FDE50A46
:1056D30075F006A4F50AA8F075F006E50BA428F505
:1056E3000B74FC250AF5827410350B1252A8123282
:1056F300AE12081E790080027907026894122D5EAB
:10570300E8229004E912621B22E50A75F006A4F868
:10571300AAF075F006E50B12575FF8A3E0F9E84924
:1057230022A42A1258B888828983A322ECFEEDFFB3
:1057330090233FE493F8E9C39822F583125751125B
:10574300159122E50C126B7BE50D3400F583E0FA2D
:10575300A3E0FB2212575FFAA3E0FB22125764E097
:1057630022A42AF974FC28F582741039F58322E502
:105773000EF09012A212577C22E088828983F022D5
:105783001258DCF50CE93400F50DE50EC333FAE4E9
:1057930033FB12158B850C82850D83EAF0A3EBF0A6
:1057A300850C82850D831257AD2212459EE849224E
:1057B30074F412036EECFEEDFF740C120A74123BC8
:1057C300C588088909125801AC0AAD0BECF8EDF94C
:1057D3009023321258095021E875F006A4F8AAF074
:1057E30075F006E9125724E08E828F8312581C123B
:1057F3005812123BD1790080027904023D7D120DCB
:10580300158A0A8B0B221232A0C3EC9AED9B22124B
:10581300459A850882850983221258F12274F6126B
:10582300036E7E007F008028EEF8EFF9E875F0063E
:10583300A4F8ACF075F006E9A42CF974FA28F58203
:10584300741012649F6A7003A3E06B60571234F301
:105853001267F140D31267EC7002E96F704674FE71
:105863006A700374FF6B703C7E007F008003123408
:10587300F31267F1502E1251E570F3EEF8EFF9E8E9
:1058830075F006A4F81258AE1258E360171258CAFE
:10589300F8E91258C2888212573D85088285098328
:1058A300E4F0A3F0EEFAEFFB023BDC75F006E9123D
:1058B30058B622A42AF974F828F8741039F9223456
:1058C30000F98808890922EEF8EFF9E875F006A4D3
:1058D300F875F006E91258DC221258B6E8240422BF
:1058E300A3A374FE1258EE1257AD22F0A30412586C
:1058F300F522F088828983A3A3A3A32274F612035B
:105903006EEA241DF582EB1259FAF9604BEA241D65
:10591300F582EB1262342402FCA3E03400FD12573B
:105923003340030259ED780080298C828D83E0F5A2
:1059330008A3E0FFE5082400E43FF509E833FEE4AB
:1059430033FF74402EF58274113FF583125A1012FF
:1059530059F008E8C39940D28A828B83A3A3A3A3F7
:10596300A3A3A3A3A31248E2900368E06C7003A36C
:10597300E06D700F7C407D111229741252A6120D36
:10598300098067EA2411F582EB126234605CFC74CF
:10599300FF2CF0750801780812080F750840750987
:1059A30011780812080BE9F508780812080FEA24A1
:1059B30012F582EB126234F508780812080FEA2414
:1059C30015F582EB125B64120658ECF91229741276
:1059D30048DF8A828B83A3A3A3A3A3A3A3A3A312B6
:1059E30052AA120D21740712081E023BDCEC24029A
:1059F3000C0CED3400FD22125B75125A02E022E01A
:105A0300F8A3E0F5838882A32288828983E508F0DE
:105A1300A3E509F02274EA12036E74FD1208B28A38
:105A2300148B158C0E8D0F890D7419120A74125B69
:105A33007D741B120A74E0F511741C120A74E0F5EC
:105A43000C741D120A74124FEB741F120A74E0F5E2
:105A5300106008E50CC333240480027402C0E074B0
:105A630001120A74D0E0125B8E8A088B09EA450999
:105A73007003025B598A828B83A3A3E514F0A3E529
:105A830015126687E50EF0A3E50FF0EA2413F582FD
:105A9300EB125B64E50DF0EA2414F582EB125B6410
:105AA300E511F0EA2417F582EB12623464017040C9
:105AB300120F0D8A0E8B0FA80EA90F850882850978
:105AC30083A3A3A3A3E0687003A3E0696022EE4F5E
:105AD3006011E508241AF582E509125B64EEF0A370
:105AE300EF800CE5082417F582E509125B64E4F006
:105AF300125B68125B7D8E828F837405F0A3E510C1
:105B03007004E50C80487401250C125B877A0080D1
:105B130028850A82850B83E0125B83850A82850BC5
:105B230083A3E08E828F83F0E50A2402F50AE50B56
:105B33003400F50BA30EAF830AEAC3950C40D212CF
