:020000040000FA
:060000000200E9022003EA
:03000B0002200BC5
:03001300022013B5
:03001B0002201BA5
:0300230002202395
:03002B0002202B85
:0300330002203375
:03003B0002203B65
:0300430002204355
:03004B0002204B45
:0300530002205335
:03005B0002205B25
:0300630002206315
:03006B0002206B05
:03007300022073F5
:03007B0002207BE5
:03008300022083D5
:10008B0002208B00000080FB1200F8B90003020075
:10009B00E3E479217807B800028004F709D8FCE47F
:1000AB0090030178BF79038002F0A3D8FCD9FA90B2
:1000BB0005BFAA82AB839000FB78C379018015E45E
:1000CB0093A3AC82AD838A828B83F0A3AA82AB838A
:1000DB008C828D83D8E9D9E7120AFB12008E75D07A
:1000EB000075813F75180175190302009379012280
:1000FB000020000090200000932000000100000071
:10010B0000C80300000000000000040000C2010052
:10011B0000002600FFFFFFFFFFFFFFFFFFFFFFFFBA
:10012B000403090424035400650078006100730084
:10013B00200049006E0073007400720075006D00A2
:10014B0065006E0074007300240354004900200006
:10015B0043004300320035003300310020005500CE
:10016B0053004200200043004400430000035F00A3
:10017B005F0030005800000000000000000000008D
:10018B000000000000000000000000000000000064
:10019B000000000000003031323334353637383947
:1001AB00414243444546BD011202120212021202A1
:1001BB001A0212010002020000205104A8160900C5
:1001CB000102030109024300020100801909040026
:1001DB0000010202010005240010010424020205A3
:1001EB00240600010524010001070582034000409D
:1001FB0009040100020A0000000705840240000008
:10020B0007050402400000D8010000FB010000E0DC
:10021B0066701008A3E066700A08A3E06670040815
:10022B00A3E06622C008C3E096F50808A3E0964257
:10023B000808A3E096420808A3E09645087001D38E
:10024B00D00822BB0102E722C082C08389828A8345
:10025B00BB0003E08002E493D083D08222BB000E6C
:10026B00C082C0838A838982F0D083D08222BB0173
:10027B0001F7226016080808C6C313C618C613C6B2
:10028B0018C613C618C613C6D5E0EA22E026F60830
:10029B00A3E036F608A3E036F608A3E036F622E034
:1002AB00F608A3E0F608A3E0F608A3E0F622E0FACE
:1002BB00A3E0FBA3E0FCA3E0FD22EAF0A3EBF0A399
:1002CB00ECF0A3EDF022CAC0E0E6F0A308DAFAD016
:1002DB00E0FA22CAC0E0E0A3C582CCC582C583CDBB
:1002EB00C583F0A3C582CCC582C583CDC583DAE6B1
:1002FB00D0E0CA22600C08C6C313C618C613C6D5F5
:10030B00E0F422700422600D18C6C333C608C6334E
:10031B00C6D5E0F41822251810AF08F518400215C1
:10032B00198008F51840021519D2AF22C0D0251834
:10033B0010AF08F518500205198008F51850020582
:10034B0019D2AFD0D0222518F58210AF08F518407E
:10035B000215198008F51840021519D2AF851983BB
:10036B00222518F582E43519F58322E4732518C587
:10037B0082C0E0E51934FFC583C0E0E518C3958260
:10038B0024F910AF08858319858218800885831995
:10039B00858218D2AFCEF0A3E520F0A37808E6084B
:1003AB00F0A3DEFAEFF0A3E58124FBF8E608F0A357
:1003BB00E608F0A30808E608F0A3E608F0A3158109
:1003CB001581D0E0FED0E0F815811581E8C0E0EE94
:1003DB00C0E022851983851882E0A3FEE0A3F520F7
:1003EB007808E0A3F608DFFAE0A3FFE0A3C0E0E0A3
:1003FB00A3C0E0E0A3C0E0E0A3C0E010AF0885829B
:10040B00188583198008858218858319D2AFD0830C
:10041B00D082227403800474028000C0E0F40412C2
:10042B000351D0E01202D12274038000CCC0E0ED66
:10043B00C0E0E518C39CCCAD1950011D10AF068C64
:10044B00188D1980068C188D19D2AF1202DED0E0F0
:10045B00FDD0E0FC2274F51203788908740B1203AB
:10046B006CE0FEA3E0FF740F5508F50A750B0074E2
:10047B000B780A12030EEA2400F8EB3480F9E82417
:10048B0000E9350BF9E5C7F509A2AFE433F50AC26C
:10049B00AFE508C4540FFAE5C754F84AF5C7801CFA
:1004AB0088828983E08C828D83F088828983A3A8DC
:1004BB0082A9838C828D83A3AC82AD83EEFAEFFB92
:1004CB00EA24FF1EEB34FFFFEA4B70D48509C7E526
:1004DB000AA2E092AF7F040203DE74F71203787472
:1004EB000912036CE0F508A3E0F509ED900387F022
:1004FB00ECA3F0A37462F0A37473F0A3E0541FF0A9
:10050B00E508333354FCA3F0740678081202FFE5B8
:10051B000890038BF090038D7412F0A37442F07566
:10052B00D1FE75D601EA906271F0EBA3F090627088
:10053B00E0D2E1F0E0A2E740FB7F020203DEC082E3
:10054B00C083E9C333906272F0906270E0D2E0F046
:10055B00D083D0822274F812037874FF1203217EA9
:10056B00008033900383E0F8851882851983E06857
:10057B00700D900381E0644D70051207B7E9FE9092
:10058B000384E4F0900386F0851882851983E0F8E4
:10059B00900383E068F07901851882851983AA821C
:1005AB00AB83120A7DE9700302065EE0C0E09003A4
:1005BB0086E0F8900384E0FAE82AF8E434001209A4
:1005CB0037D0E0F0900386E0601114602014603E99
:1005DB0014604E14606414608A80AD85188285198E
:1005EB0083E064FE70A29003867401809A9003836B
:1005FB00E4F0851882851983E0900385F0C394801D
:10060B009003864004E40205927402020592851859
:10061B0082851983E0900381F090038674030205B1
:10062B0092851882851983E0900382F0900385E010
:10063B0060199003867404020592900384E004F021
:10064B00F8900385E06860030205939003867405B8
:10065B00020592EEF974011203377F010203DE7477
:10066B00ED12037874FB12032175080475090078E9
:10067B0008120422740312036C12094F120337740D
:10068B000312036CE0FAA3E0FBEA4B601A7401124D
:10069B00036C120949E849600E740112036CE0F413
:1006AB007003A3E0F470030207AB74FF6A7003746A
:1006BB00FF6B6003020791740112036C74FFF0A3CC
:1006CB00F07508009005BF78101202AA800A9005F9
:1006DB00C3781012021A604D750A01750B00780A67
:1006EB00120422740212036CAC82AD8385100A854E
:1006FB00110BAA0AE50B5407FB8A0C85110D851209
:10070B000E85130F740B780C12027EA90C1209596B
:10071B00120337851882E0F9AA08AB0912095F8A20
:10072B00088B0980089005C778101202AA9005CB98
:10073B0078101202979005CF781012022F508FE489
:10074B00F912095FE4F912095F740312036CEAF002
:10075B00A3EBF075080175090078081204227403E5
:10076B0012036CAC82AD837A247B081204E574020D
:10077B001203377508047808120422740312036CF1
:10078B0012094F120337740112036C1209497403D7
:10079B0012036CE0687003A3E069700479018002B6
:1007AB00790074051203377F0C0203DE74F3120316
:1007BB007874FC120321900305E0FAA3E0F8E4C877
:1007CB00F9EA2400FEE93408FF750A018809880854
:1007DB008E0C8F0D7409780C1202FFA90CEEF50C20
:1007EB00EF5401F50D900382E014600914602C1492
:1007FB0060670208E7EA450D7003120549750C1096
:10080B00750D00780C1204227C077D03EEFAEFFBCA
:10081B001204E574021203370208E7E9C394794026
:10082B00067509010208E7750A40750B00780A1274
:10083B0004227C087D037402780C12030EAA0CAB05
:10084B000D120959120337900306E0A3F09003052C
:10085B00E0A3F0750A430208E7750C04750D0078E8
:10086B000C120422740212036C12094F1203377418
:10087B000212036C120949851882851983E068708E
:10088B0003A3E069603D120943740212036CE8F0A4
:10089B00A3E9F0750C01780C120422740212036C9C
:1008AB00AC82AD837A247B081204E5740212033701
:1008BB00750C04780C120422740212036C12094F8B
:1008CB00120337120943740212036CE0687003A31E
:1008DB00E06970057508018003750907900304E052
:1008EB00D2E7F0E509A3F0E50A900302F0744D6539
:1008FB000AF5097404250AFB7A038004E062090AED
:10090B00EAF83395E0120937EAC39BA2D265D033DC
:10091B0040EAE509F074012AF97A017B03120ABD5A
:10092B00A90874041203377F060203DEF974012849
:10093B00F582740339F58322851882851983E0F8D3
:10094B00A3E0F922AC82AD837A907B007904120488
:10095B0060740222C008C0097C088A088B09740FD6
:10096B0078081202FFEAC333FAEB33FBE9A2E75034
:10097B000474014AFAE508A2E0500874216AFA747B
:10098B00106BFBE9C333F91CEC70CFD009D00822F4
:10099B00C082C08380031212C7A2E840F9A823E8E3
:1009AB00540460097823E654FBF6120F90A823E851
:1009BB00541060097823E654EFF6120FAEA823E823
:1009CB00A2E05005782354FCF690620EE0FA740412
:1009DB00F0906214E0A2E05042E5A8F8C2AF90623A
:1009EB0016E0F9A3E0E9FBE8A2E792AF801F906263
:1009FB0028E0C0E0900390E0F8749128F58274032E
:100A0B003400F583D0E0F0900390E004F0EBFC743D
:100A1B00FF2C1B0470D8906214E4F0EA90620EF085
:100A2B00E0FD7404F0906211E0A2E0403B90049270
:100A3B00E0F8900491E068602F7A40900491E0F820
:100A4B00749328F58274043400F583E0906228F0E7
:100A5B00900491E004F008900492E06860041AEAB4
:100A6B0070D99062117401F0ED90620EF0D083D0CA
:100A7B00822274F8120378E9FE7900801F90038FAD
:100A8B00E0FC74912CF58274033400F583E08A82C8
:100A9B008B83F090038FE004120AF00990038FE030
:100AAB00F8900390E0686005E9C39E40D07F010297
:100ABB0003DEC082C08380228A828B83E0C0E090F9
:100ACB000492E0FC74932CF58274043400F583D00B
:100ADB00E0120AF0900492E004F0E9F874FF281990
:100AEB000470D58088F08A828B83A3AA82AB832281
:100AFB00794A120C9A53BEFBE59DA2E650FA007898
:100B0B00F8790100E824FF18E934FFF9E84970F39C
:100B1B0075C6807480659E70FA43BE0490627074D3
:100B2B0008F0120BED12066AE96013E59D54186488
:100B3B00107003120BF8120BAB120C158003120B77
:100B4B00AB794E120C9A9005D3780C1202AA802422
:100B5B00C280D2919005D3780C1202AA12099B90F5
:100B6B0005CB780C1202979005D7780C12022F50F8
:100B7B00EB120BF812099B120560E9600612066A6C
:100B8B00E970CD850D099005CB780C120297E5091C
:100B9B00544060E0A2805004C28080D8D28080D4C0
:100BAB00C082C08353F4FEC29043FE017403F5D59B
:100BBB0075D4879005DB1202B99005931202C5908C
:100BCB000597E4F0A3F0A37408F0120F567AFF7B9D
:100BDB00FF12128253F4FED29043FE01120BED0270
:100BEB000A78D28043FD01C29143FE0222C280D219
:100BFB0091A29250FCA29350F8D280C29102200095
:100C0B00C2AF75C9AB75C95B80FE74F11203787402
:100C1B00FF1203219005DF780C1202AA8004C29107
:100C2B00C28012099B7901851882851983AA82AB30
:100C3B0083120A7DE96012E064F86045E064077096
:100C4B00089005D3780C1202AAA2925034A29350AA
:100C5B001E850C08850D09850E0A850F0B9005E383
:100C6B00780C120297E5084509450A450B700312EB
:100C7B000BF8850D09E509542070A3D280D2918021
:100C8B00A1D280C29174011203377F080203DE7870
:100C9B001075B60FE5B4A2E750FAE5BBC39940F166
:100CAB0018E870ED22C082C0839005B6E0F874227C
:100CBB0068700A9005A3E0701A740280157420689E
:100CCB009005A3700BE0700B120D079005A380E944
:100CDB007404F08043C082C0839005B6E064219019
:100CEB0005A37013E07013120D07A37407F0A3E4B0
:100CFB00F09005A30480027404F0801C9005B0747E
:100D0B0093F0A37405F0A3E4F02280028000C0826C
:100D1B00C0839005A37404F0D083D0822280EF228D
:100D2B0022D083D08222C082C083E9FCEAFD7A0004
:100D3B007B0080081890059BE0120D8890059AE0C7
:100D4B00F8A3E0F9900677E0687003A3E069602BE5
:100D5B0090059AE0240108A3E03400F98882898386
:100D6B00E4936C700E90059AE0FAA3E0FB18120D59
:100D7B00888008E4936D70BCED60B980A4F583881E
:100D8B0082E493F890059AE028F8A3E03400F990F8
:100D9B00059AE8F0A3E9F022C082C083120DB47A61
:100DAB00007901120D31020D2C900675E0F8A3E0CD
:100DBB00F990059AE8F0A3E9F02274F7120378E9A9
:100DCB00FEEAFF120DB47A007902120D31EA4B6084
:100DDB001CEE60108A828B83A3A3A3A3A3E4936E60
:100DEB0070E48009EFF874FF281F0470D97F0202AA
:100DFB0003DE74F5120378EAFF8B087A00120DC537
:100E0B007A027904120D31EA4B60188A828B83A324
:100E1B00A3E4936F70EA8A828B83A3A3A3E4936505
:100E2B000870DD7F040203DE74F712037874F0128E
:100E3B000321E97A007B00600C1460101460141419
:100E4B006018020F3E7AEF7B05020F3E7AF37B05AB
:100E5B00020F3E7A177B06020F3E90063BE06003C3
:100E6B00020F3A740812036CAC82AD83758305755F
:100E7B0082E774081202DE750808F5097808120477
:100E8B0022740212036CAC82AD837AE87B07797F04
:100E9B0012046074021203377808120422740A12C7
:100EAB00036CAC82AD83740212036CAA82AB831207
:100EBB001A6674021203378B09EA4509701D75090E
:100ECB000078081204227C0C7D78740212036CAA41
:100EDB0082AB83121ABC74021203377C287D008DFF
:100EEB0008851882851983E5822508F582E5833408
:100EFB0000F583E0FF8C08743B2508F8740634007A
:100F0B00F9EF120F4688828983F0EFC4120F46C0A7
:100F1B00E0E824FEF582E934FFF583D0E0F00D74B0
:100F2B00FC2CFCEDC3940840B690063B742AF07A77
:100F3B003B7B067410120337020DF8540FFA7465DD
:100F4B002AF58274063400F583E022C082C0837ACE
:100F5B00007901120DC58A828B83A3A3A3A3A3A33C
:100F6B00A3E493A2E69005AF500474018001E4F072
:100F7B009005AEE4F090620F7403F0E0A2E750FB33
:100F8B00D083D08222C082C08390059C7402F0A3D0
:100F9B00E4F09005A3F079031211E475210075229A
:100FAB000080DD74F612037890620EE0FEE4F090A0
:100FBB006211E0F50AA2E4501D7480F09005A37451
:100FCB0007F0E521452260098521828522831203E2
:100FDB00769005A3E4F0E50AA2E2500B906211E4CF
:100FEB00F09005A3F080789005A3E0F87402687088
:100FFB0057906216E0FF9005B0120433EFF97A2098
:10100B007B6212121C74031203378F089005B31204
:10101B0011B91211C4E0F8A3E0F9E8496004744077
:10102B0080027448906211F0E8497014E521452262
:10103B0060098521828522831203769005A3E4F053
:10104B00EE90620EF00212627406687009852182BE
:10105B008522831203769005A3E06003021150E50D
:10106B000AA2E050DB7508B5750905750A0078080A
:10107B0012041E79087A207B6212121C740312036D
:10108B00377521007522009005B5E054E0601C24F3
:10109B00E0700302112A24E0606F24C0604524E055
:1010AB00700302113524E0606B8030A3E014601CE8
:1010BB0024FE601324FE600A24FC601524FE6016D7
:1010CB008019121544806C121538806712152C800C
:1010DB00621218BE805D1219EC80589005A374043F
:1010EB00F08058A3E0600E24FA600F24FE601024F9
:1010FB00FE601180E6121368803912158C80341251
:10110B00188E802F12198C802A75211575220D12BD
:10111B000D15801F75211775220D120D1780147573
:10112B0021B075220C120CB080097521E075220CD0
:10113B00120CE09005A3E0640470047460800274E8
:10114B0040906211F09005A3E0F8740168704B7544
:10115B000A029005B3E0F8A3E0F9C3E89420E99400
:10116B00005007E8FF750A0A80027F209005B01235
:10117B000433EFF97A207B621212407403120337A7
:10118B008F081211C41211B9E50A906211F0EFC366
:10119B009420400302104B02103774056860030261
:1011AB00104B85218285228312037602104BC3E0FC
:1011BB009508F0A3E09400F0229005B0E0F9A3E0CD
:1011CB00FAA3E0FBE92508F9EA3400FA9005B0E947
:1011DB00F0A3EAF0A3EBF0A32274F71203787800E4
:1011EB00880874A42508F582740512121040F17852
:1011FB0000880874A92508F582740512121040F1B5
:10120B007F020203DE3400F583E9F008E8C394059E
:10121B002274F6120378EAFCEBFDE9F8740A120368
:10122B006C121272600D8C828D83E01202681212A6
:10123B006770F3802274F6120378EAFCEBFDE9F891
:10124B00740A12036C121272600D12024E8C828D94
:10125B0083F012126770F37F030203DEE9240109A6
:10126B00EA3400FA18E822E0F508A3E0F509A3E058
:10127B00A908AA09FBE82274F712037875230075F5
:10128B0024007525008A268B27EA90620BF08A08CA
:10129B008B09740478081202FFE508906207F08A44
:1012AB00088B09740978081202FFE508543E906216
:1012BB0009F0758B00C2E87F020203DE74F712039C
:1012CB0078E59DA2E650FA906206E0FAA2E250356C
:1012DB00A826E890620BF0F50885270974047808B6
:1012EB001202FFE508906207F0852608852709742E
:1012FB000978081202FFE508543E906209F09062EB
:10130B0001E0D2E0F07823EA46F6906202E0F508BD
:10131B007509007404780812030E7823E50846F665
:10132B0008E50946F6906204E0F5087509007409B2
:10133B00780812030E7824E50946F6EAA2E050037A
:10134B0075250174065A6003752500E58BA2E550DF
:10135B0006758BDF752500120D2B0212BD74F7126B
:10136B0003781219817011A3E0F8A3E0700AA3E0CF
:10137B0064027002A3E060089005A3740402143B9E
:10138B009005B5E02480600814602A14603780E86B
:10139B00E870E59005AFE06004780180027800907A
:1013AB0005BDE8F0A3E4F09005AEE060689005BDE4
:1013BB00E04402805C90059CE0640470BB9005BD2A
:1013CB00E4F0A3804FE8547FF50890059CE064049B
:1013DB0070A6E508C39406509F749C2508F582748B
:1013EB00053400F583E854806010A3A3A3A3A3A343
:1013FB00A3E06403701578018013E582240CF58259
:10140B00E5833400F583E0640360EB78009005BD61
:10141B00E8F0A3E4F09005A3E0640460149005B039
:10142B0074BDF0A37405F0A3E4F0A374021219E3E6
:10143B00F07F020203DE74F7120378E9FE9005BB1E
:10144B00121984701090059CE0640460109005B92B
:10145B0012198460089005A374040215269005B533
:10146B00E0541F600814600D14602480E89005B7E9
:10147B00E0640160057900021529EE9005AEF0607D
:10148B00047905800279067A00120D2A021527903D
:10149B0005B9E0547FFA9005B7E070D9EAC394061A
:1014AB0050B3EA90620EF08A08749C2508F8740514
:1014BB003400F99005B9E05480602CEE6004741090
:1014CB0080027440906211F0EE600474038001E4BA
:1014DB0088828983A3A3A3A3A3A3A3F0EE600479BB
:1014EB000880317907802DEE6004742080027480AF
:1014FB00906214F0EE600474038001E4C0E0E82411
:10150B000CF582E93400F583D0E0F0EE6004790A43
:10151B0080027909120D2A90620EE4F0790102140F
:10152B003C7900121441E97003120D192279011252
:10153B001441E97003120D2822C082C0839005B9B3
:10154B001219847015A3121984700F9005B7121716
:10155B00255480FAE9FBEA4B60079005A3740480DD
:10156B001AE8906200F090059C6009E06402700C30
:10157B0074038007E0640370037402F0D083D0829D
:10158B002274F31203789005B7E0FAA3E014600815
:10159B00146019146047805C120DA3121702A37B11
:1015AB008012024EA3F0A3E4F00216BC7900120DD8
:1015BB00C51217027B80E924020909EA3400FA12EA
:1015CB00024EFC1919E0FAA3E92403090909EA34CC
:1015DB0000FA12024EF9ECA3F0A3E980CBEAF91260
:1015EB000E339005B0EAF0A3EBF0A3E4121711A3AE
:1015FB007B0080AD9005B0E4F0A3F0A3F0F50B9069
:10160B000679E0FAA3E0FB021697750900740378DC
:10161B000812030EEA2508F8EB3509F99005B71205
:10162B00171BE493C0E0EFFCD0E06C705DA3E49378
:10163B006E70579005B912171BA3A3E493C0E0EF8C
:10164B00FCD0E06C704488828983A3A3A3E4936EDF
:10165B00703888828983A3A3A3A3E493F50874014C
:10166B0093F5099005B0E508F0A3E509F0A37480A4
:10167B00F088828983A3A3A3A3A3A3E493F87401A3
:10168B0093F99005B3E8F0A3E9F0050B850B0890EF
:10169B00067B121725C39AF50CE99BF50D7403789D
:1016AB000C1202FFC3E508950CE4950D50030216CE
:1016BB00159005B0E0FCA3E0FDA3E0FEEC4D4E90D1
:1016CB0005A3700474048029E0640460259005BBB5
:1016DB00E0FAA3E0FB9005B3E0F8A3E0F9C3EA98C6
:1016EB00EB9950089005B3EAF0A3EBF09005A374C7
:1016FB0001F07F060203DE9005B0EAF0A3EBF0A346
:10170B00748012171122F09005B0E0F9A3E0FA22D1
:10171B00E0FEA3E0FF8882898322E0F8A3E0F9E8EA
:10172B002274EE120378EA2404F8EB3400F98808EB
:10173B0089098882F583E493602590067D1217252D
:10174B00FEE98007EE2404FEEF3400FF8E828F83C8
:10175B00E493F8740193F9EA687002EB6970E5752C
:10176B000C0080409062147490F074101218827008
:10177B0003750D408E828F83A3A3A3E49355106052
:10178B0006E50DD2E0F50DE50D906215F0EA9062DD
:10179B0013F0EC240CF582ED3400F583E4F0906249
:1017AB000EF0050C850882850983E493F8E50CC3DC
:1017BB0098400302187D7A007905120D318A0E8B41
:1017CB000FEA450F60DCEA2402F8EB3400F9880AD3
:1017DB00890B8882F583E493540FF51290620EF017
:1017EB00750D008A828B83A3A3A3A3E4932407F52F
:1017FB0010A3E4933400F511740378101202FFAABE
:10180B0010851210749C2510F874053400F9E8FC4F
:10181B00E9FD751001751100E512781012030EE544
:10182B000E2403F8EB3400F9850A82850B83E493CD
:10183B00A2E7400302176F9062117448F07408120C
:10184B0018827003750D408E828F83A3A3E493558A
:10185B00106006E50DD2E0F50DE50D906212F0EA91
:10186B00906210F08C828D83A3A3A3A3A3A3A302E6
:10187B0017A77F0B0203DEF088828983E49354035E
:10188B00640122C082C0831219817010A3121984C3
:10189B00700AA3E064017002A3E060079005A374D3
:1018AB0004800C9005B0749DF0A374051219D9F047
:1018BB0002158774F412037890059CE0640260149F
:1018CB009005B9121984700CA31219847006900537
:1018DB00B8E060099005A37404F002197C7A0079D2
:1018EB0001120D2A9005B7E060727A00F9120DC54E
:1018FB008A088B09EA4509605B90059C7404F0909B
:10190B0005B7E090059DF0750C008508828509836D
:10191B00A3A3A3A3E493F8E50CC398504D850C0A3D
:10192B00749E250AF874053400F9E8FEE9FF8E82EF
:10193B008F83E4F07A007904120D318A828B83A3B2
:10194B00A3A3E493F88E828F83E06870E712172CC1
:10195B00050C80B69005A37404F0800E90059DF0E5
:10196B0090059C7403F0F91211E47A007902120DC0
:10197B002A7F050203DE9005B7E0F8A3E0F9E849FA
:10198B002274F612037890059CE06404701990059C
:10199B00B5E064817011121981700C9005BBE06485
:1019AB00017002A3E060079005A37404801A9005F0
:1019BB00B9E0249EF508A3E03405F5099005B0E5E0
:1019CB0008F0A3E5091219D9F07F030203DEF0A397
:1019DB00E4F0A3041219E322F0A3E4F09005A304AE
:1019EB002274F712037890059CE064047010900544
:1019FB00B5E0640170089005BB121984600890056E
:101A0B00A37404F080529005B7E0FB9005B9E0FA9F
:101A1B0090059DE0F9120DFD8A088B09AE08AF0900
:101A2B00EE4F60DA9005B9E0FA7903120D2A9005B2
:101A3B00B7E0C0E09005B9E0249EF8A3E03405F9C7
:101A4B0088828983D0E0F0EEFAEFFB12172C900519
:101A5B00B9E0FA7904120D2A02143C74F8120378D7
:101A6B00740812036CE0F8A3E08015A3AA82AB8381
:101A7B008C828D83A3AC82AD83E824FF18E934FFFD
:101A8B00F9E84960238A828B83E0FE8C828D83E0A8
:101A9B006E8A828B8360D4E0F88C828D83E0FAE8C7
:101AAB00C39AFA95E0FB80047A007B007F01020366
:101ABB00DE74F7120378740912036CE0FEA3E0FFE7
:101ACB00EAF8EBF980188C828D83E088828983F0A9
:101ADB00A3A882A9838C828D83A3AC82AD838E084D
:101AEB008F09E50824FF1EE50934FFFFE5084509CA
:071AFB0070D47F020203DE3C
:04000005000000E90E
:00000001FF
