:020000040000FA
:06000000020A390201DAD8
:03002B0002088444
:0300430002066C46
:0300530002010B9C
:1000830002016F0101FF01010503010F10FEFF9B38
:10009300139B139B139B134B1245129B13CC2100F1
:1000A3000000009022000000000C0000000C000182
:1000B300FF01010100F1060000006E07E803640080
:1000C3006400B80102020010000005020701051ECA
:1000D30002051E020A0A03B80B02803E010201FF59
:1000E300FF010A1401E0965118000202170A0601E3
:1000F300030507090B0D0F00020406080A0C0D0186
:10010300FF030006000231D4C0E074F21203F3A22D
:10011300AFE433FED2AFE5A7FFE5A1F5085F5410C6
:100123006006121B2175A1EFE5085F5408600812F1
:100133001B2775A1F7802BEFA2E0C0D0E508A2E052
:1001430092F0120973158182F05017906198E0F8CC
:10015300900C51E0C398A2D265D0335002E8F075F9
:10016300A1FEEEA2E092AF7F01020452C0E074F25E
:100173001203F3A2AFE433FED2AF9061A4E0F875AB
:100183009B00E59158540860087591F7121B6F8026
:100193002AE59158541060087591EF121B75801B66
:1001A300E8A2E0C0D0E591A2E092F01209731581B4
:1001B30082F05007E0C2E0F0121CC59061A3E0F8A2
:1001C300E5E9585404600E121C9B75E9FB9061939A
:1001D300E0A2E640F2808BC0E074F21203F3A2AF18
:1001E300E433FED2AF9061A5E0F8E5BF5854046054
:1001F3000675BFFB121CDD020165C3E498F8E499A0
:10020300F912023E8026C3E49AFAE49BFBE920E755
:10021300E912023EE498F8E499F922C3E498F8E479
:1002230099F912023EE498F8E499F9C3E49AFAE4DE
:100233009BFB22EB20E7CFE920E7E0B90010BB00EE
:1002430008E88AF084F8AAF022E4FBC8FA22EB70EB
:10025300227B10C833C8C933C9335007C39AC3DBE1
:10026300F280069A50012ADBEAC833F4C8C933F492
:10027300C9FA2275F008E4C833C8C933C933C99A27
:10028300C99B5004C92AC93BD5F0ECFBC833F4C859
:10029300E4C9FA22080808EAC0E0EBC0E086F0E708
:1002A300A4FA180986F0E7A42AFA180986F0E7A445
:1002B3002AFA180986F0E7A42AFA1986F0E7A4FBBC
:1002C300E5F02AFA190886F0E7A42BFBE5F03AFAE1
:1002D300190886F0E7A42BFBE5F03AFA181809860B
:1002E300F0E7A4C5F02BFBE43AFA1908E7C5F0C61A
:1002F300A426F6E5F03BFBE43AFA1886F0E7A4F609
:10030300E5F00826F6E43B08F6E43A08F6D0E0FB0D
:10031300D0E0FA22E4CFC0E0E4CEC0E0E4CDC0E018
:10032300E4CCC0E075F020C3E633F608E633F60804
:10033300E633F608E633F6181818EC33FCED33FD14
:10034300EE33FEEF33FFC3EC9709ED9709EE970900
:10035300EF97191919400FFFEC97FC09ED97FD0969
:10036300EE97FE191906D5F0BEECF709EDF709EE85
:10037300F709EFF7191919D0E0FCD0E0FDD0E0FE42
:10038300D0E0FF222518C582C0E0E51934FFC583FC
:10039300C0E0E518C3958224F810AF08858319855A
:1003A30082188008858319858218D2AFCEF0A3E521
:1003B30020F0A37808E608F0A3DEFAEFF0A3E581C6
:1003C30024FAF8E608F0A3E608F0A3E608F0A30889
:1003D30008E608F0A3E608F0A315811581D0E0FE36
:1003E300D0E0F8158115811581E8C0E0EEC0E02268
:1003F300C0D02518C582C0E0E51934FFC583C0E02D
:10040300E518C3958224F310AF08858319858218F4
:100413008008858319858218D2AFC8F0A3E9F0A3B9
:10042300EAF0A3EBF0A37908E709F0A3D8FAECF01C
:10043300A3EDF0A3EEF0A3EFF0A3D0E0F0A3D0E0A0
:10044300F0A3D0E0F0A3E520F0A3E5F0F0A322852C
:100453001983851882E0C0E0A3E0F9A3E0FAA3E0E2
:10046300FBA37808E0F608A3DFFAE0FCA3E0FDA312
:10047300E0FEA3E0FFA3E0C0E0A3E0C0E0A3E0F55B
:10048300D0A3E0F520A3E0A3F5F010AF088583190E
:100493008582188008858319858218D2AFD082D0CF
:1004A30083D0E0F8D0E032120A9BB900030204ECD7
:1004B300E49004D17866790F8002F0A3D8FCD9FACE
:1004C300901336AA82AB83900086788679018015D3
:1004D300E493A3AC82AD838A828B83F0A3AA82AB1D
:1004E300838C828D83D8E9D9E77582ED75837D741A
:1004F300001207FC7582D175831F74001207FC1567
:100503000075F0108E1A8F1B85821F85831E851838
:1005130082851983E0CEA3E0CF851F82851E83EBFE
:10052300C9EAC8EDCBECCAC3E833C8E933C9EA3337
:10053300CAEB33CBC3EA9EF51DEB9FF51CB3500406
:10054300AB1CAA1DEC33CCED33CDD5F0DAAE1AAF2C
:100553001B22D083D082ECC0E0EDC0E0E493A3FC87
:10056300E493A3FDED4C600D12062DEC24FFFCED8E
:1005730034FFFD80EFE493A3FCE493A3FDED4C6013
:100583000D120707EC24FFFCED34FFFD80EFD0E0F4
:10059300FDD0E0FCE493A3C0E0E493C0E022D08369
:1005A300D082E9C0E0E493A3C386F0C5F095F0F9E7
:1005B30008E493A386F0C5F095F0700BE493A3C30E
:1005C300994005E9048002A3E475F002A42582F5AD
:1005D30082E5F03583F583D0E0F9E493A3C0E0E44A
:1005E30093C0E022851983851882E0A3FEE0A3F57A
:1005F300207808E0A3F608DFFAE0A3FFE0A3C0E059
:10060300E0A3C0E0E0A3C0E0E0A3C0E0E0A3C0E05B
:1006130010AF088582188583198008858218858321
:1006230019D2AFD083D082020802C0E0C3E493960C
:10063300087401939618400FE493667008087401D8
:1006430093661870007019A3A3C3E493960874010A
:10065300939618A3A3400DD0E0D0E0D0E00205911B
:10066300A3A3A3A3A3A3D0E022C0E074F21203F3D5
:10067300A2AFE433FED2AFC2C0901335E0700BE5F6
:10068300D1A2E45017121A978012E5D1A2E35003C6
:1006930075D1F7E5D1A2E4500375D1EFEEA2E09254
:1006A300AF7F010204527404800474028000CCC042
:1006B300E0EDC0E0E518C39CCCAD1950011D10AFAF
:1006C300068C188D1980068C188D19D2AF12077EEF
:1006D300D0E0FDD0E0FC2274028000CCC0E0EDC08D
:1006E300E0E518C39CCCAD1950011D10AF068C1862
:1006F3008D1980068C188D19D2AF12075CD0E0FDDE
:10070300D0E0FC22C0E0C0F088F0E49366700808F3
:1007130074019366187000A8F0A3A3700BD0F0D0F7
:10072300E0D0E0D0E0020591A3A3D0F0D0E022D046
:1007330083D082CCC0E0E493A360061207DD14707B
:10074300FAE493A360061208CE1470FAD0E0FCE436
:1007530093A3C0E0E493C0E022CAC0E0E493A3C53E
:1007630082CCC582C583CDC583F0A3C582CCC582A7
:10077300C583CDC583DAE5D0E0CA22CAC0E0E0A3D1
:10078300C582CCC582C583CDC583F0A3C582CCC544
:1007930082C583CDC583DAE6D0E0CA22C008C3E0B0
:1007A30096F50808A3E096420808A3E096420808D5
:1007B300A3E09645087001D3D00822700908080801
:1007C300226016181818C6C333C608C633C608C62F
:1007D30033C608C633C6D5E0EA22C0E0E493A3D308
:1007E3009C5010E493A3C39C400AD0E0D0E0D0E037
:1007F30002074FA3A3A3D0E022C09FF59FE473D0C9
:100803009F22D083D082C09FE493C0E0740193C041
:10081300E0740293F59F222518F58210AF08F518AE
:10082300400215198008F51840021519D2AF851931
:1008330083227404800A74038006740280027401A4
:10084300C0E0F40412081AD0E0120A7622C0D025C0
:100853001810AF08F518500205198008F518500252
:100863000519D2AFD0D022BB0102E722C082C083D8
:1008730089828A83BB0003E08002E493D083D08221
:1008830022C0E0C0D0E8C0E0E5A8D2AFC2C7A2E76B
:1008930092AFD0E0F8D0D0D0E0326016080808C696
:1008A300C313C618C613C618C613C618C613C6D5AF
:1008B300E0EA22C3E0C696F608A3E0C696F608A3CC
:1008C300E0C696F608A3E0C696F622C0E0E493A33A
:1008D3006C7009D0E0D0E0D0E002074FA3A3D0E0D2
:1008E30022251810AF08F518400215198008F518CD
:1008F30040021519D2AF22E76670100809E7667047
:100903000A0809E76670040809E76622C3E0960847
:10091300A3E09608A3E09608A3E096A2D265D0339D
:1009230022E066701008A3E066700A08A3E0667010
:100933000408A3E06622C3E096F008A3E096F0085B
:10094300A3E096F008A3E096F022E026F608A3E0E1
:1009530036F608A3E036F608A3E036F622E627F6D5
:100963000809E637F60809E637F60809E637F622F6
:10097300C0E0E8C0E0E58124FCF8E6A2E7D0E0F8B7
:10098300D0E022700422600D18C6C333C608C633F4
:10099300C6D5E0F41822E657F60809E657F6080923
:1009A300E657F60809E657F622E056F608A3E0569E
:1009B300F608A3E056F608A3E056F622E056F00840
:1009C300A3E056F008A3E056F008A3E056F022E6B1
:1009D30047F60809E647F60809E647F60809E64731
:1009E300F622E026F008A3E036F008A3E036F0088C
:1009F300A3E036F022E4C396F608E496F608E496FC
:100A0300F608E496F622C6F4C608C6F4C608C6F489
:100A1300C608C6F4C622C3E7960809E7960809E79D
:100A2300960809E79622C3E09608A3E09608A3E098
:100A33009608A3E0962275D0007581407518D1758C
:100A43001904000204AAE0F608A3E0F608A3E0F6FE
:100A530008A3E0F622600C08C6C313C618C613C663
:100A6300D5E0F422E6F008A3E6F008A3E6F008A335
:100A7300E6F022CAC0E0E6F0A308DAFAD0E0FA22F0
:100A8300E0FAA3E0FBA3E0FCA3E0FD22EAF0A3EB82
:100A9300F0A3ECF0A3EDF022E5C754F84401F5C749
:100AA3007901222518F582E43519F58322C2AF7541
:100AB300D69F02000022120805A9DF02120805DDF5
:100AC300DF0212080512E002120805F4E002120820
:100AD30005A9E102120805FEE3021208054BE5022F
:100AE300120805EEE5021208053DE7021208055B50
:100AF300E702120805E12400120805162500120872
:100B0300053C2500120805762500120805882500F6
:100B1300120805DA25001208053B2600120805C550
:100B23002600120805692700120805B127001208DC
:100B330005EB27001208050828001208052D2800D8
:100B43001208057F2800120805982800120805BE20
:100B53002800120805F928001208053D290012088B
:100B630005642900120805B52900120805652A0045
:100B73001208051D2B00120805E52B00120805A518
:100B83002C00120805E92C001208050E2D0012088E
:100B930005512D001208059E2D00120805F62E00A2
:100BA3001208057C2F001208059A2F00120805C4AD
:100BB3002F00120805DE2F00120805ED2F00120882
:100BC30005F82F00120805B830001208051131008E
:100BD300120805D33100120805DB31001208055F46
:100BE3003200120805A53200120805E63200120889
:100BF300057634001208052E35001208059A3500D3
:100C0300120805C53600120805EA3600120805FB6E
:100C13003600120805713700120805033800120860
:100C2300055B38001208051B39001208053A390024
:100C3300120805493A001208055B3A00120805AE8E
:100C43003A00120805EB3A00120805F83A001208B8
:100C5300057B3C00120805DA3D001208050C3E0036
:100C6300120805A73E00120805E03E001208052CF5
:100C73003F0012080548400012080591420012087F
:100C8300059C4200120805A74200120805B2420063
:100C9300120805BC4200120805C74200120805E10C
:100CA3004200120805EB4200120805F54200120843
:100CB300050043001208050B4300120805334300E7
:100CC3001208058E4300120805984300120805BC5C
:100CD3004300120805E043001208053E44001208D1
:100CE300058244001208059E4400120805154500BC
:100CF3001208054D4500120805994500120805F62E
:100D03004500120805B04600120805944800120871
:100D130005ED48001208051D4A00120805434A0064
:100D2300120805CC4B00120805484F001208051A9B
:100D33005100120805E352001208059053001208EF
:100D430005FB54001208059A5500120805E75500E3
:100D5300120805515600120805605600120805E7EF
:100D63005800120805995A00120805065B0012087C
:100D730005E55B00120805FE5C001208057B5E00BA
:100D83001208059A5E00120805EF5E00120805F4CA
:100D93005F001208051C6000120805746000120849
:100DA30005536100120805976100120805E261000E
:100DB3001208054D62001208058E6300120805F241
:100DC3006300120805406500120805A067001208B9
:100DD30005D16700120805896900120805DE69005C
:100DE300120805E26A001208057F6B00120805D895
:100DF3006B001208058B6C001208052D6D0012089C
:100E030005CD6D00120805726E001208057582018A
:100E1300120805BE82011208053685011208057500
:100E23008501120805BF8501120805FD8601120818
:100E3300055C8701120805908701120805CE87011A
:100E4300120805418901120805048C0112080537AF
:100E53008D01120805CD8D01120805249701120892
:100E630005BE9701120805A59A01120805BF9B014B
:100E7300120805209C011208053C9D0112080582F9
:100E83009E01120805649F0112080549A101120879
:100E9300055AA301120805C8A3011208059AA40163
:100EA30012080551A5011208055BA5011208058A60
:100EB300A50112080547A6011208051EA70112087D
:100EC30005E5A70112080580A801120805F7A80186
:100ED30012080520A90112080542A901120805926A
:100EE300AB011208056AAC01120805AEAC01120889
:100EF3000516AD01120805CEAD0112080500AE01BD
:100F030012080544AE011208057AAE01120805C69F
:100F1300AE011208051BAF0112080520AF0112082C
:100F23000573AF0112080598AF01120805A8B001B7
:100F330012080520B1011208057CB1011208050849
:100F4300B201120805F7B401120805DAB501120857
:100F53000571B701120805A7B90112080555BA01B1
:100F630012080506BB0112080548BD01120805EB6E
:100F7300BD0112080532BE01120805DEBF011208C9
:100F830005F2BF01120805FCBF0112080524C001C8
:100F930012080530C0011208054FC0011208059957
:100FA300C201120805CEC201120805D8C2011208F7
:100FB30005E2C2011208053DC30112080599C301E8
:100FC300120805ADC4011208050EC5011208055D1E
:100FD300C601120805A1C60112080549C701120876
:100FE300052CC801120805D7C80112080523CA0138
:100FF30012080521CB01120805C7CB0112080557BA
:10100300CC011208056ECC01120805A5CC0112080B
:1010130005AFCC01120805BACC01120805D8CC01E2
:101023001208051CCD0112080579CD011208059E91
:10103300CD01120805B8CD011208054ACE011208E8
:101043000574CF01120805EBCF01120805D2D001B8
:1010530012080508D1011208057CD101120805F612
:10106300D101120805FAD201120805F0D3011208C2
:1010730005A5D40112080562D5011208053BD60166
:10108300120805D7D60112080564D70112080542D4
:10109300D8011208057AD801120805D2D80112081E
:1010A300059BD901120805BCD90112080543DA01D1
:1010B30012080567DA0112080589DA01120805D258
:1010C300DA01120805E8DC01120805CFDD01120878
:1010D300057ADE01120805B7E00112080507E101F0
:1010E30012080547E10112080589E101120805E329
:1010F300E10112080511E20112080535E2011208A7
:101103000588E201120805B6E201120805EFE201C3
:101113001208054EE301120805BBE3011208050A94
:10112300E5011208052DE70112080596E7011208EB
:1011330005BFE7011208054AE801120805B6E801F0
:1011430012080501E90112080525E90112080549FC
:10115300E901120805A5E901120805C0E901120811
:101163000579EA01120805788002120805BE80029B
:101173001208059E8102120805A08202120805A327
:1011830083021208052F85021208058D85021208B5
:10119300054A8602120805688702120805D98702E4
:1011A3001208051588021208056388021208056DE6
:1011B3008802120805B188021208050D8902120877
:1011C30005A88902120805258A02120805F48A0275
:1011D3001208058D8B02120805AD8B02120805E378
:1011E3008B02120805148C02120805D58C02120812
:1011F30005E58C02120805398D02120805548D028B
:10120300120805668D021208056F8D02120805C9C2
:101213008D02120805258E02120805718E0212082E
:10122300058C8E02120805BD8E02120805DA8E02A5
:10123300120805E68E021208055A90021208057379
:101243009002120805DA9002120805ED90021208C6
:1012530005FB9002120805AF910212080593920252
:101263001208059993021208052394021208052D0A
:1012730094021208059A9402120805B19402120806
:1012830005E394021208051C95021208054695020F
:10129300120805A79502120805C79502120805E56D
:1012A30095021208052B960212080551970212089F
:1012B300059E9702120805CD97021208054398026E
:1012C3001208056B9802120805A49802120805B2C9
:1012D30098021208050A9902120805599902120880
:1012E30005989902120805C89902120805F4990293
:1012F300120805FF99021208051D9A02120805DF5C
:101303009A02120805E99A02120805249B021208A0
:10131300053A9B02120805439B02120805989B029B
:10132300120805AC9B02120805BA9C02120805CDEF
:101333009C02120805E29C02120805849D02120811
:1013430005079E02120805C59E02120805D09E02DB
:10135300120805FC9F0212080518A0021208056A6C
:10136300A002120805A9A002120805BEA0021208D5
:101373000520A102120805AFA102120805FAA10275
:101383001208054BA402120805C9A4021208053E5F
:10139300A50212080560A70212080578A702120821
:1013A300057BA70212080587A7021208059BA7025F
:1013B300120805A3A702120805D6A702120805867C
:1013C300A802120805FCA8021208056FA902120858
:1013D3000523AA02120805D8AA02120805F7AA02D1
:1013E30012080597AB02120805A3AB02120805CE3B
:1013F300AB02120805D1AB021208053BAC0212087E
:101403000563AD021208053BAE02120805C6AE0223
:10141300120805DFAF021208059CB002120805D5B9
:10142300B00212080506B102120805C4B10212087F
:1014330005F4B102120805CFB20212080568B3021F
:10144300120805F3B302120805A4B4021208052713
:10145300B50212080559B5021208059AB502120819
:1014630005A1A70312080506A80312080543A8034C
:1014730012080592A803120805A8AA031208058BEF
:10148300AC03120805F5AF0312080530B0031208C8
:101493000552B00312080511D602120805E9B0037C
:1014A3001208050CB10312080539B103120805959A
:1014B300B103120805DC9B031208055A9C031208AA
:1014C30005909C03120805FC9C031208056F9E03FC
:1014D3001208058B9E03120805D09E031208055EB1
:1014E3009F03120805B79F03120805E4A00312081F
:1014F300058DDF0212080553A203120805BFA203DC
:1015030012080520A30312080561A3031208050EA0
:10151300A40312080520A5031208054BA50312080E
:101523000596A503120805DDA5031208056FA6039A
:101533001208052AA70312080579FF021208058776
:10154300FF02120805D8FF02120805F49E041208D0
:10155300055DA00412080516DF0312080562DF0308
:10156300120805D0DF03120805F1DF03120805A1F5
:10157300E003120805AAE003120805FDE0031208C0
:101583000526E1031208058DE1031208051EE20397
:1015930012080560E203120805AAE203120805090E
:1015A300E30312080535E303120805C6E303120833
:1015B3000505E40312080544E40312080579E4036E
:1015C3001208058BE4031208059DE403120805D0F5
:1015D300E40312080510E5031208052F9D04120801
:1015E30005D590041208050B9104120805549104C3
:1015F300120805A49204120805B3EA01120805F2C1
:10160300EB011208052EEC01120805EDED0112089D
:101613000516EE01120805A9F001120805EDF00107
:1016230012080576F2011208050EF3011208057679
:10163300F30112080517F40112080559F401120801
:101643000599F40112080524F60112080594F7011F
:10165300120805B9F901120805E7F9011208050E88
:10166300FA0112080517FA011208059EFA01120879
:1016730005BCFD011208051BA00412080531A004D6
:1016830012080580830412080593830412080530A9
:1016930084041208056B8404120805868404120866
:1016A30005AB8404120805F084041208052185049F
:1016B300120805528504120805D886041208053F4E
:1016C30099041208058F9904120805DA990412087F
:1016D300053F9C04120805819C04120805C39C0461
:1016E300120805D39C04120805DD9C041208058228
:1016F300E702120805C4E702120805CFE802120840
:10170300059FE902120805B4E902120805FEE90281
:1017130012080560EA0212080573EA02120805B40A
:10172300EA0212080593EC021208059AED02120868
:1017330005D5ED02120805ACEF02120805BBEF0256
:101743001208050AF00212080520F0021208052DFE
:10175300F00212080566F0021208057FF002120873
:101763000522F1021208057CF102120805CAF102F2
:10177300120805EFF20212080511F3021208059987
:10178300F502120805C7F50212080550F602120801
:1017930005C8F602120805D4F60212080510F7026E
:1017A3001208056FF7021208056CF802120805A06B
:1017B300F802120805AAF802120805ADF802120889
:1017C30005BCF80212080539F90212080554F9029A
:1017D30012080576F902120805A2F902120805DDBE
:1017E300F902120805ECF902120805F7F9021208CA
:1017F3000533FA021208054D9B041208055E9B048B
:10180300120805E69B04120805E1B103120805500E
:10181300B20312080557B403120805BCB503120836
:10182300057EB703120805C6B703120805B8B80347
:10183300120805E9B90312080514BA03120805785A
:10184300BA03120805F7BA031208052BBB031208E3
:10185300052EBB0312080531BB03120805C9BB03E0
:101863001208050080031208052E8003120805796B
:101873008103120805F78103120805738203120816
:1018830005DC82031208051F8303120805A88303DE
:101893001208054E8403120805DA84031208051C96
:1018A3008503120805658903120805E58A031208F2
:1018B30005C38B03120805F28B03120805248E035C
:1018C300120805A490031208055D91031208057A16
:1018D3009203120805D19503120805E19503120836
:1018E300054E9703120805DA97031208050A9903B0
:1018F300120805F69903120805619A0312080544B4
:101903009B03120805BE6E00120805786F001208CB
:1019130005EA6F00120805867000120805F67000CC
:10192300120805DA7300120805B174001208051EC7
:1019330075001208059B76001208056577001208EA
:1019430005D57700120805D97800120805277A0013
:101953001208053A7B00120805D37B00120805998B
:101963007C00120805CAC50312080559C6031208EC
:1019730005ADC603120805F9C60312080544C703DB
:1019830012080584C703120805D4C7031208054AC1
:10199300C903120805FDC90312080540CA0312084A
:1019A300055CCA03120805B4CA031208050CCB036D
:1019B30012080533CB031208055FCB031208052F6A
:1019C300CC0312080544CD031208051ECE031208EA
:1019D3000577CE03120805B7CE03120805018C0460
:1019E300120805328C04120805EC8C041208055207
:1019F3008D04120805E08D04120805697E001208A3
:101A030005CE9F04120805DF9F041208053DFE0161
:101A13001208054BFE01120805E7FF0312080581B2
:101A23009E04120805919E04120805A39E04120841
:101A330005EB9E041208054B9A04120805D09A047C
:101A4300120805349B04120805F57F00120805F8F7
:101A53007F00120805BDFB03120805CBFB03120828
:101A63000545FC0312080529FD03120805E2FE03E0
:101A7300120805F99F041208056CFA02120805D82A
:101A8300FA021208059FFB02120805A9FC021208BC
:101A93000502FE021208055DFE02120805B2FE02EF
:101AA300120805C3FE02120805D5FE021208053FFF
:101AB300FF0212080553FF0212080565FF02120810
:101AC3000504EA0312080559EA0312080555EC0355
:101AD30012080587EC03120805A9EC03120805C2D6
:101AE300EC03120805DBEC03120805E5ED0312080D
:101AF3000580EE031208050793041208052B9304CF
:101B0300120805449304120805779304120805A8E4
:101B13009304120805D69304120805389404120896
:101B2300054794041208055194041208055E9404B1
:101B3300120805EF860412080515870412080552DA
:101B430087041208056187041208058087041208B8
:101B530005E88704120805F1870412080550880474
:101B63001208057488041208053389041208054015
:101B73008904120805518904120805929F0412086A
:101B830005AF9F04120805F7EE031208054FF00393
:101B93001208055CF0031208056FF0031208058EA6
:101BA300F003120805A4F003120805B8F0031208A5
:101BB300052DF10312080592F10312080542F20301
:101BC30012080517F30312080527F3031208053655
:101BD300F3031208054EFF0312080572FF031208F0
:101BE300059AFF03120805C2FF03120805768E0447
:101BF3001208059D8E04120805BE8E0412080523E3
:101C03008F041208057F89041208059889041208B5
:101C130005A48904120805B88904120805D68904A5
:101C2300120805E08904120805EA8904120805FD73
:101C330089041208055F8A04120805988A041208A9
:101C430005C78A04120805158B04120805648B0462
:101C53001208057F8B04120805898B04120805B04E
:101C63008B04120805F68B04120805029E04120861
:101C7300051E9E041208053BA00412080568CF0345
:101C830012080592CF03120805AECF03120805C14F
:101C9300CF03120805D7CF0312080534D003120867
:101CA3000567D003120805A8D403120805CED5038F
:101CB30012080501D6031208054DD6031208058F35
:101CC300D703120805B7D703120805CCD7031208A8
:101CD30005DCD70312080520D80312080581D803B1
:101CE30012080591D803120805F996041208051481
:101CF30097041208053D9704120805579704120824
:101D0300057C97041208059B9704120805B39704F2
:101D1300120805E19704120805FB97041208054E03
:101D23009F041208050080041208050780041208A6
:101D3300051381041208054381041208056981040F
:101D43001208058C8104120805AE8104120805E807
:101D530081041208054E82041208058782041208C2
:101D630005D38204120805008304120805208304A6
:101D7300120805E9BB0312080524BC031208055D1C
:101D8300BC03120805F3BC0312080522BE031208A4
:101D93000598BE0312080537C203120805689404A8
:101DA3001208058A9404120805AF9504120805B2B7
:101DB30095041208052C98041208059E980412082D
:101DC30005DC98041208051D9904120805BFD80301
:101DD30012080506D90312080539DB0312080504A6
:101DE300DC03120805D9DE031208056FF30312089A
:101DF3000591F303120805F0F30312080584F403B5
:101E0300120805E2F70312080501F803120805504A
:101E1300F8031208056CF8031208059DF80312086D
:101E230005ADF803120805BAF803120805C7F8034D
:101E3300120805B3F903120805F1F903120805FBAB
:101E4300F90312080508FA0312080518FB03120820
:101E53000523FB0312080535FB031208053EFB03AC
:101E630012080548FB0312080539E5031208057E2D
:101E7300E9031208059AE903120805B59504120847
:101E830005C9FF0112080557D40212080507D2023B
:101E93001208058ED10212080535D102120805C5B4
:101EA300D0021208059CD0021208057CCE0212084B
:101EB3000548CE0212080515CE02120805F9CD0217
:101EC30012080512CD02120805CACC021208051524
:101ED300CB0212080595CA0212080592CA0212081B
:101EE300058FC9021208055DC9021208059AC802C6
:101EF300120805C5C60212080556C60212080528AF
:101F0300C60212080525C6021208052DDF021208B3
:101F130005E5DE0212080533DE02120805A5DD021F
:101F230012080598DD0212080512C602120805BD43
:101F3300C502120805ACC50212080592DA0212089E
:101F4300059EC40212080568C40212080516C402DD
:101F5300120805B7C302120805F4D702120805F6E2
:101F6300A10312080586C3021208054EC002120817
:101F7300050EC00212080502C00212080562BF0264
:101F8300120805A2BE021208051ABC02120805AB0C
:101F9300B90212080569B9021208053DB802120810
:101FA30005F2B7021208052EB70212080501B7029F
:101FB30012080539B60212080509B602120805BD52
:101FC300D602120805CFB502120805B5B00300000A
:101FD3000080FBE4738F000100E507870001009494
:101FE30013240002006F1325000200711326000260
:101FF30000731327000200751328000100771329CB
:102003000001007813840004007913860001007D29
:10201300132A0001007E132B0001007F132C000103
:102023000082132D000800D0072E00010083132F18
:102033000001008413300001008513310001008684
:102043001332000100D80733000100D9073400011F
:1020530000871336000100DA0738000100881339BE
:10206300000100811383000200921363000100E466
:102073000764000100CD076500010080136D0001B6
:102083000091136E000200CE074300010089134440
:102093000002008A13450001008C13460002008DE4
:1020A3001347000800DC07480001008F134B0001B1
:1020B300009013040001009513A100010098133749
:1020C30000010097138800010096133C000100DB18
:1020D3000700000000000000013636010100010284
:1020E30001000103010001040106060502000007C7
:1020F3000100340801000F090401010D0100FF0E66
:1021030008000017020000190100FF1A0100011B5B
:102113000100FE1C0100081D0200001F0100012038
:10212300010001210200002301000F240200002608
:1021330001000127010008280200FF2A0100072BE4
:102143000102402C0100002D0100012E0100012F8E
:102153000100FF30010B1C310800003A0100083B6D
:1021630001000F2F01000003027102300160021110
:102173000270020102020202028002100261023AAC
:1021830000410063027302720262024302000213FF
:1021930002380000020002040212020002000200E0
:1021A30002000204020402370037003C024402002A
:1021B30002390000020002650200023502810200BA
:1021C30002050282028302000203007100300160F3
:1021D30000110070003102200350048000100061E0
:1021E30000000014006300730072006200430000EB
:1021F30000130006000000000004001200000000AD
:10220300000000000004000400370037003C0244D3
:1022130000000000000000000065000000350081A0
:1022230000000005000000830000000304710402A5
:102233000460041104700402040204010402041083
:102243000461040004140463047304720462044309
:10225300040004130406040004000404041204002C
:10226300040004000400045104640000040004009A
:10227300044404000400040004000465040004355D
:102283000481046400050400048304000401037151
:1022930003010301030103010301032203020301F9
:1022A3000310030003000300030003000300030003
:1022B3000342030003240306030003000304031281
:1022C300032503230325032303040304030003005B
:1022D30003000344030003000323030003650321F6
:1022E300003503810300030503000300030003011A
:1022F300017101010101011101010131010101011B
:10230300018001100161013B00140063017301723C
:1023130001620143010001130106013D013500047F
:102323000112010001000100010001040104013355
:102333000133013C01440132013600000100016513
:1023430001000135008101000105018201830100C3
:102353000136000100060000000F0000000000002D
:102363000000000000000003FFFF00000403FFFF64
:102373000000FFFF0FF4010005C404032000010067
:10238300130B000000000000000003010F01610EA9
:1023930006970E08910E0BAF0E10D10D0AC70E0251
:1023A300670E05850E076D0E0C430E0D550EFF00CF
:1023B3000000001D191300B71801001D1902008148
:1023C300180300871804008D180500931806009F52
:1023D30018FFFF0000A512D512AB12B112CF12C322
:1023E30012BD12DB12E112E712F312B7129F129918
:1023F3001200160F00000B150B020002220F320011
:1024030000065A6967426565416C6C69616E636574
:1024130030399B13AD13B3136F12B91369127512CD
:10242300140AE5D5C5B5A5A59585857565FB13196D
:10243300141F1401140D140714A911A311DF11E5BE
:1024430011D911911100011916181616152303003D
:1024530000383C3E363B3B352B432C000349484276
:102463004D1817250502303016181920231A1C1E83
:1024730030303017181921301B1D1F300C0E020B82
:10248300040B0A0708000FC912ED121314F912FF07
:1024930012EF13BF13C513D113CB130204020101AF
:1024A30001010902B511BB11AF11EB1100BE040A02
:1024B300C111D311FA0623240E0004007F00E803A0
:1024C3000C000000000028000908100C0A0308098A
:1024D30000040003FF1E1E010C040510050874F61A
:1024E30012038774FF1208E4851882851983E4F0C8
:1024F300858208858309780812083D7508017509E6
:1025030000780812083D122535740412085074012E
:10251300023E9F74F61203878C088D09780812080F
:102523003D75080B750900780812083D1225350220
:102533003E9D12255E12166B2274F61203878C08D9
:102543008D09780812083D75080B75090078081283
:10255300083D12255E121671023E9DEA75F00BA42A
:10256300FAA8F075F00BEBA428FBEAFCEBFD7A2349
:102573007B0022C082C0838A828B83E0D2E7F01281
:1025830017BB023AA7C082C0837900122B04125EE4
:102593004AC082C083900504124BC8D083D082C343
:1025A300E09CA3E09D500C12651EFAA3E01225B92E
:1025B300600109023AA7FBEA75F00BA4FAA8F075CB
:1025C300F00BEBA428FB900506E02AF8A3E03B8878
:1025D30082F583E0540F2274F71203878908122BC4
:1025E30004122BAAACF075F00BE9A42CF9900506A4
:1025F300E028FEA3E039FF740165086006740265F4
:102603000870208A828B83122B96123E9774026580
:1026130008701B122A55122BDD70138E828F83E4F0
:10262300F0800BEA2403FCEB122B78122B84EEFAD6
:10263300EFFB120B07023DEE74F4120387126E4593
:1026430079008E828F83E06076890A890B8065E545
:102653000A75F00BA4FAA8F075F00BE50B1225C66A
:102663007046E50A75F00BA4F8AAF075F00BE50BBC
:10267300122BBC8E828F83E0850882850983122CFE
:102683009E850882850983A3123E97EE2403FCEFFF
:10269300122B81123C651258C4AA08AB09120B070E
:1026A30079019005041252D1E50A2401F50AE50BDC
:1026B3003400F50B122A5DE50A9AE50B9B40900264
:1026C300404374F5120387EAFEEBFF740B120AA66C
:1026D300123C6A750A01EC4D602BEC126E61ED122F
:1026E3005E4A123E8F7901120B13E5084509606FAC
:1026F300850882850983A3126E4F7902AA08AB0964
:10270300120B13805AE5084509602B125E4E1245E1
:1027130010123C66122BC7700CEEFAEFFB120B196A
:10272300E9F50A80CBEE2403FA122AFF703179030C
:10273300EEFAEFFB80CA8E828F83A3E064FE700300
:10274300A3E0F4700BEE24030A0A0A122AFF700CAA
:10275300EEFAEFFB120B19E9F50A8003750A00A9DB
:102763000A7F030205E774F7120387900504123DFD
:10277300FEEA4B602FEA75F00BA4FAA8F075F00B94
:10278300EBA428FBEAFEEBFF1215ED900506123DC4
:10279300FE9005061251166012EEFCEFFD79001251
:1027A30015638007900506E4F0A3F0023DEE74F68E
:1027B300120387E4F508F509780812083D9005042B
:1027C300124BC8EC75F00BA4FCA8F075F00BEDA44C
:1027D30028FD7A237B001216657402120850E9FE65
:1027E3006003120B3102605D74F71203877E007F72
:1027F30000800AEEFAEFFB120AF5123683122873F1
:1028030040F1023DEE74F71203877E007F008012D1
:10281300122AE2FCA3E039FDEEFAEFFB120B0112E0
:10282300368312287340E9023DEE74F71203877E64
:10283300007F008033EEF8EFF9E875F00BA4F8AAF7
:10284300F075F00BE9A42AF99005061255DF88828A
:102853008983E0A2E7500EC2E7F0AC82AD83EEFAC3
:10286300EFFB120AFB12368312287340C8023DEEB7
:10287300900504124880C3EE98EF9922C082C0836A
:10288300EC4D6005121DC780097C087D007900129C
:102893001563023AA774F61203877900EA4B6018AE
:1028A30078008808126191EB12651A600479017847
:1028B3000808E8C3940840EA023EA274F7120387AB
:1028C30074F31208E4ECFEEDFF851882851983E4A6
:1028D300F004120AA6EAF0A3EB12564A7403120A92
:1028E300A6AC82AD83EEFAEFFB120B43EEFAEFFBDD
:1028F300120B49023DE974F712038774F31208E4DB
:10290300ECFEEDFF851882851983E4F0EAFCEBFD0C
:102913007403120AA6122C977401120AA6123E8B94
:102923008E828F83123E9774FE68700374FF696012
:1029330004790180027900023DE974F7120387EA02
:10294300FEEBFF12299B70141229A68E828F83E05F
:10295300F4F88A828B83E058F0120B07A908023D32
:10296300EE74F7120387EAFEEBFF7508008E828F81
:1029730083E0602212299B701D1229A68A828B8311
:10298300E08F838E82F8E058700CE0F88A828B83A4
:10299300E048F0120B0780C4120B0DE9F50874012F
:1029A300650822126E5A122BAE122AF0FAA3E039EE
:1029B300FB2274F41203878A088B097C007D0012C2
:1029C3002A55122B84122B15126E4C79008508821E
:1029D300850983A3E064FE7003A3E0F460717E00C5
:1029E3007F008062EEFAEF1225B96057EEFAEFFB33
:1029F300EA75F00BA4FAA8F075F00BEBA428FB9092
:102A03000506E02AF50AA3E03BF50B850882850954
:102A130083A3125590850A82850B83A3E06A700312
:102A2300A3E06B701EE50A2403FAE50B122B00707A
:102A33000AE50A2403FCE50B122B81122B09790109
:102A4300125E60123683122A5DEE9AEF9B40950266
:102A53004043EA24030A0A0AEB22900504125A3778
:102A6300C32274F31203878A088B098A828B83A398
:102A7300126E4F122B04126E4C750C00122A551253
:102A83002B0070547E007F008049122AE2FAA3E0F3
:102A9300398A82F583E0540F6036122AE2F50AA3DD
:102AA300E039F50BE50A2403FCE50B122B8B34000C
:102AB300FB121DC1E964017017850A82850B83A38C
:102AC300125AF8A3123E97122B09750C01125E607D
:102AD30012368312287340B2A90C7F050205E7EE74
:102AE300F8EFF9E875F00BA4F8122AF022AAF075B2
:102AF300F00BE9A42AF9900506E02822EF122BD760
:102B030022126E60EB22122B15125E5BEEF0A3EF26
:102B1300F022E508126E61E5092274F5120387EAD3
:102B2300FEEBFF8E828F83A3126E4F7C007D00EE3F
:102B330024030A0A0AEF122B84EEFAEFFB120B0DA1
:102B4300E9F50A7401650A7029126E5A122BAAAAB2
:102B5300F075F00BE9122BBC850882F583122B96D6
:102B6300122BC7700DE5082403FCE509122B78121C
:102B73002B840227623400FDEE2403FAEF22122B8A
:102B83008B3400FB120B43223400FDE5082403FAC7
:102B9300E50922A3122B9B22122B9F22E0F8A3E02C
:102BA300F98E828F83A322122BAE223400F5831277
:102BB3004884E875F00BA4F822122AF6F508A3E07E
:102BC30039F50922E8F0A3E9F0E5082403FAE50959
:102BD300122BD722122BDD6401223400FB120B4986
:102BE300E92274F312038774E61208E4126E457542
:102BF3000C01750800750900750A00750B0085182E
:102C030082851983E4F0EE2403FCEF3400FD7403A2
:102C1300120AA6122C97E964017023740B120AA6F8
:102C2300123E8F7401120AA61255947003A3E06931
:102C33006051851882851983858208858309740DFF
:102C4300120AA6E4122C9E740E120AA6123E977460
:102C53000D120AA6AA82AB83120B67E96401700BFB
:102C6300740D120AA685820A85830B780A12083D21
:102C7300AC08AD09EEFAEFFB120B1F7402120850F9
:102C8300E9F50CEEFAEFFB120B61A90C741A1208AA
:102C930050022ADD122F6A120B6D22123DF91248DF
:102CA3008022C082C083780079008003122D9512A0
:102CB3002A5DE89AE99B5029E8FAE9FBEA75F00BEB
:102CC300A4FAACF075F00BEBA42CFB900506E02AFC
:102CD300FCA3E03B8C82F583E0540F70CF79008036
:102CE300027901023AA7C082C0839005021248D636
:102CF300EC75F012A4FCA8F075F012EDA428FD7990
:102D0300FF7AC67B0C121563023AA774F712038786
:102D1300E9FEEAFF7A007B00780079008028E8FC6E
:102D2300E9FDEC75F012A4FC85F00875F012EDA432
:102D330025081231AAC39E400AE0FCEFC39C40035E
:102D4300123558122D9512319E40D3023DEEC082AA
:102D5300C083780079008003122D95122D89501FAE
:102D63001231AEF470F2E875F012A4F8AAF075F01F
:102D730012E9A42AF974C628FA740C39FB80047A80
:102D8300007B00023AA7900502123430C3E89AE9A7
:102D93009B22E8240108E93400F92274F012038726
:102DA30074F31208E48A0A8B0B8C0C8D0D8908ECE2
:102DB300450D6016AA0CAB0D120BBB8A0E8B0FAE22
:102DC3000EAF0FEE4F6003022E5C120B918A0E8B37
:102DD3000FA80EA90FE8FEE9FFE849607C9024C71D
:102DE300122EBE60227403650860067404650870C1
:102DF300167A047903120B8B9024C7122ED5400741
:102E03007A007B00022EBB9024C5122EBE601B7479
:102E1300016508600674026508700F7A0279011271
:102E23000B8B9024C5122ED550D685188285198315
:102E33007401F0120AA61258C4AC0CAD0D7403123F
:102E43000AA6122F63740B120AA6123C721242795D
:102E5300E41258AC1210F58004EE4F604A78007407
:102E6300FF2508C39404500278048E828F8312587E
:102E7300C48E828F83A3A3A3A3E508F0E88E828F79
:102E830083A3A3A3A3A31258CC12023612344D8EEC
:102E9300828F83A3A3A3A3A3A3A3F0123444120A90
:102EA30083125E44120A8F122EC3400590133AE434
:102EB300F0120FC9EEFAEFFB02488A1259E64922D3
:102EC3007A047900120B8B900502126500EA98EBE5
:102ED3009922122EEE758305758202E493C398F846
:102EE300A3E49399F9C3EA98EB9922E493F8740164
:102EF30093F92274F212038774F31208E48A088B9D
:102F030009ECFEEDFF750A00EEFAEFFB120BBB8A2C
:102F13000C8B0DA80CA90DE849603E88828983E0DB
:102F230065087004A3E06509602F88828983A3A3E1
:102F3300A3A3E0C394055021125CF285188285197E
:102F4300837401F0120AA6125CF6EEFCEFFD740323
:102F5300120AA6122F63750A01A90A740D02538877
:102F6300122F6A120B7922AA82AB83120B438518A4
:102F730082851983AA82AB832274F6120387122FE8
:102F8300B8600FA3A3A3A3E014C39404500479016E
:102F930080027900023EA274F6120387122FB860F2
:102FA3000FA3A3A3A3E014C39402500479018002E6
:102FB3007900023EA2120BB58A828B83E582458398
:102FC3002274F6120387122FB8600BA3A3A3A3E006
:102FD3007004790180027900023EA2C082C083EAB4
:102FE300FCEBFD7A007B00023AA4C082C0837C0024
:102FF3007D00023AA474F412038774F31208E4EA1E
:10300300FEEBFF8C0A8D0BC3EC94F8ED94FF4007A5
:10301300EE4F70030230B1750800750900802E85EC
:1030230018828519837401F01236AB120AA6123680
:10303300B960137403120AA6AC82AD83EEFAEFFBF8
:10304300121DC1E97049E508240112324A900502B4
:10305300E41259EEE50898E509995052E50875F030
:1030630012A4F8AAF075F012E509A42AF91265333F
:1030730060D4EE4F70A974FF650A700474FF650B8A
:1030830060C412369B650A7004A3E0650B70B7E554
:103093000875F012A4F508A8F075F012E509A42844
:1030A300F50974C62508FA740C3509FB80047A0007
:1030B3007B0002403E74F412038774F31208E47534
:1030C3000800120BBB8A0A8B0BAE0AAF0BEE4F60E4
:1030D3002A8518828519837401123DF3F8A3E0F958
:1030E300740B120AA6123F1C120B5B7C127D007933
:1030F300FFEEFAEFFB121563750801122EC3500998
:1031030090133A7401F0120FC9A90802403E74F7F4
:10311300120387E9FE74FE6A700374FF6B7800790B
:103123000070058052122D9512319E504AE8FCE939
:10313300FDEC75F012A4FCAFF075F012EDA42F12A4
:1031430031AAF460E0E8FCE9FDEC75F012A4FC752B
:10315300F012EDA42FFD74C62CF582740C3DF5839B
:10316300E06A7003A3E06B70BC80091231AE14C334
:1031730094044017122D95122D895018EE70EC12FD
:1031830031AE64016005E0640370E912368CFAA382
:10319300E0FB80047AFE7BFF023DEE9005021248BD
:1031A300DAC3E89CE99D2212358D22E8FAE9FBEAAD
:1031B30075F012A4FAACF075F012EBA42CFB74CAF0
:1031C3002AF582740C3BF583E022120BCD023AA759
:1031D300C082C083790180F274F01203878A0A8B5C
:1031E3000B7A047901120B8B8A0C8B0DEA450D6067
:1031F3003EEAC333FAEB33FB1215ED8A088B09AEB3
:1032030008AF09EE4F60237AFE7BFF120BD374FEE7
:103213006A700374FF6B601B850882850983123D06
:10322300FEE508240212324A80E1750C0080047E18
:10323300007F00850A82850B83E50CF0EEFAEFFB35
:1032430002488FE5082407F508E5093400F509224B
:103253009005021248DAC3EA9CEB9D2274F612032E
:1032630087E4F508F509780812083D900502E49310
:10327300F508740193F5097403780812098612326C
:10328300961216657402120850E9FE6003120BE5EC
:1032930002605DE5082402FCE5093400FD7A227B27
:1032A300002274F612038774FE1208E485188285DF
:1032B3001983E4F0A3123E7D85820885830978088B
:1032C30012083D750802750900780812083D7C0054
:1032D3007D007A227B0012166B740412085074026C
:1032E300023E9F74F112038774DF1208E48518828B
:1032F300851983858208858309780812083D750836
:1033030002750900780812083D7C007D007A227B53
:10331300001216717404120850E9600302341E90FF
:103323000502123430123E85C3EA98EB995003022A
:10333300341E750800023413740F120AA685820A1C
:1033430085830B780A12083D750A08750B00780A05
:1033530012083D85080A7403780A120986E50A24CF
:1033630002FCE50B12329D1216717404120850E927
:1033730060030234117411120AA6E0F47003A3E08F
:10338300F470030234117402120AA67401F074116A
:10339300120AA6123E8B740D120AA6123E977402ED
:1033A300120AA6AA82AB83120B73E96061900545EA
:1033B300124BC8740F120AA61255901210F5E508A5
:1033C30075F012A4F8A9F074C628FE740C39FF74C2
:1033D3000F120AA6A982AA83890C8A0D750E00789A
:1033E3000C1208397C081234381208501258D112C2
:1033F300023612344D123444120A83125E44120A06
:103403008F122EC3400590133AE4F0120FC905083A
:1034130085080A1264F4500302333B851882851928
:1034230083E0F974211208507F070205E7E493FA59
:10343300740193FB227D00EEFAEFFB121557740320
:1034430022125E55E4F090824A22E88E828F83A393
:10345300A3A3A3A3A3A3A312346F740112346FA372
:10346300F0EE2410125E58E4F0A3F022124285A37A
:10347300A3A32274F412038774FE1208E48518824E
:10348300851983E4F0A3F0FE8067EEF8EFF9E875A1
:10349300F012A4F8AAF075F012E9A42AF974C62868
:1034A300F50A740C39F50B780A12083D750808758E
:1034B3000900780812083D8E088F097403780812F2
:1034C300098612329612166B7404120850850A820A
:1034D300850B83A3A3A3A3E0F4600F85188285194A
:1034E30083E02401F0A3E03400F0EE24010EEF3476
:1034F30000FF900502126ADA4090851882851983CD
:10350300858208858309780812083D7508027509C4
:1035130000780812083D7C007D007A227B00121699
:103523006B74041208507402024040C082C0837A54
:10353300007B008004191235581232535010123593
:1035430077C3940550F0E970EC12356180047A007A
:103553007B00023AA7EA24010AEB3400FB22EA7556
:10356300F012A4FA75F012EBA428FB74C62AFA74BD
:103573000C3BFB22EAFCEBFDEC75F012A4FCA8F07B
:1035830075F012EDA42812358D22FD74CA2CF58234
:10359300740C3DF583E02274F712038774F3120869
:1035A300E47E007F0002363FE50875F017A4F8A912
:1035B300F0126794FAA3E0FBEEF8EFF9E875F01266
:1035C300A4F8ACF075F012E9A42C12369A6A7003D1
:1035D300A3E06B603FE50875F017A4F8AAF0EA12C0
:1035E3006793F8A3E0F97401120AA6E0687003A3D5
:1035F300E0696020E50875F017A4F8EAF974422839
:10360300FC740E39FD7403120AA6AA82AB83121D41
:10361300C1E96014E50875F017A4F8A9F07440280F
:10362300FA740E39FB12110105089024CDE493F8C6
:10363300E508C39850030235AB1236839005021296
:103643006ADA5039EEF8EFF912368CF47003A3E01E
:10365300F460E68518828519837401F0EEF8EFF9BA
:10366300E875F012A4F875F012E9A42AF91236AB42
:10367300120AA61236B960C175080080AD023DE991
:10368300EE24010EEF3400FF22E875F012A4F8AA2D
:10369300F075F012E9A42AF912369F2274C628F5B0
:1036A30082740C39F583E02274C828F582740C39CE
:1036B30012487E740B22E8F0A3E9123F24120B7325
:1036C300E922C082C08390050D747FF0A3740EF0CD
:1036D30090050F7479F0A3740EF09005137481F0C4
:1036E300A3740CF0023AA7C082C0839005117473CF
:1036F300F0A3740EF0023AA774F7120387EAFEEB05
:10370300FF900547E06408601BE0640460168E8246
:103713008F83E0540364017048123C65124385E0D3
:103723006406703D8E828F83A3A3E064FE7003A3BF
:10373300E0F4602D8E828F83A3A3123E8B90053815
:10374300E0687003A3E069700BEE2415F582EF12B5
:10375300651A6008120F3FE9F5088008120F4580CB
:10376300F67508C2EEFAEFFB1215F302295F74F443
:103773001203878A088B098A828B83E0F8A3E0FA15
:10378300E82AFAE43400FB1215ED8A0A8B0BAE0A21
:10379300AF0BEE4F6063850882850983E0FC7D00F3
:1037A30079001215638E828F83A3A3126E4F120FBB
:1037B300818E828F83A3A3A3A3123DFE85088285F6
:1037C3000983E0F8EE28F8EF3400123E938508826F
:1037D300850983A3E0C0E0EE240D125E47D0E0F03C
:1037E300120F93EE240E125E47E91254F1E0C0E08B
:1037F300EE2411125E47D0E0F0EEFAEFFB024043F5
:1038030074F412038774EB1208E48A088B098C0A98
:103813008D0BE9FE900547E064046005E0640870E1
:103823000479C2802EA37808120A67EE90054E121F
:103833003AE5120A677405120AA6E9F07404120A3B
:10384300A67401F07407120AA6E4F0900547740207
:10385300123A42741502404074F612038774EB1255
:1038630008E4EAFEEBFF12511360030238FF7A0704
:103873007B001215ED900509123DFE12511360787D
:103883008E828F83120A8390050A124388120A8F4D
:10389300126D13C0E012390BD0E0F0EE2405FAEFFD
:1038A3003400FB8A088B098A82F583E0C0E0123971
:1038B30006D0E012403AE0C0E0123906A3D0E0128D
:1038C3003E72120A83851882851983120A8F8882B1
:1038D3008983E0C0E07405120AA6D0E0F08508826F
:1038E300850983E0C0E07404120AA6D0E0F07407EF
:1038F300120AA6123A4180067910800279017415E2
:10390300023E9F12390BA322900509E0FAA3E0F5CA
:10391300838A82A3A3A3A322C082C083125113600C
:103923000D900509125A25900509E4F0A3F0120E33
:10393300A91210A1023AA774F012038774EB1208BC
:10394300E4ECFEEDFF89087425120AA6780C120A2E
:10395300497429120AA6E0F9742A120AA6E0FC7433
:103963002B120AA6E0FD740F697005740F6C6012C8
:10397300901386E06402700579C1023A3CE9C39C66
:1039830040F6900548780C120A67E50890054EF05A
:10399300E990054CF0ECA3F0ED90054FF074FF6A4D
:1039A300700374FF6B701D901392E0F47003A3E037
:1039B300F4700512156F800C901392123DC6E8F057
:1039C300A3E98007900545EAF0A3EBF0EE4F6017FB
:1039D300EEFAEFFB121161E96401700BEEFCEFFDEF
:1039E3007A597B05121DC7900538E4F0A3F09005C2
:1039F3003BF0A3F0900558F0901386E06402700842
:103A030090054C740FF0A3F09005477405F0141261
:103A13000AA6E4F0900548120A8385188285198363
:103A2300120A8F90054EE0C0E07405120AA6D0E09A
:103A3300F07407120AA6123A41741502488CE41274
:103A43003F24121E2D22C082C083900508E070031C
:103A53001218B1120C39804CC082C083900508E063
:103A63009013397004E4F0802D7401F0900508E0A0
:103A7300F460237C41E0C394415002E0FCECF8E0A5
:103A8300C398F0EC75F0E8A4CCA8F075F003A42873
:103A9300FD7A801248E27A397B137941121E158030
:103AA30003120BC1D083D08202080274F41203877D
:103AB30074EB1208E48A088B098C0A8D0B90054776
:103AC3007401123AE5120A677405120AA6E9F07442
:103AD30004120AA67403F07407120AA6123A4102EA
:103AE3003856123E7D78082274F71203877C011240
:103AF3000C4B023DEE74F212038774FC1208E4E9E6
:103B0300851882851983F0EAFEEBFF8C0A90054540
:103B1300124BC8120E9D8A088B09EA450970057974
:103B2300CA023C608A828B83A3A3A3A3A3A3A3E0BB
:103B330064FE7003A3E0F4700579C3023C60900552
:103B430045125590121107850882850983A3A3A303
:103B5300A3A3A3A3A3A3A3E004900558123DCD748C
:103B630002120AA67402F014120AA6AA82AB8312E6
:103B730010058A0C8B0DAE0CAF0DEE4F7003023C9B
:103B830057123C651245047406F0A3A882A98390DA
:103B93000532125A6212485DF0EE2413125E477426
:103BA300011258A47440F0A3E41254EAA3A3123CF4
:103BB30072123E97EE2411125E47E50AF0EEFAEF19
:103BC300FB120C0FE9FE6003023C59900547740990
:103BD300F0123246AA08FB794B121E15850882851E
:103BE3000983123DBF123E9790053AE0F88518828B
:103BF300851983E068600CE090053A123F2079E173
:103C0300121E15901373123E8B901375E0687003A8
:103C1300A3E069601A90050B123E97901375125535
:103C230090120FAB901375124BC87A011248E27AC7
:103C3300007B04900592E0F91216A7901375123CCD
:103C43006A74027808120986AC08AD09FA7B04127B
:103C530048E480027E109006DAE4F0EEF974040280
:103C63005388EE125E5622E0F508A3E0F50922120E
:103C73003C7622122B9FA32274F512038774E2125F
:103C830008E4851882851983ECF0A3EDF0EAFEEBD6
:103C9300FF89087429120AA6E0F509742C120AA6F2
:103CA300E0F50A900547E064046005E064087005E8
:103CB30079C2023DB7742A120AA6E064FE7003A318
:103CC300E0F4700579C3023DB79005477403123FD2
:103CD300207950121E15742A120AA6AA82AB837980
:103CE3004B121E15851882851983123DC6123E9705
:103CF300E50890053AF0742A120AA6123DBF123E57
:103D030097E509900532123DCD74CE55094480C024
:103D1300E07412120AA6D0E0F0901394E0600464F9
:103D23000170087401250A900558F0740F120AA651
:103D33007402F0742A120AA6123E8B7407120AA6A2
:103D4300E8F0A3E9123E047410120AA6123E977417
:103D530005120AA6E508F0741B120AA6E4F0900502
:103D63004D740FF07A4D7B057954121E1590054C56
:103D7300740FF07A4C7B057947121E1590054CE0C1
:103D8300C3940F50237405120AA6E0C0E074021214
:103D93000AA6D0E0F07404120AA67401F004120A11
:103DA300A6AA82AB83121E397405120AA6AA82AB95
:103DB30083121E1B741E120850022764124880903F
:103DC300053B2212488090054522F0EEFCEFFD7A78
:103DD300597B05121DC72274F7120387EB90054F19
:103DE300F0120E8B8005740D1208507F010205E757
:103DF300123DF9A3E022123E72A322EAF0A3EBF0F4
:103E030022123E78F8A3E0F92274F712038774F8BC
:103E13001208E4EAFEEBFF7900900547E0640870BE
:103E23004485188285198374FDF0A374FFF0120F83
:103E33007B7402120AA6123DFE7405120AA6E4124E
:103E43003DF9E0C0E07404120AA6D0E0123E6DC052
:103E5300E07406120AA6D0E0F07407120AA6E41270
:103E63003F20120FE77408023DEB123E72E022F08E
:103E73008E828F8322123E7DE022F085188285197F
:103E8300832285188285198312488022E0F8A3E0F3
:103E9300F9125E55E8F0A3E9F02274041208507F8A
:103EA300020205E7C082C0839005197417F0A3745A
:103EB3000DF09005BF7441F0A37410F090051D74CC
:103EC3004DF0A3740DF090051F7417F0A3740DF05B
:103ED3009005217453F0A3740DF0023AA774F41201
:103EE300038774F91208E48A088B098C0A8D0B8501
:103EF30018828519837808120A677404120AA6E9DE
:103F0300F07405120AA6E4F07406120AA6E4123F3E
:103F130020120C217407024040E8F0A3E9123F2469
:103F230022123E7DAA82AB832274F41203878A088D
:103F33008B098A828B83125E63EE4F7003024038D3
:103F43009004E212511660158A828B83A3A3E0F9D1
:103F5300EEFAEFFB9004E3124388121FD68E828F92
:103F630083A3A3A3A3A3A3A3A3A3E0640270748E58
:103F7300828F83A3A3A3A3A3A3E0540270030240ED
:103F83000A850882850983A3A3E064E960798E82A8
:103F93008F83A3A3A3A3A3A3A3A3A3A3E0701490BA
:103FA3001389E0048E828F83A3A3A3A3A3A3A3A354
:103FB300A3A3F08E828F83A3A3A3A3A3A3A3A3A3EB
:103FC300A3E01412403AA3A3A37404F090138A123B
:103FD300589EE8F0A3E91269778B0BEA450B70034F
:103FE3001263558E828F83A3A3A3A3A3A3A3A3A327
:103FF300E0640260128E828F83A3A3A3A3A3A3A36F
:10400300A3A3E06406702E8E828F83A3A3A3A3A32E
:10401300A3E0A2E0501F850882850983A3A3E0F9EA
:10402300EEFAEFFB121EB78E828F83A3A3A3A3A383
:10403300A3E054FEF0800912428122740D1208504D
:104043007F040205E774EC12038774DD1208E4EAC7
:10405300FEEBFF8C088D097437120AA6780C120A3E
:1040630049750A007405120AA6AC82AD83120AD1FF
:104073007412120AA6E070087415120AA6E06020F2
:104083007405120AA6E0A2E6501E8E828F83A3A3B4
:10409300A3A3A3A3A3A3A312559012101DE9600821
:1040A3007903121DAF0242677405120AA6E0540C8D
:1040B30064047005750B018003750B00E0A2E550E5
:1040C30035750A01E50BA2E0402C120F818A108B93
:1040D30011A810A911123C65E0687003A3E06960A0
:1040E300157405120AA6126E5612558C121EC3E9D8
:1040F3006004790480AC7405120AA6E0A2E650229B
:104103007406120AA6E0540370187405120AA6E096
:10411300540C640C600CE0540C64086005751001C9
:1041230080037510007405120AA6E05403F87402A4
:1041330068700C126E5612558C120AE302426774B1
:104143000168703AE510A2E0500312426F74051241
:104153000AA6A882A9837403120AA6E8F0A3E912A7
:104163004874851882851983124279E0C0E074028D
:10417300120AA6D0E0123F20121FA7024267E8608E
:104183000302426790052FE0640170108E828F83D3
:10419300A3A3A3A3A3A3E070030240F57422120A0E
:1041A300A67402124874741A120AA6123E97E510F6
:1041B300A2E050087405120AA612426FE50BA2E0B2
:1041C300506AEE240FF582EF12651AC0E0741712DD
:1041D3000AA6D0E0F09004E412511670030242677D
:1041E300120F818A128B13A812A913741A120AA62A
:1041F300E0687003A3E069706B780C120835780AE5
:10420300120841780812083DA910740C120AA6ACD2
:1042130082AD837421120AA6AA82AB839004E412AE
:104223004385121FD674071208508038780C120881
:1042330035780A120841780812083D9005451206A0
:10424300ADEE2412F582EF1262487423120AA6AC73
:1042530082AD83740E120AA6AA82AB83121EAB74BC
:10426300091208507423120850026942126E561242
:104273005A33120AD722E8F0A3E9124281221242EA
:104283008522F08E828F83A3A3A3A3A3A32274F713
:10429300120387121767023DEE74F7120387121792
:1042A30073023DEE74F712038712177F023DEEC0CF
:1042B30082C083121779023AA774F7120387121781
:1042C30085023DEE74F71203877409120AA6E0F51E
:1042D3000878081208411217917401023DEBC0825D
:1042E300C08312179D023AA7C082C0831217A3028C
:1042F3003AA774F71203871217A9023DEE74F71257
:1043030003871217B5023DEE74F7120387EAFEEB3B
:10431300FF89087401650870147900120D8F9024C9
:10432300D8E493FC7900EEFAEFFB120D05023DEEA3
:1043330074F412038774F91208E4E9FE8A088B09FE
:104343008C0A8D0B7413120AA612559090072C1227
:1043530051166027EE851882851983F07401120ABD
:10436300A67808120A67EAF8EBF97405120AA6128E
:104373003F1C90072C124385121FD6023F17FB9058
:10438300051BE0F8A3E0F583888222C082C0831274
:1043930017E5023AA774F712038790133CE0F97EFE
:1043A30000800B126506540D64017001190E12454D
:1043B300925003E970ED023DEE74F71203879013F8
:1043C3003DE0F97E00800B126506548D6481700117
:1043D300190E1245925003E970ED023DEE74F2128C
:1043E3000387890BE975F006A4240CF508E5F012A0
:1043F300324E8A0CE508250CFAE5093400FB121548
:10440300ED8A0C8B0DAE0CAF0DEE4F6027AC08ADF3
:10441300097900121563123C65E50BF0EE2508F8E7
:10442300EF3509F98E828F83A3A3A3A3A3A3A3A329
:10443300A3123E97EEFAEFFB02538B74F612038737
:10444300EAFEEBFF120CE190133BE0F8E9C398405E
:1044530009900515125590120CE7EE2402F8EF129D
:104463005BA8900517125A62900517E004F0EEFA64
:10447300EFFB120CED850882850983E002605EC0C4
:1044830082C08379009005158001091255908A82B4
:104493008B83E582458370F2023AA774F712038790
:1044A300EAFEEBFFEE4F6056900515125116604E73
:1044B300888289837A007B00EE65827003EF6583CF
:1044C300600FAA82AB83124504E5824583602F8087
:1044D300E7900515124510687002EF698E828F838D
:1044E3007008123E8B9005158003126954123E9793
:1044F300EEFAEFFB121F77EEFAEFFB1215F3023D14
:10450300EE12450822124884888289832212488049
:10451300EE22C082C08390051580048882898312AD
:104523005116600B88828983124BC8EC4D70EC8A5C
:10453300828B83E4F0A3F0E8496006888289838054
:1045430003900515123DFE023AA774F712038790F4
:10455300051580048A828B8312458D4B60257E006E
:1045630080010E12459250ECEE75F006A4FCADF0FE
:10457300EA2CFCEB3DFDEC2410F582ED1245E270D4
:10458300E180047A007B00023DEE125A37EA2212E0
:1045930045EBEEC3982274F71203877D0080010D6B
:1045A3001245E7EDC3985034ED75F006A4FEA8F06C
:1045B300E8FFEA2EFEEB3FFFEE2410F582EF1245F3
:1045C300E270DCED75F006A4FEE8FFEA2EFAEB3F9D
:1045D300FBEA2411F582EB12651A4CF0023DEE1250
:1045E300652669221245EB22126E60EB3400F583D7
:1045F300E0F82274F6120387120E077A007B00801C
:1046030025EAF8EBF9E875F006A4F8ACF075F006C6
:10461300E9A42C125A0C126D21A3E4125B02F0A33D
:10462300126D27126E9E9024C3122ECD40D37A00B2
:104633007B00801C8A088B09740378081209861290
:1046430054B8A374FEF0A3041258E2A3E4126E9EBE
:104653009024CC12469540DC7A007B00801D8A08AA
:104663008B097403780812098674681261927411B5
:104673001269D974FEF0A304126E9E9024D21246DE
:104683009540DB9024DAE493900523F012469F02D1
:104693003EA2E493F8C3EA98EB9400227CE87D03FE
:1046A3007A107B00900592E0F91216A12274F012A1
:1046B300038774F51208E48A088B09890A8C0BE9CD
:1046C300A2E050147508FC7509FFA2E15005D2E47D
:1046D300024772D2E30247721253777003A3E06971
:1046E3007005790002483FAC0A7902AA08AB0912A7
:1046F3000DE3E960EDE50AF50C780C120841790247
:104703007CFE7DFFAA08AB091250F2120850E96043
:104713000302483DE50AC2E5F50A900585E07051BC
:10472300E50AA2E6404B7403120AA6AC82AD83AA43
:1047330008AB09120B4FE97032124A138A0C8B0D26
:10474300A80CA90DE8FEE9FFE8496025EE24020A5A
:104753000AEF122BDD601AEE2402FCEF3400FD7425
:1047630003120AA6AA82AB83121DC7E50AD2E5F596
:104773000A900518E0F50C900538E0F50EA3E0F576
:104783000F780E12083D7D017C00900518E0F9AA10
:104793000EAB0F120D9B7402120850E9F890051826
:1047A300E004F0E8600302483DE50AA2E550047422
:1047B3000E80027406C0E07401120AA6D0E0125EF5
:1047C300748A0E8B0FAE0EAF0FEE4F606912485D09
:1047D300124874888289837401F07478550AA3128D
:1047E3006E66E50C126E66A3E508F0E50912484C07
:1047F300E4F0E50AA2E5500F7403120AA6AC82ADF9
:1048030083E824061248438E828F83A3A374FDF0AA
:10481300A374FFF0E50B60159024D9E493F8E50B3E
:10482300C3985009EE2413125E47E50BF0EEFAEF3E
:10483300FB120C0F80067910800279C7740B804934
:10484300FAE93400FB121DC72288828983A3A3A33C
:10485300A312485822125BDBA322EE2417125E58E0
:104863007401F0120F7BEE241A125E58EAF0A3EBE8
:1048730022F0126E5A340012487E22F583124884C5
:1048830022E0F8A3E0F922740D1208507F08020514
:10489300E774F61203877A007B1012636260089054
:1048A30005A47401F080299007DAE064019013876E
:1048B3007006E0FC79018004E0FC79037A007B0058
:1048C300120D059024C11248D67A007B101248E4D9
:1048D300023EA21248DA22E493FC740193FD227B88
:1048E30000900592E0F912169B2274EC1203878A5A
:1048F300088B098C0C8D0D890E7414120AA61252A2
:10490300D17416120AA6E0F510A3E0F51112101DDA
:10491300E960077AFF7BFF024A10901386E0640286
:104923006003024A037900AA08AB09120DE9A90E34
:10493300120DDD8A128B13AE12AF13EE4F7003020A
:1049430049EB8E828F83A3A3A3A3A3E064018E828A
:104953008F83A3A370691255908E828F83A3A3A321
:10496300A3A3A3E0541860439024D7E4938E828FCB
:1049730083A3A3A3A3F0EA650C7003EB650D601496
:10498300EA650A7003EB650B600AEA65107003EBD6
:104993006511701F781012083DAC0AAD0BAA0CAB61
:1049A3000D12111F7402120850800890053712630C
:1049B3004CA3F074FE6A700374FF6B601D804EA3FA
:1049C300A3A3E0640360298E828F83A3A3A3A3A37D
:1049D300E0640470057AFE0249188E828F83A3A3D4
:1049E300A3A3A3E064027008900584E0640270103E
:1049F300124A138B0BEA450B6006AA08AB09800D1C
:104A0300AA08AB09900519124385121FD602694201
:104A13009005451250F81210E32274F7120387EA47
:104A2300FEEBFF120BA3E9700AEEFAEFFB120BAFDA
:104A3300E96006EEFAEFFB80047AFE7BFF023DEEAF
:104A430074F01203878A0A8B0B8C0E8D0F890975FC
:104A5300080012101DE979006003024BBAAA0AABE1
:104A63000B120DE9A909120DDD8A0C8B0DAE0CAFEB
:104A73000DEE4F60198E828F83A3A3A3A3A3E064DB
:104A8300027055900584E064027003024BB8AA0AD1
:104A9300AB0B90051F124385121FD6120BB58A0C60
:104AA3008B0DA80CA90DE8497003024BB8888289C5
:104AB30083A3A3A3A3A3E0A2E04003024BB8750C16
:104AC30001A2E150687901AC0AAD0BAA0EAB0F123B
:104AD3000D35E97064024BB88E828F83A3A3A3A321
:104AE300A3E064037005750C0280528E828F83A34A
:104AF300A3A3A3A3E064016003024BB8900545128E
:104B03004BC88E828F83124F1D8A0C8B0DA80CA964
:104B13000DE84960D19024D0E493FA88828983E038
:104B2300C39A50C2A3E06003024BB880B98882895C
:104B330083A3A3A3A3A3D2E1F0EE4F603A8E828FA7
:104B430083A3A3A3A3A3A3E05418602B7508018E2A
:104B5300828F83A3A31206AD750CFE750DFF780C2F
:104B630012083D7900AC0AAD0BAA0EAB0F120DFB78
:104B73007404120850803E900538E0650E7004A35B
:104B8300E0650F70149024D8E493FCA909AA0AAB3A
:104B93000B120D05750801801CA90CAC0AAD0BAAFC
:104BA3000EAB0F120D35E9700C750801A909AA0A9D
:104BB300AB0B120D8FA90802488FE50C2415F58263
:104BC300E50D125E5B1258B82274EA12038774F083
:104BD3001208E48A0C8B0D8C088D097426120AA620
:104BE300E0F514A3E0F5157512069005C5125116EC
:104BF3006023900545124BC8AA08AB0912110D8A10
:104C0300108B11EA4511600D8A828B83A3E0700536
:104C13007900024F05E50C241DF50EE50D3400F572
:104C23000F850E82125102F51388828983A3A3A3F1
:104C3300E0FA88828983A3A3A3A3E0F9EA2400FE10
:104C4300E439FFAA08AB09120D95850E82850F83FF
:104C5300124F40E029F50BE50AA2E5500375120E49
:104C63007487550A70177418550A6418600FE50C99
:104C73002417F582E50D12651A6512600779011292
:104C83001DAF808C530A78C3EE94F8EF94FF501D48
:104C93007900EEFAEFFB124F0F601288828983A32B
:104CA300A3A3A3A3A3E054186003024C1378081230
:104CB300083D7D00124F33120850E9F87403687001
:104CC30003024C13E86003024D7E7418550A700307
:104CD300024E33E50AD2E0F50AA2E45004D2E1F52C
:104CE3000AA90A125589124F0F605388828983A338
:104CF300A3A3A3A3A3E05418604488828983A3A336
:104D0300A3A3A3E064017036E5104511603090055C
:104D130045124BC888828983124F1D8A0E8B0FA8B8
:104D23000EA90FE849601788828983A3E0600F8585
:104D33001082851183A31260695003024C13E50AA4
:104D4300F50E780E120841124F26120850E9702B07
:104D53007C007D0085148285158374FFF0A3F085A4
:104D63000C82850D83A3A3A3A3A3A3A3A3E0600342
:104D7300124BBDA90B1255891217978514828515FD
:104D830083E0F47003A3E0F46039900584E06402E7
:104D93007003024C131252C2E0FAA3E012438112D1
:104DA3001FD6EA65087003EB65096003024C13EE36
:104DB300FAEF124381121FD6851482851583EAF018
:104DC300A3EBF0780812083D7D01124F331208500F
:104DD300A90AEEFAEFFB120DE98A088B09A808A9C4
:104DE30009900538E0687003A3E0696003024EF69A
:104DF300EEFAEFFB120BB58A088B09A808A909E89C
:104E030049606E88828983A3A3A3A3E06401600D34
:104E130088828983A3A3A3A3E064027054851882C4
:104E2300851983AC82AD83EEFAEFFB120B4F8055ED
:104E3300900531E0600FE50AF50E780E1208411275
:104E43004F26120850E50AF50E780E120841790232
:104E53007CFE7DFFEEFAEFFB1250F2120850E96080
:104E630003024D7E85148285158374FFF0A3024DE2
:104E7300C5120F7BEAFCEBFD851882851983AA8294
:104E8300AB83121DC7850C82850D83A3A3A3A3A3A4
:104E9300A3A3A3E06401700F124BBD7408120AA60A
:104EA300AA82AB83121DC71250CC125CE04430F5CA
:104EB3000878081208417401120AA68582088583BE
:104EC30009780812083D740B120AA68582088583A7
:104ED30009780812083DE513F508780812084179A6
:104EE30000EEFCEFFD125589120D2F7406120850C7
:104EF300024C131250CC125E4A124F40E50BF012D3
:104F03000F9374101208507F0E0205E7120DDD8A0D
:104F13000E8B0FA80EA90FE84922A3A3125A37122A
:104F2300110D227901AC08AD09125A2C1250F2224C
:104F3300AC0BA913125A2C120D9B740222125CE8BB
:104F4300A3A3A3A32274F012038774F01208E48AC4
:104F53000C8B0DECFAEDFB750F089005C51251167D
:104F630060141260628A828B83E58245836007A3A3
:104F7300E070030250C71250CC3400125102F50BFB
:104F8300888289831250D5E0FBEC2400FEE43BFFCA
:104F930088828983A3A31250D5A3A3E0FBECF50871
:104FA300E43BF50988828983A3A3A3A3A3A3A3E076
:104FB300F50EE50AA2E45003750F10A2E55006743E
:104FC30008250FF50F748F550A700FE50C2417F59C
:104FD30082E50D12651A650F60087901121DAF0293
:104FE30050C7530A707800E50AA2E450221250CC4D
:104FF30012651A2408FCA3E03400FD7408120AA603
:10500300AA82AB83121DC77808E50AC2E4F50AE554
:105013000AA2E550281250CC12651A28F8A3E034EE
:1050230000F9E82408FCE93400FD8518828519831A
:10503300AA82AB83121DC7E50AC2E5F50AAC0EA925
:105043000BEEFAEFFB120DA1E9F87403686075909B
:105053000538E06E7003A3E06F605EE87054E50A04
:10506300F50F780F1208411250E3120850E97054FB
:10507300780A1208417401120AA685820C85830DF1
:10508300780C12083D740B120AA685820C85830DD9
:10509300780C12083DE50BF50A780A120841A90EAF
:1050A300AC08AD09EEFAEFFB120D2F74061208508F
:1050B3008012740468700D80B7780A120841125088
:1050C300E3120850741002488CE50C241DF582E5A8
:1050D3000D22A3A3A3E0FC88828983A3A3A3A32215
:1050E30079011252C9125E5B1250F81250F2221269
:1050F3000D59740122E0FCA3E0FDAA08AB0922F5D7
:1051030083124508A3E0F50A88828983A3A3E022DA
:10511300900509125A932274E812038774F5120852
:10512300E4EAFEEBFF8C088D0989147423120AA6A6
:10513300E0F50F7424120AA6E0F512A3E0F5137448
:1051430026120AA6E0F516A3E0F5177428120AA69C
:10515300E0F50EA90F120DA78A108B117401120A24
:10516300A67408F0E50EA2E450037410F0E50EA255
:10517300E55004E02408F0851882851983AA82ABE0
:10518300831210058A0C8B0DEA450D70030252A998
:10519300EA2417F582EB1252BB120F7BE50C241A9B
:1051A300F582E50D125E4A123DFE7403120AA6ACA7
:1051B30082AD83AA10AB11120B4FE9601D1252B3DB
:1051C3007403120AA6A882A983E50C2418F582E5C4
:1051D3000D125E4AE8F0A3E98024E50EA2E4501F15
:1051E300E5106E7003E5116F70151252B3E50C24D0
:1051F30018F582E50D125E4AE512F0A3E513F012ED
:1052030052C21252D1850A82F5837402F0A3E50ECD
:105213001252D9E50FF0EE850A82850B83A3A3A36F
:10522300F0EF850A82850B83A3A3A3A31252D9A30C
:10523300A3A3E508F0E509850A82850B83A3A3A34D
:10524300A3A3A3F0AA10AB11120D95E92514850AA7
:1052530082850B83A3A3A3A3A3A3A3F0750800E5EF
:105263000EA2E45011AC12AD13E50A2408FAE50BC3
:10527300124845750808E50EA2E55014AC16AD17A3
:10528300E50A2508F8E50B3400F9E8240812484339
:10529300850C82850D83A3A3E510F0A3E511F0AA85
:1052A3000CAB0D120C0F740B1208507F100205E7A4
:1052B300E50C2416F582E50D125E5B7401F02212F3
:1052C30052C9125E5B22E50C126E61E50D22E0F518
:1052D3000AA3E0F50B22F0850A82850B83A3A322A0
:1052E30074F21203878A088B09ECFEEDFF890A79B1
:1052F300001253777003A3E069700479018073751A
:105303000B01900538E065087004A3E06509601F90
:10531300750B00780B120841A90AEEFCEFFDAA08F1
:10532300AB091210597401120850E9F50B80417949
:1053330000EEFAEFFB120DDDEA4B602B8A828B83C2
:10534300A3A3A3A3A3A3E05418601C7508FE7509C7
:10535300FF780812083D8A828B83A3A31206AD123D
:105363006C7612085080097901EEFAEFFB120CB744
:10537300A90B8014120DE98A0C8B0DA80CA90D90B2
:105383000538E068221208507F060205E774F4121C
:1053930003877508B075090F7A1012697E8B0BEAC3
:1053A300450B700312469F900523E014F0700C9098
:1053B30024DAE493900523F0120DF57E007F00803C
:1053C3006C850882850983A3A3A3A3E06059F460D5
:1053D30056E5082404F582E50912634670498508F9
:1053E30082850983A3A3A3A3A3E0640370197902AD
:1053F300850882850983124BC8850882850983A3A2
:10540300A3125590120D35850882850983A3A3A3A2
:10541300A3A3E06401601085088285098374FEF00C
:10542300A3041254EAE4F01236831232469024C9DC
:10543300126ADA408C7E007F008039120F218E08B9
:105443008F097403780812098674282508FC7411DF
:105453003509FD7A417B0D120F0FEA4B70DD8E0883
:105463008F09740378081209861254B8126D21E467
:10547300F01236839024CCE493F8C3EE98EF9400B3
:10548300501B8E088F09740378081209861254C0C2
:10549300E82407F582E912634670D680A17E007F77
:1054A30000800A1254CB600214F0123683126AD7BA
:1054B30040F10240431254C0888289832274282514
:1054C30008F874113509F922EEF8EFF9E875F006DA
:1054D300A4F8AAF075F006E9A42AF974C828F5829D
:1054E300741039F583E0221254F1A3A3A322F085AB
:1054F3000882850983A3A32274F712038774E11238
:1055030008E4ECFEEDFF750800EE4F60728A828BB3
:1055130083E0241C12637712511660638A828B83A3
:10552300125590851882851983AC82AD83EA241BBA
:10553300F582EB126248EA241CF582EB12558C12B9
:105543000F63740B120AA61255947003A3E06970DB
:105553002E7402120AA6E064017024741D120AA6B6
:10556300124385E064017017741D120AA612438763
:10557300A3A3E0F88E828F83E0687003750801A906
:1055830008741F023DEB1252C93400F583125A37D7
:1055930022122B9BE0682274F4120387E9702479AA
:1055A3000090051D124385121FD68A0A8B0BAE0A83
:1055B300AF0B74FE6E700374FF6F701A9024D3E404
:1055C300936013790190051D124385121FD68A0A31
:1055D3008B0BAE0AAF0B120FC90237FCE028F8A3FE
:1055E300E039F92274F612038774F31208E41215F2
:1055F3006F8A088B09AE08AF09900538E06E700317
:10560300A3E06F60E9120F87EA6E7002EB6F60DE52
:10561300EEFAEFFB12101DE970D4EE4F60D085183F
:1056230082851983E4F004120AA6EEF0A3EF125662
:105633004AE970BA74FE6E700374FF6F60B0EEFADD
:10564300EFFB740D023E9F123F24120B6722C082B0
:10565300C083120FC9023AA77F0A0205E774F21248
:105663000387EAFEEBFF8C0A8D0B8908740E120A7E
:10567300A6E0F50974FC6E700374FF6F7005790082
:1056830002538B7900120DE98A0C8B0DAE0CAF0D12
:10569300900538E06E7003A3E06F7006E509A2E69B
:1056A30050DCA909126B64706179007AFE7BFF12EA
:1056B3006B64705674185509700302579778007914
:1056C300008003122D959024C9122D8C400302579C
:1056D30097E8FAE9FBEA75F007A4FAACF075F0076E
:1056E300EBA42CFB74B62AF582740F3BF583E054CC
:1056F3001870D0E875F007A4F8AAF075F007E9A4CC
:105703002AF974B028F8740F39F988828983A3A31E
:10571300A3A3A3A3E05418600974185509700302E6
:10572300568188828983EEF0A3EFF074FE650A70D8
:105733000474FF650B60031258BE88828983A3A398
:10574300A3A3A3A3E509F0A2E0500D88828983A354
:10575300A3A3A3A3A3D2E2F074016508888289837B
:10576300A3A3A3A3A3703874011258E2E0541860F2
:10577300289024D7E49388828983A3A3A3A31258F0
:10578300AC12110D8B0DEA450D60030256817800B2
:10579300790080397902025683900537E080D7E09B
:1057A3006401700302568188828983A3A3A3A3A300
:1057B300A3E0541860079024D7E49380049005363F
:1057C300E012484CE508F0025681122D959024CD45
:1057D300E493FAC3E89AE9940040030256817A00FD
:1057E3007B00804BEAFCEBFDEC75F007A4FCAEF00C
:1057F30075F007EDA42EFD74B22CF582740F3DF500
:1058030083125E63E8FCE9FDEC75F017A4FC85F0F8
:105813000975F017EDA42509FD74402CF582740E6B
:105823003DF583E06E7003A3E06F609E12355890E0
:1058330024C912325640AD1248D6EC6A7002ED6BA1
:105843007088E875F017A4F8AAF075F017E9A42A90
:10585300F9744028FE740E39FF7C177D007900EE41
:10586300FAEFFB1215638E828F831258C49005459D
:1058730012589EA3A3A3A3A3A3E8F0A3E91258A4D9
:105883007401F0EE240E125E4774011258CC12021A
:1058930036EE240D125E47E80257C9123C76A3A3E5
:1058A30022F0EE240F125E5822F01258B5AA0AAB6A
:1058B3000B22900545E0FCA3E0FD2288828983A3A7
:1058C300A3E50AF0A3E50BF022F01258D1229024AD
:1058D300D0E4932401F8E43400F97A027B00221225
:1058E3004858A32274ED1203878A088B09890E1284
:1058F3005A15400579050259E31217EBAA08AB09BB
:10590300125AE79024C31259E6650A7003E9650B3E
:1059130070077AFE7BFF125AE79024C3E41259EE14
:10592300E50A98E50B9940030259E11259F2601216
:10593300E50A75F006A4F875F006E50B125A3D1258
:1059430015F3E50E6018E50A75F006A4F8AAF075DC
:10595300F006E50B125A69701A79010259E3E50A58
:1059630075F006A4F8AAF075F006E50B125A4AE49E
:10597300F0A3F0E50A75F006A4F8AAF075F006E5C1
:105983000B125A0AA3125CF688828983A3AA82ABFC
:1059930083125A588A828B83E0603F1259F2603A2D
:1059A3008E108F117512007810120839E50EC3336B
:1059B300FCE433FDE50A75F006A4F50AA8F075F0DA
:1059C30006E50BA428F50B74CC250AF58274103573
:1059D3000B12558E12343E1208507900800279075B
:1059E300026B7A122EEEE82290050212650122E57F
:1059F3000A75F006A4F8AAF075F006E50B125A45ED
:105A0300F8A3E0F9E84922A42A125B9E88828983DD
:105A1300A322ECFEEDFF9024CEE493F8E9C3982291
:105A2300F583125A371215F322E50C126E61E50D58
:105A33003400F583E0FAA3E0FB22125A45FAA3E00F
:105A4300FB22125A4AE022A42AF974CC28F5827464
:105A53001039F58322E50EF0901388125A6222E082
:105A630088828983F022125BC2F50CE93400F50DBC
:105A7300E50EC333FAE433FB1215ED850C82850D75
:105A830083EAF0A3EBF0850C82850D83125A9322EF
:105A9300124884E8492274F4120387ECFEEDFF7484
:105AA3000C120AA6123E8B88088909125AE7AC0A1F
:105AB300AD0BECF8EDF99024C3125AEF5021E875C1
:105AC300F006A4F8AAF075F006E9125A0AE08E82ED
:105AD3008F83125B02125AF8123E97790080027983
:105AE30004024043120D6B8A0A8B0B22123430C31B
:105AF300EC9AED9B22124880850882850983221245
:105B03005BD72274F61203877E007F008028EEF8AD
:105B1300EFF9E875F006A4F8ACF075F006E9A42CEB
:105B2300F974CA28F58274101267856A7003A3E0BA
:105B33006B6057123683126AD740D3126AD270024F
