:020000040000FA
:06000000020A290201CAF8
:03002B0002087454
:0300430002065C56
:030053000200FBAD
:1000830002015F0101FF01010503010F10FEFF855E
:100093001385138513851335122F128513622100DF
:1000A3000000002622000000000C0000000C0001EC
:1000B300FF01010100F1060000006807E803640086
:1000C3006400B80102020020000005020701051EBA
:1000D30002051E020A0A03B80B02803E010201FF59
:1000E300FF010A1401E0965118000202170A0601E3
:1000F300FF030006000231D4C0E074F21203E3A24E
:10010300AFE433FED2AFE5A7FFE5A1F5085F5410D6
:100113006006121ABD75A1EFE5085F540860081266
:100123001AC375A1F7802BEFA2E0C0D0E508A2E0C7
:1001330092F0120963158182F05017906198E0F8EC
:10014300900C42E0C398A2D265D0335002E8F07518
:10015300A1FEEEA2E092AF7F01020442C0E074F27E
:100163001203E3A2AFE433FED2AF9061A4E0F875CB
:100173009B00E59158540860087591F7121B0B809A
:100183002AE59158541060087591EF121B11801BDA
:10019300E8A2E0C0D0E591A2E092F01209631581D4
:1001A30082F05007E0C2E0F0121C619061A3E0F816
:1001B300E5E9585404600E121C3775E9FB9061930E
:1001C300E0A2E640F2808BC0E074F21203E3A2AF38
:1001D300E433FED2AF9061A5E0F8E5BF5854046064
:1001E3000675BFFB121C79020155C3E498F8E49924
:1001F300F912022E8026C3E49AFAE49BFBE920E776
:10020300E912022EE498F8E499F922C3E498F8E499
:1002130099F912022EE498F8E499F9C3E49AFAE4FE
:100223009BFB22EB20E7CFE920E7E0B90010BB00FE
:1002330008E88AF084F8AAF022E4FBC8FA22EB70FB
:10024300227B10C833C8C933C9335007C39AC3DBF1
:10025300F280069A50012ADBEAC833F4C8C933F4A2
:10026300C9FA2275F008E4C833C8C933C933C99A37
:10027300C99B5004C92AC93BD5F0ECFBC833F4C869
:10028300E4C9FA22080808EAC0E0EBC0E086F0E718
:10029300A4FA180986F0E7A42AFA180986F0E7A455
:1002A3002AFA180986F0E7A42AFA1986F0E7A4FBCC
:1002B300E5F02AFA190886F0E7A42BFBE5F03AFAF1
:1002C300190886F0E7A42BFBE5F03AFA181809861B
:1002D300F0E7A4C5F02BFBE43AFA1908E7C5F0C62A
:1002E300A426F6E5F03BFBE43AFA1886F0E7A4F619
:1002F300E5F00826F6E43B08F6E43A08F6D0E0FB1E
:10030300D0E0FA22E4CFC0E0E4CEC0E0E4CDC0E028
:10031300E4CCC0E075F020C3E633F608E633F60814
:10032300E633F608E633F6181818EC33FCED33FD24
:10033300EE33FEEF33FFC3EC9709ED9709EE970910
:10034300EF97191919400FFFEC97FC09ED97FD0979
:10035300EE97FE191906D5F0BEECF709EDF709EE95
:10036300F709EFF7191919D0E0FCD0E0FDD0E0FE52
:10037300D0E0FF222518C582C0E0E51934FFC5830C
:10038300C0E0E518C3958224F810AF08858319856A
:1003930082188008858319858218D2AFCEF0A3E531
:1003A30020F0A37808E608F0A3DEFAEFF0A3E581D6
:1003B30024FAF8E608F0A3E608F0A3E608F0A30899
:1003C30008E608F0A3E608F0A315811581D0E0FE46
:1003D300D0E0F8158115811581E8C0E0EEC0E02278
:1003E300C0D02518C582C0E0E51934FFC583C0E03D
:1003F300E518C3958224F310AF0885831985821805
:100403008008858319858218D2AFC8F0A3E9F0A3C9
:10041300EAF0A3EBF0A37908E709F0A3D8FAECF02C
:10042300A3EDF0A3EEF0A3EFF0A3D0E0F0A3D0E0B0
:10043300F0A3D0E0F0A3E520F0A3E5F0F0A322853C
:100443001983851882E0C0E0A3E0F9A3E0FAA3E0F2
:10045300FBA37808E0F608A3DFFAE0FCA3E0FDA322
:10046300E0FEA3E0FFA3E0C0E0A3E0C0E0A3E0F56B
:10047300D0A3E0F520A3E0A3F5F010AF088583191E
:100483008582188008858319858218D2AFD082D0DF
:1004930083D0E0F8D0E032120A8BB900030204DC07
:1004A300E49004D17859790E8002F0A3D8FCD9FAEC
:1004B300901229AA82AB8390008678767901801501
:1004C300E493A3AC82AD838A828B83F0A3AA82AB2D
:1004D300838C828D83D8E9D9E77582D17583FD74C6
:1004E300031207EC75826775831F74001207EC15FE
:1004F3000075F0108E1A8F1B85821F85831E851849
:1005030082851983E0CEA3E0CF851F82851E83EB0E
:10051300C9EAC8EDCBECCAC3E833C8E933C9EA3347
:10052300CAEB33CBC3EA9EF51DEB9FF51CB3500416
:10053300AB1CAA1DEC33CCED33CDD5F0DAAE1AAF3C
:100543001B22D083D082ECC0E0EDC0E0E493A3FC97
:10055300E493A3FDED4C600D12061DEC24FFFCEDAE
:1005630034FFFD80EFE493A3FCE493A3FDED4C6023
:100573000D1206F7EC24FFFCED34FFFD80EFD0E015
:10058300FDD0E0FCE493A3C0E0E493C0E022D08379
:10059300D082E9C0E0E493A3C386F0C5F095F0F9F7
:1005A30008E493A386F0C5F095F0700BE493A3C31E
:1005B300994005E9048002A3E475F002A42582F5BD
:1005C30082E5F03583F583D0E0F9E493A3C0E0E45A
:1005D30093C0E022851983851882E0A3FEE0A3F58A
:1005E300207808E0A3F608DFFAE0A3FFE0A3C0E069
:1005F300E0A3C0E0E0A3C0E0E0A3C0E0E0A3C0E06C
:1006030010AF088582188583198008858218858331
:1006130019D2AFD083D0820207F2C0E0C3E493962D
:10062300087401939618400FE493667008087401E8
:1006330093661870007019A3A3C3E493960874011A
:10064300939618A3A3400DD0E0D0E0D0E00205813B
:10065300A3A3A3A3A3A3D0E022C0E074F21203E3F5
:10066300A2AFE433FED2AFC2C0901228E0700BE514
:10067300D1A2E45017121A338012E5D1A2E350033A
:1006830075D1F7E5D1A2E4500375D1EFEEA2E09264
:10069300AF7F010204427404800474028000CCC062
:1006A300E0EDC0E0E518C39CCCAD1950011D10AFBF
:1006B300068C188D1980068C188D19D2AF12076E0F
:1006C300D0E0FDD0E0FC2274028000CCC0E0EDC09D
:1006D300E0E518C39CCCAD1950011D10AF068C1872
:1006E3008D1980068C188D19D2AF12074CD0E0FDFE
:1006F300D0E0FC22C0E0C0F088F0E4936670080804
:1007030074019366187000A8F0A3A3700BD0F0D007
:10071300E0D0E0D0E0020581A3A3D0F0D0E022D066
:1007230083D082CCC0E0E493A360061207CD14709B
:10073300FAE493A360061208BE1470FAD0E0FCE456
:1007430093A3C0E0E493C0E022CAC0E0E493A3C54E
:1007530082CCC582C583CDC583F0A3C582CCC582B7
:10076300C583CDC583DAE5D0E0CA22CAC0E0E0A3E1
:10077300C582CCC582C583CDC583F0A3C582CCC554
:1007830082C583CDC583DAE6D0E0CA22C008C3E0C0
:1007930096F50808A3E096420808A3E096420808E5
:1007A300A3E09645087001D3D00822700908080811
:1007B300226016181818C6C333C608C633C608C63F
:1007C30033C608C633C6D5E0EA22C0E0E493A3D318
:1007D3009C5010E493A3C39C400AD0E0D0E0D0E047
:1007E30002073FA3A3A3D0E022C09FF59FE473D0E9
:1007F3009F22D083D082C09FE493C0E0740193C052
:10080300E0740293F59F222518F58210AF08F518BE
:10081300400215198008F51840021519D2AF851941
:1008230083227404800A74038006740280027401B4
:10083300C0E0F40412080AD0E0120A6622C0D025F0
:100843001810AF08F518500205198008F518500262
:100853000519D2AFD0D022BB0102E722C082C083E8
:1008630089828A83BB0003E08002E493D083D08231
:1008730022C0E0C0D0E8C0E0E5A8D2AFC2C7A2E77B
:1008830092AFD0E0F8D0D0D0E0326016080808C6A6
:10089300C313C618C613C618C613C618C613C6D5BF
:1008A300E0EA22C3E0C696F608A3E0C696F608A3DC
:1008B300E0C696F608A3E0C696F622C0E0E493A34A
:1008C3006C7009D0E0D0E0D0E002073FA3A3D0E0F2
:1008D30022251810AF08F518400215198008F518DD
:1008E30040021519D2AF22E76670100809E7667057
:1008F3000A0809E76670040809E76622C3E0960858
:10090300A3E09608A3E09608A3E096A2D265D033AD
:1009130022E066701008A3E066700A08A3E0667020
:100923000408A3E06622C3E096F008A3E096F0086B
:10093300A3E096F008A3E096F022E026F608A3E0F1
:1009430036F608A3E036F608A3E036F622E627F6E5
:100953000809E637F60809E637F60809E637F62206
:10096300C0E0E8C0E0E58124FCF8E6A2E7D0E0F8C7
:10097300D0E022700422600D18C6C333C608C63304
:10098300C6D5E0F41822E657F60809E657F6080933
:10099300E657F60809E657F622E056F608A3E056AE
:1009A300F608A3E056F608A3E056F622E056F00850
:1009B300A3E056F008A3E056F008A3E056F022E6C1
:1009C30047F60809E647F60809E647F60809E64741
:1009D300F622E026F008A3E036F008A3E036F0089C
:1009E300A3E036F022E4C396F608E496F608E4960C
:1009F300F608E496F622C6F4C608C6F4C608C6F49A
:100A0300C608C6F4C622C3E7960809E7960809E7AD
:100A1300960809E79622C3E09608A3E09608A3E0A8
:100A23009608A3E0962275D0007581407518D1759C
:100A330019040002049AE0F608A3E0F608A3E0F61E
:100A430008A3E0F622600C08C6C313C618C613C673
:100A5300D5E0F422E6F008A3E6F008A3E6F008A345
:100A6300E6F022CAC0E0E6F0A308DAFAD0E0FA2200
:100A7300E0FAA3E0FBA3E0FCA3E0FD22EAF0A3EB92
:100A8300F0A3ECF0A3EDF022E5C754F84401F5C759
:100A93007901222518F582E43519F58322C2AF7551
:100AA300D69F020000221207F5A9DF021207F5DD27
:100AB300DF021207F512E0021207F5F4E002120753
:100AC300F5A9E1021207F5FEE3021207F54BE50271
:100AD3001207F5EEE5021207F53DE7021207F55B93
:100AE300E7021207F56724001207F59C240012079A
:100AF300F5C224001207F5FC24001207F50E2500A9
:100B03001207F56025001207F5C125001207F54B02
:100B130026001207F5EF26001207F5372700120704
:100B2300F57127001207F58E27001207F5B327008A
:100B33001207F50528001207F51E28001207F544D1
:100B430028001207F57F28001207F5C328001207B3
:100B5300F5EA28001207F53B29001207F5EB2900F7
:100B63001207F5A32A001207F56B2B001207F52BCA
:100B73002C001207F56F2C001207F5942C001207B6
:100B8300F5D72C001207F5242D001207F57C2E0053
:100B93001207F5022F001207F5202F001207F54A5E
:100BA3002F001207F5642F001207F5732F001207A9
:100BB300F57E2F001207F53E30001207F59730003F
:100BC3001207F55931001207F56131001207F5E5F7
:100BD30031001207F52B32001207F56C32001207B1
:100BE300F5FC33001207F5B434001207F520350085
:100BF3001207F54B36001207F57036001207F58120
:100C030036001207F5F736001207F5893700120789
:100C1300F5E137001207F5A138001207F5C03800D7
:100C23001207F5CF39001207F5E139001207F53441
:100C33003A001207F5713A001207F57E3A001207DF
:100C4300F5013C001207F5603D001207F5923D00E7
:100C53001207F52D3E001207F5663E001207F5B2A6
:100C63003E001207F5CE3F001207F51742001207A8
:100C7300F52242001207F52D42001207F538420013
:100C83001207F54242001207F54D42001207F567BD
:100C930042001207F57142001207F57B420012076A
:100CA300F58642001207F59142001207F5B942009A
:100CB3001207F51443001207F51E43001207F5420D
:100CC30043001207F56643001207F5C443001207F9
:100CD300F50844001207F52444001207F59B44006D
:100CE3001207F5D344001207F51F45001207F57CE0
:100CF30045001207F53646001207F51A4800120799
:100D0300F57348001207F5A349001207F5C9490016
:100D13001207F5524B001207F5CE4E001207F5A04D
:100D230050001207F56952001207F5165300120717
:100D3300F58154001207F52055001207F56D550093
:100D43001207F5D755001207F5E655001207F56DA2
:100D530058001207F51F5A001207F58C5A001207A4
:100D6300F56B5B001207F5845C001207F5015E006A
:100D73001207F5205E001207F5755E001207F57A7B
:100D83005F001207F5A25F001207F5FA5F00120772
:100D9300F5D960001207F51D61001207F5686100BF
:100DA3001207F5D361001207F51463001207F578F3
:100DB30063001207F5C664001207F52667001207E1
:100DC300F55767001207F50F69001207F56469000C
:100DD3001207F5686A001207F5056B001207F55E46
:100DE3006B001207F5116C001207F5B36C001207C4
:100DF300F5536D001207F5F86D001207F5718201C6
:100E03001207F5BA82011207F53285011207F5714F
:100E130085011207F5BB85011207F5F98601120753
:100E2300F55887011207F58C87011207F5CA870168
:100E33001207F53D89011207F5008C011207F533FE
:100E43008D011207F5C98D011207F52097011207CD
:100E5300F5BA97011207F5A19A011207F5BB9B0199
:100E63001207F51C9C011207F5389D011207F57E48
:100E73009E011207F5609F011207F545A1011207B4
:100E8300F556A3011207F5C4A3011207F596A401B1
:100E93001207F54DA5011207F557A5011207F586AF
:100EA300A5011207F543A6011207F51AA7011207B8
:100EB300F5E1A7011207F57CA8011207F5F3A801D4
:100EC3001207F51CA9011207F53EA9011207F58EB9
:100ED300AB011207F566AC011207F5AAAC011207C4
:100EE300F512AD011207F5CAAD011207F5FCAD010C
:100EF3001207F540AE011207F576AE011207F5C2EF
:100F0300AE011207F517AF011207F51CAF01120767
:100F1300F56FAF011207F594AF011207F5A4B00105
:100F23001207F51CB1011207F578B1011207F50498
:100F3300B2011207F5F3B4011207F5D6B501120792
:100F4300F56DB7011207F5A3B9011207F551BA01FF
:100F53001207F502BB011207F544BD011207F5E7BD
:100F6300BD011207F52EBE011207F5DABF01120704
:100F7300F5EEBF011207F5F8BF011207F520C00116
:100F83001207F52CC0011207F54BC0011207F595A6
:100F9300C2011207F5CAC2011207F5D4C201120732
:100FA300F5DEC2011207F539C3011207F595C30136
:100FB3001207F5A9C4011207F50AC5011207F5596D
:100FC300C6011207F59DC6011207F545C7011207B1
:100FD300F528C8011207F5D3C8011207F51FCA0186
:100FE3001207F51DCB011207F5C3CB011207F55309
:100FF300CC011207F56ACC011207F5A1CC01120747
:10100300F5ABCC011207F5B6CC011207F5D4CC0130
:101013001207F518CD011207F575CD011207F59AE0
:10102300CD011207F5B4CD011207F546CE01120723
:10103300F570CF011207F5E7CF011207F5CED00106
:101043001207F504D1011207F578D1011207F5F261
:10105300D1011207F5F6D2011207F5ECD3011207FD
:10106300F5A1D4011207F5B4D5011207F550D60145
:101073001207F5DDD6011207F5BBD7011207F5F309
:10108300D7011207F54BD8011207F514D90112073E
:10109300F535D9011207F5BCD9011207F5E0D901DD
:1010A3001207F502DA011207F54BDA011207F561AF
:1010B300DC011207F548DD011207F5F3DD01120724
:1010C300F530E0011207F580E0011207F5C0E001F9
:1010D3001207F502E1011207F55CE1011207F58A37
:1010E300E1011207F5AEE1011207F501E201120772
:1010F300F52FE2011207F568E2011207F5C7E201D5
:101103001207F534E3011207F583E4011207F5A68C
:10111300E6011207F50FE7011207F538E701120799
:10112300F5C3E7011207F52FE8011207F57AE80185
:101133001207F59EE8011207F5C2E8011207F51E32
:10114300E9011207F539E9011207F5F2E90112077E
:10115300F57880021207F5BE80021207F59E810220
:101163001207F5A082021207F5A383021207F52FD7
:1011730085021207F58D85021207F54A86021207CA
:10118300F56887021207F5D987021207F515880259
:101193001207F56388021207F56D88021207F5B18D
:1011A30088021207F50D89021207F5A889021207B2
:1011B300F5258A021207F5F48A021207F58D8B02D0
:1011C3001207F5AD8B021207F5E38B021207F51434
:1011D3008C021207F5D58C021207F5E58C02120773
:1011E300F5398D021207F5548D021207F5668D024B
:1011F3001207F56F8D021207F5C98D021207F52547
:101203008E021207F5718E021207F58C8E021207F9
:10121300F5BD8E021207F5DA8E021207F5E68E028D
:101223001207F55A90021207F57390021207F5DAC6
:1012330090021207F5ED90021207F5FB90021207D8
:10124300F5AF91021207F59392021207F5999302F3
:101253001207F52394021207F52D94021207F59A4B
:1012630094021207F5B194021207F5E394021207F0
:10127300F51C95021207F54695021207F5A795028C
:101283001207F5C795021207F5E595021207F52B2C
:1012930096021207F55197021207F59E970212075D
:1012A300F5CD97021207F54398021207F56B9802E2
:1012B3001207F5A498021207F5B298021207F50A6D
:1012C30099021207F55999021207F5989902120724
:1012D300F5C899021207F5F499021207F5FF99026E
:1012E3001207F51D9A021207F5DF9A021207F5E9B4
:1012F3009A021207F5249B021207F53A9B02120782
:10130300F5439B021207F5989B021207F5AC9B026B
:101313001207F5BA9C021207F5CD9C021207F5E2FB
:101323009C021207F5849D021207F5079E0212071D
:10133300F5C59E021207F5D09E021207F5FC9F0227
:101343001207F518A0021207F56AA0021207F5A901
:10135300A0021207F5BEA0021207F520A102120790
:10136300F5AFA1021207F5FAA1021207F54BA40289
:101373001207F5C9A4021207F53EA5021207F5608C
:10138300A7021207F578A7021207F57BA702120737
:10139300F587A7021207F59BA7021207F5A3A70279
:1013A3001207F5D6A7021207F586A8021207F5FC65
:1013B300A8021207F56FA9021207F523AA02120762
:1013C300F5D8AA021207F5F7AA021207F597AB029E
:1013D3001207F5A3AB021207F5CEAB021207F5D144
:1013E300AB021207F53BAC021207F563AD0212071D
:1013F300F53BAE021207F5C6AE021207F5DFAF02E8
:101403001207F59CB0021207F5D5B0021207F506D4
:10141300B1021207F5C4B1021207F5F4B1021207C3
:10142300F5CFB2021207F568B3021207F5F3B30260
:101433001207F5A4B4021207F527B5021207F559EE
:10144300B5021207F59AB5021207F5C7A6031207EC
:10145300F52CA7031207F569A7031207F511D602A6
:101463001207F5CEA9031207F5B1AB031207F51B5B
:10147300AF031207F556AF031207F578AF03120750
:10148300F5DBAF031207F50FB0031207F532B00314
:101493001207F55FB0031207F5BBB0031207F5029D
:1014A3009B031207F5809B031207F5B69B031207F4
:1014B300F5229C031207F58DDF021207F5B19D0398
:1014C3001207F5F69D031207F5849E031207F5DD57
:1014D3009E031207F50AA0031207F51CA1031207C6
:1014E300F579A1031207F5E5A1031207F546A20357
:1014F3001207F587A2031207F534A3031207F54673
:10150300A4031207F571A4031207F5BCA403120781
:10151300F503A5031207F595A5031207F550A603D6
:101523001207F5E293041207F5F093041207F5414D
:1015330094041207F5E394041207F52C960412079A
:10154300F550D1031207F59CD1031207F50AD20314
:101553001207F52BD2031207F5DBD2031207F5E4CA
:10156300D2031207F537D3031207F560D30312072B
:10157300F5C7D3031207F558D4031207F59AD4031A
:101583001207F5E4D4031207F543D5031207F56FE9
:10159300D5031207F500D6031207F53FD60312074A
:1015A300F57ED6031207F5B3D6031207F5C5D603A6
:1015B3001207F5D7D6031207F50AD7031207F54A20
:1015C300D7031207F56F92041207F5B6FD01120750
:1015D300F5ECFD011207F535FE011207F585FF0154
:1015E3001207F52CEA011207F56BEB011207F5A7B9
:1015F300EB011207F566ED011207F58FED011207F6
:10160300F522F0011207F566F0011207F5EFF1017B
:101613001207F587F2011207F5EFF2011207F590B1
:10162300F3011207F5D2F3011207F512F4011207C1
:10163300F59DF5011207F50DF7011207F532F901D2
:101643001207F560F9011207F587F9011207F59002
:10165300F9011207F517FA011207F535FD01120713
:10166300F5EA95041207F50096041207F56CFA03E0
:101673001207F57FFA031207F51CFB031207F55750
:10168300FB031207F572FB031207F597FB0312071F
:10169300F5DCFB031207F50DFC031207F53EFC0313
:1016A3001207F5C4FD031207F57F8E041207F5CF69
:1016B3008E041207F51A8F041207F57F910412079F
:1016C300F5C191041207F50392041207F51392046E
:1016D3001207F51D92041207F582E7021207F5C4FB
:1016E300E7021207F5CFE8021207F59FE902120796
:1016F300F5B4E9021207F5FEE9021207F560EA0202
:101703001207F573EA021207F5B4EA021207F5931A
:10171300EC021207F59AED021207F5D5ED02120756
:10172300F5ACEF021207F5BBEF021207F50AF00260
:101733001207F520F0021207F52DF0021207F566E5
:10174300F0021207F57FF0021207F522F1021207E9
:10175300F57CF1021207F5CAF1021207F5EFF20266
:101763001207F511F3021207F599F5021207F5C7EF
:10177300F5021207F550F6021207F5C8F602120732
:10178300F5D4F6021207F510F7021207F56FF70208
:101793001207F56CF8021207F5A0F8021207F5AA72
:1017A300F8021207F5ADF8021207F5BCF8021207AA
:1017B300F539F9021207F554F9021207F576F90221
:1017C3001207F5A2F9021207F5DDF9021207F5EC8B
:1017D300F9021207F5F7F9021207F533FA021207B5
:1017E300F58D90041207F59E90041207F5269104D7
:1017F3001207F553C3031207F5A2C3031207F544F7
:10180300C5031207F500C7031207F548C7031207FC
:10181300F530C8031207F561C9031207F583C9033D
:101823001207F5DFC9031207F563CA031207F500B0
:1018330080031207F52E80031207F579810312073F
:10184300F5F781031207F57382031207F5DC8203B0
:101853001207F51F83031207F5A883031207F54E3A
:1018630084031207F5DA84031207F51C85031207B4
:10187300F56589031207F5E58A031207F5C38B03A0
:101883001207F5F28B031207F5248E031207F5A452
:1018930090031207F55D91031207F57A920312077D
:1018A300F5D195031207F5E195031207F54E97035A
:1018B3001207F5DA97031207F50399031207F5E800
:1018C30099031207F56A9A031207F5446E0012078B
:1018D300F5FE6E001207F5706F001207F50C70002D
:1018E3001207F57C70001207F56073001207F537D5
:1018F30074001207F5A474001207F521760012078D
:10190300F5EB76001207F55B77001207F5247900F3
:101913001207F5377A001207F5D07A001207F59609
:101923007B001207F5B0CA031207F504CB031207B5
:10193300F550CB031207F59BCB031207F5DBCB0363
:101943001207F52BCC031207F5A1CD031207F554AB
:10195300CE031207F597CE031207F5B3CE03120792
:10196300F501CF031207F557CF031207F57ECF0317
:101973001207F5AACF031207F59FD0031207F5E16B
:1019830084041207F51285041207F5CC85041207A7
:10199300F53286041207F54DFE031207F5D4FF0254
:1019A3001207F5E5FF021207F5BB86041207F5C916
:1019B30086041207F5E8FF011207F5847F0012077A
:1019C300F5947F001207F5A67F001207F5EE7F005E
:1019D3001207F58B8F041207F51090041207F574A4
:1019E30090041207F5F77F001207F5FA7F0012073C
:1019F300F562F3031207F570F3031207F5EAF30335
:101A03001207F5CEF4031207F587F6031207F5D98B
:101A1300FF031207F573D7031207F5DFD703120786
:101A2300F5A6D8031207F5B0D9031207F509DB03AE
:101A33001207F564DB031207F5B9DB031207F5CAD6
:101A4300DB031207F5DCDB031207F546DC031207A1
:101A5300F55ADC031207F56CDC031207F51CE603E9
:101A63001207F571E6031207F56DE8031207F59FF8
:101A7300E8031207F5C1E8031207F5DAE8031207D2
:101A8300F5F3E8031207F5FDE9031207F598EA03F6
:101A93001207F54788041207F56B88041207F584CB
:101AA30088041207F5B788041207F5E888041207BB
:101AB300F51689041207F57889041207F587890456
:101AC3001207F59189041207F59E89041207F5F4AC
:101AD3007C001207F51A7D001207F5577D001207E7
:101AE300F5667D001207F5857D001207F5ED7D0093
:101AF3001207F5F67D001207F5557E001207F579FA
:101B03007E001207F5387F001207F5457F001207A4
:101B1300F5567F001207F58195041207F59E95048B
:101B23001207F50FEB031207F567EC031207F574C1
:101B3300EC031207F587EC031207F5A6EC03120773
:101B4300F5BCEC031207F5D0EC031207F545ED03E2
:101B53001207F5AAED031207F55AEE031207F52F44
:101B6300EF031207F53FEF031207F54EEF031207DA
:101B7300F54993041207F56D93041207F595930441
:101B83001207F5BD93041207F58282041207F5A923
:101B930082041207F5CA82041207F52F8304120781
:101BA300F50080041207F51980041207F525800457
:101BB3001207F53980041207F55780041207F561FF
:101BC30080041207F56B80041207F57E8004120768
:101BD300F5E080041207F51981041207F548810422
:101BE3001207F59681041207F5E581041207F50043
:101BF30082041207F50A82041207F53182041207E0
:101C0300F57782041207F56494041207F5809404AF
:101C13001207F50A96041207F507B1031207F53107
:101C2300B1031207F54DB1031207F560B1031207B3
:101C3300F576B1031207F5D3B1031207F506B20324
:101C43001207F547B6031207F56DB7031207F5A0A0
:101C5300B7031207F5ECB7031207F52EB903120702
:101C6300F556B9031207F56BB9031207F57BB903F0
:101C73001207F5BFB9031207F520BA031207F530AF
:101C8300BA031207F5398C041207F5548C041207B2
:101C9300F57D8C041207F5978C041207F5BC8C04B0
:101CA3001207F5DB8C041207F5F38C041207F521F8
:101CB3008D041207F53B8D041207F53D95041207B9
:101CC300F5ECF6031207F5F3F6031207F5FFF70336
:101CD3001207F52FF8031207F555F8031207F578E5
:101CE300F8031207F59AF8031207F5D4F80312075D
:101CF300F53AF9031207F573F9031207F5BFF90370
:101D03001207F5ECF9031207F50CFA031207F5664F
:101D1300BA031207F5A1BA031207F5DABA031207D9
:101D2300F570BB031207F59FBC031207F52DC00323
:101D33001207F5A889041207F5CA89041207F5EFFB
:101D43008A041207F5F28A041207F56C8D04120750
:101D5300F5DE8D041207F51C8E041207F55D8E0463
:101D63001207F56CFA021207F5ADFA021207F53BFA
:101D7300FC021207F506FD021207F597FF02120790
:101D8300F580DC031207F596DC031207F5C1DC03CB
:101D93001207F555DD031207F587EF031207F5A6C2
:101DA300EF031207F5F5EF031207F511F00312071E
:101DB300F542F0031207F552F0031207F55FF00343
:101DC3001207F56CF0031207F558F1031207F596A5
:101DD300F1031207F5A0F1031207F5ADF1031207A2
:101DE300F5BDF2031207F5C8F2031207F5DAF203A1
:101DF3001207F5E3F2031207F5EDF2031207F551AB
:101E0300E1031207F596E5031207F5B2E50312079E
:101E1300F5F58A041207F5BD95041207F557D402A8
:101E23001207F507D2021207F58ED1021207F53514
:101E3300D1021207F5C5D0021207F59CD002120792
:101E4300F57CCE021207F548CE021207F515CE0235
:101E53001207F5F9CD021207F512CD021207F5CAE2
:101E6300CC021207F515CB021207F595CA02120729
:101E7300F592CA021207F58FC9021207F55DC9026E
:101E83001207F59AC8021207F5C5C6021207F556DE
:101E9300C6021207F528C6021207F525C602120765
:101EA300F52DDF021207F5E5DE021207F533DE0238
:101EB3001207F5A5DD021207F598DD021207F512E8
:101EC300C6021207F5BDC5021207F5ACC50212071B
:101ED300F592DA021207F59EC4021207F568C402EE
:101EE3001207F516C4021207F5B7C3021207F5F479
:101EF300D7021207F5959D031207F586C302120751
:101F0300F54EC0021207F50EC0021207F502C00219
:101F13001207F562BF021207F5A2BE021207F51AF5
:101F2300BC021207F5ABB9021207F569B902120731
:101F3300F53DB8021207F5F2B7021207F52EB70204
:101F43001207F501B7021207F539B6021207F509B0
:101F5300B6021207F5BDD6021207F5CFB502120776
:101F6300F5B8A70300000080FBE4738F000100D6DF
:101F73000787000100871224000200621225000275
:101F8300006412260002006612270002006812286D
:101F93000001006A12290001006B12840004006C26
:101FA300128600010070122A00010071122B000139
:101FB3000072122C00010075122D000800C1072EBB
:101FC30000010076122F0001007712300001007823
:101FD3001231000100791232000100C907330001F8
:101FE30000CA07340001007A1236000100CB07381B
:101FF3000001007B12390001007412830002008586
:102003001263000100D50764000100BE07650001EB
:102013000073126D00010084126E000200BF0743BB
:102023000001007C12440002007D12450001007F84
:102033001246000200801247000800CD0748000145
:102043000082124B0001008312040001008812A1D8
:102053000001008B12370001008A128800010089F9
:10206300123C000100CC0700000000000000013614
:102073003601010001020100010301000104010610
:102083000605020000070100340801000F090401DE
:10209300010D0100FF0E08000017020000190100E6
:1020A300FF1A0100011B0100FE1C0100081D0200B4
:1020B300001F010001200100012102000023010093
:1020C3000F24020000260100012701000828020056
:1020D300FF2A0100072B0102402C0100002D010003
:1020E300012E0100012F0100FF30010B1C310800FC
:1020F300003A0100083B01000F2F010000030271A9
:102103000230016002110270020102020202028027
:1021130002100261023A004100630273027202621A
:1021230002430200021302380000020002040212FA
:102133000200020002000200020402040237003718
:10214300003C024402000239000002000265020062
:1021530002350281020002050282028302000203A9
:102163000071003001600011007000310220035043
:10217300048000100061000000140063007300720B
:10218300006200430000001300060000000000048A
:1021930000120000000000000000000400040037EB
:1021A3000037003C0244000000000000000000650E
:1021B30000000035008100000005000000830000DE
:1021C3000003047104020460041104700402040295
:1021D300040104020410046104000414046304737E
:1021E300047204620443040004130406040004009C
:1021F30004040412040004000400040004510464F1
:10220300000004000400044404000400040004006B
:102213000465040004350481046400050400048398
:10222300040004010371030103010301030103011A
:10223300032203020301031003000300030003004E
:102243000300030003000342030003240306030007
:1022530003000304031203250323032503230304B9
:1022630003040300030003000344030003000323E8
:102273000300036503210035038103000305030005
:1022830003000300030101710101010101110101B7
:10229300013101010101018001100161013B0014C1
:1022A300006301730172016201430100011301061E
:1022B300013D01350004011201000100010001008C
:1022C3000104010401330133013C014401320136AD
:1022D30000000100016501000135008101000105D5
:1022E3000182018301000136000100060000000F96
:1022F3000000000000000000000000000003FFFFDA
:1023030000000403FFFF0000FFFF0FF4010005C4FA
:10231300040320000100130B000000000000000074
:1023230003010F01510E06870E08810E0B9F0E103D
:10233300C10D0AB70E02570E05750E075D0E0C335D
:102343000E0D450EFF00000000E318130083180173
:1023530000E31802004D1803005318040059180530
:10236300005F1806006B18FFFF00008F12BF129565
:10237300129B12B912AD12A712C512CB12D112DDE4
:1023830012A1128912831200160F00000B150B0203
:102393000002220F32000006851397139D13591272
:1023A300A31353125F12140AE5D5C5B5A5A59585E8
:1023B300857565E51303140914EB13F713F11393F0
:1023C300118D11C911CF11C3117B110001191618F9
:1023D3001616152303000C0E020B040B0A07080044
:1023E3000F00034948424D181725050230301718CE
:1023F3001921301B1D1F30303016181920231A1CC9
:102403001E3000383C3E363B3B352B432CD913A9B9
:1024130013AF13BB13B513B312D712FD13E312E9B2
:10242300120204020101010109029F11A511991170
:10243300D51100BE040AAB11BD11FA06A92304008D
:102443007F00E8030C000E002800000000000901D3
:1024530008100C0A0308090004000CFF1E1E0508DF
:102463000403100574F612037774FF1208D4851859
:1024730082851983E4F08582088583097808120828
:102483002D750801750900780812082D1224BB74F4
:10249300041208407401023E2574F61203778C0877
:1024A3008D09780812082D75080B75090078081234
:1024B300082D1224BB023E231224E4121655227463
:1024C300F61203778C088D09780812082D75080B0E
:1024D300750900780812082D1224E412165B023ED7
:1024E30023EA75F00BA4FAA8F075F00BEBA428FB14
:1024F300EAFCEBFD7A237B0022C082C0838A828BB5
:1025030083E0D2E7F01217A5023A2DC082C0837987
:1025130000122A8A125DD0C082C083900504124B38
:102523004ED083D082C3E09CA3E09D500C1264A4E0
:10253300FAA3E012253F600109023A2DFBEA75F088
:102543000BA4FAA8F075F00BEBA428FB900506E0AA
:102553002AF8A3E03B8882F583E0540F2274F71234
:1025630003778908122A8A122B30ACF075F00BE935
:10257300A42CF9900506E028FEA3E039FF74016559
:102583000860067402650870208A828B83122B1CF4
:10259300123E1D74026508701B1229DB122B637037
:1025A300138E828F83E4F0800BEA2403FCEB122A60
:1025B300FE122B0AEEFAEFFB120AF7023D7474F4D3
:1025C300120377126DCB79008E828F83E060768958
:1025D3000A890B8065E50A75F00BA4FAA8F075F07B
:1025E3000BE50B12254C7046E50A75F00BA4F8AA0F
:1025F300F075F00BE50B122B428E828F83E085087A
:1026030082850983122C24850882850983A3123EBF
:102613001DEE2403FCEF122B07123BEB12584AAAC0
:1026230008AB09120AF77901900504125257E50A1B
:102633002401F50AE50B3400F50B1229E3E50A9AA8
:10264300E50B9B4090023FC974F5120377EAFEEB5A
:10265300FF740B120A96123BF0750A01EC4D602BC6
:10266300EC126DE7ED125DD0123E157901120B03EA
:10267300E5084509606F850882850983A3126DD536
:102683007902AA08AB09120B03805AE508450960D1
:102693002B125DD4124496123BEC122B4D700CEEB0
:1026A300FAEFFB120B09E9F50A80CBEE2403FA12C9
:1026B3002A8570317903EEFAEFFB80CA8E828F830D
:1026C300A3E064FE7003A3E0F4700BEE24030A0A94
:1026D3000A122A85700CEEFAEFFB120B09E9F50AD0
:1026E3008003750A00A90A7F030205D774F7120352
:1026F30077900504123D84EA4B602FEA75F00BA432
:10270300FAA8F075F00BEBA428FBEAFEEBFF121519
:10271300D7900506123D8490050612509C6012EE78
:10272300FCEFFD790012154D8007900506E4F0A338
:10273300F0023D7474F6120377E4F508F50978089E
:1027430012082D900504124B4EEC75F00BA4FCA857
:10275300F075F00BEDA428FD7A237B0012164F745D
:1027630002120840E9FE6003120B21025FE374F7D3
:102773001203777E007F00800AEEFAEFFB120AE570
:102783001236091227F940F1023D7474F7120377E8
:102793007E007F008012122A68FCA3E039FDEEFA66
:1027A300EFFB120AF11236091227F940E9023D74D0
:1027B30074F71203777E007F008033EEF8EFF9E8B9
:1027C30075F00BA4F8AAF075F00BE9A42AF99005AB
:1027D3000612556588828983E0A2E7500EC2E7F0AE
:1027E300AC82AD83EEFAEFFB120AEB123609122725
:1027F300F940C8023D74900504124806C3EE98EFF1
:102803009922C082C083EC4D6005121D5D80097C56
:10281300087D00790012154D023A2D74F6120377E4
:102823007900EA4B601878008808126117EB12648C
:10283300A060047901780808E8C3940840EA023EDE
:102843002874F712037774F31208D4ECFEEDFF85B6
:102853001882851983E4F004120A96EAF0A3EB12B6
:1028630055D07403120A96AC82AD83EEFAEFFB12D5
:102873000B33EEFAEFFB120B39023D6F74F71203C1
:102883007774F31208D4ECFEEDFF85188285198363
:10289300E4F0EAFCEBFD7403120A96122C1D74019A
:1028A300120A96123E118E828F83123E1D74FE68A9
:1028B300700374FF696004790180027900023D6F3F
:1028C30074F7120377EAFEEBFF1229217014122921
:1028D3002C8E828F83E0F4F88A828B83E058F01287
:1028E3000AF7A908023D7474F7120377EAFEEBFFB7
:1028F3007508008E828F83E06022122921701D12D9
:10290300292C8A828B83E08F838E82F8E058700CA7
:10291300E0F88A828B83E048F0120AF780C4120A37
:10292300FDE9F5087401650822126DE0122B3412DB
:102933002A76FAA3E039FB2274F41203778A088B10
:10294300097C007D001229DB122B0A122A9B126DCF
:10295300D27900850882850983A3E064FE7003A30E
:10296300E0F460717E007F008062EEFAEF12253F93
:102973006057EEFAEFFBEA75F00BA4FAA8F075F0D6
:102983000BEBA428FB900506E02AF50AA3E03BF530
:102993000B850882850983A3125516850A82850B48
:1029A30083A3E06A7003A3E06B701EE50A2403FAB5
:1029B300E50B122A86700AE50A2403FCE50B122BA9
:1029C30007122A8F7901125DE61236091229E3EE06
:1029D3009AEF9B4095023FC9EA24030A0A0AEB22B5
:1029E3009005041259BDC32274F31203778A088B2E
:1029F300098A828B83A3126DD5122A8A126DD2752E
:102A03000C001229DB122A8670547E007F00804955
:102A1300122A68FAA3E0398A82F583E0540F6036FC
:102A2300122A68F50AA3E039F50BE50A2403FCE54D
:102A33000B122B113400FB121D57E964017017852B
:102A43000A82850B83A3125A7EA3123E1D122A8F7C
:102A5300750C01125DE61236091227F940B2A90C72
:102A63007F050205D7EEF8EFF9E875F00BA4F8122D
:102A73002A7622AAF075F00BE9A42AF9900506E05C
:102A83002822EF122B5D22126DE6EB22122A9B12F3
:102A93005DE1EEF0A3EFF022E508126DE7E5092210
:102AA30074F5120377EAFEEBFF8E828F83A3126D18
:102AB300D57C007D00EE24030A0A0AEF122B0AEEEE
:102AC300FAEFFB120AFDE9F50A7401650A7029128F
:102AD3006DE0122B30AAF075F00BE9122B4285083A
:102AE30082F583122B1C122B4D700DE5082403FC79
:102AF300E509122AFE122B0A0226E83400FDEE2411
:102B030003FAEF22122B113400FB120B3322340091
:102B1300FDE5082403FAE50922A3122B2122122B37
:102B23002522E0F8A3E0F98E828F83A322122B34AF
:102B3300223400F58312480AE875F00BA4F8221238
:102B43002A7CF508A3E039F50922E8F0A3E9F0E5CA
:102B5300082403FAE509122B5D22122B6364012278
:102B63003400FB120B39E92274F312037774E61273
:102B730008D4126DCB750C01750800750900750A30
:102B830000750B00851882851983E4F0EE2403FC9D
:102B9300EF3400FD7403120A96122C1DE9640170D0
:102BA30023740B120A96123E157401120A961255DB
:102BB3001A7003A3E06960518518828519838582A1
:102BC30008858309740D120A96E4122C24740E12DC
:102BD3000A96123E1D740D120A96AA82AB83120B3B
:102BE30057E96401700B740D120A9685820A858376
:102BF3000B780A12082DAC08AD09EEFAEFFB120BA5
:102C03000F7402120840E9F50CEEFAEFFB120B51B8
:102C1300A90C741A120840022A63122EF0120B5DDB
:102C230022123D7F12480622C082C08378007900B9
:102C33008003122D1B1229E3E89AE99B5029E8FA35
:102C4300E9FBEA75F00BA4FAACF075F00BEBA42CDE
:102C5300FB900506E02AFCA3E03B8C82F583E0545D
:102C63000F70CF790080027901023A2DC082C083B0
:102C73009004F212485CEC75F012A4FCA8F075F015
:102C830012EDA428FD79FF7AB77B0C12154D023A99
:102C93002D74F7120377E9FEEAFF7A007B007800D0
:102CA30079008028E8FCE9FDEC75F012A4FC85F0BE
:102CB3000875F012EDA42508123130C39E400AE0D6
:102CC300FCEFC39C40031234DE122D1B123124404F
:102CD300D3023D74C082C083780079008003122D33
:102CE3001B122D0F501F123134F470F2E875F012DD
:102CF300A4F8AAF075F012E9A42AF974B728FA74B3
:102D03000C39FB80047A007B00023A2D9004F21206
:102D130033B6C3E89AE99B22E8240108E93400F9B1
:102D23002274F012037774F31208D48A0A8B0B8C83
:102D33000C8D0D8908EC450D6016AA0CAB0D120B1A
:102D4300AB8A0E8B0FAE0EAF0FEE4F6003022DE278
:102D5300120B818A0E8B0FA80EA90FE8FEE9FFE87C
:102D630049607C90244F122E4460227403650860EE
:102D7300067404650870167A047903120B7B902499
:102D83004F122E5B40077A007B00022E4190244DA8
:102D9300122E44601B740165086006740265087096
:102DA3000F7A027901120B7B90244D122E5B50D6C1
:102DB3008518828519837401F0120A9612584AAC59
:102DC3000CAD0D7403120A96122EE9740B120A96B7
:102DD300123BF81241FFE41258321210DF8004EE66
:102DE3004F604A780074FF2508C3940450027804A6
:102DF3008E828F8312584A8E828F83A3A3A3A3E567
:102E030008F0E88E828F83A3A3A3A3A312585212C0
:102E130002261233D38E828F83A3A3A3A3A3A3A3D8
:102E2300F01233CA120A73125DCA120A7F122E49B4
:102E3300400590122DE4F0120FB9EEFAEFFB0248B1
:102E43001012596C49227A047900120B7B9004F218
:102E5300126486EA98EB9922122E747583047582A4
:102E6300F2E493C398F8A3E49399F9C3EA98EB992E
:102E730022E493F8740193F92274F212037774F342
:102E83001208D48A088B09ECFEEDFF750A00EEFAEE
:102E9300EFFB120BAB8A0C8B0DA80CA90DE8496054
:102EA3003E88828983E065087004A3E06509602F8A
:102EB30088828983A3A3A3A3E0C394055021125C52
:102EC300788518828519837401F0120A96125C7C46
:102ED300EEFCEFFD7403120A96122EE9750A01A99E
:102EE3000A740D02530E122EF0120B6922AA82AB42
:102EF30083120B33851882851983AA82AB832274CC
:102F0300F6120377122F3E600FA3A3A3A3E014C30B
:102F130094045004790180027900023E2874F61269
:102F23000377122F3E600FA3A3A3A3E014C394025D
:102F33005004790180027900023E28120BA58A828F
:102F43008B83E58245832274F6120377122F3E604A
:102F53000BA3A3A3A3E07004790180027900023ECE
:102F630028C082C083EAFCEBFD7A007B00023A2A88
:102F7300C082C0837C007D00023A2A74F412037776
:102F830074F31208D4EAFEEBFF8C0A8D0BC3EC94A6
:102F9300F8ED94FF4007EE4F7003023037750800D9
:102FA300750900802E8518828519837401F0123605
:102FB30031120A9612363F60137403120A96AC82DA
:102FC300AD83EEFAEFFB121D57E97049E5082401C2
:102FD3001231D09004F2E4125974E50898E5099986
:102FE3005052E50875F012A4F8AAF075F012E5093D
:102FF300A42AF91264B960D4EE4F70A974FF650A6C
:10300300700474FF650B60C4123621650A7004A353
:10301300E0650B70B7E50875F012A4F508A8F07524
:10302300F012E509A428F50974B72508FA740C35DC
:1030330009FB80047A007B00023FC474F412037717
:1030430074F31208D4750800120BAB8A0A8B0BAE0B
:103053000AAF0BEE4F602A8518828519837401121B
:103063003D79F8A3E0F9740B120A96123EA2120BF3
:103073004B7C127D0079FFEEFAEFFB12154D7508BC
:1030830001122E49500990122D7401F0120FB9A9A3
:1030930008023FC474F7120377E9FE74FE6A7003F3
:1030A30074FF6B7800790070058052122D1B12316A
:1030B30024504AE8FCE9FDEC75F012A4FCAFF0756E
:1030C300F012EDA42F123130F460E0E8FCE9FDECDE
:1030D30075F012A4FC75F012EDA42FFD74B72CF556
:1030E30082740C3DF583E06A7003A3E06B70BC80CF
:1030F3000912313414C394044017122D1B122D0FDF
:103103005018EE70EC12313464016005E064037012
:10311300E9123612FAA3E0FB80047AFE7BFF023D3C
:10312300749004F2124860C3E89CE99D221235139F
:1031330022E8FAE9FBEA75F012A4FAACF075F01292
:10314300EBA42CFB74BB2AF582740C3BF583E022C1
:10315300120BBD023A2DC082C083790180F274F054
:103163001203778A0A8B0B7A047901120B7B8A0C80
:103173008B0DEA450D603EEAC333FAEB33FB1215C0
:10318300D78A088B09AE08AF09EE4F60237AFE7B1E
:10319300FF120BC374FE6A700374FF6B601B850818
:1031A30082850983123D84E50824021231D080E12F
:1031B300750C0080047E007F00850A82850B83E501
:1031C3000CF0EEFAEFFB024815E5082407F508E5D5
:1031D300093400F509229004F2124860C3EA9CEB1B
:1031E3009D2274F6120377E4F508F50978081208AE
:1031F3002D9004F2E493F508740193F509740378B0
:103203000812097612321C12164F7402120840E992
:10321300FE6003120BD5025FE3E5082402FCE50917
:103223003400FD7A227B002274F612037774FE12B7
:1032330008D4851882851983E4F0A3123E0385829E
:1032430008858309780812082D7508027509007826
:103253000812082D7C007D007A227B00121655741B
:10326300041208407402023E2574F112037774DFDE
:103273001208D48518828519838582088583097885
:103283000812082D750802750900780812082D7CAC
:10329300007D007A227B0012165B7404120840E959
:1032A30060030233A49004F21233B6123E0BC3EA56
:1032B30098EB9950030233A4750800023399740FF5
:1032C300120A9685820A85830B780A12082D750ADD
:1032D30008750B00780A12082D85080A7403780A0A
:1032E300120976E50A2402FCE50B12322312165B5F
:1032F3007404120840E960030233977411120A96AA
:10330300E0F47003A3E0F470030233977402120A2B
:10331300967401F07411120A96123E11740D120A7A
:1033230096123E1D7402120A96AA82AB83120B6395
:10333300E96061900545124B4E740F120A961255BF
:10334300161210DFE50875F012A4F8A9F074B72877
:10335300FE740C39FF740F120A96A982AA83890C92
:103363008A0D750E00780C1208297C081233BE12E0
:1033730008401258571202261233D31233CA120AC4
:1033830073125DCA120A7F122E49400590122DE472
:10339300F0120FB9050885080A12647A5003023245
:1033A300C1851882851983E0F974211208407F07CB
:1033B3000205D7E493FA740193FB227D00EEFAEF42
:1033C300FB121541740322125DDBE4F090825A2252
:1033D300E88E828F83A3A3A3A3A3A3A3A31233F58E
:1033E30074011233F5A3F0EE2410125DDEE4F0A3B2
:1033F300F02212420BA3A3A32274F412037774FEE8
:103403001208D4851882851983E4F0A3F0FE80673F
:10341300EEF8EFF9E875F012A4F8AAF075F012E9E6
:10342300A42AF974B728F50A740C39F50B780A1233
:10343300082D750808750900780812082D8E088F65
:10344300097403780812097612321C121655740493
:10345300120840850A82850B83A3A3A3A3E0F4602B
:103463000F851882851983E02401F0A3E03400F06E
:10347300EE24010EEF3400FF9004F2126A604090D4
:10348300851882851983858208858309780812083F
:103493002D750802750900780812082D7C007D003F
:1034A3007A227B0012165574041208407402023FFC
:1034B300C6C082C0837A007B008004191234DE12F6
:1034C30031D950101234FDC3940550F0E970EC1259
:1034D30034E780047A007B00023A2DEA24010AEBE8
:1034E3003400FB22EA75F012A4FA75F012EBA4285B
:1034F300FB74B72AFA740C3BFB22EAFCEBFDEC7578
:10350300F012A4FCA8F075F012EDA42812351322D2
:10351300FD74BB2CF582740C3DF583E02274F71225
:10352300037774F31208D47E007F000235C5E508E3
:1035330075F017A4F8A9F012671AFAA3E0FBEEF8E6
:10354300EFF9E875F012A4F8ACF075F012E9A42CC9
:103553001236206A7003A3E06B603FE50875F0172D
:10356300A4F8AAF0EA126719F8A3E0F97401120AA1
:1035730096E0687003A3E0696020E50875F017A47E
:10358300F8EAF9743328FC740E39FD7403120A96B1
:10359300AA82AB83121D57E96014E50875F017A4DE
:1035A300F8A9F0743128FA740E39FB1210EB0508F0
:1035B300902454E493F8E508C3985003023531127C
:1035C30036099004F2126A605039EEF8EFF91236B8
:1035D30012F47003A3E0F460E685188285198374FE
:1035E30001F0EEF8EFF9E875F012A4F875F012E9BE
:1035F300A42AF9123631120A9612363F60C17508B1
:103603000080AD023D6FEE24010EEF3400FF22E88F
:1036130075F012A4F8AAF075F012E9A42AF912368B
:10362300252274B728F582740C39F583E02274B926
:1036330028F582740C39124804740B22E8F0A3E9CC
:10364300123EAA120B63E922C082C08390050D7457
:103653006FF0A3740EF090050F7469F0A3740EF06D
:103663009005137471F0A3740CF0023A2DC082C05C
:10367300839005117463F0A3740EF0023A2D74F76E
:10368300120377EAFEEBFF900547E06408601BE056
:10369300640460168E828F83E054036401704812C1
:1036A3003BEB12430BE06406703D8E828F83A3A332
:1036B300E064FE7003A3E0F4602D8E828F83A3A3E6
:1036C300123E11900538E0687003A3E069700BEEB9
:1036D3002415F582EF1264A06008120F2FE9F50894
:1036E3008008120F3580F67508C2EEFAEFFB12154B
:1036F300DD0228E574F41203778A088B098A828B2A
:1037030083E0F8A3E0FAE82AFAE43400FB1215D7C1
:103713008A0A8B0BAE0AAF0BEE4F60638508828576
:103723000983E0FC7D00790012154D8E828F83A3FF
:10373300A3126DD5120F718E828F83A3A3A3A3123D
:103743003D84850882850983E0F8EE28F8EF34008C
:10375300123E19850882850983A3E0C0E0EE240D9B
:10376300125DCDD0E0F0120F83EE240E125DCDE991
:10377300125477E0C0E0EE2411125DCDD0E0F0EEFC
:10378300FAEFFB023FC974F412037774EB1208D407
:103793008A088B098C0A8D0BE9FE900547E06404C7
:1037A3006005E06408700479C2802EA37808120AC9
:1037B30057EE90054E123A6B120A577405120A9689
:1037C300E9F07404120A967401F07407120A96E47D
:1037D300F090054774021239C87415023FC674F697
:1037E30012037774EB1208D4EAFEEBFF12509960D0
:1037F300030238857A077B001215D7900509123D1D
:103803008412509960788E828F83120A7390050A0E
:1038130012430E120A7F126C99C0E0123891D0E065
:10382300F0EE2405FAEF3400FB8A088B098A82F54F
:1038330083E0C0E012388CD0E0123FC0E0C0E01259
:10384300388CA3D0E0123DF8120A738518828519CB
:1038530083120A7F88828983E0C0E07405120A9686
:10386300D0E0F0850882850983E0C0E07404120A81
:1038730096D0E0F07407120A961239C780067910C1
:10388300800279017415023E25123891A322900516
:1038930009E0FAA3E0F5838A82A3A3A3A322C0824B
:1038A300C083125099600D9005091259AB90050918
:1038B300E4F0A3F0120E9912108B023A2D74F01259
:1038C300037774EB1208D4ECFEEDFF89087425121C
:1038D3000A96780C120A397429120A96E0F9742AA6
:1038E300120A96E0FC742B120A96E0FD740F6970BD
:1038F30005740F6C6012901279E06402700579C14F
:103903000239C2E9C39C40F6900548780C120A5765
:10391300E50890054EF0E990054CF0ECA3F0ED902E
:10392300054FF074FF6A700374FF6B701D9012856E
:10393300E0F47003A3E0F47005121559800C9012A3
:1039430085123D4CE8F0A3E98007900545EAF0A312
:10395300EBF0EE4F6017EEFAEFFB12114BE9640147
:10396300700BEEFCEFFD7A597B05121D5D90053857
:10397300E4F0A3F090053BF0A3F0900558F090120B
:1039830079E06402700890054C740FF0A3F0900581
:10399300477405F014120A96E4F0900548120A736E
:1039A300851882851983120A7F90054EE0C0E07462
:1039B30005120A96D0E0F07407120A961239C774FA
:1039C30015024812E4123EAA121DC322C082C0830C
:1039D300900508E0700312187D120C29804CC082F8
:1039E300C083900508E090122C7004E4F0802D74DD
:1039F30001F0900508E0F460237C41E0C39441505A
:103A030002E0FCECF8E0C398F0EC75F0E8A4CCA875
:103A1300F075F003A428FD7A801248687A2C7B1293
:103A23007941121DAB8003120BB1D083D082020700
:103A3300F274F412037774EB1208D48A088B098C9E
:103A43000A8D0B9005477401123A6B120A577405DD
:103A5300120A96E9F07404120A967403F0740712BA
:103A63000A961239C70237DC123E0378082274F72C
:103A73001203777C01120C3B023D7474F21203773C
:103A830074FC1208D4E9851882851983F0EAFEEBE9
:103A9300FF8C0A900545124B4E120E8D8A088B0936
:103AA300EA4509700579CA023BE68A828B83A3A3A0
:103AB300A3A3A3A3A3E064FE7003A3E0F4700579BA
:103AC300C3023BE69005451255161210F185088294
:103AD300850983A3A3A3A3A3A3A3A3A3A3E0049000
:103AE3000558123D537402120A967402F014120A16
:103AF30096AA82AB83120FF58A0C8B0DAE0CAF0D19
:103B0300EE4F7003023BDD123BEB12448A7406F066
:103B1300A3A882A9839005321259E81247E3F0EE75
:103B23002413125DCD740112582A7440F0A3E412D9
:103B33005470A3A3123BF8123E1DEE2411125DCD67
:103B4300E50AF0EEFAEFFB120BFFE9FE6003023B1E
:103B5300DF9005477409F01231CCAA08FB794B12A8
:103B63001DAB850882850983123D45123E1D9005D4
:103B73003AE0F8851882851983E068600CE09005C7
:103B83003A123EA679E1121DAB901266123E1190D5
:103B93001268E0687003A3E069601A90050B123E97
:103BA3001D901268125516120F9B901268124B4EFD
:103BB3007A011248687A007B04900592E0F91216A4
:103BC30091901268123BF074027808120976AC08DF
:103BD300AD09FA7B0412486A80027E109006DAE48B
:103BE300F0EEF9740402530EEE125DDC22E0F508E8
:103BF300A3E0F50922123BFC22122B25A32274F524
:103C030012037774E21208D4851882851983ECF0C5
:103C1300A3EDF0EAFEEBFF89087429120A96E0F59A
:103C230009742C120A96E0F50A900547E0640460D3
:103C330005E06408700579C2023D3D742A120A96B4
:103C4300E064FE7003A3E0F4700579C3023D3D9088
:103C530005477403123EA67950121DAB742A120A4B
:103C630096AA82AB83794B121DAB85188285198383
:103C7300123D4C123E1DE50890053AF0742A120AD3
:103C830096123D45123E1DE509900532123D5374CF
:103C9300CE55094480C0E07412120A96D0E0F09029
:103CA3001287E06004640170087401250A900558C6
:103CB300F0740F120A967402F0742A120A96123ED6
:103CC300117407120A96E8F0A3E9123D8A741012E0
:103CD3000A96123E1D7405120A96E508F0741B122B
:103CE3000A96E4F090054D740FF07A4D7B057954F4
:103CF300121DAB90054C740FF07A4C7B057947127B
:103D03001DAB90054CE0C3940F50237405120A9623
:103D1300E0C0E07402120A96D0E0F07404120A962E
:103D23007401F004120A96AA82AB83121DCF7405A4
:103D3300120A96AA82AB83121DB1741E12084002A6
:103D430026EA12480690053B2212480690054522B2
:103D5300F0EEFCEFFD7A597B05121D5D2274F7121C
:103D63000377EB90054FF0120E7B8005740D12085C
:103D7300407F010205D7123D7FA3E022123DF8A345
:103D830022EAF0A3EBF022123DFEF8A3E0F922743D
:103D9300F712037774F81208D4EAFEEBFF79009068
:103DA3000547E06408704485188285198374FDF023
:103DB300A374FFF0120F6B7402120A96123D8474FF
:103DC30005120A96E4123D7FE0C0E07404120A96DD
:103DD300D0E0123DF3C0E07406120A96D0E0F0740E
:103DE30007120A96E4123EA6120FD77408023D7119
:103DF300123DF8E022F08E828F8322123E03E022EE
:103E0300F0851882851983228518828519831248C3
:103E13000622E0F8A3E0F9125DDBE8F0A3E9F02263
:103E230074041208407F020205D7C082C083900544
:103E3300197407F0A3740DF09005BF7431F0A374E7
:103E430010F090051D743DF0A3740DF090051F74E0
:103E530007F0A3740DF09005217443F0A3740DF0E3
:103E6300023A2D74F412037774F91208D48A088B7A
:103E7300098C0A8D0B8518828519837808120A57D5
:103E83007404120A96E9F07405120A96E4F07406B3
:103E9300120A96E4123EA6120C117407023FC6E8FA
:103EA300F0A3E9123EAA22123E03AA82AB83227434
:103EB300F41203778A088B098A828B83125DE9EEF9
:103EC3004F7003023FBE9004E212509C60158A8239
:103ED3008B83A3A3E0F9EEFAEFFB9004E312430E06
:103EE300121F6C8E828F83A3A3A3A3A3A3A3A3A355
:103EF300E0640270748E828F83A3A3A3A3A3A3E0C1
:103F030054027003023F90850882850983A3A3E0CE
:103F130064E960798E828F83A3A3A3A3A3A3A3A33E
:103F2300A3A3E0701490127CE0048E828F83A3A37A
:103F3300A3A3A3A3A3A3A3A3F08E828F83A3A3A36B
:103F4300A3A3A3A3A3A3A3E014123FC0A3A3A37497
:103F530004F090127D125824E8F0A3E91268FD8B57
:103F63000BEA450B70031262DB8E828F83A3A3A33C
:103F7300A3A3A3A3A3A3E0640260128E828F83A3EF
:103F8300A3A3A3A3A3A3A3A3E06406702E8E828F8F
:103F930083A3A3A3A3A3A3E0A2E0501F8508828564
:103FA3000983A3A3E0F9EEFAEFFB121E4D8E828F75
:103FB30083A3A3A3A3A3A3E054FEF08009124207A3
:103FC30022740D1208407F040205D774EC120377A4
:103FD30074DD1208D4EAFEEBFF8C088D09743712E6
:103FE3000A96780C120A39750A007405120A96ACFF
:103FF30082AD83120AC17412120A96E07008741516
:10400300120A96E060207405120A96E0A2E6501E9A
:104013008E828F83A3A3A3A3A3A3A3A3A312551643
:1040230012100DE960087903121D450241ED740574
:10403300120A96E0540C64047005750B0180037535
:104043000B00E0A2E55035750A01E50BA2E0402C18
:10405300120F718A108B11A810A911123BEBE068A3
:104063007003A3E06960157405120A96126DDC12E1
:104073005512121E59E96004790480AC7405120AC2
:1040830096E0A2E650227406120A96E054037018D2
:104093007405120A96E0540C640C600CE0540C6432
:1040A30008600575100180037510007405120A96E7
:1040B300E05403F8740268700C126DDC125512128E
:1040C3000AD30241ED740168703AE510A2E050038F
:1040D3001241F57405120A96A882A9837403120A81
:1040E30096E8F0A3E91247FA8518828519831241ED
:1040F300FFE0C0E07402120A96D0E0123EA6121F3F
:104103003D0241EDE860030241ED90052FE06401BB
:1041130070108E828F83A3A3A3A3A3A3E0700302D3
:10412300407B7422120A9674021247FA741A120A16
:1041330096123E1DE510A2E050087405120A96126D
:1041430041F5E50BA2E0506AEE240FF582EF12640D
:10415300A0C0E07417120A96D0E0F09004E4125065
:104163009C70030241ED120F718A128B13A812A9DE
:1041730013741A120A96E0687003A3E069706B78EF
:104183000C120825780A120831780812082DA91094
:10419300740C120A96AC82AD837421120A96AA8219
:1041A300AB839004E412430B121F6C740712084094
:1041B3008038780C120825780A120831780812081A
:1041C3002D90054512069DEE2412F582EF1261CE65
:1041D3007423120A96AC82AD83740E120A96AA82D5
:1041E300AB83121E41740912084074231208400263
:1041F30068C8126DDC1259B9120AC722E8F0A3E9A4
:104203001242072212420B22F08E828F83A3A3A3B2
:10421300A3A3A32274F7120377121751023D7474F8
:10422300F712037712175D023D7474F712037712C6
:104233001769023D74C082C083121763023A2D745A
:10424300F712037712176F023D7474F71203777432
:1042530009120A96E0F508780812083112177B74E0
:1042630001023D71C082C083121787023A2DC082BA
:10427300C08312178D023A2D74F712037712179326
:10428300023D7474F712037712179F023D7474F79B
:10429300120377EAFEEBFF8908740165087014794D
:1042A30000120D7F90245FE493FC7900EEFAEFFB9C
:1042B300120CF5023D7474F412037774F91208D4E6
:1042C300E9FE8A088B098C0A8D0B7413120A961265
:1042D300551690072612509C6027EE851882851983
:1042E30083F07401120A967808120A57EAF8EBF978
:1042F3007405120A96123EA290072612430B121F50
:104303006C023E9DFB90051BE0F8A3E0F5838882D9
:1043130022C082C0831217CF023A2D74F71203779B
:1043230090122FE0F97E00800B12648C540D64010F
:104333007001190E1245185003E970ED023D7474B3
:10434300F7120377901230E0F97E00800B12648C31
:10435300548D64817001190E1245185003E970EDF4
:10436300023D7474F2120377890BE975F006A424F5
:104373000CF508E5F01231D48A0CE508250CFAE5B2
:10438300093400FB1215D78A0C8B0DAE0CAF0DEE62
:104393004F6027AC08AD09790012154D123BEBE5D0
:1043A3000BF0EE2508F8EF3509F98E828F83A3A36E
:1043B300A3A3A3A3A3A3A3123E1DEEFAEFFB0253F1
:1043C3001174F6120377EAFEEBFF120CD190122E52
:1043D300E0F8E9C3984009900515125516120CD759
:1043E300EE2402F8EF125B2E9005171259E89005A0
:1043F30017E004F0EEFAEFFB120CDD850882850965
:1044030083E0025FE4C082C08379009005158001D8
:10441300091255168A828B83E582458370F2023A2C
:104423002D74F7120377EAFEEBFFEE4F605690050B
:104433001512509C604E888289837A007B00EE655A
:10444300827003EF6583600FAA82AB8312448AE50F
:10445300824583602F80E7900515124496687002A9
:10446300EF698E828F837008123E119005158003C9
:104473001268DA123E1DEEFAEFFB121F0DEEFAEF91
:10448300FB1215DD023D7412448E2212480A888203
:10449300898322124806EE22C082C08390051580CC
:1044A300048882898312509C600B88828983124B13
:1044B3004EEC4D70EC8A828B83E4F0A3F0E8496004
:1044C30006888289838003900515123D84023A2D64
:1044D30074F712037790051580048A828B83124543
:1044E300134B60257E0080010E12451850ECEE75CB
:1044F300F006A4FCADF0EA2CFCEB3DFDEC2410F53A
:1045030082ED12456870E180047A007B00023D74FD
:104513001259BDEA22124571EEC3982274F71203B1
:10452300777D0080010D12456DEDC3985034ED7514
:10453300F006A4FEA8F0E8FFEA2EFEEB3FFFEE2410
:1045430010F582EF12456870DCED75F006A4FEE805
:10455300FFEA2EFAEB3FFBEA2411F582EB1264A08B
:104563004CF0023D741264AC692212457122126D43
:10457300E6EB3400F583E0F82274F6120377120DAC
:10458300F77A007B008025EAF8EBF9E875F006A4DA
:10459300F8ACF075F006E9A42C125992126CA7A39B
:1045A300E4125A88F0A3126CAD126E2490244712C1
:1045B3002E5340D37A007B00801C8A088B09740336
:1045C300780812097612543EA374FEF0A30412581D
:1045D30068A3E4126E2490245312461B40DC7A0035
:1045E3007B00801D8A088B0974037808120976748E
:1045F30059126118741112695F74FEF0A304126EEC
:104603002490245912461B40DB902452E4939005D6
:1046130023F0124625023E28E493F8C3EA98EB946C
:1046230000227CE87D037A107B00900592E0F9126A
:10463300168B2274F012037774F51208D48A088B50
:1046430009890A8C0BE9A2E050147508FC7509FF6F
:10465300A2E15005D2E40246F8D2E30246F8125230
:10466300FD7003A3E069700579000247C5AC0A79C0
:1046730002AA08AB09120DD3E960EDE50AF50C783F
:104683000C12083179027CFE7DFFAA08AB09125097
:1046930078120840E960030247C3E50AC2E5F50A58
:1046A300900585E07051E50AA2E6404B7403120AB7
:1046B30096AC82AD83AA08AB09120B3FE9703212A4
:1046C30049998A0C8B0DA80CA90DE8FEE9FFE8496E
:1046D3006025EE24020A0AEF122B63601AEE24020D
:1046E300FCEF3400FD7403120A96AA82AB83121DF9
:1046F3005DE50AD2E5F50A900518E0F50C9005385A
:10470300E0F50EA3E0F50F780E12082D7D017C0075
:10471300900518E0F9AA0EAB0F120D8B7402120864
:1047230040E9F8900518E004F0E860030247C3E5A8
:104733000AA2E55004740E80027406C0E0740112EC
:104743000A96D0E0125DFA8A0E8B0FAE0EAF0FEE13
:104753004F60691247E31247FA888289837401F034
:104763007478550AA3126DECE50C126DECA3E50801
:10477300F0E5091247D2E4F0E50AA2E5500F74030D
:10478300120A96AC82AD83E824061247C98E828F43
:1047930083A3A374FDF0A374FFF0E50B60159024CD
:1047A30060E493F8E50BC3985009EE2413125DCD32
:1047B300E50BF0EEFAEFFB120BFF80067910800297
:1047C30079C7740B8049FAE93400FB121D5D228816
:1047D300828983A3A3A3A31247DE22125B61A322D0
:1047E300EE2417125DDE7401F0120F6BEE241A1221
:1047F3005DDEEAF0A3EB22F0126DE0340012480410
:1048030022F58312480A22E0F8A3E0F922740D127C
:1048130008407F080205D774F61203777A007B10ED
:104823001262E860089005A47401F080299007CB18
:10483300E0640190127A7006E0FC79018004E0FCE8
:1048430079037A007B00120CF590244512485C7AB8
:10485300007B1012486A023E2812486022E493FC4F
:10486300740193FD227B00900592E0F912168522D4
:1048730074EC1203778A088B098C0C8D0D890E74E6
:1048830014120A961252577416120A96E0F510A3E0
:10489300E0F51112100DE960077AFF7BFF024996DC
:1048A300901279E0640260030249897900AA08AB97
:1048B30009120DD9A90E120DCD8A128B13AE12AFA8
:1048C30013EE4F70030249718E828F83A3A3A3A3B8
:1048D300A3E064018E828F83A3A370691255168EA1
:1048E300828F83A3A3A3A3A3A3E0541860439024BC
:1048F3005EE4938E828F83A3A3A3A3F0EA650C7077
:1049030003EB650D6014EA650A7003EB650B600A3F
:10491300EA65107003EB6511701F781012082DAC57
:104923000AAD0BAA0CAB0D121109740212084080D8
:10493300089005371262D2A3F074FE6A700374FF05
:104943006B601D804EA3A3A3E0640360298E828F56
:1049530083A3A3A3A3A3E0640470057AFE02489E85
:104963008E828F83A3A3A3A3A3E0640270089005A0
:1049730084E0640270101249998B0BEA450B6006C0
:10498300AA08AB09800DAA08AB0990051912430BBD
:10499300121F6C0268C890054512507E1210CD227A
:1049A30074F7120377EAFEEBFF120B93E9700AEE3A
:1049B300FAEFFB120B9FE96006EEFAEFFB80047A35
:1049C300FE7BFF023D7474F01203778A0A8B0B8C13
:1049D3000E8D0F890975080012100DE97900600327
:1049E300024B40AA0AAB0B120DD9A909120DCD8AAD
:1049F3000C8B0DAE0CAF0DEE4F60198E828F83A31F
:104A0300A3A3A3A3E064027055900584E06402703D
:104A130003024B3EAA0AAB0B90051F12430B121F56
:104A23006C120BA58A0C8B0DA80CA90DE849700319
:104A3300024B3E88828983A3A3A3A3A3E0A2E04001
:104A430003024B3E750C01A2E150687901AC0AAD3B
:104A53000BAA0EAB0F120D25E97064024B3E8E823A
:104A63008F83A3A3A3A3A3E064037005750C028043
:104A7300528E828F83A3A3A3A3A3E06401600302E6
:104A83004B3E900545124B4E8E828F83124EA38A66
:104A93000C8B0DA80CA90DE84960D1902457E49321
:104AA300FA88828983E0C39A50C2A3E06003024B71
:104AB3003E80B988828983A3A3A3A3A3D2E1F0EEA6
:104AC3004F603A8E828F83A3A3A3A3A3A3E05418BA
:104AD300602B7508018E828F83A3A312069D750C2C
:104AE300FE750DFF780C12082D7900AC0AAD0BAAE8
:104AF3000EAB0F120DEB7404120840803E90053884
:104B0300E0650E7004A3E0650F701490245FE493D6
:104B1300FCA909AA0AAB0B120CF5750801801CA9A4
:104B23000CAC0AAD0BAA0EAB0F120D25E9700C7578
:104B33000801A909AA0AAB0B120D7FA9080248159F
:104B4300E50C2415F582E50D125DE112583E227441
:104B5300EA12037774F01208D48A0C8B0D8C088D3B
:104B6300097426120A96E0F514A3E0F515751206EA
:104B73009005C512509C6023900545124B4EAA0820
:104B8300AB091210F78A108B11EA4511600D8A8266
:104B93008B83A3E070057900024E8BE50C241DF591
:104BA3000EE50D3400F50F850E82125088F513883B
:104BB300828983A3A3A3E0FA88828983A3A3A3A3FF
:104BC300E0F9EA2400FEE439FFAA08AB09120D85D7
:104BD300850E82850F83124EC6E029F50BE50AA2E6
:104BE300E5500375120E7487550A70177418550A29
:104BF3006418600FE50C2417F582E50D1264A065B7
:104C03001260077901121D45808C530A78C3EE9414
:104C1300F8EF94FF501D7900EEFAEFFB124E95600A
:104C23001288828983A3A3A3A3A3A3E054186003D8
:104C3300024B99780812082D7D00124EB9120840D4
:104C4300E9F87403687003024B99E86003024D04AA
:104C53007418550A7003024DB9E50AD2E0F50AA2A9
:104C6300E45004D2E1F50AA90A12550F124E9560D9
:104C73005388828983A3A3A3A3A3A3E05418604406
:104C830088828983A3A3A3A3A3E064017036E510FC
:104C930045116030900545124B4E88828983124E30
:104CA300A38A0E8B0FA80EA90FE849601788828983
:104CB30083A3E0600F851082851183A3125FEF50F9
:104CC30003024B99E50AF50E780E120831124EAC29
:104CD300120840E9702B7C007D00851482851583C2
:104CE30074FFF0A3F0850C82850D83A3A3A3A3A374
:104CF300A3A3A3E06003124B43A90B12550F121792
:104D030081851482851583E0F47003A3E0F4603990
:104D1300900584E064027003024B99125248E0FA52
:104D2300A3E0124307121F6CEA65087003EB6509E1
:104D33006003024B99EEFAEF124307121F6C8514BE
:104D430082851583EAF0A3EBF0780812082D7D0124
:104D5300124EB9120840A90AEEFAEFFB120DD98AD6
:104D6300088B09A808A909900538E0687003A3E037
:104D7300696003024E7CEEFAEFFB120BA58A088BE7
:104D830009A808A909E849606E88828983A3A3A3B7
:104D9300A3E06401600D88828983A3A3A3A3E064D5
:104DA300027054851882851983AC82AD83EEFAEFC5
:104DB300FB120B3F8055900531E0600FE50AF50EBD
:104DC300780E120831124EAC120840E50AF50E783F
:104DD3000E12083179027CFE7DFFEEFAEFFB1250D2
:104DE30078120840E96003024D0485148285158317
:104DF30074FFF0A3024D4B120F6BEAFCEBFD851819
:104E030082851983AA82AB83121D5D850C82850D71
:104E130083A3A3A3A3A3A3A3A3E06401700F124BD3
:104E2300437408120A96AA82AB83121D5D12505274
:104E3300125C664430F50878081208317401120ACE
:104E430096858208858309780812082D740B120A47
:104E530096858208858309780812082DE513F508DD
:104E630078081208317900EEFCEFFD12550F120D90
:104E73001F7406120840024B99125052125DD01251
:104E83004EC6E50BF0120F8374101208407F0E021A
:104E930005D7120DCD8A0E8B0FA80EA90FE8492254
:104EA300A3A31259BD1210F7227901AC08AD091260
:104EB30059B212507822AC0BA9131259B2120D8BAE
:104EC300740222125C6EA3A3A3A32274F0120377CD
:104ED30074F01208D48A0C8B0DECFAEDFB750F08F5
:104EE3009005C512509C6014125FE88A828B83E59B
:104EF3008245836007A3E0700302504D1250523481
:104F030000125088F50B8882898312505BE0FBEC1A
:104F13002400FEE43BFF88828983A3A312505BA392
:104F2300A3E0FBECF508E43BF50988828983A3A39E
:104F3300A3A3A3A3A3E0F50EE50AA2E45003750F10
:104F430010A2E550067408250FF50F748F550A70EB
:104F53000FE50C2417F582E50D1264A0650F6008B8
:104F63007901121D4502504D530A707800E50AA2DB
:104F7300E450221250521264A02408FCA3E034002F
:104F8300FD7408120A96AA82AB83121D5D7808E5A8
:104F93000AC2E4F50AE50AA2E55028125052126447
:104FA300A028F8A3E03400F9E82408FCE93400FD64
:104FB300851882851983AA82AB83121D5DE50AC217
:104FC300E5F50AAC0EA90BEEFAEFFB120D91E9F829
:104FD3007403686075900538E06E7003A3E06F603A
:104FE3005EE87054E50AF50F780F12083112506924
:104FF300120840E97054780A1208317401120A96B3
:1050030085820C85830D780C12082D740B120A9679
:1050130085820C85830D780C12082DE50BF50A7833
:105023000A120831A90EAC08AD09EEFAEFFB120D16
:105033001F74061208408012740468700D80B778DC
:105043000A1208311250691208407410024812E51E
:105053000C241DF582E50D22A3A3A3E0FC8882891D
:1050630083A3A3A3A322790112524F125DE112502D
:105073007E12507822120D49740122E0FCA3E0FD58
:10508300AA08AB0922F58312448EA3E0F50A8882AD
:105093008983A3A3E022900509125A192274E81206
:1050A300037774F51208D4EAFEEBFF8C088D0989A7
:1050B300147423120A96E0F50F7424120A96E0F58D
:1050C30012A3E0F5137426120A96E0F516A3E0F591
:1050D300177428120A96E0F50EA90F120D978A107D
:1050E3008B117401120A967408F0E50EA2E45003C2
:1050F3007410F0E50EA2E55004E02408F085188250
:10510300851983AA82AB83120FF58A0C8B0DEA45AE
:105113000D700302522FEA2417F582EB125241124B
:105123000F6BE50C241AF582E50D125DD0123D8458
:105133007403120A96AC82AD83AA10AB11120B3F13
:10514300E9601D1252397403120A96A882A983E5F5
:105153000C2418F582E50D125DD0E8F0A3E9802454
:10516300E50EA2E4501FE5106E7003E5116F701594
:10517300125239E50C2418F582E50D125DD0E512C3
:10518300F0A3E513F0125248125257850A82F583B1
:105193007402F0A3E50E12525FE50FF0EE850A826A
:1051A300850B83A3A3A3F0EF850A82850B83A3A3B7
:1051B300A3A312525FA3A3A3E508F0E509850A821E
:1051C300850B83A3A3A3A3A3A3F0AA10AB11120D72
:1051D30085E92514850A82850B83A3A3A3A3A3A32F
:1051E300A3F0750800E50EA2E45011AC12AD13E56F
:1051F3000A2408FAE50B1247CB750808E50EA2E569
:105203005014AC16AD17E50A2508F8E50B3400F980
:10521300E824081247C9850C82850D83A3A3E510F2
:10522300F0A3E511F0AA0CAB0D120BFF740B1208DF
:10523300407F100205D7E50C2416F582E50D125DBB
:10524300E17401F02212524F125DE122E50C126D5E
:10525300E7E50D22E0F50AA3E0F50B22F0850A82CB
:10526300850B83A3A32274F21203778A088B09ECBC
:10527300FEEDFF890A79001252FD7003A3E0697005
:105283000479018073750B01900538E0650870049B
:10529300A3E06509601F750B00780B120831A90A9A
:1052A300EEFCEFFDAA08AB09121049740112084085
:1052B300E9F50B80417900EEFAEFFB120DCDEA4BD5
:1052C300602B8A828B83A3A3A3A3A3A3E0541860B8
:1052D3001C7508FE7509FF780812082D8A828B83D6
:1052E300A3A312069D126BFC12084080097901EEFC
:1052F300FAEFFB120CA7A90B8014120DD98A0C8BA1
:105303000DA80CA90D900538E068221208407F060D
:105313000205D774F41203777508A175090F7A1083
:105323001269048B0BEA450B700312462590052383
:10533300E014F0700C902452E493900523F0120DC6
:10534300E57E007F00806C850882850983A3A3A383
:10535300A3E06059F46056E5082404F582E50912D8
:1053630062CC7049850882850983A3A3A3A3A3E024
:10537300640370197902850882850983124B4E856F
:105383000882850983A3A3125516120D2585088269
:10539300850983A3A3A3A3A3E06401601085088206
:1053A30085098374FEF0A304125470E4F0123609E5
:1053B3001231CC90244B126A60408C7E007F0080B7
:1053C30039120F118E088F09740378081209767445
:1053D300192508FC74113509FD7A317B0D120EFF76
:1053E300EA4B70DD8E088F09740378081209761270
:1053F300543E126CA7E4F0123609902453E493F858
:10540300C3EE98EF9400501B8E088F09740378083D
:10541300120976125446E82407F582E91262CC7029
:10542300D680A17E007F00800A125451600214F0DE
:10543300123609126A5D40F1023FC912544688824E
:1054430089832274192508F874113509F922EEF8B5
:10545300EFF9E875F006A4F8AAF075F006E9A42AB6
:10546300F974B928F582741039F583E02212547760
:10547300A3A3A322F0850882850983A3A32274F73B
:1054830012037774E11208D4ECFEEDFF750800EE09
:105493004F60728A828B83E0241C1262FD12509C3F
:1054A30060638A828B83125516851882851983ACB3
:1054B30082AD83EA241BF582EB1261CEEA241CF54C
:1054C30082EB125512120F53740B120A9612551ACD
:1054D3007003A3E069702E7402120A96E0640170EF
:1054E30024741D120A9612430BE064017017741D95
:1054F300120A9612430DA3A3E0F88E828F83E0680D
:105503007003750801A908741F023D7112524F34CC
:1055130000F5831259BD22122B21E0682274F41284
:105523000377E97024790090051D12430B121F6C59
:105533008A0A8B0BAE0AAF0B74FE6E700374FF6F97
:10554300701A90245AE4936013790190051D124355
:105553000B121F6C8A0A8B0BAE0AAF0B120FB90228
:105563003782E028F8A3E039F92274F6120377743E
:10557300F31208D41215598A088B09AE08AF0990A3
:105583000538E06E7003A3E06F60E9120F77EA6EEF
:105593007002EB6F60DEEEFAEFFB12100DE970D4D0
:1055A300EE4F60D0851882851983E4F004120A96C1
:1055B300EEF0A3EF1255D0E970BA74FE6E70037467
:1055C300FF6F60B0EEFAEFFB740D023E25123EAAA8
:1055D300120B5722C082C083120FB9023A2D7F0AE1
:1055E3000205D774F2120377EAFEEBFF8C0A8D0BE8
:1055F3008908740E120A96E0F50974FC6E70037440
:10560300FF6F700579000253117900120DD98A0CCE
:105613008B0DAE0CAF0D900538E06E7003A3E06FF9
:105623007006E509A2E650DCA909126AEA706179FD
:10563300007AFE7BFF126AEA7056741855097003EC
:1056430002571D780079008003122D1B90244B1202
:105653002D12400302571DE8FAE9FBEA75F007A48F
:10566300FAACF075F007EBA42CFB74A72AF582744F
:105673000F3BF583E0541870D0E875F007A4F8AA3F
:10568300F075F007E9A42AF974A128F8740F39F921
:1056930088828983A3A3A3A3A3A3E05418600974F6
:1056A300185509700302560788828983EEF0A3EF29
:1056B300F074FE650A700474FF650B6003125844AE
:1056C30088828983A3A3A3A3A3A3E509F0A2E0503F
:1056D3000D88828983A3A3A3A3A3A3D2E2F07401B9
:1056E300650888828983A3A3A3A3A37038740112D6
:1056F3005868E05418602890245EE4938882898374
:10570300A3A3A3A31258321210F78B0DEA450D6021
:10571300030256077800790080397902025609900E
:105723000537E080D7E06401700302560788828959
:1057330083A3A3A3A3A3A3E05418600790245EE468
:10574300938004900536E01247D2E508F00256072D
:10575300122D1B902454E493FAC3E89AE994004071
:10576300030256077A007B00804BEAFCEBFDEC75E5
:10577300F007A4FCAEF075F007EDA42EFD74A32C86
:10578300F582740F3DF583125DE9E8FCE9FDEC75E4
:10579300F017A4FC85F00975F017EDA42509FD7435
:1057A300312CF582740E3DF583E06E7003A3E06F38
:1057B300609E1234DE90244B1231DC40AD12485C03
:1057C300EC6A7002ED6B7088E875F017A4F8AAF024
:1057D30075F017E9A42AF9743128FE740E39FF7C99
:1057E300177D007900EEFAEFFB12154D8E828F8341
:1057F30012584A900545125824A3A3A3A3A3A3E8D0
:10580300F0A3E912582A7401F0EE240E125DCD7450
:1058130001125852120226EE240D125DCDE80257F2
:105823004F123BFCA3A322F0EE240F125DDE22F005
:1058330012583BAA0AAB0B22900545E0FCA3E0FDFE
:105843002288828983A3A3E50AF0A3E50BF022F063
:1058530012585722902457E4932401F8E43400F9B2
:105863007A027B00221247DEA32274ED1203778AA9
:10587300088B09890E12599B400579050259691253
:1058830017D5AA08AB09125A6D90244712596C65B3
:105893000A7003E9650B70077AFE7BFF125A6D905D
:1058A3002447E4125974E50A98E50B994003025919
:1058B300671259786012E50A75F006A4F875F006C8
:1058C300E50B1259C31215DDE50E6018E50A75F0F4
:1058D30006A4F8AAF075F006E50B1259EF701A79D1
:1058E30001025969E50A75F006A4F8AAF075F006F5
:1058F300E50B1259D0E4F0A3F0E50A75F006A4F81D
:10590300AAF075F006E50B125990A3125C7C88820D
:105913008983A3AA82AB831259DE8A828B83E060D8
:105923003F125978603A8E108F1175120078101259
:105933000829E50EC333FCE433FDE50A75F006A43C
:10594300F50AA8F075F006E50BA428F50B74BD2540
:105953000AF5827410350B1255141233C412084021
:10596300790080027907026B00122E74E8229004FA
:10597300F212648722E50A75F006A4F8AAF075F01E
:1059830006E50B1259CBF8A3E0F9E84922A42A1241
:105993005B2488828983A322ECFEEDFF902455E4E7
:1059A30093F8E9C39822F5831259BD1215DD22E558
:1059B3000C126DE7E50D3400F583E0FAA3E0FB225A
:1059C3001259CBFAA3E0FB221259D0E022A42AF900
:1059D30074BD28F582741039F58322E50EF0901218
:1059E3007B1259E822E088828983F022125B48F512
:1059F3000CE93400F50DE50EC333FAE433FB12155D
:105A0300D7850C82850D83EAF0A3EBF0850C8285A4
:105A13000D83125A192212480AE8492274F4120318
:105A230077ECFEEDFF740C120A96123E118808897A
:105A330009125A6DAC0AAD0BECF8EDF9902447123C
:105A43005A755021E875F006A4F8AAF075F006E936
:105A5300125990E08E828F83125A88125A7E123E18
:105A63001D790080027904023FC9120D5B8A0A8BFB
:105A73000B221233B6C3EC9AED9B2212480685081B
:105A83008285098322125B5D2274F61203777E00FE
:105A93007F008028EEF8EFF9E875F006A4F8ACF083
:105AA30075F006E9A42CF974BB28F582741012670B
:105AB3000B6A7003A3E06B6057123609126A5D40EC
:105AC300D3126A587002E96F704674FE6A700374E9
:105AD300FF6B703C7E007F008003123609126A5D03
:105AE300502E12545170F3EEF8EFF9E875F006A456
:105AF300F8125B1A125B4F6017125B36F8E9125B00
:105B03002E88821259A9850882850983E4F0A3F0BF
:105B1300EEFAEFFB023E2875F006E9125B2222A49F
:105B23002AF974B928F8741039F9223400F988086D
:105B3300890922EEF8EFF9E875F006A4F875F00686
